:020000040800F2
:10000000A80700248103000881350008052A00089C
:100010008D030008BD080008C54C00080000000062
:10002000000000000000000000000000C5380008CB
:10003000F50C00080000000083350008CD3A0008E8
:100040009B0300089B0300089B0300089B03000818
:100050009B0300089B0300089B0300089B03000808
:100060009B0300089B0300089B0300089B030008F8
:100070009B0300089B0300089B0300089B030008E8
:100080009B0300089B0300089B0300089B030008D8
:100090009B0300089B0300089B0300089B030008C8
:1000A0009B0300089B0300089B0300089B030008B8
:1000B0009B0300089B0300089B0300089B030008A8
:1000C0009B0300089B0300089B0300089B03000898
:1000D0009B0300089B0300089B0300089B03000888
:1000E0009B0300089B030008000000009B0300081E
:1000F0009B0300089B0300089B0300089B03000868
:100100009B0300089B0300089B0300089B03000857
:100110009B0300089B0300089B0300089B03000847
:100120009B0300089B0300089B0300089B03000837
:100130009B0300089B0300089B0300089B03000827
:1001400000000000000000000000000000000000AF
:100150009B0300089B0300089B0300089B03000807
:100160009B0300089B0300089B0300089B030008F7
:100170009B0300089B0300089B030008000000008D
:100180009B0300089B0300089B0300089B030008D7
:100190009B0300089B0300089B0300089B030008C7
:1001A0009B0300089B0300089B0300089B030008B7
:1001B0009B0300089B0300089B0300089B030008A7
:1001C0009B0300089B0300089B0300089B03000897
:1001D0009B0300089B0300089B0300089B03000887
:1001E0009B0300089B0300089B0300089B03000877
:1001F0009B0300089B0300089B0300089B03000867
:100200009B0300089B0300089B0300089B03000856
:100210009B0300089B0300089B0300089B03000846
:100220009B0300089B0300089B03000800000000DC
:100230009B0300089B030008000000009B030008CC
:100240009B0300089B0300089B0300089B03000816
:100250009B0300089B0300089B0300089B03000806
:100260009B0300089B0300089B0300089B030008F6
:100270009B0300089B0300089B030008000000008C
:100280009B030008000000009B0300080000000022
:10029000000000009B03000800F002F800F046F8A0
:1002A0000AA090E8000C82448344AAF10107DA45D1
:1002B00001D100F03BF8AFF2090EBAE80F0013F0DD
:1002C000010F18BFFB1A43F0010318476C730000BD
:1002D0008C730000103A24BF78C878C1FAD852074E
:1002E00024BF30C830C144BF04680C6070470000B0
:1002F0000023002400250026103A28BF78C1FBD82F
:10030000520728BF30C148BF0B607047782900F002
:10031000BB80732900F09382002070471FB504F062
:1003200064FE00F08EF91FBD10B510BD00F08BFA11
:100330001146FFF7F3FF04F0B8FD00F0A9FA03B48B
:10034000FFF7F2FF03BC00F0B3FA00000B49D1F84D
:1003500000C04A685CF8043B1068184442F8040B7B
:100360008C4528BFA1F1DC0C8A4228BFA1F1DC0238
:10037000C1F800C04A6020F0004070473C010024F2
:100380000948804709480047FEE7FEE7FEE7FEE729
:10039000FEE7FEE7FEE7FEE7FEE7FEE70448054965
:1003A000054A064B70470000D53A0008990200083C
:1003B000A8010024A8070024A8030024A8030024FF
:1003C0000FB41CB5074B06AA7B44694600900598FC
:1003D00000F00BFA0020694600F01AFA1CBC5DF828
:1003E00014FB00004504000070B5044685690068F0
:1003F000C10601D5302600E02026C00707D070BD19
:10040000D4E9012130469047206A401C20626D1ECD
:10041000F6D570BD70B5044685690078C00707D170
:1004200070BDD4E9012120209047206A401C206241
:100430006D1EF6D570BD70B50C460546012A05D077
:100440002878800600D5EA69002302E0012305E050
:100450005B1C934202D2E05C0028F9D1A869E6183F
:10046000C01AA861286A184428622846FFF7BCFF12
:1004700004E0D5E9012114F8010B9047B442F8D308
:100480002846FFF7C7FF70BD70B504460D462146EC
:100490001068AFF300802188090502D50F4A7A441D
:1004A00002E00E4A7A440E32002104F1240305E0F2
:1004B00000F00F060009965D5E54491C0028F7D134
:1004C00020780023000704D5702D02D009B1022343
:1004D00011322046BDE8704000F029B922710000B9
:1004E0002DE9F05F894604464FF0000ADFF824B199
:1004F000FB44C0F820A02046E168884700287DD052
:10050000252806D0D4E901219047206A401C2062AA
:10051000F1E700255F462046E16888472028064627
:1005200007DB312E05D2B81910F8200C08B10543AD
:10053000F1E7A80701D525F00405C4F81CA00027A1
:10054000C4F818A02A2E09D0304604F01BFC38B39A
:1005500004EB8708303EC8F8186019E059F8041B0E
:10056000204604EB87029161E1688847012F064627
:1005700018D1E069002820DA25F020051DE0D8F820
:10058000180000EB800006EB40003038C8F8180077
:100590002046E1688847064604F0F4FB0028EED1C7
:1005A000012F0AD02E2E08D12046E16888477F1CF3
:1005B0000646022F45F02005C4DBA069002803DAB7
:1005C000404245F00105A061E80701D025F0100583
:1005D000A6B1A6F14100192802D8203645F40065DD
:1005E0004A463146204625604D46FFF78FFE60B1F2
:1005F000012807D0ED1D25F0070000E007E000F11D
:10060000080978E705F1040975E730467AE7206ABA
:10061000BDE8F09FF87000000B4910B5A1F17C0215
:100620000A4CC2E93712372106E000EB104342F8CA
:100630002130074B00FB03400B1EA1F10101F4DC4C
:1006400010BD0120E8E70000DC000024E119D666B7
:10065000CD0D010040EA0103024630B59B0710D1E1
:100660004FF0013400E008C208C91D1B9D4315EA84
:10067000C41FF8D013F0FF0102F8011B0DD01B0AB4
:10068000F8E711F8013B002B02F8013B05D011F807
:10069000013B002B02F8013BF3D130BD10B5431CE8
:1006A00002E010F8011B71B18107FAD14FF001325D
:1006B00002C88C1A8C4314EAC211F9D0C01A0A0677
:1006C00003D0C01E10BDC01A10BD0A0401D0801E88
:1006D00010BD0902FCD0401E10BD4FF0000200B555
:1006E000134694469646203922BFA0E80C50A0E855
:1006F0000C50B1F12001BFF4F7AF090728BFA0E803
:100700000C5048BF0CC05DF804EB890028BF40F8CE
:10071000042B08BF704748BF20F8022B11F0804F10
:1007200018BF00F8012B70477047704770472DE9DC
:10073000F0470D4699469246044600F124080168A8
:10074000880604D5E06921F01001216000E0012055
:10075000A84201DD471B00E00027A1697A1902EBDE
:100760000900081AA0612078C00602D42046FFF7CD
:100770003BFE002608E0D4E901211AF80600904764
:10078000206A401C761C20624E45F4DB2078C006AF
:100790000AD52046FFF728FE06E0D4E901213020E3
:1007A0009047206A401C2062381EA7F10107F4DC44
:1007B00007E0D4E9012118F805009047206A401CA1
:1007C0002062281EA5F10105F3DC2046FFF722FE7A
:1007D0002078000602D50220BDE8F0870120FBE763
:1007E00001694A1C02610878704700B58FB0CDE9F5
:1007F00001310021059105497944CDE903101146E5
:100800006846FFF76DFE0FB000BD0000E5FFFFFF7B
:100810000A6802F8010B0A60704710B5436913B10A
:10082000AFF3008001E0FFF706FE012010BD127853
:1008300000F124010A7000224A700122EDE71168DC
:100840004FF0FF32E9E7754600F02CF8AE460500A0
:100850006946534620F00700854618B020B5FFF7DB
:100860009DFDBDE820404FF000064FF000074FF01F
:1008700000084FF0000B21F00701AC46ACE8C009BE
:10088000ACE8C009ACE8C009ACE8C0098D467047C7
:1008900010B50446AFF300802046BDE81040FFF7D6
:1008A0004EBD00000048704744010024704700001E
:1008B00001491820ABBEFEE72600020000BFFEE79C
:1008C00010B5012004F080FA10BD000010B5002220
:1008D0004021114801F01EFA1048006820F0C000C5
:1008E0000E4908600846006840F040000860002299
:1008F00008210A4801F00EFAFFF7E2FF0122402129
:10090000054801F007FAFFF7DBFF0022402102480B
:1009100001F000FA10BD0000001C0258002002582F
:1009200000B587B000BF1B48006840F0800019493F
:1009300008600846006800F08000019000BF00BF1A
:1009400000BF0846006840F48070086008460068F0
:1009500000F48070019000BF00BF40200290012091
:10096000039004900320059002A90B4801F0A4F81D
:100970000820029002A9094801F09EF801224021B6
:10098000054801F0C7F901220821044801F0C2F925
:1009900007B000BDE0440258001C02580020025875
:1009A00010B500224021114801F0B4F91048006848
:1009B00020F0C0000E4908600846006840F0400082
:1009C0000860012208210A4801F0A4F9FFF778FF26
:1009D00001224021054801F09DF9FFF771FF002237
:1009E0004021024801F096F910BD0000001C025899
:1009F0000020025870B5054600241648006820F013
:100A0000C00014490860084600680860002617E026
:100A100000224021104801F07DF9032004F0D4F9B0
:100A2000012240210C4801F075F96006040E0821EE
:100A3000084801F067F908B1601CC4B2701CC6B266
:100A4000082EE5DB15B9FFF7ABFF01E0FFF73EFF2E
:100A5000204670BD00200258001C025870B50446A4
:100A60001948006820F0C00017490860084600686F
:100A700040F04000086000224021144801F04AF98B
:100A800000251EE0E00928B1012208210E4801F0EE
:100A900041F904E0002208210B4801F03BF960060F
:100AA000040E01224021094801F034F9FFF708FF44
:100AB00000224021054801F02DF9FFF701FF681CD5
:100AC000C5B2082DDEDB70BD00200258001C0258A4
:100AD00010B51248006820F0C000104908600846B0
:100AE000006840F040000860012208210B4801F036
:100AF00011F9012240210A4801F00CF9FFF7E0FE4C
:100B000000220821054801F005F9FFF7D9FE00226F
:100B10004021034801F0FEF810BD000000200258FB
:100B2000001C025810B51248006820F0C00010499F
:100B300008600846006840F040000860002240213C
:100B40000C4801F0E7F800220821094801F0E2F81A
:100B5000FFF7B6FE01224021064801F0DBF8FFF75F
:100B6000AFFE01220821024801F0D4F810BD0000B8
:100B700000200258001C025810B5002417480068D5
:100B800020F0C0001549086008460068086001228E
:100B90000821124801F0BEF8012004F015F90122E5
:100BA00040210F4801F0B6F8012004F00DF907E0EC
:100BB000601CC4B2FA2C03DDFFF7B4FF012010BDA6
:100BC0000821064801F09EF80028F1D100224021BA
:100BD000034801F09FF80020F1E7000000200258D0
:100BE000001C025810B502F0ADFD02F05DFD034897
:100BF000006840F004000149086010BD9CEF00E06F
:100C00000EB51EA000F078F80020102120A24FF6AB
:100C1000E073CDE9002102901F221E210A2002F07C
:100C200053FE0020102123A24FF6E073CDE90021EE
:100C300002901F2232210A2002F046FE01201821D4
:100C400022A24FF6E073CDE9002102901F22462137
:100C50000A2002F039FE0120202122A24FF6E07383
:100C6000CDE9002102901F2264210A2002F02CFE0F
:100C70004FF4966004F09CF80EBD0000B2E2CAD4B6
:100C8000373AD6D0CEC4CFD4CABEB2E2CAD400005E
:100C900031365831363AC8ABB6AFB5E7D7D3BCBC5E
:100CA000CAF5D3D0CFDEB9ABCBBEBBB6D3ADC4FA99
:100CB0000000000031365831363A57656C636F6D6D
:100CC00065C8ABB6AFB5E7D7D300000032345832B1
:100CD000343AC9EEDBDACAD0D6D0CEC4B2E2CAD436
:100CE0000000000033325833323AD7D6CCE5B2E2B6
:100CF000CAD40000704700003EB504464FF6FF70AE
:100D000001F082FE1F200090194802881423002160
:100D1000084601F0E9FF1F2000901548438802882B
:100D20004088143881B2002001F0DEFF4FF6FF70DA
:100D300010490880012010211F234FF6FF72CDE9D2
:100D4000004102900221002000F08CFE01201021C1
:100D500009A2CDE90021029005484088123881B2ED
:100D60001F234FF6FF72002000F07CFE3EBD000006
:100D70005000002432000024687474703A2F2F77DA
:100D800077772E6C636477696B692E636F6D0000F3
:100D90002DE9F84F06460F4691469846C9F10100E5
:100DA0000FFA80FA4FF0010B4FEA4900404200B2BF
:100DB000009000244D4652E0BAF1000F09DB681E96
:100DC00085B20098801C00B20090009850440FFA41
:100DD00080FA601C84B20BF102000FFA80FB0AEB70
:100DE0000B000FFA80FA08F0040058B17A1991B29A
:100DF000321990B201F0FCFE3A1991B2721990B218
:100E000001F0F6FE08F0020058B17A1B91B23219D7
:100E100090B201F0EDFE3A1B91B2721990B201F05E
:100E2000E7FE08F0080058B13A1991B2721B90B26F
:100E300001F0DEFE7A1991B2321B90B201F0D8FEB9
:100E400008F0010058B13A1B91B2721B90B201F048
:100E5000CFFE7A1B91B2321B90B201F0C9FEAC42B8
:100E6000AADBBDE8F88F2DE9F04704460D4616468B
:100E70001F46DDE908893B4632462946204601F0F7
:100E800009FE4B4642463946304601F003FE2B46EA
:100E900022464946404601F0FDFDBDE8F0870000CE
:100EA0000EB52BA0FFF728FF00200C212DA24FF636
:100EB000E073CDE9002102901F221E210A2002F0DA
:100EC00003FD01200C2132A24FF6E073CDE9002191
:100ED00002901F222D210A2002F0F6FC00200C2196
:100EE00036A24FF6E073CDE9002102901F223C218B
:100EF0000A2002F0E9FC0020102138A24FF6E0732E
:100F0000CDE9002102901F2250210A2002F0DCFCD2
:100F1000012010213CA24FF6E073CDE900210290A0
:100F20001F2264210A2002F0CFFC0020102141A2E0
:100F30004FF6E073CDE9002102901F2278210A20AC
:100F400002F0C2FC4FF4966003F032FF0EBD0000C9
:100F5000B2E2CAD4363AD3A2CEC4CFD4CABEB2E229
:100F6000CAD40000365831323A61626364656667FC
:100F700068696A6B6C6D6E6F707172737475767779
:100F800078797A30313233343536373839000000E9
:100F9000365831323A4142434445464748494A4B24
:100FA0004C4D4E4F505152535455565758595A3034
:100FB0003132333435363738390000003658313263
:100FC0003A7E21402324255E262A28295F2B7B7D1B
:100FD0003A3C3E3F2F7C2D2B2E00000038583136F6
:100FE0003A6162636465666768696A6B6C6D6E6FAF
:100FF000707172737475767778797A3031323334F0
:101000003536373839000000385831363A414243D6
:101010004445464748494A4B4C4D4E4F5051525318
:101020005455565758595A3031323334353637388B
:1010300039000000385831363A7E21402324255E9D
:10104000262A28295F2B7B7D3A3C3E3F2F7C2D2B87
:101050002E00000000B587B000BF3A48006840F09D
:101060008000384908600846006800F08000009061
:1010700000BF00BF00BF0846006840F480700860F1
:101080000846006800F48070009000BF00BF802018
:10109000019000200290012003900320049001A9F8
:1010A000294800F009FD4FF4807001900120029062
:1010B00001A9264800F000FDFFF732FC00224FF4A2
:1010C0008071224800F026FE0A2003F071FE012202
:1010D00011021E4800F01EFE4FF4FA7003F068FE85
:1010E000012206A9A82000F033F89DF81800112865
:1010F00002D0012007B000BD022206A99F2000F007
:1011000027F89DF81800262801D00120F2E79DF865
:10111000190048B19DF81900012805D09DF8190063
:10112000022801D00120E5E7012206A9A32000F052
:101130000FF89DF81800642801D00120DAE700209C
:10114000D8E70000E0440258001C02580020025872
:101150002DE9F04106460F461546FFF7B9FC702011
:10116000FFF77CFCFFF708FDF0B2FFF777FCFFF715
:1011700003FDFFF7ADFC7120FFF770FCFFF7FCFCEF
:1011800000240BE0691EA14201D0012100E00021F2
:101190000846FFF72FFC3855601CC4B2AC42F1DBA7
:1011A000FFF7C0FCBDE8F0817CB50024002677483D
:1011B0000078401C75490870084600780A2190FBA9
:1011C000F1F201FB120018B1704800780A287CDAAD
:1011D000012269460220FFF7BBFF9DF800000028AE
:1011E00073D09DF800000328F1DA9DF80010FF206D
:1011F0008840C5B2E843C0B240F0C00064490874FA
:10120000002492E0634931F81400042201A9FFF799
:101210009FFF5F48007C0121A140084000287DD04D
:101220005D48807930B101281DD0022838D00328CC
:1012300078D158E09DF805009DF8041001F00F01E9
:1012400000EB01205249083121F814009DF80700F5
:101250009DF8061001F00F0100EB01214C480C3005
:1012600020F814105EE09DF805009DF8041001F0D0
:101270000F0100EB012048494988081A81B244480F
:101280000C3020F814109DF807009DF8061001F0AE
:101290000F0100EB01203E49083121F8140041E024
:1012A0009DF805009DF8041001F00F0100EB0120EE
:1012B00039490988081A81B23548083020F81410D5
:1012C0009DF807009DF8061000E03DE001F00F01D9
:1012D00000EB012030494988081A81B22C480C30B3
:1012E00020F814101EE09DF805009DF8041001F090
:1012F0000F0100EB012026490C3121F814009DF864
:1013000007009DF8061001F00F0100EB01202249B3
:101310000988081A81B21E48083000E003E020F86E
:10132000141000BF00BF601CC4B2022CFFF66AAFED
:1013300001261748008920B91548808908B900207E
:1013400000900020114908709DF80000A8B91048CD
:10135000007C00F0800030B10D48007C20F080005F
:101360000B49087409E04FF6FF700949088188812C
:101370000846007C00F0E000087404480078F0287B
:1013800002DD0A200149087030467CBD4C00002473
:1013900038000024C0750008500000242DE9FC5FCF
:1013A00006460F4690469A46DDF83090C8F1010097
:1013B0000FFA80FB012001904FEA4800404200B242
:1013C00000900024454670E0BBF1000F09DB681E69
:1013D00085B20098801C00B20090009858440FFA23
:1013E00080FB601C84B20198801C00B201900198BF
:1013F00058440FFA80FB0AF0010048B307EB050CD4
:101400000CF1010CCC441FFA8CF306EB040C1FFA10
:101410008CF2A7EB050C1FFA8CF106EB040C1FFAFB
:101420008CF001F037FB07EB040C0CF1010CCC4401
:101430001FFA8CF306EB050C1FFA8CF2A7EB040CD9
:101440001FFA8CF106EB050C1FFA8CF001F022FB61
:101450000AF0020048B307EB050C0CF1010CCC4478
:101460001FFA8CF3A6EB040C1FFA8CF2A7EB050C09
:101470001FFA8CF1A6EB040C1FFA8CF001F00AFBAA
:1014800007EB040C0CF1010CCC441FFA8CF3A6EB17
:10149000050C1FFA8CF2A7EB040C1FFA8CF1A6EBDB
:1014A000050C1FFA8CF001F0F5FAAC428CDBBDE8BC
:1014B000FC9F00002DE9FF4F85B000260027BDF8F6
:1014C0001800BDF82010884207DD08A906A803F01F
:1014D00060FC07A905A803F05CFCBDF82000BDF87E
:1014E0004C10884207DD08A913A803F052FC07A995
:1014F00012A803F04EFCBDF81800BDF82010884279
:1015000007DD08A906A803F044FC07A905A803F015
:1015100040FCBDF81800BDF84C10884238D1BDF829
:10152000140003900490BDF81C00BDF81010884210
:1015300003DABDF81C00049008E0BDF81C00BDF8FB
:101540000C10884202DDBDF81C000390BDF8480075
:10155000BDF81010884203DABDF84800049008E096
:10156000BDF84800BDF80C10884202DDBDF8480007
:101570000390534800880090BDF81830BDF80C2047
:101580001946BDF8100001F0AFFB09B0BDE8F08FBF
:10159000BDF81C00BDF81410A0EB010BBDF8200035
:1015A000BDF81810401A0290BDF84800BDF814109C
:1015B000451ABDF84C00BDF81810A0EB0109BDF8A4
:1015C0004800BDF81C10A0EB010ABDF84C00BDF8A6
:1015D0002010401A0190BDF82000BDF84C10884240
:1015E00002D1BDF8208004E0BDF82000401E1FFAA3
:1015F00080F8BDF8184027E0029896FBF0F0BDF89F
:101600001410084480B2049097FBF9F0BDF8141050
:10161000084480B203905E442F44BDF81000BDF82A
:101620000C10884203DD03A904A803F0B2FB244890
:10163000008823460090BDF80C202146BDF810001C
:1016400001F052FB601C84B24445D5DDBDF820009A
:10165000201A00FB0AF6BDF81800201A00FB05F757
:1016600027E0019896FBF0F0BDF81C10084480B20A
:10167000049097FBF9F0BDF81410084480B2039071
:1016800056442F44BDF81000BDF80C10884203DD0D
:1016900003A904A803F07DFB0948008823460090B5
:1016A000BDF80C202146BDF8100001F01DFB601CA8
:1016B00084B2BDF84C008442D3DD00BF65E7000072
:1016C000320000242DE9FC5F0546884691469A4683
:1016D000DDF830B000954B20019000245FE004EB72
:1016E0000410374911F810009BF80010884253D1BC
:1016F00004EB0410324901EB400040789BF80110E4
:10170000884249D108F10F0083B205F10F0082B27F
:101710004146284601F01AFD00263BE0002734E050
:101720000D9890B904EB0410254901EB4000801C92
:10173000805D80213941084018B1484601F008FF1A
:1017400021E0504601F004FF1DE01E48A0F8009083
:1017500004EB04101A4901EB4000801C805D8021DD
:101760003941084018B14146284601F041FA681C49
:1017700085B20098281A102805D1009D08F10100B3
:101780001FFA80F803E0781CC7B2082FC8DB00BF3F
:10179000701CC6B2202EC1DB00BF601C84B2019851
:1017A00084429CDB08484088401E83B2064800887B
:1017B000401E82B20021084601F0C8FCBDE8FC9F33
:1017C000885A000832000024500000242DE9FC5FF4
:1017D0000546884691469A46DDF830B000950720C8
:1017E0000190002467E004EB840000EB44103A49C8
:1017F00011F810009BF80010884259D104EB8400C6
:1018000000EB4410344901EB400040789BF8011094
:1018100088424DD108F1170083B205F1170082B25A
:101820004146284601F092FC00263FE0002738E0C0
:101830000D98A0B904EB840000EB4410264901EB9D
:101840004000801C805D80213941084018B1484625
:1018500001F07EFE23E0504601F07AFE1FE01F48B3
:10186000A0F8009004EB840000EB44101A4901EB4F
:101870004000801C805D80213941084018B14146FC
:10188000284601F0B5F9681C85B20098281A182876
:1018900005D1009D08F101001FFA80F803E0781CD3
:1018A000C7B2082FC4DB00BF701CC6B2482EBDDB18
:1018B00000BF601C84B20198844294DB08484088D1
:1018C000401E83B206480088401E82B200210846AE
:1018D00001F03CFCBDE8FC9F7E640008320000245F
:1018E000500000242DE9FC5F0546884691469A4643
:1018F000DDF830B000950420019000245FE004EB97
:101900008410374911F810009BF80010884253D119
:1019100004EB8410324901EB400040789BF8011041
:10192000884249D108F11F0083B205F11F0082B23D
:101930004146284601F00AFC00263BE0002734E03F
:101940000D9890B904EB8410254901EB4000801CF0
:10195000805D80213941084018B1484601F0F8FD0A
:1019600021E0504601F0F4FD1DE01E48A0F8009073
:1019700004EB84101A4901EB4000801C805D80213B
:101980003941084018B14146284601F031F9681C38
:1019900085B20098281A202805D1009D08F1010081
:1019A0001FFA80F803E0781CC7B2082FC8DB00BF1D
:1019B000701CC6B2802EC1DB00BF601C84B20198CF
:1019C00084429CDB08484088401E83B20648008859
:1019D000401E82B20021084601F0B8FBBDE8FC9F22
:1019E00084660008320000245000002470B50546CB
:1019F0000E4614463146284601F09EFB204601F073
:101A0000A7FD70BD2DE9F04706460F46154607F1C4
:101A1000270083B206F1270082B23946304601F032
:101A200095FB00240AE015F8149005EB440090F8AB
:101A3000018049EA082001F08BFD641CB4F5C86FF1
:101A4000F1DB07484088401E83B205480088401EED
:101A500082B20021084601F079FBBDE8F087000062
:101A6000500000242DE9FE4F0E4617469846DDE94A
:101A70000D9A0C9C2046FEF711FE85B20849098894
:101A8000A1EBC50000EBD071C1F34F0B43463A46C2
:101A9000314658468DE8100601F016FFBDE8FE8F6E
:101AA000500000240348006840F00100014908602C
:101AB0007047000020040058F8B502460B4600218C
:101AC000002600240020824D00BFFCE0012707FA19
:101AD00001F61F6807EA0604B4427CD15F68022F52
:101AE00002D05F68122F1AD14FEAD10C02F1200701
:101AF00057F82C004F074FEAD76C0F2707FA0CF75F
:101B0000B8434FEA417C4FEADC6C1F6907FA0CF7D7
:101B100038434FEAD10C02F1200747F82C00106837
:101B20004FEA410C032707FA0CF7B8431F7907F077
:101B300003074FEA410C07FA0CF7384310605F685F
:101B4000012F08D05F68022F05D05F68112F02D0E7
:101B50005F68122F17D190684FEA410C032707FAEC
:101B60000CF7B8434FEA410CDF6807FA0CF738432B
:101B70009060506801278F40B8431F79C7F3001762
:101B80008F4038435060D0684FEA410C032707FA72
:101B90000CF7B8434FEA410C9F6807FA0CF738433B
:101BA000D0605F6807F08057B7F1805F95D100BFC4
:101BB000484F3F6847F00207DFF818C1CCF80070C3
:101BC00067463F6807F00207009700BF00BF424F1B
:101BD0004FEA910C00E075E057F82C008F074FEAB0
:101BE000177C0F2707FA0CF7B8433C4FBA4201D1D4
:101BF00000272DE03A4FBA4201D1012728E0394FA2
:101C0000BA4201D1022723E0374FBA4201D103275C
:101C10001EE0364FBA4201D1042719E0344FBA42D0
:101C200001D1052714E0334FBA4201D106270FE056
:101C3000314FBA4201D107270AE0304FBA4201D1F1
:101C4000082705E02E4FBA4201D1092700E00A27F4
:101C50004FEA817C4FEA1C7C07FA0CF738431E4F91
:101C60004FEA910C47F82C002868A0435F6807F4FE
:101C70008037B7F5803F00D1204328606868A043D3
:101C80005F6807F40037B7F5003F00D12043686074
:101C90004FF0B0473868A0435F6807F48017B7F586
:101CA000801F00D120434FF0B04738607868A043D0
:101CB0005F6807F40017B7F5001F00D120434FF00D
:101CC000B0477860491C1029FFF400AFF8BD000050
:101CD00080000058F44402580804005800000258DC
:101CE0000004025800080258000C02580010025864
:101CF0000014025800180258001C02580020025814
:101D000000240258024613690B400BB1012000E089
:101D1000002070470AB1018300E041837047000052
:101D2000014800687047000028000024034800684C
:101D300003490978084401490860704728000024D5
:101D40003000002410B5032000F06EF80F2000F0E2
:101D500007F808B1012010BD00F028F80020FAE7CC
:101D600070B504460E4800784FF47A71B1FBF0F07C
:101D70000C490968B1FBF0F5284600F029FE08B1CE
:101D8000012070BD102C07D200222146501E00F009
:101D90000EF80548046001E00120F2E70020F0E7BA
:101DA00030000024000000242C00002470472DE99E
:101DB000F05F80460D46164602F086FF074639461C
:101DC0002A46334601F00700C0F1070ABAF1040FB2
:101DD00002D94FF0040A01E0C0F1070AD14600F130
:101DE000040ABAF1070F02D24FF0000A01E0A0F195
:101DF000030AD4464FF0010A0AFA09FAAAF1010AC5
:101E00000AEA020A0AFA0CFA4FF0010B0BFA0CFB71
:101E1000ABF1010B0BEA030B4AEA0B0421464046E7
:101E200002F05AFFBDE8F09F00BF00F00702064B2A
:101E300019684FF6FF031940044B0B4343EA022194
:101E4000014B196000BF70470CED00E00000FA057F
:101E500070B504460D4600268D48006800F0070066
:101E6000A8420ED28A48006820F00700284388491B
:101E700008600846006800F00700A84201D0012071
:101E800070BD207800F00200022807D18148006868
:101E900020F00F00E16808437E490860207800F0D8
:101EA0000100002851D07B48006820F47060A168D0
:101EB0000843784908606068022807D175481838D7
:101EC0000068C0F34040F8B90120D9E760680328F2
:101ED00007D1704818380068C0F34060A0B90120ED
:101EE000CEE76068012807D16A4818380068C0F357
:101EF000002048B90120C3E7664818380068C0F3DD
:101F0000800008B90120BBE762480838006820F06B
:101F10000700616808435F4908390860FFF700FF60
:101F200006466068022811D108E0FFF7F9FE801B21
:101F300041F28831884201D90320A1E75548083889
:101F4000006800F038001028EFD13AE060680328FC
:101F500011D108E0FFF7E4FE801B41F2883188428E
:101F600001D903208CE74B480838006800F038009E
:101F70001828EFD125E06068012811D108E0FFF7AB
:101F8000CFFE801B41F28831884201D9032077E7D8
:101F900040480838006800F038000828EFD110E009
:101FA00008E0FFF7BDFE801B41F28831884201D96D
:101FB000032065E737480838006800F0380000283B
:101FC000EFD13348006800F00700A8420ED930482E
:101FD000006820F0070028432D4908600846006883
:101FE00000F00700A84201D0012049E7207800F066
:101FF0000400042807D12748006820F070002169F8
:10200000084324490860207800F00800082809D116
:102010002048001D006820F07000616908431D49D8
:10202000091D0860207800F01000102809D1194817
:10203000001D006820F4E060A16908431549091DEE
:102040000860207800F02000202809D111480830CD
:10205000006820F07000E16908430E49083108600B
:1020600000F01EF80B49096801F470614FF48072AA
:1020700092FAA2F2B2FA82F2D140074A515CC84009
:10208000064908600F20FFF76BFE0020F8E600000D
:102090000020005218440258BC68000800000024C8
:1020A00070B5012500EE905A002201210023002482
:1020B000DFED861AB0EE610ADFED841AB0EE611A28
:1020C0000020834D2D6805F0380535B1082D15D059
:1020D000102D15D0182D7CD114E07D4D103D2D68AC
:1020E000C5F3401545B17A4D103D2D68C5F3C106C5
:1020F000784D25FA06F000E07648E5E07648E3E022
:102100007648E1E0724D18352D6805F00302704DF8
:1021100018352D68C5F305116D4D1C352D6805F07A
:1021200001036B4D24352D68C5F3CC0515FB03F574
:1021300001EE905AF8EE611AB0EE610A22B1012A5E
:102140004FD0022A7DD16BE0614D103D2D68C5F363
:1021500040152DB35E4D103D2D68C5F3C1065D4D94
:1021600025FA06F4B4FBF1F501EE905AB8EE612AB7
:10217000DFED5B1AC0EE212A554D20352D68C5F3E1
:10218000080501EE905AF8EE611A72EEA11AF7EE08
:10219000002A71EEA21A62EE211AB0EE611A1FE057
:1021A0004C4DB5FBF1F501EE905AB8EE612ADFED2A
:1021B0004C1AC0EE212A464D20352D68C5F308057E
:1021C00001EE905AF8EE611A72EEA11AF7EE002AAB
:1021D00000E077E071EEA21A62EE211AB0EE611A09
:1021E0005EE03D4DB5FBF1F501EE905AB8EE612A87
:1021F000DFED3B1AC0EE212A354D20352D68C5F3A1
:10220000080501EE905AF8EE611A72EEA11AF7EE87
:10221000002A71EEA21A62EE211AB0EE611A3FE0B6
:102220002E4DB5FBF1F501EE905AB8EE612ADFEDC7
:102230002C1AC0EE212A264D20352D68C5F308053D
:1022400000E00EE001EE905AF8EE611A72EEA11A6B
:10225000F7EE002A71EEA21A62EE211AB0EE611AB0
:102260001EE01D4DB5FBF1F501EE905AF8EE612A26
:10227000DFED1B1A80EE212A154D20352D68C5F3A0
:10228000080501EE905AF8EE611A72EE211AB7EEC7
:10229000002A71EE821A62EEA11AB0EE611A00BF36
:1022A00000BF0B4D20352D68C5F346256D1C00EE93
:1022B000905AF8EE601A81EE212AFCEEC21A11EE55
:1022C000900A01E0044800BF00BF70BD000000009C
:1022D000104402580090D00300093D0040787D0171
:1022E0000000004670B504460025207800F001008B
:1022F000002872D0F948006800F0380010280CD08F
:10230000F648006800F03800182812D1F348183059
:10231000006800F0030002280BD1F0481038006874
:10232000C0F3404000286DD0606800286AD10120C9
:1023300070BD00BF6068B0F5803F08D1E748103835
:10234000006840F48030E549103908602EE060688C
:1023500068B9E2481038006820F48030DF4910394D
:1023600008600846006820F4802008601EE060686D
:10237000B0F5A02F0DD1D9481038006840F4802066
:10238000D649103908600846006840F4803008607B
:102390000CE0D2481038006820F48030CF49103962
:1023A00008600846006820F48020086000BF60686C
:1023B000A0B1FFF7B5FC054608E0FFF7B1FC401BF4
:1023C00041F28831884201D90320B1E7C34810386F
:1023D0000068C0F340400028EFD013E0FFF7A0FCF6
:1023E000054608E0FFF79CFC401B41F2883188421B
:1023F00001D903209CE7B94810380068C0F3404079
:102400000028EFD1207800F00200022847D1B3481D
:10241000006800F0380058B1B048006800F038009B
:1024200018283ED1AD481830006800F00300B8BB52
:10243000AA4810380068C0F3800018B1E06808B9F5
:10244000012075E7A5481038006820F01900E16800
:102450000843A24910390860FFF762FC054606E010
:10246000FFF75EFC401B022801D9032060E79B4870
:1024700010380068C0F380000028F1D097480C386D
:10248000006820F47C304FF47C3292FAA2F2B2FA67
:1024900082F221699140084390490C3908604AE072
:1024A000FFE7E06868B38D481038006820F0190035
:1024B000E1680843894910390860FFF731FC054697
:1024C00006E0FFF72DFC401B022801D903202FE76F
:1024D000824810380068C0F380000028F1D07F489F
:1024E0000C38006820F47C304FF47C3292FAA2F26F
:1024F000B2FA82F221699140084378490C390860A8
:1025000019E076481038006820F00100734910394E
:102510000860FFF705FC054606E0FFF701FC401BDD
:10252000022801D9032003E76C4810380068C0F383
:1025300080000028F1D1207800F01000102877D119
:102540006648006800F0380008280CD0634800682E
:1025500000F03800182823D160481830006800F0D7
:10256000030001281CD15D4810380068C0F300202A
:1025700020B1E069802801D00120D9E657480C3805
:10258000006820F0F8404FF0F84292FAA2F2B2FA56
:1025900082F2216A9140084350490C39086047E0B3
:1025A000E06958B34D481038006840F080004B494E
:1025B00010390860FFF7B4FB054606E0FFF7B0FBF3
:1025C000401B022801D90320B2E6444810380068B5
:1025D000C0F300200028F1D040480C38006820F0FB
:1025E000F8404FF0F84292FAA2F2B2FA82F2216A6F
:1025F0009140084339490C39086019E037481038D0
:10260000006820F08000354910390860FFF788FB2A
:10261000054606E0FFF784FB401B022801D9032092
:1026200086E62E4810380068C0F300200028F1D15B
:10263000207800F00800082836D16069D0B127481A
:102640006430006840F00100244964310860FFF7FD
:1026500067FB054606E0FFF763FB401B022801D934
:10266000032065E61D4864300068C0F34000002880
:10267000F1D019E019486430006820F001001749D2
:1026800064310860FFF74CFB054606E0FFF748FBA6
:10269000401B022801D903204AE610486430006834
:1026A000C0F340000028F1D1207800F0200020285D
:1026B00034D1A069D8B109481038006840F480507E
:1026C000064910390860FFF72BFB054608E0FFF7C5
:1026D00027FB401B022803D9032029E61044025897
:1026E000AF480068C0F340300028F0D016E0AC4896
:1026F000006820F48050AA490860FFF711FB0546E6
:1027000006E0FFF70DFB401B022801D903200FE66E
:10271000A3480068C0F340300028F2D1207800F0D0
:10272000040004287DD19F48006840F480709D49D2
:102730000860FFF7F5FA054606E0FFF7F1FA401BDF
:10274000642801D90320F3E59648006800F48070FE
:102750000028F2D000BFA068012808D1904870304E
:10276000006840F001008E49703108602DE0A068DB
:1027700068B98B487030006820F0010088497031DA
:1027800008600846006820F0040008601DE0A068AA
:1027900005280DD182487030006840F0040080495F
:1027A000703108600846006840F0010008600CE0E5
:1027B0007B487030006820F0010079497031086072
:1027C0000846006820F00400086000BFA068A0B1BF
:1027D000FFF7A6FA054608E0FFF7A2FA401B41F210
:1027E0008831884201D90320A2E56D487030006825
:1027F000C0F340000028EFD013E0FFF791FA054640
:1028000008E0FFF78DFA401B41F28831884201D978
:1028100003208DE5624870300068C0F34000002856
:10282000EFD1606A00287CD05D481030006800F06D
:102830003800182876D0606A022874D15848006899
:1028400020F0807056490860FFF76AFA054606E0F6
:10285000FFF766FA401B022801D9032068E55048BB
:102860000068C0F340600028F2D100BFD4E90A102C
:1028700041EA00104A492831096840F2F332914395
:102880000843474928310860208E401EC0F30800E5
:10289000616B491E4FF47E4202EA41210843218FB9
:1028A000491ED20102EA014108433C21095D491E4B
:1028B000120202EA0161084339493031086000BF61
:1028C000081D00684FF6F87188434FF6F87292FAC7
:1028D000A2F2B2FA82F2A16C91400843304934313D
:1028E00008602F482C30006820F00C00216C084351
:1028F0002B492C3108600846006820F00200616C0A
:10290000084327492C3108600846006840F48030AD
:1029100008600846006840F4003008600846006817
:1029200002E03BE038E01FE040F480200860084609
:10293000006840F0010008601948006840F08070AD
:1029400017490860FFF7ECF9054606E0FFF7E8F9DC
:10295000401B022801D90320EAE411480068C0F3B3
:1029600040600028F2D019E00D48006820F0807027
:102970000B490860FFF7D4F9054606E0FFF7D0F9E8
:10298000401B022801D90320D2E405480068C0F3A7
:1029900040600028F2D101E00120C9E40020C7E432
:1029A0000044025800480258042808D14FF0E021A2
:1029B000096941F004014FF0E022116107E04FF096
:1029C000E021096921F004014FF0E0221161704714
:1029D00070B504462546681EB0F1807F01D3012002
:1029E0000FE0681E4FF0E02148610F214FF0FF30EB
:1029F00002F072F900204FF0E021886107200861A1
:102A0000002070BD00BFFEE770B504461648408840
:102A1000401E83B214480088401E82B2002108463E
:102A200000F094FB4FF40060104908802020891EBC
:102A3000088000250DE0002606E0201200F022FFAD
:102A4000E0B200F01FFF761C07480088B042F4D8BF
:102A50006D1C05484088A842EDD84FF4006003493A
:102A6000891E088070BD0000500000241A0C025816
:102A7000F8B504460D4616461F46054800883B46F5
:102A8000324629460090204600F02EF9F8BD00009D
:102A9000320000242DE9FF4F85B081468A46002090
:102AA000049003900798A0EB09050898A0EB0A068C
:102AB000CDF80890CDF804A0002D01DD012705E038
:102AC0000DB9002702E04FF0FF376D42002E02DD06
:102AD0004FF0010806E016B94FF0000802E04FF091
:102AE000FF387642B54201DD2C4600E034464FF017
:102AF000000B21E0019A91B2029A90B200F078F8AE
:102B00000498284404900398304403900498A04209
:102B100005DD0498001B0490029838440290039845
:102B2000A04205DD0398001B0390019840440190EA
:102B30000BF101001FFA80FB601C8345DADD09B050
:102B4000BDE8F08F2DE9FF4F85B08146002004904D
:102B500083460798A0EB090506990898461ACDF810
:102B60000C9006980290002D01DD012705E00DB9BB
:102B7000002702E04FF0FF376D42002E02DD4FF0DC
:102B8000010806E016B94FF0000802E04FF0FF38E8
:102B90007642B54201DD2C4600E034464FF0000A93
:102BA0001FE001200090DDE91232DDE9021002F0A1
:102BB0002FF9049828440490B3440498A04205DDFA
:102BC0000498001B0490039838440390A34504DD47
:102BD000ABEB040B0298404402900AF101001FFA8B
:102BE00080FA601C8245DCDD09B0BDE8F08F000092
:102BF00070B504460D462946204600F09DFA02486D
:102C0000008800F0A5FC70BD320000242DE9F041E1
:102C100004460D4616461F462B4632462946204698
:102C2000FFF738FF3B46224629462046FFF732FF92
:102C30003B46324639462046FFF72CFF3B4632469C
:102C400029463046FFF726FFBDE8F0812DE9F04127
:102C500005460E4617469846069C391B8AB2291926
:102C600088B233463146FFF715FFA8EB040083B264
:102C7000301981B22A462846FFF70CFF391B8AB269
:102C8000291988B243464146FFF704FFA8EB040028
:102C900083B2301981B23A463846FFF7FBFE32194B
:102CA00091B22A1990B201232246FEF771F8321927
:102CB00091B23A1B90B202232246FEF769F8A8EBC4
:102CC000040291B23A1B90B204232246FEF760F848
:102CD000A8EB040291B22A1990B208232246FEF70B
:102CE00057F8BDE8F08100002DE9F05F04460D467D
:102CF00016461F46301B401C1FFA80FA781B401CEA
:102D00001FFA80FB3B4632462946204600F01EFA59
:102D10004FF000080FE04FF0000906E00A9800F0BD
:102D200017FC09F101001FFA80F9D145F6DB08F123
:102D300001001FFA80F8D845EDDB07484088401EA7
:102D400083B205480088401E82B20021084600F088
:102D5000FDF9BDE8F09F0000500000242DE9F84384
:102D600007460D4690461E46089C18480088711C70
:102D70008BB2A8EB04018AB23919009088B22946B7
:102D8000FFF7B2FF701B401C022101FB1400401E24
:102D900080B22A1991B2A8EB0402009090B20123EC
:102DA0002246FEF7FBFA701B401C022101FB1400B7
:102DB000401E80B22A1991B23A19009090B20223B3
:102DC0002246FEF7EBFABDE8F8830000320000244B
:102DD00000B587B000BF1348006840F008001149F3
:102DE00008600846006800F00800019000BF00BFBE
:102DF0004FF4C350029001200390049003200590EB
:102E000002A90948FEF758FE01224FF4C3510648B3
:102E1000FEF780FF012240210348FEF77BFF07B049
:102E200000BD0000E0440258000C025810B500F04C
:102E3000C7FCFFF7CDFF00F0EFF8F02000F0E6FA56
:102E4000C32000F0CFFAF02000F0E0FA962000F066
:102E5000C9FA362000F0DAFA482000F0C3FA3A2026
:102E600000F0D4FA052000F0BDFAB02000F0CEFA50
:102E7000802000F0B7FAB62000F0C8FA002000F079
:102E8000B1FA022000F0AEFAB52000F0BFFA02203D
:102E900000F0A8FA032000F0A5FA002000F0A2FA42
:102EA000042000F09FFAB12000F0B0FA802000F07A
:102EB00099FA102000F096FAB42000F0A7FA00204A
:102EC00000F090FAB72000F0A1FAC62000F08AFACC
:102ED000C52000F09BFA1C2000F084FAE42000F0EA
:102EE00095FA312000F07EFAE82000F08FFA4020B9
:102EF00000F078FA8A2000F075FA002000F072FAEB
:102F0000002000F06FFA292000F06CFA192000F080
:102F100069FAA52000F066FA332000F063FAC220B7
:102F200000F074FAA72000F071FAE02000F06EFAC9
:102F3000F02000F057FA092000F054FA132000F0B6
:102F400051FA122000F04EFA122000F04BFA2B201A
:102F500000F048FA3C2000F045FA442000F042FA24
:102F60004B2000F03FFA1B2000F03CFA182000F044
:102F700039FA172000F036FA1D2000F033FA21202C
:102F800000F030FAE12000F041FAF02000F02AFAD7
:102F9000092000F027FA132000F024FA0C2000F09A
:102FA00021FA0D2000F01EFA272000F01BFA3B202A
:102FB00000F018FA442000F015FA4D2000F012FA43
:102FC0000B2000F00FFA172000F00CFA172000F089
:102FD00009FA1D2000F006FA212000F003FAF02083
:102FE00000F014FA3C2000F0FDF9F02000F00EFA99
:102FF000692000F0F7F9132000F008FA112000F022
:1030000005FA292000F002FA002000F025FA4FF618
:10301000FF70FFF7F9FC10BD10B54FF48050074961
:103020000880642001F0C4FE4FF480500349891EDB
:103030000880322001F0BCFE10BD00001A0C0258BE
:1030400070B504460D462946204600F075F800F09C
:1030500057FA0646304670BD38B500200090F02083
:1030600000F0D4F9C32000F0BDF9F02000F0CEF953
:10307000962000F0B7F94FF400602D490880012434
:103080002CE020202A490880FB2000F0FBFB2020B8
:103090002749891E088004F11001C8B200F0F2FB34
:1030A000202023490880D32000F0ECFB2020204979
:1030B000891E088000F0B0FB611E0DF80100202081
:1030C0001B490880FB2000F0DDFB20201849891EE9
:1030D0000880002000F0D6FB601CC4B2042CD0DBBA
:1030E0004FF400601249891E0880F02000F08EF92C
:1030F0003C2000F077F9F02000F088F9692000F01A
:1031000071F99DF801000B498880084680884FF6C8
:10311000FF7101EA002007498880084680889DF8F1
:1031200002100843034988800846808838BD0000A3
:103130001A0C02585000002470B504460D462B4668
:1031400022462946204600F001F870BD2DE9F041E5
:1031500004460D4616461F461149087B00F056F9F5
:10316000201200F03FF9E0B200F03CF9301200F01C
:1031700039F9F0B200F036F90949887B00F046F9D8
:10318000281200F02FF9E8B200F02CF9381200F004
:1031900029F9F8B200F026F900F04CF9BDE8F08109
:1031A000500000242DE9FF4F83B081468A469346A4
:1031B000DDE91064404800880290A6F12000C6B204
:1031C00004EBD47009EB6000401E82B20AEB0400ED
:1031D000401E83B2514648460194FFF7B7FF12984C
:1031E00050BB002525E00C2C07D106EB46003349E7
:1031F00001EB800010F8058004E0314800EB061078
:1032000010F8058000270DE008F0010018B15846BD
:1032100000F09EF902E0069800F09AF94FEA68087B
:10322000781CC7B204EBD471B7EB610FECDB681C00
:10323000C5B2A542D7DB2DE0002529E00C2C07D133
:1032400006EB46001D4901EB800010F8058004E004
:103250001B4800EB061010F80580002711E0164807
:10326000A0F800B008F0010038B10AEB050291B2F5
:1032700009EB070290B2FFF7BBFC4FEA6808781C25
:10328000C7B204EBD471B7EB610FE8DB681CC5B2C1
:10329000A542D3DB0849029808800A484088401EAE
:1032A00083B208480088401E82B200210846FFF71A
:1032B0004DFF07B0BDE8F08F320000242450000815
:1032C00098540008500000242DE9FF4F83B00746B2
:1032D00091461E46109C4FF0000A002543E0701BEB
:1032E000401EC1B20A2001F075FEB9FBF0F00A21C0
:1032F000B0FBF1F201FB1208BAF1000F1BD1701EF6
:10330000A84218DDB8F1000F13D100202021A346F8
:10331000CDE90014029004EBDB71491001FB05714B
:1033200088B213490B8813490A880499FFF73AFFBA
:1033300017E04FF0010A002108F13000C0B2A346A7
:10334000CDE90141009004EBDB71491001FB0571EF
:1033500088B207490B8807490A880499FFF722FFBA
:1033600000BF681CC5B2B542B9DB07B0BDE8F08F3D
:1033700034000024320000242DE9FE4306460F46A7
:1033800015461C46DDF828801DE013480088401EC5
:10339000B04204DB10484088401EB84201DABDE864
:1033A000FE8320788DE821010C4803880C480288B0
:1033B00039463046FFF7F6FE284605EBD07106EB9E
:1033C00061018EB2641C20787E2802DC20782028DF
:1033D000DBDA00BFE3E700005000002434000024E3
:1033E0003200002410B504464FF4006006490880FE
:1033F0002020891E0880204600F044FA4FF4006027
:103400000149891E088010BD1A0C025810B50446E7
:103410004FF400600649088020200880204600F014
:1034200031FA4FF400600249891E088010BD000087
:103430001A0C025810B50249087AFFF7E7FF10BDD1
:103440005000002470B505460C462846FFF7DEFF05
:10345000E0B2FFF7C7FF70BD10B504462A20274928
:1034600088812B20C8812C2008812E20488120466D
:10347000E11704EB91718910A4EB81011F4A91714E
:103480001046807930B1012810D002281AD00328C4
:1034900030D123E04FF4A070184908804FF4F07049
:1034A000488048213620FFF7CDFF24E04FF4F0702C
:1034B000124908804FF4A070488028213620FFF779
:1034C000C1FF18E04FF4A0700C4908804FF4F07071
:1034D000488088213620FFF7B5FF0CE04FF4F070EC
:1034E000064908804FF4A0704880E8213620FFF795
:1034F000A9FF00E000BF00BF10BD00005000002485
:1035000070B54FF4006010490880202008800F49F2
:10351000887A00F0B7F920200B49891E088000F056
:103520007BF900F079F9044600F076F905464FF48E
:1035300000600549891E08804FF6FF7000EA0424E8
:103540002C43204670BD00001A0C02585000002485
:1035500010B504464FF40060084908802020891EF9
:103560000880201200F08EF9E0B200F08BF94FF4E1
:1035700000600249891E088010BD00001A0C025824
:10358000704770470EB51FA0FDF7B6FB224A1E21FB
:103590000846FEF737FA0120102120A24FF6E0730B
:1035A000CDE9002102901F224B212A2000F08CF946
:1035B000194A1E215A20FEF725FA0120102117A2D0
:1035C0004FF6E073CDE9002102901F224B216620C7
:1035D00000F07AF9104A1E219620FEF713FA012016
:1035E00010210EA24FF6E073CDE9002102901F22B8
:1035F0004B21A22000F068F94FF4966001F0D8FB4F
:103600000EBD0000B2E2CAD4383ACDBCC6ACCFD4AD
:10361000CABEB2E2CAD40000FC68000851510000E2
:1036200010B588B00024194B0FCBCDE90623CDE9A6
:10363000040100BF23E02046FFF70EFF14A0FDF7B2
:103640005BFB0121102204A850F824004FF6E07320
:10365000CDE9012100901F221E21142000F034F931
:10366000104A32211E20FEF7CDF94FF47A7001F096
:103670009FFB4FF47A7001F09BFB601CC4B2042CDA
:10368000D9DB0020FFF7E8FE08B010BD8075000808
:10369000B2E2CAD431303AC6C1C4BBD0FDD7AAB257
:1036A000E2CAD400FC68000810B50023234C236054
:1036B00000BF00BF00BFBFF34F8F00BF00BF00BF00
:1036C000231F1868C0F34E3100BFC0F3C90200BF0A
:1036D00043F6E07303EA41134FF0404404EA827476
:1036E0002343174C236000BF00BF131EA2F1010249
:1036F000EED10B1EA1F10101E7D100BF00BF00BF59
:10370000BFF34F8F00BF00BF00BF0C4B703B1B6867
:1037100043F48033094C703C236000BF00BF00BFFE
:10372000BFF34F8F00BF00BF00BF00BF00BF00BF8F
:10373000BFF36F8F00BF00BF00BF10BD84ED00E07E
:1037400060EF00E000BF00BF00BFBFF34F8F00BFBE
:1037500000BF00BF00BF00BF00BFBFF36F8F00BF3F
:1037600000BF00BF00201449086000BF00BF00BFB9
:10377000BFF34F8F00BF00BF00BF00BF00BF00BF3F
:10378000BFF36F8F00BF00BF00BF0C48006840F45C
:1037900000300A49086000BF00BF00BFBFF34F8F71
:1037A00000BF00BF00BF00BF00BF00BFBFF36F8FEF
:1037B00000BF00BF00BF704750EF00E014ED00E015
:1037C00000B587B000BF1248006840F00200104901
:1037D00008600846006800F00200019000BF00BFCA
:1037E0004FF42040029001200390049003200590A4
:1037F00002A90848FEF760F94FF4804002900020CB
:10380000039002A90348FEF757F907B000BD000076
:10381000E04402580004025870B500240025FF2639
:1038200000BF29E06006040E06F0800020B14FF4CE
:1038300000401349088004E04FF400401049891CFF
:1038400008807006060E4FF400500D49891C088050
:10385000642001F0B9FA0A4808380068C0F38030E3
:1038600008B1601CC4B24FF40050054908806420C0
:1038700001F0AAFA681CC5B2082DD3DB204670BD42
:1038800018040258002100BF17E000F0800222B1A6
:103890004FF400420A4B1A8004E04FF40042084BF8
:1038A0009B1C1A804FF40052054B9B1C1A809B1ED8
:1038B0001A804206100E4A1CD1B20829E5DB704777
:1038C00018040258704700002DE9FF4F83B00646E8
:1038D00088469146DDE91147109DB2464FF0000B36
:1038E00071E0BBF1000F40D104EBD471384A12886B
:1038F000A2EB6101B14204DB35494988091B41450E
:1039000002DA07B0BDE8F08F2878802802DD4FF09A
:10391000010B58E028780D2806D108EB04001FFAA7
:1039200080F856466D1C1EE0102C0DDD1021287805
:103930008DE883004A4641463046069BFFF732FC3D
:1039400006F1080086B20EE028788DE891004A461C
:1039500041463046069BFFF725FC204604EBD0711C
:1039600006EB61018EB26D1C2DE019480088001B2A
:10397000B04204DB16484088001B404500DAC0E72F
:103980004FF0000B202C08D1CDE900574A464146A4
:103990003046069BFDF7A6FF12E0182C08D1CDE9B2
:1039A00000574A4641463046069BFDF70FFF07E0A9
:1039B000CDE900574A4641463046069BFDF782FE58
:1039C000AD1C301986B2287800288AD100BF98E74C
:1039D000500000242DE9F0419CB080460C4615466D
:1039E0001E4600273748006820F00400354908606B
:1039F00000BF0020009033480C30006840F4404085
:103A000030490C3108600846006800F440400090DE
:103A100000BF00BF00BF2B480C30006800F400500E
:103A2000B0F5005FF7D10120019000040290002062
:103A30000490089002200A9002210B91CDF8348066
:103A40000C940E950F96002112910821119101A856
:103A5000FEF748FC07460FB100BFFEE73F20149079
:103A600003201590002016900820179040201990F0
:103A700000011A904020189050201B90022114A899
:103A8000FEF7E6F907460FB100BFFEE70E480068F3
:103A900040F080000C49086000BF0B48F43000681B
:103AA00040F002000849F43108600846006800F060
:103AB0000200009000BF00BFFDF7F4FF1CB0BDE89E
:103AC000F08100000C4802580044025810B5FEF77F
:103AD0002DF910BD2048006840F470001E490860B0
:103AE0001E48006840F001001C49086000201B4986
:103AF00010310860194800681949084017490860E2
:103B00000020164918310860091D0860091D086069
:103B1000124928310860091D0860091D0860091D47
:103B20000860091D0860091D0860091D0860091D5D
:103B300008600A48006820F48020084908600020D6
:103B4000064960310860012006490860C006024944
:103B5000803908607047000088ED00E0004402589A
:103B60007FEDF6EA0881005110B5FDF773FA08B150
:103B7000012010BD0248034948600020F9E7000019
:103B8000A911000838000024F8B5002436A0FDF77C
:103B9000B3F84FF6FF70009039484088143883B26C
:103BA0003748028814210020FFF79EF800BF1FE06D
:103BB0000020334B00905D8805EBD5735B10323BE2
:103BC00004EBC40707EB0417D9192D4B1E8806EB2D
:103BD000D6735B10503B04EBC40707EB0417D819EE
:103BE000284B33F814201E2301F012F9601CC4B2D4
:103BF000052CDDDB40F2DC5001F0DAF84FF6FF7007
:103C000000901F484088143883B21D480288142150
:103C10000020FFF769F800241FE00120184B0090F6
:103C20005D8805EBD5735B10323B04EBC40707EBF3
:103C30000417D919124B1E8806EBD6735B10503B44
:103C400004EBC40707EB0417D8190E4B33F8142004
:103C50001E2301F0DDF8601CC4B2052CDDDB40F250
:103C6000DC5001F0A5F8F8BDB2E2CAD4343A4755A9
:103C700049BBADD4B2CCEEB3E4B2E2CAD40000008A
:103C800050000024080000240EB54FF6FF7000908D
:103C900050484388028800210846FFF725F8012094
:103CA00010214DA24FF6E073CDE9002102900022D1
:103CB0001E211420FFF708FE4FF4487001F078F839
:103CC0000020009043484388028800210846FFF7FF
:103CD0000BF80120102142A24FF6E073CDE900213C
:103CE00002904FF6FF721E211420FFF7EDFD4FF4F6
:103CF000487001F05DF84FF47840009035484388F3
:103D0000028800210846FEF7EFFF0120102136A2AD
:103D10004FF6E073CDE9002102901F221E211420EE
:103D2000FFF7D2FD4FF4487001F042F84FF4FC6009
:103D3000009028484388028800210846FEF7D4FFF7
:103D4000012010212AA24FF6E073CDE90021029054
:103D50001F221E211420FFF7B7FD4FF4487001F019
:103D600027F81F2000901B4843880288002108463E
:103D7000FEF7BAFF012010211FA24FF6E073CDE934
:103D8000002102904FF478421E211420FFF79CFD81
:103D90004FF4487001F00CF848F2304000900D48A4
:103DA0004388028800210846FEF79EFF012010216B
:103DB00013A24FF6E073CDE9002102904FF61F02E7
:103DC0001E211420FFF780FD4FF4487000F0F0FF33
:103DD0000EBD000050000024574849544500000023
:103DE000424C41434B00000052454420000000007B
:103DF000475245454E200000424C554520000000EA
:103E0000475241590000000038B55FA0FCF774FF2D
:103E10001F20624908806248FCF7FEFB012061A375
:103E20001022322100900F20FFF7A6FA012063A391
:103E30001022462100900F20FFF79EFA012065A373
:103E400010225A2100900F20FFF796FA012067A355
:103E500010226E2100900F20FFF78EFA012069A337
:103E60001022822100900F20FFF786FA01206BA319
:103E70001022962100900F20FFF77EFA01206CA3FC
:103E80001022AA2100900F20FFF776FA4FF4784015
:103E900042490880002473E0FCF758FA42F210719E
:103EA00090FBF1F201FB1205102005232A46322176
:103EB00000906420FFF708FAFCF748FA42F210710C
:103EC00090FBF1F201FB1205102005232A46462142
:103ED00000906420FFF7F8F9FCF738FA42F210710D
:103EE00090FBF1F201FB1205102005232A465A210E
:103EF00000906420FFF7E8F9FCF728FA42F210710D
:103F000090FBF1F201FB1205102005232A466E21D9
:103F100000906420FFF7D8F9FCF718FA42F210710C
:103F200090FBF1F201FB1205102005232A468221A5
:103F300000906420FFF7C8F9FCF708FA322190FBE3
:103F4000F1F201FB1205102005232A46962100906C
:103F50006420FFF7B9F9FCF7F9F9642190FBF1F25D
:103F600001FB1205102005232A46AA210090642097
:103F7000FFF7AAF94FF4FA7000F01AFF601CC4B200
:103F80000F2C89DB38BD0000B2E2CAD4393AB6AF93
:103F9000CCACCAFDD7D6CFD4CABE000032000024B4
:103FA00040E20100204843484F3A202020202020B2
:103FB000202020202075672F6D3300002020434FE4
:103FC000323A202020202020202020202070706DD8
:103FD000000000002054564F433A2020202020208B
:103FE000202020202075672F6D330000504D322E89
:103FF000353A202020202020202020202075672FE7
:104000006D33000020504D31303A202020202020F8
:10401000202020202075672F6D330000202054457C
:10402000503A202020202020202020202043000063
:10403000202048554D3A20202020202020202020DC
:10404000202500002DE9F843002460A0FCF754FE71
:104050004FF6FF70009063484088143883B261487F
:10406000028814210020FEF73FFE00BF48E05E48B2
:1040700030F814005D490880DFF868C1BCF80250D0
:1040800005EBD57C4FEA6C0CACF1500CC4EB041979
:10409000CC440CF13C0C1FFA8CF3DFF848C1BCF89F
:1040A000006006EBD67C4FEA6C0CACF1500CC4EB14
:1040B0000419CC440CF13C0C1FFA8CF2DFF824C13B
:1040C000BCF8027007EBD77C4FEA6C0CACF1500CDB
:1040D000C4EB0419CC441FFA8CF1DFF808C1BCF81A
:1040E000008008EBD87C4FEA6C0CACF1500CC4EBB0
:1040F0000419CC441FFA8CF0FEF788FD601CC4B292
:10410000052CB4DB40F2DC5000F052FE4FF6FF709D
:10411000009034484088143883B232480288142111
:104120000020FEF7E1FD002448E02F4830F814009D
:104130002E490880DFF8ACC0BCF8026006EBD67CE4
:104140004FEA6C0CACF1500CC4EB0419CC440CF1EC
:104150003C0C1FFA8CF3DFF88CC0BCF8007007EB46
:10416000D77C4FEA6C0CACF1500CC4EB0419CC4476
:104170000CF13C0C1FFA8CF2DFF868C0BCF802802E
:1041800008EBD87C4FEA6C0CACF1500CC4EB041972
:10419000CC441FFA8CF1DFF84CC0BCF8005005EBA2
:1041A000D57C4FEA6C0CACF1500CC4EB0419CC4438
:1041B0001FFA8CF0FEF75CFC601CC4B2052CB4DB6B
:1041C00040F2DC5000F0F4FDBDE8F883B2E2CAD45E
:1041D000333A475549BED8D0CECCEEB3E4B2E2CAAA
:1041E000D400000050000024080000243200002405
:1041F00070B590B000200D900E900F90242104A86F
:10420000FCF76BFA34A0FCF777FDFEF725FF0646B6
:10421000324637A10DA8FCF7D3F8012010210DAAD2
:104220004FF6E073CDE9002102901F2219213220C0
:10423000FFF74AFB002446E02F4830F814002F49CE
:10424000088004EBC40000EB041000F1410304EB10
:10425000C40000EB04102D3081B21E220A20FEF7AC
:1042600007FC04EBC40000EB041000F1370114203C
:10427000FEF7E6FE054621480088A84204D120A1A9
:104280000DA8FCF7E7F903E01EA10DA8FCF7E2F981
:104290000DAB2A461DA104A8FCF792F801201021BD
:1042A00004AACDE90021029004EBC40000EB041045
:1042B0002F3081B24FF6E073104802882820FFF7B4
:1042C00003FB601CC4B2072CB6DB40F2DC5000F0EC
:1042D0006FFD10B070BD0000B2E2CAD4323AB6C170
:1042E0004944BACDD1D5C9ABD6B5B2E2CAD40000E3
:1042F00049443A3078257800120000243200002426
:104300004F4B00004552524F5200000072656164ED
:1043100020636F6C6F723A30782530345820202536
:10432000730000002DE9FC5F002475A0FCF7E4FC9D
:104330004FF6FF70009079484088143883B2774870
:10434000028814210020FEF7CFFC00BF5DE0744816
:1043500030F81400734908807048458805EBD57023
:1043600040101438C4EB0411084481B26B4806882D
:1043700006EBD6704010153804EB840200EB820087
:1043800080B2DFF898C1CDE90001BCF8027007EBFC
:10439000D77C4FEA6C0CACF1490CC4EB041BDC4439
:1043A0001FFA8CF3DFF874C1BCF8008008EBD87CEE
:1043B0004FEA6C0CACF1330C04EB840B0CEB8B0C64
:1043C0001FFA8CF2DFF854C1BCF8029009EBD97CDB
:1043D0004FEA6C0CACF1140CC4EB041BDC441FFA68
:1043E0008CF1DFF838C1BCF800A00AEBDA7C4FEAA8
:1043F0006C0CACF1500C04EB840B0CEB8B0C1FFA27
:104400008CF0FCF730FD601CC4B2052C9FDB40F241
:10441000DC5000F0CDFC4FF6FF7000903F48408824
:10442000143883B23D48028814210020FEF75CFC5A
:1044300000245DE03A4830F814003A4908803748D3
:10444000458805EBD57040101438C4EB04110844BE
:1044500081B23248068806EBD6704010153804EB5E
:10446000840200EB820080B2DFF8B0C0CDE9000129
:10447000BCF8027007EBD77C4FEA6C0CACF1490C2E
:10448000C4EB041BDC441FFA8CF3DFF890C0BCF8CB
:10449000008008EBD87C4FEA6C0CACF1330C04EBD9
:1044A000840B0CEB8B0C1FFA8CF2DFF870C0BCF89D
:1044B000029009EBD97C4FEA6C0CACF1140CC4EB04
:1044C000041BDC441FFA8CF1DFF850C0BCF800A0DC
:1044D0000AEBDA7C4FEA6C0CACF1500C04EB840B69
:1044E0000CEB8B0C1FFA8CF0FCF7E4FF601CC4B2E1
:1044F000052C9FDB40F2DC5000F05AFCBDE8FC9F2D
:10450000B2E2CAD4353A47554920547269616E67A0
:104510006C65CCEEB3E4B2E2CAD4000050000024D3
:10452000080000243200002400B587B0FBA0FCF78F
:10453000E3FB0020FE490880FE480088069000EB5F
:10454000D0704010323080B20490FA480088059054
:1045500000EBD0704010323880B25A2303902821EB
:10456000049AFEF753FB4FF47840F1490880F14874
:104570000088069000EBD0704010401E80B204907E
:10458000EC480088059000EBD0704010313880B2C4
:10459000592303902921049AFEF76AFA1F20E4495F
:1045A0000880E4480088069000EBD070401031305D
:1045B00080B20490DF480088059000EBD070401076
:1045C000592303902921049AFEF752FA4FF6FF70FF
:1045D000D749088001200090D6480088069000EB5B
:1045E000D0704010203880B2D3A31022392105901A
:1045F000FEF7C2FE48F23040CD4908800A20009004
:10460000CC480088069000EBD07040106E3080B22D
:104610000490C8480088059000EBD07040106E38B8
:1046200080B2A92303909621049AFEF797FB4FF6D8
:104630001F00BF4908800A200090BE4800880690ED
:1046400000EBD07040100A3080B20490B948008866
:10465000059000EBD07040106E3880B2A923039013
:104660009621049AFEF77AFBB24800880690012052
:104670000090069800EBD07040100A2340F2CF1251
:10468000A021059000F0C4FB0020A949088001206A
:104690000090A8480088069000EBD07040107D384C
:1046A00080B2A6A3102298210590FEF765FE012096
:1046B0000090A0480088069000EBD0704010733046
:1046C00080B29FA3102298210590FEF755FE4FF46B
:1046D00078409749088010200090964800880690FE
:1046E00000EBD07040100C3880B2032332227D21C1
:1046F0000590FEF7E9FD00208D4908800820009014
:104700008C480088069000EBD07040101E3080B2BC
:10471000049088480088059000EBD07040101E3847
:1047200080B2FA230390DC21049AFEF78FFA4AF252
:1047300051607F490880072000907E4800880690DD
:1047400000EBD07040101D3080B204907948008892
:10475000059000EBD07040101D3880B2F823039014
:10476000DD21049AFEF7FAFA4FF61F00704908801F
:10477000012000906F480088069000EBD070401038
:104780000F3880B26FA31022E3210590FEF7F4FDED
:10479000012010216DA2CDE900210290654800881A
:1047A000069000EBD07040102F3880B24FF6FF73A8
:1047B0004FF47842C3210590FFF786F8E2E167489D
:1047C0004068069080476548007C00F001000028A2
:1047D000F4D06248808928287EDD604880895A2884
:1047E0007ADA54480088059000EBD07040103238D7
:1047F0005A490989884251DA4E480088069000EBF0
:10480000D0704010401E55490989884246DD4FF45A
:1048100078404749088047480088069000EBD070F0
:104820004010401E80B2049042480088059000EB82
:10483000D0704010313880B2592303902921049A56
:10484000FEF716F91F203A4908803A48008806907A
:1048500000EBD0704010313080B2049035480088B1
:10486000059000EBD0704010592303902921049A41
:10487000FEF7FEF84FF6FF702D49088001200090EA
:104880002C480088069000EBD0704010203880B291
:1048900029A3102239210590FEF76EFD25480088D6
:1048A000059000EBD07040102C490989884276DAD7
:1048B00020480088069000EBD07040103230274925
:1048C000098988426BDD1F20194908801948008832
:1048D000069000EBD07000E061E04010401E80B216
:1048E000049014480088059000EBD07040103138D7
:1048F00080B2592303902921049AFEF7B9F84FF4A6
:1049000078400B4908800B480088069000EBD07077
:104910004010313080B20490064821E0B2E2CAD49F
:1049200031313AB4A5C3FEB0B4BCFCB2E2CAD40083
:1049300032000024500000244F4E000030000000E0
:10494000313030004558495400000000B0B445589B
:104950004954BCFCCDCBB3F6000000003800002465
:104960000088059000EBD070401059230390292156
:10497000049AFEF77DF84FF6FF7084490880012005
:10498000009083480088069000EBD07040100D30F6
:1049900080B280A3102239210590FEF7EDFC7C48FF
:1049A0000088059000EBD070401064387A4909897E
:1049B000884275DC76480088069000EBD070401085
:1049C00064307549098988426ADB73488089962872
:1049D00066DD71488089A92862DA48F230406B4967
:1049E00008800A2000906A480088069000EBD0708A
:1049F00040106E3080B20590674800890A3880B256
:104A0000A92304909621059AFEF7A8F94FF61F00F6
:104A10005E4908800A2000905D480088069000EBFF
:104A2000D07040106E3880B204905B4800890A3024
:104A300080B2A9230246962105900498FEF78EF9CC
:104A400001200090544800890A2340F2CF12A0218F
:104A5000069000F0DDF94FF478404C4908804C484E
:104A60000088059000EBD070401064384A490989ED
:104A7000081A06901020009045480088049000EB2A
:104A8000D07040100C3880B20290069800EBD070C5
:104A90004010032302467D2103900298FEF714FC88
:104AA0003B480088059000EBD07040101E383A4912
:104AB0000989884266DC36480088069000EBD07091
:104AC00040101E303449098988425BDB32488089B6
:104AD000DC2857DD30488089FA2853DA4FF6FF701A
:104AE0002A4908800820009029480088069000EB99
:104AF000D07040101E3080B2049025480088059088
:104B000000EBD07040101E3880B2FA230390DC21F5
:104B1000049AFEF79BF842F612301C4908800720E1
:104B200000901B480088069000EBD07040101D30AC
:104B300080B2049016480088059000EBD0704010B9
:104B40001D3880B2F8230390DD21049AFEF706F9A0
:104B500048F21F400D490880012000900C48008851
:104B6000069000EBD07040100F3880B2AFF22C23CB
:104B70001022E3210590FEF7FFFB4FF6FF70064978
:104B8000088100E01BE600BF07B000BD3200002432
:104B9000500000244F464600380000240EB53AA0CD
:104BA000FCF7AAF801203D4900900988203988B215
:104BB0003BA310220221FEF7DFFB4FF47840394976
:104BC000088060E03849486880473748007C00F03A
:104BD0000100002853D034480089304909888842B0
:104BE00051DA314880892D49498888424BDABDF82D
:104BF00008004FF6FF71884207D12B480089ADF8B5
:104C0000080029488089ADF80A002748018923480F
:104C10000088203881421BDD23488089122817DA5A
:104C20004FF6FF7020490881088117A0FCF764F84F
:104C300001201A4900900988203988B218A310224F
:104C40000221FEF799FB4FF47840164908800DE0E9
:104C50004FF478400221144CCDE90010A389228939
:104C6000BDF80A10BDF80800FDF76CFF0E4800897A
:104C7000ADF808000C488089ADF80A0003E04FF653
:104C8000FF70ADF808009DE7B2E2CAD431323AB401
:104C9000A5C3FE50454EB2E2CAD400005000002425
:104CA00052535400320000243800002410B5044947
:104CB0000868804700B110BDFFF736FCFFF76EFFB4
:104CC0003800002400BFFEE702480068C0F302205D
:104CD000704700000CED00E010B5002804DB0A0767
:104CE000130E054A135406E00A07140E034A00F097
:104CF0000F031B1FD45410BD00E400E018ED00E0CA
:104D00002DE9F04104460D4616461F46DDF8188091
:104D1000EA1991B2A21990B24246FCF767FEEA196D
:104D200091B2A21B90B24246FCF760FEEA1B91B220
:104D3000A21990B24246FCF759FEEA1B91B2A21B9F
:104D400090B24246FCF752FEAA1991B2E21990B213
:104D50004246FCF74BFEAA1991B2E21B90B24246C2
:104D6000FCF744FEAA1B91B2E21990B24246FCF74E
:104D70003DFEAA1B91B2E21B90B24246FCF736FE02
:104D8000BDE8F08130380A2801D2012070470020A8
:104D9000704702880B8803800A80704710B504466C
:104DA0000420FDF701FE0148046010BD240000242A
:104DB00030B50446002504E04FF47A7000F004F8A2
:104DC0006D1CA542F8D330BD70B5034600224FF0EC
:104DD000E02675690D4E366803FB06F44FF0E026B9
:104DE000B16910E04FF0E026B06988420BD08842EC
:104DF00002D20E1A324402E02E1A0E443244014608
:104E0000A24200D300E0EDE700BF70BD2400002403
:104E10002DE9FF4F81B0824617469846DDF838B03D
:104E2000002445464FEA4800C0F10306BBF1000FDD
:104E30001FD01BE0A14608E04B4622460097504693
:104E40000299FFF75DFF09F10109A945F4DD002E84
:104E500004DA042000FB0460861D06E0601B0421C8
:104E600001FB006000F10A066D1E641CAC42E1DD2E
:104E700018E015E02B462246009750460299FFF7AE
:104E80003FFF002E04DA042000FB0460861D06E0CC
:104E9000601B042101FB006000F10A066D1E641C0A
:104EA000AC42E7DD05B0BDE8F08FFBF79BFEFCF7F9
:104EB00049FF042302220521A020FEF78BFD4FF4B9
:104EC000C870FFF76BFFFDF7B1FF17E000F018F8AF
:104ED000FFF78EF9FEF7D8FEFFF7B4F8FEF754FEA1
:104EE000FFF720FAFBF7DCFFFBF78AFEFEF74AFB31
:104EF000FEF78AFFFEF794FBFFF7D8FEE6E7000017
:104F00000EB51EA0FBF7F8FE0120102121A21F23E1
:104F1000CDE900210290DA021E210020FCF7A2FD5B
:104F20000120102117A21F23CDE900210290DA02EF
:104F30003C210020FCF796FD0120102118A21F2320
:104F4000CDE9002102904FF61F025A210020FCF704
:104F500089FD0120102118A21F23CDE90021029014
:104F60001A4678210020FCF77DFD40F2DC50FFF767
:104F70001FFF40F2DC50FFF71BFF0EBDC8ABB6AF02
:104F8000B5E7D7D3D7DBBACFB2E2CAD4B3CCD0F22D
:104F900000000000C8ABB6AFB5E7D7D300000000F3
:104FA000342E30222049505320535437373936207D
:104FB00033323058343830007869616F46656E6737
:104FC0004051447465636820323032332D31312DC5
:104FD0003230000010B50246012000E050430B1EA5
:104FE000A1F10104E1B2F9D110BD4FF04070E1EE42
:104FF000100A7047010002000400060008000A00C1
:105000000C001000200040008000000101000200A0
:105010000400060008000A000C00100020004000F8
:1050200080000001000000000000000000000000FF
:1050300000000404040404040004000000140A0A2C
:105040000000000000000000000014143F140A3F9C
:105050000A0A000000041E1505060C14150F0400B2
:10506000000012150D0A142C2A1200000000040A78
:105070000A1E15150936000000020201000000009A
:105080000000000000201008080808080810200090
:1050900000020408080808080804020000000004D0
:1050A000150E0E150400000000000404041F040483
:1050B00004000000000000000000000000020201E7
:1050C00000000000001F00000000000000000000C1
:1050D000000000000002000000100808080404029C
:1050E0000202010000000E1111111111110E000039
:1050F0000000040604040404040E000000000E1165
:1051000011080402011F000000000E11100C101005
:10511000110E00000000080C0A0A091E0818000001
:1051200000001F01010F1010110E000000000E09F9
:10513000010F1111110E000000001F0908040404E2
:105140000404000000000E11110E1111110E0000D8
:1051500000000E1111111E10120E000000000000C0
:105160000400000000040000000000000004000033
:1051700000040400002010080402040810200000AD
:10518000000000001F00001F0000000000020408D3
:10519000102010080402000000000E111108040481
:1051A0000004000000000E111915151D011E00005D
:1051B000000004040C0A0A1E1233000000000F1243
:1051C000120E1212120F000000001E110101010147
:1051D000110E000000000F1212121212120F000026
:1051E00000001F120A0E0A02121F000000001F1208
:1051F0000A0E0A020207000000001C120101391108
:10520000120C000000003312121E121212330000A2
:1052100000001F0404040404041F000000003E08F2
:105220000808080808090700000037120A060A0AD9
:10523000123700000000070202020202223F0000B3
:1052400000001B1B1B1B15151515000000003B1251
:1052500016161A1A1217000000000E111111111162
:10526000110E000000000F12120E020202070000D1
:1052700000000E1111111117190E180000000F1265
:10528000120E0A121237000000001E11010608104B
:10529000110F000000001F1504040404040E000098
:1052A0000000331212121212120C0000000033120E
:1052B000120A0A0C0404000000001515150E0A0A53
:1052C0000A0A000000001B0A0A04040A0A1B000064
:1052D00000001B0A0A040404040E000000001F0959
:1052E00008040402121F0000001C04040404040447
:1052F00004041C0000020202040408080810000054
:10530000000E08080808080808080E0000040A0033
:10531000000000000000000000000000000000008D
:105320000000003F0004000000000000000000003A
:1053300000000000000C121C123C000000000302E0
:10534000020E1212120E000000000000001C1202D9
:10535000021C000000001810101C1212123C000069
:1053600000000000000C121E021C000000003804A7
:10537000041E0404041E000000000000003C120C87
:10538000021E221C00000302020E1212123700003D
:105390000000040000060404040E000000000800E1
:1053A000000C08080808080700000302023A0A0E69
:1053B000123700000000070404040404041F000066
:1053C00000000000000F151515150000000000007A
:1053D000000F12121237000000000000000C121221
:1053E000120C000000000000000F1212120E020743
:1053F00000000000001C1212121C103800000000F7
:10540000001B06020207000000000000001E020C44
:10541000101E000000000004040E04040418000024
:1054200000000000001B1212123C000000000000EF
:105430000037120A0C040000000000000015150ED1
:105440000A0A000000000000001B0A040A1B0000FA
:10545000000000000037120A0C04040300000000E2
:10546000001E0804041E00000018080808040808AC
:1054700008081800080808080808080808080808A4
:1054800000060404040804040404060002251800AD
:10549000000000000000000000000000000000000C
:1054A00000000000000000000000000808080808D4
:1054B000080800001818000000486C2412000000C2
:1054C00000000000000000000000002424247F12DF
:1054D00012127F12121200000000081C2A2A0A0C65
:1054E0001828282A2A1C080800000022251515154E
:1054F0002A585454542200000000000C1212120AC0
:1055000076252911916E00000006060403000000B4
:1055100000000000000000000040201010080808F3
:10552000080808101020400000020408081010109D
:1055300010101008080402000000000008086B1C8E
:105540001C6B0808000000000000000008080808A4
:105550007F080808080000000000000000000000AC
:105560000000000006060403000000000000000028
:10557000FE0000000000000000000000000000002D
:1055800000000000060600000000804040202010BF
:1055900010080804040202000000001824424242DD
:1055A0004242424224180000000000080E08080889
:1055B00008080808083E00000000003C4242422063
:1055C00020100804427E00000000003C42422018E7
:1055D00020404042221C00000000002030282424EB
:1055E00022227E20207800000000007E0202021AA3
:1055F00026404042221C0000000000382402021A0B
:1056000026424242241800000000007E2222101090
:1056100008080808080800000000003C4242422434
:1056200018244242423C000000000018244242423A
:1056300064584040241C00000000000000001818BE
:105640000000000018180000000000000000000822
:1056500000000000000808040000004020100804BA
:1056600002040810204000000000000000007F003D
:1056700000007F000000000000000002040810206D
:1056800040201008040200000000003C4242464056
:1056900020101000181800000000001C225A555558
:1056A00055552D42221C0000000000080818141453
:1056B000243C224242E700000000001F2222221E5A
:1056C00022424242221F00000000007C42420101AF
:1056D00001010142221C00000000001F2242424240
:1056E00042424242221F00000000003F4212121EAE
:1056F00012120242423F00000000003F4212121EFE
:1057000012120202020700000000003C22220101E6
:1057100001712122221C0000000000E742424242A7
:105720007E42424242E700000000003E08080808AE
:1057300008080808083E00000000007C1010101047
:10574000101010101010110F0000007722120A0E16
:105750000A12122222770000000000070202020251
:1057600002020202427F0000000000773636363621
:105770002A2A2A2A2A6B0000000000E346464A4AE9
:1057800052525262624700000000001C2241414117
:1057900041414141221C00000000003F4242424280
:1057A0003E020202020700000000001C22414141AB
:1057B00041414D53321C60000000003F4242423ED6
:1057C0001212222242C700000000007C4242020462
:1057D00018204042423E00000000007F49080808AF
:1057E00008080808081C0000000000E74242424286
:1057F00042424242423C0000000000E74242222472
:1058000024141418080800000000006B4949494995
:105810005555362222220000000000E742242418B9
:105820001818242442E700000000007722221414F4
:1058300008080808081C00000000007E2120101045
:1058400008040442423F00000078080808080808DD
:105850000808080808087800000002020404080884
:105860000810102020204040001E101010101010B2
:105870001010101010101E0000384400000000002E
:105880000000000000000000000000000000000018
:1058900000000000000000FF0006080000000000FB
:1058A0000000000000000000000000000000003CBC
:1058B0004278444242FC0000000000030202021A47
:1058C00026424242261A0000000000000000003874
:1058D000440202024438000000000060404040786A
:1058E0004442424264D80000000000000000003C36
:1058F000427E0202423C0000000000F08808087E60
:1059000008080808083E0000000000000000007CB5
:1059100022221C023C42423C000000030202023AE6
:105920004642424242E700000000000C0C00000E1C
:1059300008080808083E0000000000303000003869
:10594000202020202020221E0000000302020272DC
:10595000120A1612227700000000000E080808083C
:1059600008080808083E0000000000000000007F52
:105970009292929292B70000000000000000003B5B
:105980004642424242E70000000000000000003CA6
:1059900042424242423C0000000000000000001B66
:1059A00026424242221E020700000000000000784A
:1059B00044424242447840E000000000000000778A
:1059C0004C040404041F0000000000000000007CE0
:1059D00042023C40423E0000000000000008083E39
:1059E00008080808083000000000000000000063FC
:1059F0004242424262DC000000000000000000E77A
:105A0000422424140808000000000000000000EBFD
:105A10004949555522220000000000000000007690
:105A200024181818246E000000000000000000E791
:105A30004224241418080807000000000000007E1B
:105A400022100808447E000000C0202020202010E2
:105A5000202020202020C000101010101010101046
:105A60001010101010101010000608080808081078
:105A700008080808080806000C32C20000000000F0
:105A80000000000000000000C9EE000027FC140424
:105A900014A4811042084040104017FC2040E0E070
:105AA000215022482C4620400040DBDA110411240A
:105AB000112411241124FD24112411241124112452
:105AC00011241D24E124422402040404CAD002004B
:105AD000010000007FFC0100010001003FF82108E7
