:020000040800F2
:10000000A807002095020008932A0008C5200008D0
:10001000912A0008D1070008BD3A0008000000003E
:10002000000000000000000000000000AD2C0008EF
:10003000C90B000800000000B52A00081D2E0008AA
:10004000AF020008AF020008AF020008AF020008CC
:10005000AF020008AF020008AF020008AF020008BC
:10006000AF020008AF020008AF020008AF020008AC
:10007000AF020008AF020008AF020008AF0200089C
:10008000AF020008AF020008AF020008AF0200088C
:10009000AF020008AF020008AF020008AF0200087C
:1000A000AF020008AF020008AF020008AF0200086C
:1000B000AF020008AF020008AF020008AF0200085C
:1000C000AF020008AF020008AF020008AF0200084C
:1000D000AF020008AF020008AF020008AF0200083C
:1000E000AF020008AF020008AF020008AF0200082C
:1000F000AF020008AF020008AF020008AF0200081C
:10010000AF020008AF020008AF020008AF0200080B
:10011000AF020008AF020008AF020008AF020008FB
:10012000AF020008AF020008AF020008AF020008EB
:10013000AF020008AF020008AF020008AF020008DB
:10014000AF020008AF020008AF020008AF020008CB
:10015000AF020008AF020008AF020008AF020008BB
:10016000AF020008AF020008AF020008AF020008AB
:10017000AF020008AF020008AF0200080000000054
:10018000AF020008AF020008AF020008AF0200088B
:10019000AF020008AF020008AF020008AF0200087B
:1001A000AF020008AF020008AF02000800F002F83A
:1001B00000F046F80AA090E8000C82448344AAF1BB
:1001C0000107DA4501D100F03BF8AFF2090EBAE8B9
:1001D0000F0013F0010F18BFFB1A43F0010318477B
:1001E0001C6100003C610000103A24BF78C878C14F
:1001F000FAD8520724BF30C830C144BF04680C602D
:10020000704700000023002400250026103A28BF74
:1002100078C1FBD8520728BF30C148BF0B60704778
:10022000782900F0BB80732900F09382002070478A
:100230001FB503F09DFD00F08EF91FBD10B510BD78
:1002400000F08BFA1146FFF7F3FF03F0FFFC00F01C
:10025000A9FA03B4FFF7F2FF03BC00F0B3FA000001
:100260000B49D1F800C04A685CF8043B1068184498
:1002700042F8040B8C4528BFA1F1DC0C8A4228BF50
:10028000A1F1DC02C1F800C04A6020F000407047D4
:10029000400100200948804709480047FEE7FEE783
:1002A000FEE7FEE7FEE7FEE7FEE7FEE7FEE7FEE726
:1002B00004480549054A064B70470000212E0008F6
:1002C000AD010008A8010020A8070020A803002015
:1002D000A80300200FB41CB5074B06AA7B4469464F
:1002E0000090059800F00BFA0020694600F01AFA19
:1002F0001CBC5DF814FB00004504000070B504460A
:1003000085690068C10601D5302600E02026C007B7
:1003100007D070BDD4E9012130469047206A401CC7
:1003200020626D1EF6D570BD70B5044685690078F3
:10033000C00707D170BDD4E9012120209047206A71
:10034000401C20626D1EF6D570BD70B50C4605468A
:10035000012A05D02878800600D5EA69002302E04A
:10036000012305E05B1C934202D2E05C0028F9D136
:10037000A869E618C01AA861286A184428622846A5
:10038000FFF7BCFF04E0D5E9012114F8010B904709
:10039000B442F8D32846FFF7C7FF70BD70B50446D6
:1003A0000D4621461068AFF300802188090502D56B
:1003B0000F4A7A4402E00E4A7A440E32002104F1D8
:1003C000240305E000F00F060009965D5E54491C09
:1003D0000028F7D120780023000704D5702D02D023
:1003E00009B1022311322046BDE8704000F029B95E
:1003F000D25E00002DE9F05F894604464FF0000A06
:10040000DFF824B1FB44C0F820A02046E16888470B
:1004100000287DD0252806D0D4E901219047206A04
:10042000401C2062F1E700255F462046E1688847CE
:100430002028064607DB312E05D2B81910F8200C0B
:1004400008B10543F1E7A80701D525F00405C4F874
:100450001CA00027C4F818A02A2E09D0304603F0AB
:100460007AFB38B304EB8708303EC8F8186019E00F
:1004700059F8041B204604EB87029161E168884724
:10048000012F064618D1E069002820DA25F0200562
:100490001DE0D8F8180000EB800006EB4000303873
:1004A000C8F818002046E1688847064603F053FB69
:1004B0000028EED1012F0AD02E2E08D12046E16867
:1004C00088477F1C0646022F45F02005C4DBA06943
:1004D000002803DA404245F00105A061E80701D099
:1004E00025F01005A6B1A6F14100192802D8203642
:1004F00045F400654A463146204625604D46FFF7E3
:100500008FFE60B1012807D0ED1D25F0070000E047
:1005100007E000F1080978E705F1040975E73046BE
:100520007AE7206ABDE8F09FA85E00000B4910B58D
:10053000A1F17C020A4CC2E93712372106E000EB38
:10054000104342F82130074B00FB03400B1EA1F182
:100550000101F4DC10BD0120E8E70000E00000200C
:10056000E119D666CD0D010040EA0103024630B51F
:100570009B0710D14FF0013400E008C208C91D1BD1
:100580009D4315EAC41FF8D013F0FF0102F8011BC8
:100590000DD01B0AF8E711F8013B002B02F8013BD4
:1005A00005D011F8013B002B02F8013BF3D130BD1F
:1005B00010B5431C02E010F8011B71B18107FAD19C
:1005C0004FF0013202C88C1A8C4314EAC211F9D0E0
:1005D000C01A0A0603D0C01E10BDC01A10BD0A04FE
:1005E00001D0801E10BD0902FCD0401E10BD4FF08E
:1005F000000200B5134694469646203922BFA0E873
:100600000C50A0E80C50B1F12001BFF4F7AF09077E
:1006100028BFA0E80C5048BF0CC05DF804EB89006F
:1006200028BF40F8042B08BF704748BF20F8022BB2
:1006300011F0804F18BF00F8012B704770477047CA
:1006400070472DE9F0470D4699469246044600F161
:1006500024080168880604D5E06921F010012160B2
:1006600000E00120A84201DD471B00E00027A1694E
:100670007A1902EB0900081AA0612078C00602D49A
:100680002046FFF73BFE002608E0D4E901211AF8D6
:1006900006009047206A401C761C20624E45F4DB21
:1006A0002078C0060AD52046FFF728FE06E0D4E9E8
:1006B000012130209047206A401C2062381EA7F19B
:1006C0000107F4DC07E0D4E9012118F805009047A0
:1006D000206A401C2062281EA5F10105F3DC20469B
:1006E000FFF722FE2078000602D50220BDE8F08741
:1006F0000120FBE701694A1C02610878704700B5D8
:100700008FB0CDE901310021059105497944CDE94A
:10071000031011466846FFF76DFE0FB000BD0000E4
:10072000E5FFFFFF0A6802F8010B0A60704710B589
:10073000436913B1AFF3008001E0FFF706FE01202B
:1007400010BD127800F124010A7000224A700122C3
:10075000EDE711684FF0FF32E9E7754600F02CF83D
:10076000AE4605006946534620F00700854618B09E
:1007700020B5FFF79DFDBDE820404FF000064FF08B
:1007800000074FF000084FF0000B21F00701AC46C6
:10079000ACE8C009ACE8C009ACE8C009ACE8C009E5
:1007A0008D46704710B50446AFF300802046BDE883
:1007B0001040FFF74EBD0000004870474801002080
:1007C0007047000001491820ABBEFEE7260002007A
:1007D000FEE7000010B5124C00224021204601F037
:1007E000B2F81048016821F0C0010160016841F0D1
:1007F000400101600022082101F0A5F8012003F06A
:10080000C9F901224021204601F09DF8012003F0A2
:10081000C1F920460022BDE81040402101F093B804
:10082000001C02400020024030B5184887B0016823
:1008300041F080010160016801F0800105910168CB
:1008400041F4807101600068114C00F480700590E3
:1008500040200090012001900290032003906946FF
:10086000204600F07DFF08210A4D00916946284688
:1008700000F076FF01224021204601F064F80122B9
:100880000821284601F05FF807B030BD303802403B
:10089000001C02400020024010B5124C00224021F2
:1008A000204601F050F81048016821F0C0010160B5
:1008B000016841F0400101600122082101F043F884
:1008C000012003F067F901224021204601F03BF8A6
:1008D000012003F05FF920460022BDE810404021CE
:1008E00001F031B8001C0240002002402DE9F04127
:1008F000074617480024016821F0C0010160016823
:100900000160144E2546804600224021304601F009
:100910001AF8032003F03EF901224021304601F08D
:1009200012F86006040E0821404601F007F808B1ED
:10093000641CE4B26D1CEDB2082DE5D327B1FFF7BE
:1009400049FF2046BDE8F081FFF7A6FFF9E7000068
:1009500000200240001C02402DE9F041184F0546DE
:10096000386820F0C0003860386840F040003860D7
:10097000144E00224021304600F0E5FF00242806F6
:1009800001D5012200E000220821384600F0DBFFFB
:100990006806050E01224021304600F0D4FF0120F8
:1009A00003F0F8F800224021304600F0CCFF01208F
:1009B00003F0F0F8641CE4B2082CE0D3BDE8F08149
:1009C00000200240001C024070B5134C206820F04B
:1009D000C0002060206840F0400020600122082113
:1009E000204600F0B0FF0D4D01224021284600F0C6
:1009F000AAFF012003F0CEF800220821204600F0D3
:100A0000A2FF012003F0C6F82846BDE8704000228E
:100A1000402100F098BF000000200240001C02406E
:100A200070B5134C206820F0C0002060206840F0B2
:100A3000400020600F4D00224021284600F083FF37
:100A400000220821204600F07EFF012003F0A2F8DA
:100A500001224021284600F076FF012003F09AF899
:100A60002046BDE870400122082100F06CBF000064
:100A700000200240001C024070B5174D002428469B
:100A8000296821F0C0012960296829600122082114
:100A900000F059FF012003F07DF8104E01224021A3
:100AA000304600F050FF012003F074F807E0641CAA
:100AB000E4B2FA2C03D9FFF7B3FF012070BD08217F
:100AC000284600F03BFF0028F1D1002240213046AB
:100AD00000F039FF002070BD00200240001C0240E1
:100AE000FEB51BA000F072F8002510241DA08DE8B3
:100AF00031004FF6E07633461F221E210A2002F015
:100B0000D7F821A08DE8310033461F2232210A2078
:100B100002F0CEF8182022A1CDE9001001243346BE
:100B20001F22029446210A2002F0C2F8202022A1AE
:100B3000CDE9001033461F22029464210A2002F0FE
:100B4000B7F8BDE8FE404FF4966003F015B800001A
:100B5000B2E2CAD4373AD6D0CEC4CFD4CABEB2E2FB
:100B6000CAD4000031365831363AC8ABB6AFB5E713
:100B7000D7D3BCBCCAF5D3D0CFDEB9ABCBBEBBB6E6
:100B8000D3ADC4FA0000000031365831363A57650B
:100B90006C636F6D65C8ABB6AFB5E7D7D300000027
:100BA00032345832343AC9EEDBDACAD0D6D0CEC4A9
:100BB000B2E2CAD40000000033325833323AD7D6FA
:100BC000CCE5B2E2CAD40000704700002DE9FE4334
:100BD00080464FF6FF75284601F076FA164C1F2620
:100BE0000096002122881423084601F0B3FB0096EA
:100BF00063882288A3F1140081B2002001F0AAFBCF
:100C00000E48012610270580CDF80080CDE9017639
:100C10001F232A460221002000F080FD08A0CDE914
:100C20000007029660881F23123881B22A460020EE
:100C300000F074FDBDE8FE83540000203800002061
:100C4000687474703A2F2F7777772E6C63647769A6
:100C50006B692E636F6D00002DE9F05F0746C2F1EE
:100C600001000FFA80F8C2EBC230400099460E46F0
:100C70004FF0010B0FFA80FA0025144652E0B8F14C
:100C8000000F09DB0AF102000FFA80FA641E08EB7C
:100C90000A00A4B20FFA80F80BF102000FFA80FBF1
:100CA0006D1C08EB0B000FFA80F8ADB25FEA4970DB
:100CB0000BD5301981B2781980B201F0DFFA7019C2
:100CC00081B2381980B201F0D9FA5FEA89700BD588
:100CD000301B81B2781980B201F0D0FA701B81B25A
:100CE000381980B201F0CAFA5FEA09700BD57019A1
:100CF00081B2381B80B201F0C1FA301981B2781B81
:100D000080B201F0BBFA5FEAC9700BD0701B81B2F0
:100D1000381B80B201F0B2FA301B81B2781B80B26E
:100D200001F0ACFAA542AAD3BDE8F09F2DE9F04747
:100D30009846DDE9085491460E46074601F004FA4C
:100D400023462A464146484601F0FEF933463A46D4
:100D500021462846BDE8F04701F0F6B9FEB524A0CB
:100D6000FFF734FF0C2527A0CDE9000500244FF63E
:100D7000E0773B461F221E2102940A2001F098FFD3
:100D800001262BA08DE861003B461F222D210A2061
:100D900001F08EFF31A0CDE900053B461F223C212A
:100DA00002940A2001F084FF102534A0CDE900054B
:100DB0003B461F22502102940A2001F079FF3AA0FD
:100DC0008DE861003B461F2264210A2001F070FF7C
:100DD00040A0CDE900053B461F22782102940A205D
:100DE00001F066FFBDE8FE404FF4966002F0C4BE1D
:100DF000B2E2CAD4363AD3A2CEC4CFD4CABEB2E28B
:100E0000CAD40000365831323A616263646566675D
:100E100068696A6B6C6D6E6F7071727374757677DA
:100E200078797A303132333435363738390000004A
:100E3000365831323A4142434445464748494A4B85
:100E40004C4D4E4F505152535455565758595A3095
:100E500031323334353637383900000036583132C4
:100E60003A7E21402324255E262A28295F2B7B7D7C
:100E70003A3C3E3F2F7C2D2B2E0000003858313657
:100E80003A6162636465666768696A6B6C6D6E6F10
:100E9000707172737475767778797A303132333451
:100EA0003536373839000000385831363A41424338
:100EB0004445464748494A4B4C4D4E4F505152537A
:100EC0005455565758595A303132333435363738ED
:100ED00039000000385831363A7E21402324255EFF
:100EE000262A28295F2B7B7D3A3C3E3F2F7C2D2BE9
:100EF0002E00000030B52F4887B00021026842F074
:100F000080020260026802F080020692026842F4E7
:100F1000807202600068012500F4807006908020D5
:100F20008DE82300032003906946234800F018FC55
:100F30002C02CDE90045214D6946284600F010FC01
:100F4000FFF772FC00222146284600F0FCFC0A2034
:100F500002F012FE01222146284600F0F4FC4FF474
:100F6000FA7002F009FE012205A9A82000F028F875
:100F70009DF81400112818D1022205A99F2000F025
:100F80001FF89DF8140026280FD19DF8150018B100
:100F9000012801D0022808D1012205A9A32000F0D0
:100FA0000FF89DF81400642802D0012007B030BD6E
:100FB0000020FBE730380240001C024000200240C5
:100FC0002DE9F04115460F460446FFF7FDFC702061
:100FD000FFF7C2FCFFF750FDE0B2FFF7BDFCFFF7E3
:100FE0004BFDFFF7F1FC7120FFF7B6FCFFF744FD66
:100FF00000246E1E09E0B44201D0012000E0002070
:10100000FFF774FC3855641CE4B2AC42F3D3BDE87E
:10101000F041FFF705BD00002DE9FC475E4E0024BE
:101020004FF00A0830785D4D401CC0B2B0FBF8F2BA
:1010300008FB12012746307009B10A287ED201222E
:1010400001A90220FFF7BCFF9DF80400002876D01C
:10105000032875D2FF218140C84340F0C000DFF86B
:1010600040A1504F28744FF001093AF814000422AF
:101070006946FFF7A5FF297C09FA04F0014265D013
:10108000B87930B1012818D002282CD003285DD1BE
:1010900042E09DF800109DF8010001F00F0100EB07
:1010A000012105EB440001819DF802209DF8031009
:1010B00002F00F0201EB02212CE09DF800109DF8D8
:1010C000010001F00F0100EB01207988091A05EBFE
:1010D000440081819DF802209DF8031002F00F0268
:1010E00001EB022131E09DF800109DF8010001F0B4
:1010F0000F0100EB01203988091A05EB440001813A
:101100009DF802209DF8031002F00F0201EB02216E
:101110007A88511A818119E09DF800109DF801002C
:1011200001F00F0100EB012105EB440081819DF8E6
:1011300002209DF8031002F00F0202E013E015E018
:1011400021E001EB02213A88511A0181641CE4B2CA
:10115000022C8AD301272A8900211AB9A88908B943
:101160008DF8041031709DF8040060B9287C0106E8
:1011700002D520F0800005E04FF6FF712981A9819A
:1011800000F0E00028743078F02801D986F800805B
:101190003846BDE8FC870000500000203C000020DD
:1011A00084620008540000202DE9FF5F8046C2F1F0
:1011B000010007B2C2EBC23040000E464FF0010BF7
:1011C0000FFA80FA00251446DDF838904DE0002F24
:1011D00008DB0AF102000FFA80FA641E07EB0A002E
:1011E000A4B207B20BF102000FFA80FB07EB0B0071
:1011F00007B26D1C0398ADB2C00719D0311901EBCD
:101200000900401C83B208EB050082B2311B89B291
:1012100080B200F099FF711901EB0900401C83B204
:1012200008EB040082B2711B89B280B200F08CFF1F
:101230000398800719D5311901EB0900401C83B2CE
:10124000A8EB050082B2311B89B280B200F07CFFAE
:10125000711901EB0900401C83B2A8EB040082B2B3
:10126000711B89B280B200F06FFFA542AFD3BDE819
:10127000FF9F00002DE9FF4F87B00027DDE9142311
:10128000BDF82840B846A14208D90D46214604467B
:10129000BDF82400ADF82850ADF82440BDF8285022
:1012A0009CB2A54207D9ADF828401446BDF82420C9
:1012B0002B46ADF82440BDF82840A14208D90D4680
:1012C00021460446BDF82400ADF82850ADF824406E
:1012D0001FFA83F90E46494521D1BDF82410ADF817
:1012E0000400814201D2084602E001D9ADF80410A1
:1012F00091B2814201D2084605E0BDF80420914236
:1013000001D9ADF804103C493346BDF804200988E2
:101310000091194601F01EF80BB0BDE8F08FBDF842
:1013200024300546581BBDF828100690881B92B241
:101330000590D01A0290A9EB0100A2EB050AA9EBD7
:10134000060B0490494501D1039102E0491E88B281
:10135000039034461FE098FBFBF10598294497FB66
:10136000F0F01FFA81FCADF804C02844069980B261
:101370000F44D044604503D901466046ADF80410DF
:101380001D492346BDF8042009880091194600F044
:10139000E1FF641CA4B203988442DCD9BDF82800A4
:1013A000271A02984743A61B06FB0AF621E0049879
:1013B000BDF8241097FBF0F0084496FBFBF129449C
:1013C0001FFA81FC029980B2ADF804C00F44564464
:1013D000604503D901466046ADF80410064923462E
:1013E000BDF8042009880091194600F0B3FF641C81
:1013F000A4B24C45DBD98FE7380000202DE9FF4F20
:1014000083B0054682464B2089464FF000084FF0D6
:10141000800B01903049109A08EB081011F8103039
:10142000127893423CD101EB400000904178109833
:101430004078814234D109F10F0083B205F10F00E9
:1014400082B24946284601F06DF900260098002432
:101450008719119890B1214905980880B9782BFA1D
:1014600004F0014203D04946284600F007FF6D1CF6
:10147000ADB2A5EB0A00102827D009E0B9782BFA05
:1014800004F0014201D0059800E0069801F0ECFA62
:10149000641CE4B2082CDCD3761CF6B2202ED5D323
:1014A00008F1010001991FFA80F88845B2D30C4970
:1014B0004888401E83B2088807B0401EBDE8F04F40
:1014C00082B20021084601F02DB909F1010055460C
:1014D0001FFA80F9E0E70000DE470008380000202E
:1014E000540000202DE9FF4F83B0054682460720B7
:1014F00001900020894680464FF0800B00EB800170
:1015000001EB48102F49109A11F8103012789342CD
:101510003CD101EB40000090417810984078814226
:1015200034D109F1170083B205F1170082B24946A0
:10153000284601F0F7F80026009800248719119832
:1015400090B1214905980880B9782BFA04F001423E
:1015500003D04946284600F091FE6D1CADB2A5EBC4
:101560000A00182827D009E0B9782BFA04F00142C4
:1015700001D0059800E0069801F076FA641CE4B208
:10158000082CDCD3761CF6B2482ED5D308F1010026
:1015900080B2019980468842B0D30C494888401EE9
:1015A00083B2088807B0401EBDE8F04F82B2002128
:1015B000084601F0B7B809F1010055461FFA80F955
:1015C000E0E70000D451000838000020540000205B
:1015D0002DE9FF4F83B005468246042089464FF02F
:1015E00000084FF0800B01903049109A08EB8810EA
:1015F00011F81030127893423CD101EB400000907A
:10160000417810984078814234D109F11F0083B2AB
:1016100005F11F0082B24946284601F083F80026F2
:10162000009800248719119890B1214905980880E5
:10163000B9782BFA04F0014203D04946284600F05D
:101640001DFE6D1CADB2A5EB0A00202827D009E0D5
:10165000B9782BFA04F0014201D0059800E0069811
:1016600001F002FA641CE4B2082CDCD3761CF6B25A
:10167000802ED5D308F1010001991FFA80F8884522
:10168000B2D30C494888401E83B2088807B0401E78
:10169000BDE8F04F82B20021084601F043B809F1DD
:1016A000010055461FFA80F9E0E70000DA53000810
:1016B000380000205400002010B5144601F02EF828
:1016C0002046BDE8104001F0CFB9000070B51546C6
:1016D00001F1270293B200F1270292B201F022F841
:1016E00000244FF4C86605EB440115F8140049784E
:1016F00040EA012001F0B8F9641CB442F3DB06486B
:1017000041880088491E401EBDE870408BB282B2FD
:101710000021084601F006B8540000202DE9FE43E0
:101720001F46DDE90A469046894620460C9DFEF795
:101730003FFF0A4980B240420988CDE9004601EBEB
:10174000C00000EBD070C0F34F003B464246494614
:10175000029501F0ADFABDE8FE83000054000020C0
:101760002DE9F84FDFF8A091002209F1040A0AF1EF
:10177000040B4FF00F080BF1040E01260B68964086
:101780003340B34271D14C68022C01D0122C11D1DC
:10179000D40800EB84073D6A5407E40E08FA04FC01
:1017A00025EA0C05D1F810C00CFA04FC4CEA050C33
:1017B000C7F820C007685400032591F804C0A5406D
:1017C0000CF0030CAF430CFA04FC4CEA070CC0F815
:1017D00000C04F68012F05D0022F03D0112F01D078
:1017E000122F11D18768D1F80CC0AF430CFA04FC5A
:1017F0004CEA070CC0F808C04768B7430E79C6F337
:10180000001696403E434660C668AE438D68A540CC
:101810003543C5604C68E4006FD53C4C256845F401
:1018200080452560246822F0030504F48044009478
:10183000374C2E19D6F808789407250F08FA05F4C6
:10184000A743344CA04201D100242EE0324CA042E8
:1018500001D1012429E0314CA04201D1022424E02D
:101860002F4CA04202D103241FE046E02D4CA042A1
:1018700001D1042419E02C4CA04201D1052414E02C
:101880002A4CA04201D106240FE0294CA04201D1EC
:1018900007240AE0274CA04201D1082405E0264C89
:1018A000A04201D1092400E00A24AC403C43C6F820
:1018B0000848D9F800404D464E689C43F60300D5D1
:1018C0001C432C60DAF8004055464E689C43B60332
:1018D00000D51C432C60DBF800405D464E689C43FD
:1018E000F60200D51C432C60DEF8004075464E68B9
:1018F0009C43B60200D51C432C60521C102AFFF4F6
:101900003CAFBDE8F88F0000003C01404438024085
:101910000030014000000240000402400008024084
:10192000000C024000100240001402400018024067
:10193000001C0240002002400024024000690840D0
:1019400000D0012070470AB1816170470904FBE7AC
:10195000014800687047000030000020024801681C
:10196000491C016070470000300000200B4810B592
:10197000016841F400710160016841F48061016017
:10198000016841F480710160052000F03FF80F20EC
:1019900000F006F800F015F8002010BD003C0240F1
:1019A00010B5044600F08CF94FF47A71B0FBF1F0F9
:1019B00000F074FB00222146501E00F007F80020C2
:1019C00010BD08B50020009008BD0000F0B40E4B1B
:1019D0001B68C3F30223C3F10704042C00D90424B9
:1019E0001D1D072D01D2002300E0DB1E012606FA93
:1019F00004F56D1E0D409D409E40761E164045EA42
:101A00000601F0BC01F046B80CED00E0064A00F01B
:101A1000070110684FF6FF03184040EA0120034910
:101A200008431060704700000CED00E00000FA056C
:101A30002DE9F8431D48016841F0805101600068BC
:101A4000012700F080500090380490FAA0F0DFF8F1
:101A50006080B0FA80F048F82070FFF779FF044604
:101A60004FF47A75134E04E0FFF772FF001BA84293
:101A700013D87068C003F7D54FF4003090FAA0F087
:101A8000B0FA80F048F82070FFF762FF044607E0E4
:101A9000FFF75EFF001BA84202D90320BDE8F883D0
:101AA00070688003F4D50020F8E700004038024059
:101AB00000000E42007000402DE9F05FDFF8F8A151
:101AC00004460F46DAF80000DFF8F08100F00F025C
:101AD000C8B27A49814641F2883608F10808BA420C
:101AE00061D202468AF80020DAF8000000F00F0008
:101AF000B8427DD12078800707D5D8F80020A368A8
:101B000022F0F0021A43C8F800202078C0072DD038
:101B1000606801281AD002281BD0032819D0096850
:101B20008907002964DAD8F80010474621F003013C
:101B30000143C8F80010FFF70BFF05466068012855
:101B40000FD0022818D003281CD027E00968890389
:101B5000E7E709688901E4E7FFF7FAFE401BB042B6
:101B600058D83868C0F381000128F5D188E0FFF724
:101B7000EFFE401BB0424DD83868C0F38100022808
:101B8000F5D17DE03868FFF7E3FE401BB042F9D99C
:101B900040E0FFF7DDFE401BB0423BD8386810F054
:101BA0000C0FF6D16CE02078800707D5D8F800201C
:101BB000A36822F0F0021A43C8F800202078C0077A
:101BC0004CD06068012828D0022829D0032827D0CB
:101BD00009688907002949DAD8F8002022F00302B1
:101BE0000243C8F80020FFF7B3FE0546606800E036
:101BF0003CE001281DD0022829D0032838D0B34664
:101C00004646306810F00C0F28D0FFF7A1FE411BAC
:101C10005945F6D90320BDE8F09F09688903D9E743
:101C200009688901D6E7FFF793FE411B594502D9A0
:101C3000F0E7B34646463068C0F381000128F2D190
:101C40000CE0FFF785FE411B594502D9E2E7B34698
:101C500046463068C0F381000228F2D18AF800902D
:101C6000DAF8000000F00F00B84209D00120D2E7F6
:101C700044462068FFF76CFE401BB042F9D9C9E723
:101C80002078400707D5D8F80010E26821F4E05129
:101C90001143C8F800102078000708D5D8F80010C4
:101CA000226921F4604141EAC201C8F800100F2006
:101CB000FFF776FE0020AEE7003C0240003802400D
:101CC00010B500F017F808490968F02292FAA2F25C
:101CD00001F0F001B2FA82F2D140044A515CC840EE
:101CE0000349086010BD0000083802407462000813
:101CF0001C00002030B51948006810F00C0118488D
:101D000012D0184C04290ED008290DD1134A121FE5
:101D10001168136801F03F015D0247F6C07304D5F6
:101D2000B4FBF1F003E0204630BDB0FBF1F01168E8
:101D3000194093FAA3F3B3FA83F3D94048431168E7
:101D40004FF4403292FAA2F201F44031B2FA82F238
:101D5000D140491C4900B0FBF1F030BD08380240C9
:101D60000024F40040787D012DE9F84F0446007806
:101D7000DFF8FCA2BF4DC0074FF0000648D0DAF8EC
:101D800000105046C1F38101012908D00068C0F35A
:101D9000810002280AD1281D0068400206D5286863
:101DA000800335D56068002873D031E0DFF8C49235
:101DB00009F1020989F80060FFF7CAFD074641F200
:101DC000883804E0FFF7C4FDC11B41457AD8286874
:101DD0008003F7D4207989F80000606860B1FFF7CC
:101DE000B7FD074604E0FFF7B3FDC11B4145EDD841
:101DF00028688003F7D50BE0FFF7AAFD074604E04B
:101E0000FFF7A6FDC11B4145E0D828688003F7D441
:101E10002078DFF86492800744D5DAF80010504645
:101E200011F00C0F4FF0F80809D00068C0F38100E2
:101E300002280BD18E48001F0068400206D4286893
:101E4000800714D5E068012823D110E0E068D0B104
:101E50000120C9F80000FFF77BFD074604E0FFF70B
:101E600077FDC01B6428B1D828688007F7D528689B
:101E700098FAA8F22169B2FA82F220F0F8009140B3
:101E8000084328600EE0C9F80060FFF761FD0746CF
:101E900005E0EAE0FFF75CFDC01B642812D8286863
:101EA0008007F7D42078000725D5DFF8C481734870
:101EB000616908F16C0881B101210160FFF748FDFB
:101EC000074605E07EE0FFF743FDC01B642879D894
:101ED000D8F800008007F6D50DE00660FFF738FD62
:101EE000074604E0FFF734FDC01B64286AD8D8F821
:101EF00000008007F6D42078400753D55C4838307E
:101F0000016841F0805101600068DFF8748100F0E1
:101F100080500090D8F8001041F48071C8F800108B
:101F2000FFF716FD074604E0FFF712FDC01B64280B
:101F300048D8D8F80000C005F6D5DFF834B10BF169
:101F4000680B8BF80060FFF703FD074641F2883805
:101F500004E0FFF7FDFCC11B41457ED8DBF8000023
:101F60008007F6D4207A8BF80000A06868B1FFF7EC
:101F7000EFFC074604E0FFF7EBFCC11B41456CD8C2
:101F8000DBF800008007F6D50CE0FFF7E1FC074620
:101F900004E0FFF7DDFCC11B41455ED8DBF8000023
:101FA0008007F6D4A069E8B3DAF80010C1F3810124
:101FB00002295AD0022806D0C9F86060FFF7C8FC91
:101FC00004464DE049E04F46C9F86060FFF7C0FCA9
:101FD000064604E0FFF7BCFC801B64283DD8286857
:101FE0008001F7D4D4E90701084347F6C07191FA9C
:101FF000A1F1626AB1FA81F18A40A16A4FF0FF3320
:1020000003EB51014FF4403393FAA3F3B3FA83F394
:1020100099400A4310434FF0706292FAA2F2B2FA6A
:1020200082F200E01FE0E16A914008431049091F75
:10203000086001203866FFF78BFC044604E0FFF7D8
:1020400087FC001B642808D828688001F7D50AE0BF
:10205000FFF77EFC001B642802D90320BDE8F88F3F
:1020600028688001F4D40020F8E70120F6E700009A
:10207000083802400038024000004742800E4742C4
:10208000007000404FF0E0210428086903D020F0E0
:1020900004000861704740F00400FAE710B5401EE4
:1020A000B0F1807F01D3012010BD4FF0E0246061CA
:1020B0000F21601700F0EEFC0020A06107202061D6
:1020C000002010BDFEE700002DE9F047174F06463F
:1020D00000217888401E83B23888401E82B20846AC
:1020E00000F020FBDFF848804FF00061C8F80010D6
:1020F0002021C8F8001000254FEA16290CE0002422
:1021000006E0484600F0BAFDF0B200F0B7FD641CEE
:102110003888A042F5D86D1C7888A842EFD84FF4D3
:102120000061C8F80010BDE8F087000054000020EE
:10213000180C024038B5034C2488009400F00AF9CA
:1021400038BD0000380000202DE9FE4F0026A2EB2C
:10215000000882465F1A701E35468946B8F1000FA6
:1021600002DD4FF0010102E003D14FF000010191C7
:1021700002E0C8F100080190002F02DD4FF00100DD
:1021800002E003D14FF00000009002E0C7F1000729
:1021900000904046B84501DD044600E03C46601C26
:1021A0004FF0000B029015E01FFA89F11FFA8AF038
:1021B00000F064F846443D44A64202DD0199361B16
:1021C0008A44A54202DD00992D1B89440BF10100D0
:1021D0001FFA80FB02998B45E6DDBDE8FE8F2DE9F5
:1021E000FF5F0026A2EB0008CDE901015F1A701E17
:1021F0003546B8F1000F02DD4FF0010102E003D1D6
:102200004FF000018B4602E08346C8F10008002F22
:1022100002DD4FF0010002E003D14FF000008246E2
:1022200002E08246C7F100074046B84501DD04469A
:1022300000E03C46601C4FF00009039019E00120CB
:102240000090DDE90101DDE90E3201F0BDFC4644FC
:102250003D44A64203DD0198361B58440190A54237
:1022600003DD02982D1B5044029009F101001FFA72
:1022700080F903998945E2DDBDE8FF9F10B500F0C4
:102280004DFA03480088BDE8104000F0EDBB0000A7
:10229000380000202DE9F0411C4615460E46074641
:1022A0000B46FFF751FF3A46234631461046FFF7EB
:1022B0004BFF23462A4619463846FFF745FF2A4674
:1022C00023463146BDE8F0411046FFF73DBF2DE9FA
:1022D000F05F9A460A9C93468146A2EB04080719D0
:1022E0000D461FFA88F2B8B20B46FFF72DFFAAEB96
:1022F000040625444A46B3B2A9B21046FFF724FFAC
:1023000053461FFA88F2B8B21946FFF71DFF5A4626
:10231000B3B2A9B21046FFF717FFA9B2B8B20123B2
:102320002246FEF799FCA9B21FFA88F00223224642
:10233000FEF792FCB1B21FFA88F004232246FEF7A2
:102340008BFCB1B2B8B22246BDE8F05F0823FEF7BD
:1023500083BC00002DE9F041141A641CA6B25C1A7B
:10236000641CA7B2DDF8188000F0DCF900250AE053
:10237000002404E0404600F077FB641CA4B2B442A1
:10238000F8D36D1CADB2BD42F2D306484188008837
:10239000491EBDE8F041401E8BB282B200210846C2
:1023A00000F0C0B9540000202DE9F8430E4613494F
:1023B000089C1D4609880091591C8BB2171B00EB25
:1023C0000408BAB21FFA88F03146FFF7C3FFA81B12
:1023D000614200EB410085B22644B1B2B8B201239C
:1023E00022460095FEF7E0FEB1B21FFA88F0022304
:1023F00022460095FEF7D8FEBDE8F883380000209D
:102400000D4810B5016886B041F008010160006810
:10241000012400F0080005904FF4C350CDE90004FA
:102420000320CDE9024069460448FFF799F90448C2
:10243000C0F8984206B010BD30380240000C02408F
:102440000080414210B500F0C1FBFFF7D9FF00F05A
:10245000F1F8F02000F09EFAC32000F08DFAF02091
:1024600000F098FA962000F087FA362000F092FAF1
:10247000482000F081FA3A2000F08CFA052000F0A4
:102480007BFAB02000F086FA802000F075FAB620C2
:1024900000F080FA002000F06FFA022000F06CFAE1
:1024A000B52000F077FA022000F066FA032000F071
:1024B00063FA002000F060FA042000F05DFAB12019
:1024C00000F068FA802000F057FA102000F054FA6B
:1024D000B42000F05FFA002000F04EFAB72000F0C0
:1024E00059FAC62000F048FAC52000F053FA1C2023
:1024F00000F042FAE42000F04DFA312000F03CFAFE
:10250000E82000F047FA402000F036FA8A2000F078
:1025100033FA002000F030FA002000F02DFA2920D4
:1025200000F02AFA192000F027FAA52000F024FA7A
:10253000332000F021FAC22000F02CFAA72000F08E
:1025400029FAE02000F026FAF02000F015FA092020
:1025500000F012FA132000F00FFA122000F00CFA2B
:10256000122000F009FA2B2000F006FA3C2000F0BF
:1025700003FA442000F000FA4B2000F0FDF91B2084
:1025800000F0FAF9182000F0F7F9172000F0F4F93C
:102590001D2000F0F1F9212000F0EEF9E12000F01B
:1025A000F9F9F02000F0E8F9092000F0E5F913202E
:1025B00000F0E2F90C2000F0DFF90D2000F0DCF96A
:1025C000272000F0D9F93B2000F0D6F9442000F094
:1025D000D3F94D2000F0D0F90B2000F0CDF91720F1
:1025E00000F0CAF9172000F0C7F91D2000F0C4F967
:1025F000212000F0C1F9F02000F0CCF93C2000F0DF
:10260000BBF9F02000F0C6F9692000F0B5F91320FD
:1026100000F0C0F9112000F0BDF9292000F0BAF94E
:10262000002000F0D5F9BDE810404FF6FF70FFF72D
:102630004BBD000010B5074C4FF080502060642067
:1026400001F09AFAA0142060BDE81040322001F099
:1026500093BA0000180C024010B500F05FF8BDE816
:10266000104000F0E1B900002DE9F843002000908F
:10267000F02000F08FF9C32000F07EF9F02000F088
:1026800089F9962000F078F9224D4FF0006028601B
:1026900001248611E84620272E60FB2000F0EEFA88
:1026A0002F6004F11000C0B200F0E8FA2E60D320D1
:1026B00000F0E4FA2F6000F0AFFA08EB040101F833
:1026C000010C2E60FB2000F0D9FA2F60002000F0F2
:1026D000D5FA641CE4B2042CDED34FF40060286009
:1026E000F02000F057F93C2000F046F9F02000F00F
:1026F00051F9692000F040F99DF801004FF6FF7292
:1027000002EA002004499DF8022010438880BDE8B9
:10271000F8830000180C0240540000200B460246CB
:10272000AFF300802DE9F041DFF8508007461C46EA
:1027300015460E4698F80C0000F02CF9380A00F007
:102740001BF9F8B200F018F9280A00F015F9E8B200
:1027500000F012F998F80E0000F01CF9300A00F0B1
:102760000BF9F0B200F008F9200A00F005F9E0B228
:1027700000F002F9BDE8F04100F01AB95400002061
:102780002DE9FF4F81B00EAE824696E83100203829
:1027900000F0FF080298DFF8E0B02044401E83B24A
:1027A0000AEB5400BBF80010401E009182B2504664
:1027B0000299FFF7B7FF4FF000067DBB2F4908EBEA
:1027C000480001EB800901F2744000EB081817E0A3
:1027D0000C2C03D018F8065000270CE019F806500E
:1027E000FAE7E80701D0039800E0049800F03CF90C
:1027F0006D087F1CFFB2B7EB540FF2D3761CF6B214
:10280000A642E5D327E00C2C09D01D4800EB0810A8
:102810000025875D029800EB060915E019E01748CE
:1028200008EB480100EB8100F2E70398ABF80000E9
:10283000F80706D00AEB05001FFA89F180B2FFF70E
:102840001DFD7F086D1CEDB2B5EB540FEDD3761C6A
:10285000F6B2A642D7D30098ABF8000009484188E9
:10286000008805B0491EBDE8F04F401E8BB282B211
:1028700000210846FFF756BF380000207A3D0008C7
:10288000EE410008540000202DE9FF4F83B00027DF
:10289000DDF840801D4681463C46BA464FEA580660
:1028A000DFF864B02AE0281B401EC1B20A2001F004
:1028B00057FA0599B1FBF0F00A21B0FBF1F201FBE8
:1028C000120027B9691E8C4201DA40B1012730306D
:1028D000C0B28DE8010506FB049080B205E020221D
:1028E00006FB04908DE8040580B20849BBF800306F
:1028F0000A880499FFF744FF641CE4B2AC42D2D3C7
:1029000007B0BDE8F08F00003A000020380000203A
:102910002DE9FE4F1C4616460F460546DFF84C9043
:10292000DFF84CA0DFF84CB0DDF8308017E0B9F8E4
:102930000020521EAA4217DBB9F80210491EB94204
:1029400012DB8DE84101BAF80030BBF800203946AF
:102950002846FFF715FF05EB560085B2641C20786A
:10296000A0F120015E29E2D9BDE8FE8F54000020CD
:102970003A0000203800002010B5054C4FF00061EF
:1029800021602021216000F079F9E014206010BD61
:10299000180C024010B5054C4FF000612160891100
:1029A000216000F06BF9E014206010BD180C0240AB
:1029B0000148007AFFF7EEBF5400002010B50C4626
:1029C000FFF7E8FFE0B2BDE81040FFF7D5BF000019
:1029D00014492A224FF4A0738A812B22CA812C2207
:1029E0000A812E224A8110F0030088714FF4F072A0
:1029F0000BD001280DD002280FD0032811D10A8056
:102A00004B80E8213620FFF7D9BF0B804A80482150
:102A1000F8E70A804B802821F4E70B804A80882160
:102A2000F0E770475400002070B50D4C4FF0006087
:102A30002060801120600B48807A00F01FF9202070
:102A4000206000F0E9F800F0E7F8054600F0E4F84F
:102A5000E11421604FF6FF7101EA0521084370BDC2
:102A6000180C02405400002070B5084C05464FF089
:102A70000060206020202060280A00F0FFF8E8B203
:102A800000F0FCF8E014206070BD0000180C02405B
:102A9000FEE770470907090E002806DA00F00F006C
:102AA00000F1E02080F8141D704700F1E02080F86C
:102AB0000014704770470000FEB51BA0FEF786F8B3
:102AC0001E211E4A0846FEF701FE012510241CA007
:102AD0008DE831004FF6E07633461F224B212A2045
:102AE00000F0E6F8154A1E215A20FEF7EFFD14A06B
:102AF0008DE8310033461F224B21662000F0D8F8C4
:102B00000E4A1E219620FEF7E1FD0DA08DE8310052
:102B100033461F224B21A22000F0CAF8BDE8FE4038
:102B20004FF4966001F028B8B2E2CAD4383ACDBC6E
:102B3000C6ACCFD4CABEB2E2CAD40000E455000885
:102B4000515100002DE9F043194887B003AE0FC87A
:102B500086E80F0000244FF0010810274FF6E079B7
:102B60004FF47A752046FFF733FF12A0FEF72EF8D8
:102B700056F824104B468DE882011F221E21142096
:102B800000F096F8104A32211E20FEF79FFD2846DD
:102B900000F0F2FF284600F0EFFF641CE4B2042CC2
:102BA000E0D30020FFF714FF07B0BDE8F08300007A
:102BB00064620008B2E2CAD431303AC6C1C4BBD0A4
:102BC000FDD7AAB2E2CAD400E455000830B51048D7
:102BD00087B00024016841F02001016000680D4DBC
:102BE00000F0200005904FF420700090012001902B
:102BF00002900320039069462846FEF7B1FDA9150F
:102C0000CDE9001469462846FEF7AAFD07B030BD9D
:102C100030380240001402402DE9F05F0024164FC6
:102C2000FF26DFF854B025464FF400784FF00079C6
:102C30004FF4000A08376006040E300601D54046FE
:102C400000E0484638607006060EC7F800A0642011
:102C500000F0A0FFDBF80000C00501D5641CE4B261
:102C600080203860642000F095FF6D1CEDB2082DC7
:102C7000E1D32046BDE8F09F10140240F0B54FF4B8
:102C800000752E040021084AAB038024070601D5F5
:102C9000156000E01660136014604006491C000EC9
:102CA000C9B20829F2D3F0BD1814024070470000E1
:102CB0002DE9FF4F83B08846DDE910540646824671
:102CC0004FF00009DFF8CCB0129F1DE0B9F1000F02
:102CD00020D0BBF80010091BB14218DBBBF8020082
:102CE000011B414513DB4FF00009202C46D0CDE9F4
:102CF0000057DDE90523182C4146304647D0FEF742
:102D00007DFB301986B2AD1C28780028DED107B0D3
:102D1000BDE8F08FBBF80020A2EB5402B242F6DB14
:102D2000BBF802100A1B41464245F0DB802802D95D
:102D30004FF00109E8E70D280DD0102C12D9102111
:102D40008DE88300DDE9052341463046FFF718FD95
:102D50000836B6B210E008EB04001FFA80F85646B9
:102D60006D1C09E08DE89100DDE905233046FFF791
:102D700007FD06EB540086B26D1CC5E7CDE9005790
:102D8000DDE9052341463046FEF722FCB9E7FEF7B0
:102D9000A9FBB6E75400002070B51E4C92B0002588
:102DA000266846F080562660246804F0805411940A
:102DB000194C266846F44046266024680DF1240C20
:102DC00004F44044119401240094019402240694D4
:102DD0008CE80D006605CDE907616846FEF7C4FF83
:102DE00000B1FEE7FEF724FE00B1FEE70CA90F20BC
:102DF00081E831004FF4A0500F904FF480501090B4
:102E000005210CA8FEF758FE002800D0FEE712B0FE
:102E100070BD00004038024000700040FEF79EBDCB
:102E20001048016841F4700101600F48016841F0E9
:102E3000010101600C4A00210832116002680B4B4D
:102E40001A400260031D0A4A1A60026822F48022B6
:102E5000026005480C30016002495806803908605C
:102E60007047000088ED00E000380240FFFFF6FEEA
:102E70001030002410B5FEF73DF808B1012010BD58
:102E8000034902484860002010BD000019100008E6
:102E90003C0000202DE9F843002429A0FDF796FE10
:102EA0002D4E4FF6FF77009770883288143883B222
:102EB00014210020FFF74EFA284DA046CDF80080DF
:102EC00004EBC400718800EB041000EB5101328860
:102ED0001E2300EB520035F814205038323900F030
:102EE00073FE641CE4B2052CE8D340F2DC58404683
:102EF00000F042FE009770883288143883B21421A3
:102F00000020FFF727FA00240127009704EBC400F4
:102F1000718800EB041000EB510132881E2300EB96
:102F2000520035F814205038323900F04DFE641C40
:102F3000E4B2052CE9D34046BDE8F84300F01CBEDE
:102F4000B2E2CAD4343A475549BBADD4B2CCEEB3A1
:102F5000E4B2E2CAD40000005400002000000020C7
:102F60002DE9FE43454C4FF6FF770097002163881B
:102F700022880846FFF7EEF9102641A0CDE90006A9
:102F800001254FF6E078434600221E2102951420C9
:102F9000FFF78EFE4FF44879484600F0EDFD002023
:102FA0000090638822880146FFF7D4F936A0CDE966
:102FB000000643463A461E2102951420FFF778FE8C
:102FC000484600F0D9FD4FF4784700970021638808
:102FD00022880846FFF7BEF92DA0CDE9000643463A
:102FE0001F221E2102951420FFF762FE484600F0C2
:102FF000C3FD4FF4FC6000900021638822880846DE
:10300000FFF7A8F924A0CDE9000643461F221E21A0
:1030100002951420FFF74CFE484600F0ADFD1F203E
:1030200000900021638822880846FFF793F91CA0CE
:10303000CDE9000643463A461E2102951420FFF7CB
:1030400037FE484600F098FD48F2304000900021DD
:10305000638822880846FFF77DF913A0CDE90006B2
:1030600043464FF61F021E2102951420FFF720FE53
:103070004846BDE8FE4300F07FBD0000540000203C
:103080005748495445000000424C41434B00000062
:103090005245442000000000475245454E200000A4
:1030A000424C5545200000004752415900000000A5
:1030B0002DE9F84351A0FDF789FD554D1F202880CB
:1030C0005448FDF733FA012453A3102232210F2074
:1030D0000094FFF71DFC56A3102246210F200094F8
:1030E000FFF716FC58A310225A210F200094FFF777
:1030F0000FFC5BA310226E210F200094FFF708FC49
:103100005DA3102282210F200094FFF701FC60A331
:10311000102296210F200094FFF7FAFB61A31022E2
:10312000AA210F200094FFF7F3FB4FF4784028808A
:1031300000251024322742F210764FF064084FF435
:10314000FA79FDF78DF890FBF6F106FB11020523E5
:10315000322164200094FFF797FBFDF781F890FB84
:10316000F6F106FB11020523462164200094FFF7C7
:103170008BFBFDF775F890FBF6F106FB11020523BA
:103180005A2164200094FFF77FFBFDF769F890FB5C
:10319000F6F106FB110205236E2164200094FFF76F
:1031A00073FBFDF75DF890FBF6F106FB11020523BA
:1031B000822164200094FFF767FBFDF751F890FB34
:1031C000F7F107FB11020523962164200094FFF715
:1031D0005BFBFDF745F890FBF8F208FB12020523B4
:1031E000AA2164200094FFF74FFB484600F0C4FC7E
:1031F0006D1CEDB20F2DA4D3BDE8F883B2E2CAD4A2
:10320000393AB6AFCCACCAFDD7D6CFD4CABE0000CF
:103210003800002040E20100204843484F3A202077
:1032200020202020202020202075672F6D330000D3
:103230002020434F323A2020202020202020202010
:103240002070706D000000002054564F433A20203B
:1032500020202020202020202075672F6D330000A3
:10326000504D322E353A20202020202020202020B2
:103270002075672F6D33000020504D31303A2020EB
:1032800020202020202020202075672F6D33000073
:1032900020205445503A202020202020202020208B
:1032A00020430000202048554D3A20202020202097
:1032B00020202020202500002DE9F84300242EA006
:1032C000FDF784FC324F4FF6FF78CDF80080788808
:1032D0003A88143883B214210020FFF73BF82D4DB3
:1032E0002D4E35F8140030807988C4EB041000EBC3
:1032F0005101A1F1140293B23A88503900EB520007
:10330000A0F11402503892B289B280B2FEF7C2FF27
:10331000641CE4B2052CE4D340F2DC59484600F0CA
:103320002BFCCDF8008078883A88143883B21421B9
:103330000020FFF70FF8002435F81400308079885A
:10334000C4EB041000EB5101A1F1140293B23A88CE
:10335000503900EB5200A0F11402503892B289B2F9
:1033600080B2FEF7E7FE641CE4B2052CE4D34846C5
:10337000BDE8F84300F000BCB2E2CAD4333A475586
:1033800049BED8D0CECCEEB3E4B2E2CAD40000003D
:103390005400002000000020380000202DE9F04FEC
:1033A0008FB000200C900D900E90242103A8FDF703
:1033B0001EF92DA0FDF70AFCFFF756F9024630A1D1
:1033C0000CA8FCF787FF10260CA8CDE90006012504
:1033D0004FF6E0731F22192102953220FFF768FC97
:1033E000DFF8A4B0294F00240DF10C0AA946B0461D
:1033F0003BF81400388004EBC40000EB041505F121
:10340000410305F12D011E220A20FEF793FE05F16E
:1034100037011420FFF720F939880646B14201D15F
:103420001BA100E01BA10CA8FDF79EF80CAB3246D7
:103430001AA103A8FCF74EFFCDF800A0CDE9018941
:1034400005F12F014FF6E0733A882820FFF730FC92
:10345000641CE4B2072CCBD340F2DC5000F08CFBB0
:103460000FB0BDE8F08F0000B2E2CAD4323AB6C164
:103470004944BACDD1D5C9ABD6B5B2E2CAD4000061
:1034800049443A30782578000A00002038000020AE
:103490004F4B00004552524F52000000726561646C
:1034A00020636F6C6F723A307825303458202025B5
:1034B000730000002DE9FC47002437A0FDF786FBD0
:1034C0003C4F4FF6FF78CDF8008078883A88143862
:1034D00083B214210020FEF73DFF374D374E04EB39
:1034E000840335F8140030807988C4EB041000EBB5
:1034F0005102A2F1140081B23888493A400800EB29
:103500008300A0F1150C1FFA8CF3CDE9003193B2C2
:10351000A0F13302503892B280B2FDF707FC641C70
:10352000E4B2052CDBD340F2DC59484600F024FB22
:10353000CDF8008078883A88143883B214210020AE
:10354000FEF708FF002404EB840335F814003080F4
:103550007988C4EB041000EB5102A2F1140081B28F
:103560003888493A400800EB8300A0F115039BB26C
:10357000CDE9003193B2A0F13302503892B280B25B
:10358000FDF778FE641CE4B2052CDCD34846BDE8A8
:10359000FC4700F0F1BA0000B2E2CAD4353A475510
:1035A0004920547269616E676C65CCEEB3E4B2E297
:1035B000CAD4000054000020000000203800002081
:1035C0002DE9FE4FEFA0FDF701FBF34DF34C00207A
:1035D00028802088322101EB5002494201EB500043
:1035E00080B25A232821FEF755FE4FF47848A5F8FB
:1035F000008020884FF0FF3B0BEB50018AB26FF048
:10360000300101EB500080B259232921FEF792FDD1
:103610001F2028802088312101EB500240085923C7
:103620002921FEF787FD4FF6FF7AA5F800A00127B4
:10363000009720886FF01F0101EB500080B2D8A3E3
:1036400010223921FFF764F948F2304028800A2619
:10365000009620886E2101EB5002494201EB500098
:1036600080B2A9239621FEF79FFE4FF61F00288007
:10367000009620886FF06D0106EB500201EB5000C0
:1036800080B2A9239621FEF78FFE009720880A2397
:10369000400840F2CF12A02100F096FA00202880C6
:1036A000009720886FF07C0101EB500080B2BDA331
:1036B00010229821FFF72CF900972088732101EB45
:1036C0005000B9A310229821FFF722F94046288024
:1036D0001020009020886FF00B0101EB500080B2A9
:1036E000032332227D21FFF7CFF800202880082015
:1036F000009020881E2101EB5002494201EB50004E
:1037000080B2FA23DC21FEF7E2FD4AF25160288004
:103710000720009020881D2101EB5002494201EB57
:10372000500080B2F823DD21FEF73EFE4FF61F0069
:103730002880009721886FF00E0000EB510080B2C6
:103740009AA31022E321FFF7E3F8102099A1CDE915
:103750000010029720886FF02E0101EB50000B0C37
:1037600080B24246C321FFF7A3FA964C60688047B7
:10377000207CC007FAD0A0892938312862D2874D31
:1037800021896FF03102288802EB5002914229DD35
:103790000BEB5002914225DA7F4E6FF0300101EBC6
:1037A0005000A6F8008092B280B259232921FEF77A
:1037B000C1FC1F2030802888312101EB50024008D5
:1037C00059232921FEF7B6FCA6F800A00097288807
:1037D0006FF01F0101EB500080B271A3102239215C
:1037E000FFF796F821892888B1EB500F2AD93222A9
:1037F00002EB5002914225D2674E1F21592331809E
:103800000BEB50018AB26FF0300101EB500080B237
:103810002921FEF78FFCA6F800802888312101EBD2
:103820005002400859232921FEF784FCA6F800A085
:10383000009728880D2101EB500063A31022392145
:10384000FFF766F8554D20896FF06302298802EB77
:103850005102904249DB642202EB5102904244D86B
:10386000A289962A41D9A92A3FD24B4E48F230422A
:103870004FF00A0932806E2202EB51020A3880B200
:10388000A9239621CDF80090FEF78EFD4FF61F007C
:103890003080CDF8009020896FF06D010A3082B23F
:1038A0002888A92301EB500080B29621FEF77CFD09
:1038B000009720890A2340F2CF12A02100F084F95A
:1038C000A6F80080208929881022A0EB51006430DE
:1038D00000EBD070009242106FF00B0000EB510033
:1038E00080B203237D21FEF7CFFF298820896FF066
:1038F0001D0202EB51029042FFF638AF1E2202EB8E
:10390000510290423FF632AFA089DC287FF62EAFFD
:10391000FA28BFF42BAF204D204E0820A5F800A0B8
:10392000009030881E2202EB50026FF01D0000EB69
:10393000510080B2FA23DC21FEF7C9FC42F61230B6
:1039400028800720009030881D2101EB5002494259
:1039500001EB500080B2F823DD21FEF725FD48F28F
:103960001F402880009731886FF00E0000EB510057
:1039700080B20EA31022E321FEF7CAFFA4F808A02C
:10398000BDE8FE8FB2E2CAD431313AB4A5C3FEB06D
:10399000B4BCFCB2E2CAD4003800002054000020BD
:1039A0004F4E00003000000031303000455849547F
:1039B00000000000B0B445584954BCFCCDCBB3F670
:1039C000000000003C0000204F4646001CB52BA024
:1039D000FDF7FCF82E4F4FF0010ACDF800A0388813
:1039E0002CA3203880B210220221FEF791FFDFF8CD
:1039F000A8904FF47846294DA9F800604FF6FF785B
:103A000068688047287CC00734D02A893888824279
:103A1000F6D2AB8979888B42F2D21FFA84FCC44576
:103A200003D162F30F0463F31F442038824213DD95
:103A3000122B11D2A5F8088010A0FDF7C7F8CDF819
:103A400000A0388813A3203880B210220221FEF78C
:103A50005FFFA9F8006006E00220CDE90006210C16
:103A6000A0B2FEF7BCFB288960F30F04A88960F3BD
:103A70001F44C5E768F30F04C2E70000B2E2CAD4EE
:103A800031323AB4A5C3FE50454EB2E2CAD400006A
:103A90005400002052535400380000203C00002005
:103AA000054810B500688047002803D1FFF788FD5E
:103AB000FFF78CFF10BD00003C000020FEE72DE961
:103AC000F05F15461C46DDF828B00E46074601EBB0
:103AD000040800EB050A1FFA88F11FFA8AF05A461B
:103AE000FDF7EAFD1FFA88F1A7EB05081FFA88F039
:103AF0005A46FDF7E1FDA6EB04091FFA89F11FFA0A
:103B00008AF05A46FDF7D8FD1FFA89F11FFA88F0AE
:103B10005A46FDF7D1FD06EB050907EB04081FFA2D
:103B200089F11FFA88F05A46FDF7C6FD3C1B1FFAC3
:103B300089F1A0B25A46FDF7BFFD751BA9B21FFA65
:103B400088F05A46FDF7B8FDA9B2A0B25A46BDE8C2
:103B5000F05FFDF7B1BD30380A2801D2012070476F
:103B60000020704710B504460420FEF78BFA014888
:103B7000046010BD3400002070B5054600244FF4E9
:103B80007A7603E0304600F005F8641CAC42F9D3C5
:103B900070BD000070B54FF0E02500216C69094A46
:103BA000AB6912685043AA699A42FCD002D2A3EBD7
:103BB000020302E0A4EB0206334419441346814297
:103BC000F1D370BD340000202DE9F84F89461E4620
:103BD000904682460024714203220A9802EB410576
:103BE000C8B930E0274608E03B46224649465046E1
:103BF000CDF80080FFF763FF7F1CB742F4DD002D96
:103C000003DA05EB8405AD1D04E0A01B05EB800580
:103C10000A35761E641CB442E4DDBDE8F88F3346F5
:103C2000224649465046CDF80080FFF748FF002D58
:103C300003DA05EB8405AD1D04E0A01B05EB800550
:103C40000A35761E641CB442E9DDE6E7FDF78EFE18
:103C50000823022219214FF4B470FFF79DF8B42015
:103C6000FFF780FFFEF7EEFB00F018F8FFF796FB7A
:103C7000FFF776F9FFF720FBFFF70CF9FFF71AFCC7
:103C8000FDF76CF8FCF72CFFFEF716FFFFF710FAB4
:103C9000FEF758FFFFF704FFE6E70000FEB51AA0A5
:103CA000FCF794FF012510241DA08DE831001F238F
:103CB000DE0232461E210020FDF730FD14A08DE803
:103CC00031001F2332463C210020FDF727FD17A0BD
:103CD0008DE831001F234FF61F025A210020FDF707
:103CE0001DFD18A08DE831001F231A467821002001
:103CF000FDF714FD40F2DC542046FFF73DFF20465F
:103D0000BDE8FE40FFF738BFC8ABB6AFB5E7D7D3C5
:103D1000D7DBBACFB2E2CAD4B3CCD0F200000000F5
:103D2000C8ABB6AFB5E7D7D300000000342E3022C1
:103D300020495053205354373739362033323058C6
:103D4000343830007869616F46656E67405144745D
:103D500065636820323032332D31312D323000002E
:103D60000346012000E05843491EC9B2FBD2704708
:103D70004FF04070E1EE100A7047000000000000B4
:103D80000000000000000000040404040404000417
:103D9000000000140A0A00000000000000000000FB
:103DA00014143F140A3F0A0A000000041E150506F9
:103DB0000C14150F0400000012150D0A142C2A1201
:103DC00000000000040A0A1E151509360000000252
:103DD0000201000000000000000000201008080898
:103DE0000808081020000002040808080808080451
:103DF000020000000004150E0E1504000000000073
:103E00000404041F0404040000000000000000007B
:103E100000000002020100000000001F000000007E
:103E20000000000000000000000000020000001080
:103E30000808080404020202010000000E1111111A
:103E40001111110E00000000040604040404040E05
:103E5000000000000E1111080402011F0000000004
:103E60000E11100C1010110E00000000080C0A0AB0
:103E7000091E0818000000001F01010F1010110E8C
:103E8000000000000E09010F1111110E00000000CA
:103E90001F09080404040404000000000E11110EA0
:103EA0001111110E000000000E1111111E10120E42
:103EB00000000000000004000000000400000000FA
:103EC00000000004000000040400002010080402A8
:103ED000040810200000000000001F00001F000068
:103EE0000000000204081020100804020000000076
:103EF0000E11110804040004000000000E11191531
:103F0000151D011E0000000004040C0A0A1E1233D5
:103F1000000000000F12120E1212120F000000001B
:103F20001E1101010101110E000000000F121212FA
:103F30001212120F000000001F120A0E0A02121FB6
:103F4000000000001F120A0E0A0202070000000013
:103F50001C1201013911120C000000003312121E54
:103F600012121233000000001F0404040404041F92
:103F7000000000003E0808080808080907000000C3
:103F800037120A060A0A123700000000070202026E
:103F90000202223F000000001B1B1B1B15151515FC
:103FA000000000003B1216161A1A1217000000003B
:103FB0000E1111111111110E000000000F12120E3E
:103FC00002020207000000000E1111111117190E54
:103FD000180000000F12120E0A1212370000000023
:103FE0001E1101060810110F000000001F15040427
:103FF0000404040E00000000331212121212120CFC
:10400000000000003312120A0A0C04040000000031
:104010001515150E0A0A0A0A000000001B0A0A04F8
:10402000040A0A1B000000001B0A0A040404040E10
:10403000000000001F0908040402121F0000001CF9
:1040400004040404040404041C0000020202040426
:10405000080808100000000E0808080808080808EA
:104060000E0000040A000000000000000000000034
:104070000000000000000000003F000400000000FD
:1040800000000000000000000000000C121C123CA8
:10409000000000000302020E1212120E00000000C7
:1040A0000000001C1202021C000000001810101C6E
:1040B0001212123C000000000000000C121E021C34
:1040C000000000003804041E0404041E0000000068
:1040D0000000003C120C021E221C00000302020E13
:1040E0001212123700000000040000060404040E3F
:1040F000000000000800000C08080808080700007D
:104100000302023A0A0E12370000000007040404FA
:104110000404041F000000000000000F1515151511
:10412000000000000000000F121212370000000013
:104130000000000C1212120C000000000000000F22
:104140001212120E020700000000001C1212121CB4
:10415000103800000000001B0602020700000000EB
:104160000000001E020C101E000000000004040EDF
:1041700004040418000000000000001B1212123C8E
:104180000000000000000037120A0C0400000000CC
:1041900000000015150E0A0A000000000000001BB8
:1041A0000A040A1B0000000000000037120A0C0479
:1041B000040300000000001E0804041E0000001894
:1041C000080808040808080818000808080808086B
:1041D0000808080808080006040404080404040485
:1041E000060002251800000000000000000000008A
:1041F00000000000000000000000000000000000BF
:1042000000080808080808080000181800000048FE
:104210006C241200000000000000000000000000FC
:10422000002424247F1212127F12121200000000B8
:10423000081C2A2A0A0C1828282A2A1C0808000008
:104240000022251515152A58545454220000000048
:10425000000C1212120A76252911916E0000000638
:104260000604030000000000000000000000004001
:10427000201010080808080808101020400000024C
:1042800004080810101010101008080402000000A4
:10429000000008086B1C1C6B0808000000000000F0
:1042A0000000080808087F0808080800000000004F
:1042B00000000000000000000000060604030000EB
:1042C000000000000000FE000000000000000000F0
:1042D00000000000000000000000060600000000D2
:1042E0008040402020101008080404020200000052
:1042F0000018244242424242424224180000000078
:1043000000080E08080808080808083E0000000019
:10431000003C4242422020100804427E000000007F
:10432000003C4242201820404042221C0000000075
:1043300000203028242422227E2020780000000043
:10434000007E0202021A26404042221C00000000A9
:1043500000382402021A26424242241800000000BB
:10436000007E22221010080808080808000000003B
:10437000003C4242422418244242423C00000000D9
:1043800000182442424264584040241C00000000AF
:1043900000000000181800000000181800000000BD
:1043A00000000000000800000000000808040000F1
:1043B0000040201008040204081020400000000003
:1043C000000000007F0000007F00000000000000EF
:1043D0000002040810204020100804020000000021
:1043E000003C424246402010100018180000000017
:1043F000001C225A555555552D42221C0000000024
:10440000000808181414243C224242E7000000006F
:10441000001F2222221E22424242221F00000000D0
:10442000007C4242010101010142221C0000000007
:10443000001F2242424242424242221F000000002C
:10444000003F4212121E12120242423F00000000C0
:10445000003F4212121E1212020202070000000068
:10446000003C2222010101712122221C00000000D7
:1044700000E7424242427E42424242E700000000E0
:10448000003E0808080808080808083E0000000068
:10449000007C10101010101010101010110F0000E0
:1044A000007722120A0E0A12122222770000000060
:1044B00000070202020202020202427F0000000024
:1044C0000077363636362A2A2A2A2A6B0000000060
:1044D00000E346464A4A52525262624700000000D8
:1044E000001C2241414141414141221C0000000089
:1044F000003F424242423E02020202070000000028
:10450000001C2241414141414D53321C60000000DA
:10451000003F4242423E1212222242C700000000E7
:10452000007C4242020418204042423E000000004B
:10453000007F4908080808080808081C0000000057
:1045400000E74242424242424242423C00000000F6
:1045500000E7424222242414141808080000000036
:10456000006B494949495555362222220000000076
:1045700000E7422424181818242442E70000000011
:1045800000772222141408080808081C0000000004
:10459000007E2120101008040442423F00000078F1
:1045A0000808080808080808080808087800000033
:1045B0000202040408080810102020204040001EB9
:1045C0001010101010101010101010101E000038D5
:1045D0004400000000000000000000000000000097
:1045E00000000000000000000000000000FF0006C6
:1045F00008000000000000000000000000000000B3
:1046000000000000003C4278444242FC00000000F0
:1046100000030202021A26424242261A000000004B
:10462000000000000038440202024438000000008C
:104630000060404040784442424264D8000000009C
:1046400000000000003C427E0202423C00000000EC
:1046500000F08808087E08080808083E00000000EE
:1046600000000000007C22221C023C42423C000070
:1046700000030202023A4642424242E700000000C2
:10468000000C0C00000E08080808083E000000009E
:10469000003030000038202020202020221E000082
:1046A000000302020272120A1612227700000000B2
:1046B000000E0808080808080808083E0000000066
:1046C00000000000007F9292929292B700000000DA
:1046D00000000000003B4642424242E7000000006A
:1046E00000000000003C42424242423C0000000008
:1046F00000000000001B26424242221E020700006A
:1047000000000000007844424242447840E000004B
:104710000000000000774C040404041F00000000A7
:1047200000000000007C42023C40423E00000000CD
:1047300000000008083E08080808083000000000D3
:104740000000000000634242424262DC00000000C0
:104750000000000000E742242414080800000000C4
:104760000000000000EB49495555222200000000DE
:1047700000000000007624181818246E00000000C5
:104780000000000000E74224241418080807000075
:1047900000000000007E22100808447E000000C0D7
:1047A000202020202010202020202020C0001010B9
:1047B0001010101010101010101010101010000613
:1047C00008080808081008080808080806000C323D
:1047D000C200000000000000000000000000C9EE60
:1047E000000027FC140414A481104208404010402B
:1047F00017FC2040E0E0215022482C462040004099
:10480000DBDA11041124112411241124FD241124B4
:1048100011241124112411241D24E1244224020412
:104820000404CAD00200010000007FFC0100010066
:1048300001003FF821082108210821082128211022
:1048400001000100C8AB00000000018002400430FC
:10485000180860061FF90100010001003FF801007F
:10486000010001007FFEB6AF0000000000203E20E6
:10487000007C002200227F2210221022122212220B
:10488000224223423D82009CB5E700000100010066
:104890001FF0610C410441047FFC410441044104C8
:1048A0007FFC01000102010201FCD7D300000000DF
:1048B0003FF8001000600080010000807FFE004093
:1048C000004000200020002018400780BCBC1020C1
:1048D0001020102013FEFC201020102015FC18843E
:1048E0003088D04810501020105051882606CAF544
:1048F00001000120011001107FFC038005400540EC
:104900000920111021084104810201000100010069
:10491000D3D002000200FFFE040004000FF00810D4
:1049200018102FF0481088100FF0081008100850C9
:104930000820CFDE00007BF84A08520853F86208CE
:1049400052084BF84A444A486A3052204210428882
:1049500043064200B9AB0080048004800840084050
:104960001020201042088206040004400820102075
:104970003FF010100000CBBE00003FF80008000818
:104980007FE8000800081F881088108810881088A9
:104990001F88108800280010BBB600800080FC80B3
:1049A00004FC050449082A401440104028A024A013
:1049B00045108110020804040802D3AD00002080D5
:1049C000133C122402240224F2241224122412B4CE
:1049D000132812201020282047FE0000C4FA0900E6
:1049E000090011FC320454489950114812441444EF
:1049F0001140108002005104511290120FF0B4BF08
:104A000000000020102013FE202026244A247A24AF
:104A10001224222423FC7C20002204227822003C41
:104A2000C9AB0000000004000FF0102020207FFC24
:104A300020842084208420843FF82000200220024B
:104A40001FFECCEE00000000204023FE204079FC39
:104A5000220423FC220423FC220423FC3A0465FAEA
:104A600001980204B3E40000010001007FFE02206F
:104A70000410040808043FFC0442044004400442BB
:104A800008421042607EBED800000000207E3E80BA
:104A90004880488048FE48827F8208820C8214FA4F
:104AA00012842280218040FED0CE000000007F844E
:104AB0002208223022C0220222047FC8223022C2D1
:104AC00022022204220822304040BBAD0000000038
:104AD0007FFE00000FF011101110111051125FF243
:104AE0005112511251124FF240027FFCD4B2000019
:104AF00000007FFE47E24812481247E24FF2501290
:104B000050125112511242924472580A3FFCCDBCCD
:104B1000000000003FFE440247F24C2253624082F4
:104B200043625E1A41824062430240C240223FFC1F
:104B3000C6AC000000402040204020403FFE200046
:104B4000200020003FE020102010201020104010F6
:104B50004010CFD4000000003FFC200420043FFCA4
:104B6000200420041FF824441448144814480C500E
:104B700004407FFECABE000000003FFC00000000B1
:104B800000007FFE00800890088810881084208430
:104B9000208240820780B2CB0000002008207FFEE8
:104BA000002000783F881108089009207FFE0180CE
:104BB00003400D30310C4002B5A500000010081074
:104BC00004203FF8210421043FFC210421043FF884
:104BD00001007FFE010001000100D6D000000100AD
:104BE000010001003FFC21042104210421042104CF
:104BF00021043FFC0100010001000100D3A20000DC
:104C0000000008207FFE0820092001003FF821084D
:104C1000210821081FF4014002200C10700ECEC4A0
:104C200000000100010000803F7C08100810041003
:104C30000420022002400180018002601C18E0066E
:104C4000D7DB00000000102011FE2202220249FCE6
:104C50005800300013FE2528792401240D247222E7
:104C600002A2BACF00000000018002400430180800
:104C700060061FF800001FF8200420042004200410
:104C800020041FF8C1C10000010001007FFE0000E8
:104C90003FF820083FF83FF8400647C24824082064
:104CA00008221022603EB6C80000000000803FFECF
:104CB00044105FFC4410441043F040005FF8440887
:104CC000423041C04360BC1EB2E20000000067C237
:104CD000145205520552C55225520552055215521D
:104CE0001752228222424442483ECAD400000000A9
:104CF0002014101417FE00120010601013F0109012
:104D000010901090149214EA1F0A0006B3CC000011
:104D1000000019FE7202120212027DFC18001BFE36
:104D20003420502053FE10201020102013FED0F20B
:104D30000000000000803FFE400047FC4208413078
:104D400040C05FFE404240424044404840404440F2
:104D5000B5F70000000023FE122202FA0222E2222E
:104D600012FE1272128A128A128A16BA1A4212029B
:104D7000040EB9E20000010001041108090809103D
:104D800009207FFE044004400440044008420842D9
:104D90001042607CB0E60000000048FE4900490077
:104DA00049007EFE4182414479444528452845100A
:104DB000452846440382C8A800001000100013FCD8
:104DC0007D04110419041884348850485050102070
:104DD0001050108813041402CBF9000000003F7C2F
:104DE000204020403E40227E2244224422443E84F1
:104DF00020842084408441044204C6C100003FF85E
:104E0000200820083FF8241022202FF822202220FA
:104E10003FFC22204220442084200820C4BB0440C0
:104E20007FFC04401FF010101FF010101FF0040052
:104E3000FFFE11103FF8D116115011200100D0FDD6
:104E40002080108010FE0100FE0021FC20243C2464
:104E500024A024A024BC24A024A04560553E8A00A0
:104E6000D7AA202020202020FDFC4020504093FE87
:104E7000FC40108011FC1C04F088505010201010D1
:104E80001010BFAA00007FFC08200820082008207E
:104E90000820FFFE082008200820082010201020ED
:104EA00020204020D4B4000027FE1420144085FCAC
:104EB000450445FC150415FC2524E42024A82924D8
:104EC0002A2230A00040D2BA0080204017FE1120D4
:104ED0008120423C4244166412942348E248223026
:104EE0002220225022880306BEA70FE008200820B7
:104EF0000FE0082008200FE000007EFC428442847E
:104F00007EFC428442847EFC4284CDF800007FFC1B
:104F100040044004421452944A54442444244A54C1
:104F20004A5452946104400440144008D5BE1020F5
:104F3000082008207E20003E04204420442025FC38
:104F4000290429040F04F104410401FC0104B0B454
:104F500010401020102013FEFA02144410401BFED3
:104F60003088D088110810D01020105050882304A9
:104F7000BCFC201020103B7C211441FE7A14A27C42
:104F80002710F97C251025FE22102A10350028FE56
:104F90000000D0A310401020102011FEFC0010884B
:104FA00031043A025488508890501050102010500C
:104FB00010881306D7BC01404120212023FE022087
:104FC00016201BFC1220222023FCE220222022207B
:104FD00023FE22000200B4A520202020782049FCD6
:104FE00091247D24552455247DFC552454207C286F
:104FF000542457FE45028C00C3FE1110111017FCFB
:105000001110FC0013F8120817F81A0833F8D040F2
:1050100017FC10A0111052082406B6C10020202051
:1050200011FC1020002003FEF0021094105011100B
:10503000109013FE1428184410820302BACD040005
:105040000E007800087C0844FF44084418441C44BF
:105050002A442A444844887C084408000800D1D5E2
:10506000100008FE7F102220147C7F4444544854D2
:105070005254445448545154422844248842308263
:10508000D6B5084008400FFC1040104033F83208F5
:1050900053F8920813F8120813F8120812081FFEAA
:1050A0001000C8DD020001007FFE400288241110BC
:1050B0002288044008203018DFF61010101010105D
:1050C0001FF01010D6A70100010001007FFC0100B5
:1050D000010001003FF01010082004400280010090
:1050E00006C01830E00EB3D610201020102011FC9E
:1050F000FC20102013FE1008180833FED00810887A
:105100001048100850282010B5E3020002000200E9
:1051100003FC020002003FF02010201020103FF09E
:1051200000002488224442448004CCAC01000100E9
:105130007FFC0100028004400A203118C0060100F3
:10514000088848844812481287F00000CAFD0820E9
:1051500049202A20083EFF442A44494488A41028B4
:10516000FE2822104210642818283444C282D7D660
:10517000020001007FFE400280041FE0004000802A
:105180000100FFFE01000100010001000500020016
:10519000CDCB03F82208120813F802080208F3F82E
:1051A000124412281210128813041204280047FE19
:1051B0000000B3F6010001002108210821082108A0
:1051C0003FF8010801000100410441044104410489
:1051D0007FFC0004C9EE0000000000001000000881
:1051E00000080C7FFC04401001C8A0021860423087
:1051F0001832231812C30014030004030C047FF0B8
:10520000080F80080B4078136018332018631818B3
:10521000831C190308180300000300000000DBDAF8
:1052200000000000000004100C04180C04108C0492
:10523000108C04108C04108C04D08C3F108C041043
:105240008C04108C04108C04108C04108C04108CB2
:1052500005F08C0E208C78208C20408C00808C01F6
:10526000000C02000C000000CAD00000000000008A
:1052700000300000180000180800001C1FFFE000AC
:10528000180000182007FFF0041820041820041844
:1052900020041820041820041820041820041820C2
:1052A0000418200418E0041840001800001800003A
:1052B0000000D6D000000000000000000000000048
:1052C0000018000018000018000018003FFFFE3012
:1052D00018063018063018063018063018063FFF3A
:1052E000FE30180600180000180000180000180012
:1052F000001800000000000000000000CEC4000004
:1053000000000000000000003800001C0000060043
:10531000FFFFFF060030060030030060030060015D
:1053200080C000C18000E300003600001C00007750
:105330000003C1E01E003C60000700000000000008
:10534000000000000000B2E20000000000000000C9
:105350000000000040000321FF3339833311833301
:10536000019B33C19B33719B33199B33019B3301E9
:105370009B33119B3319B333303033306C0330C659
:10538000036383032E01BE00000000000000000044
:10539000CAD400000000000000000000000040002F
:1053A000D83000CE1800C21C00C001FFFF0000C0B2
:1053B000F800C01800C019FFC0181840181860196C
:1053C00018601B18611E18311C1FB139F01910002C
:1053D0000F000000000000000000D7D60000000011
:1053E00000060000000300000000C0000001C0C073
:1053F000000107C00001FF00021FFE0007F01C00B3
:1054000007C070000F00E0000E03F0001C0FF0005A
:105410003C0F70003C00E0001800C0000000C0001D
:105420000000C00000006000000020000000370005
:105430000001FF00007FF80007F830001F803000F7
:105440000080300000C03000006060000018E00004
:10545000000FC0000006000000000000CCE50000C6
:10546000000000000000000000C0000000E000207C
:1054700001B800703FF80061FFC000C3030001C61F
:105480000600038C060003080C0006080C000E182A
:10549000183F1E101BF31F903F0700803C1C01901B
:1054A000707C019060FE01A0C3F801A00FD803A09A
:1054B0000818036000180340001803C00018038098
:1054C0000018030000180000001800000010000081
:1054D0000030000000300000000000000000B2E2D8
:1054E00000000000000000000000000000000000BC
:1054F000020C1008071FF80403BFF00201BC3003C0
:1055000003EC3003015C600300D8600300D8600343
:105510008098620361B8430771B143063132430694
:105520003376C3063A64C7063EECC0063E78C00632
:105530003C3040067C70000678E060067BFFF00699
:10554000F7C00006E4000006400000060000000668
:105550000000007C00008FF000007C0000000000D4
:10556000CAD400000000000000000000000000009D
:105570003F0000007F8000000180000000C00000AC
:1055800000C0000000CE038000CFFFC000DD4180DE
:105590000FFE0007FFFC000C00F000180FC03E19C2
:1055A000FF40F311BC6083307FE003B1FE20033382
:1055B000802003700030036000100360001807C0F3
:1055C000000C07C000040780000201000003000077
:1055D00000010000000000000000000000000000CA
:1055E00000000000FFFFFFFFFFFFFFFFFFFFFFFFC7
:1055F000FFFFFFFFFFFFFFFFFFFFFFFFFFFFFFFFBB
:10560000FFFFBEF7FFFFDEFF38C6928C8E6B6E6B1E
:10561000107C96AD3CE7FFFFFFFFFFFFFFFFFFFFA2
:10562000FFFFFFFFFFFFFFFFFFFFFFFFFFFFFFFF8A
:10563000FFFFFFFFFFFFFFFFFFFFFFFFFFFFFFFF7A
:10564000FFFFFFFFFFFFFFFFFFFFFFFFFFFFFFFF6A
:10565000FFFF5DEF159D4F636C420A3288294619A2
:1056600025194521E8318E6B38C6FFFFFFFFFFFF8C
:10567000FFFFFFFFFFFFFFFFFFFFFFFFFFFFFFFF3A
:10568000FFFFFFFFFFFFFFFFFFFFFFFFFFFFFFFF2A
:10569000FFFFFFFFFFFFFFFFFFFFFFFFFFFFFFFF1A
:1056A00036A51053104B51530F4B6C3AE93167211B
:1056B0002519E410A30862008308CB529AD6FFFF95
:1056C000FFFFFFFFFFFFFFFFFFFFFFFFFFFFFFFFEA
:1056D000FFFFFFFFFFFFFFFFFFFFFFFFFFFFFFFFDA
:1056E000FFFFFFFFFFFFFFFFFFFFFFFF3CE77063D0
:1056F000B363B87CF56311434D32EA29882126193A
:105700000519051904110411E4108300A308728C13
:10571000FFFFFFFFFFFFFFFFFFFFFFFFFFFFFFFF99
:10572000FFFFFFFFFFFFFFFFFFFFFFFFFFFFFFFF89
:10573000FFFFFFFFFFFFFFFFFFFFDBDE4B3AF04203
:10574000356C544BB1322E2AEB21A921671905196A
:10575000041104110411041104110519E41042008C
:10576000AF73FFFFFFFFFFFFFFFFFFFFFFFFFFFF25
:10577000FFFFFFFFFFFFFFFFFFFFFFFFFFFFFFFF39
:10578000FFFFFFFFFFFFFFFF5DEF09324C32104BC1
:105790008F324F2A2E2ACC198919892147190519C8
:1057A00004110411C410C410041104110411E410F4
:1057B00042003184FFFFFFFFFFFFFFFFFFFFFFFFFE
:1057C000FFFFFFFFFFFFFFFFFFFFFFFFFFFFFFFFE9
:1057D000FFFFFFFFFFFFFFFFEC5247194C320B2A80
:1057E000EC21EC210C22915BEE4A061126190419DA
:1057F000E410E410A7296621A30805190411041177
:10580000E4108200F7BDFFFFFFFFFFFFFFFFFFFF78
:10581000FFFFFFFFFFFFFFFFFFFFFFFFFFFFFFFF98
:10582000FFFFFFFFFFFF35A583088821882189211D
:10583000AA218A216B42718CFFFF728C83080411AC
:10584000C4082942FBDE5DEFEC5A83080411041101
:1058500004118308E831DFFFFFFFFFFFFFFFFFFFB9
:10586000FFFFFFFFFFFFFFFFFFFFFFFFFFFFFFFF48
:10587000FFFFFFFFBEF7C731C410251926194719CE
:105880004719A8298A52284A55ADFFFFE831A308D5
:1058900005194D6B4D6BFFFF7DEF4521C4100411C1
:1058A00004110411620076ADFFFFFFFFFFFFFFFF51
:1058B000FFFFFFFFFFFFFFFFFFFFFFFFFFFFFFFFF8
:1058C000FFFFFFFF96B562000411041905110519C9
:1058D000C4088B4AB6B55DEFF7BDFFFF8E6B620063
:1058E0002942AA5A0842FFFFFFFFCC528308041145
:1058F00004110411A308AD52FFFFFFFFFFFFFFFFDC
:10590000FFFFFFFFFFFFFFFFFFFF1CE7FFFFFFFFA2
:10591000FFFFFFFF4E636200041104110411E41045
:1059200062008E63FFFFFFFFFFFFFFFFCF730100E9
:10593000F39C2C6396B5FFFFFFFF2D5B83000411E2
:1059400004110411E41067213DEFFFFFFFFFFFFF8B
:10595000FFFFFFFFF8BDB7B59EEFCB52B394FFFF3B
:10596000FFFFDFFFE831A308041104110411041143
:10597000A3084942FFF7FFF7FFFFFFFF6A4A010054
:105980007284FFFFFFFFFFF7DFEF093AA30804115E
:10599000041104110411051118BEFFFFFFFFFFFFE2
:1059A000FFFFFFFFF07B6200E831C731410035A502
:1059B000FFFF5DEF4621C41004110411041104110E
:1059C000E410A308769DFFF7FFFFB7ADA308A30877
:1059D000C7319EE7FFF7FFF776A5A308E41004118F
:1059E000041104110511051135A5FFFFFFFFFFFF8D
:1059F000FFFFFFFFDBDEA7298300C410C410C41023
:105A00001CE79EEF0511E4100411041104110411A8
:105A10000419C408E510D16BD16BC5086400A50852
:105A200043002B32779DB3842519C410041104114F
:105A30000411041125192609359DFFFFFFFFFFFF03
:105A4000FFFFFFFFFFFFAF7362000419051982001B
:105A50000D5B8E9B62100511041104110419E410F2
:105A600085000511C439815A407B229C43AC03A4B4
:105A7000839B82728249C218A400C500E4100419F5
:105A80000411051947196711EC5ABEFFFFFFFFFF0C
:105A9000FFFFFFFFDFFFDBDEC410E4100411051180
:105AA000A41801C08388E40005190419C50844211D
:105AB000438323D542FEE4FE27FF07FFA4FE64FED6
:105AC00003FEA3FDE2FC42EC83B32462E510C408AC
:105AD00004192619A81987210090D3BCFFFFFFFFE6
