:100000000C94F9000C9421010C9421010C94210111
:100010000C9421010C9421010C9421010C942101D8
:100020000C9421010C9421010C9421010C942101C8
:100030000C9421010C9421010C9421010C942101B8
:100040000C94C6050C9421010C9436060C941006F1
:100050000C9421010C9421010C9421010C94210198
:100060000C9421010C9421014E414E494E495459A2
:10007000494E46CDCCCC3D0AD7233C17B7D1387773
:10008000CC2B329595E6241FB14F0A000020410089
:1000900000C84200401C4620BCBE4CCA1B0E5AAED3
:1000A000C59D7400407A10F35A00A0724E180900E2
:1000B00010A5D4E80000E87648170000E40B5402CD
:1000C0000000CA9A3B000000E1F505000080969808
:1000D00000000040420F000000A086010000001058
:1000E0002700000000E8030000000064000000009A
:1000F000000A00000000000100000000002C76D87B
:1001000088DC674F0823DFC1DFAE59E1B1B796E560
:10011000E3E453C63AE651997696E8E6C28426EBC4
:10012000898C9B62ED407C6FFCEFBC9C9F40F2BAD7
:10013000A56FA5F490055A2AF75C936B6CF9676D6F
:10014000C11BFCE0E40D47FEF520E6B500D0ED90C4
:100150002E0300943577050080841E080000204E91
:100160000A000000C80C333333330F986E1283112A
:1001700041EF8D2114893BE65516CFFEE6DB18D101
:10018000844B381BF77C1D901DA4BBE424203284D3
:10019000725E228100C9F124ECA1E53D2700000038
:1001A0000800020100000304070000000000000036
:1001B0000000000000250028002B000000000024A3
:1001C0000027002A000404040404040404020202B8
:1001D0000202020303030303030102040810204088
:1001E00080010204081020010204081020006806A3
:1001F000E01111241FBECFEFD8E0DEBFCDBF27E056
:10020000A2EBB2E001C01D92AC39B207E1F712E0F7
:10021000A0E0B1E0E2ECFAE302C005900D92A23B4F
:10022000B107D9F710E0C8EFD0E004C02197FE0174
:100230000E949718C73FD107C9F70E94CA060C94BD
:10024000541D0C940000FC0198E080E0A485B58565
:100250002C9167FF1DC03589232B2C93660FA08935
:10026000B1892C913689232B2C93A289B3892C91A7
:10027000328D232331E009F430E0880F832BA089ED
:10028000B1892C91318D23232C939150F9F6089547
:10029000308D2323E2CF90E0FC01E752FE4F249102
:1002A0008B539E4FFC018491882399F090E0880F36
:1002B000991FFC01E554FE4FA591B491FC01EF5448
:1002C000FE4F859194918FB7F894EC91E22BEC93CB
:1002D0008FBF0895E7E0F1E09191992349F08913E8
:1002E000FBCFE5E8F6E09191992321F08913FBCF4C
:1002F00081E0089580E0089590E0FC01E356FE4F10
:100300002491FC01E752FE4F3491FC01EB53FE4F68
:10031000E491EE23C9F0222339F0233001F1A8F44F
:10032000213019F1223029F1F0E0EE0FFF1FEF54D8
:10033000FE4FA591B4918FB7F894EC91611126C04E
:1003400030953E233C938FBF08952730A9F0283085
:10035000C9F0243049F7809180008F7D03C08091DF
:1003600080008F7780938000DFCF84B58F7784BD46
:10037000DBCF84B58F7DFBCF8091B0008F778093EA
:10038000B000D2CF8091B0008F7DF9CF3E2BDACF75
:100390003FB7F8948091DC059091DD05A091DE05D2
:1003A000B091DF0526B5A89B05C02F3F19F0019637
:1003B000A11DB11D3FBFBA2FA92F982F8827BC01BF
:1003C000CD01620F711D811D911D42E0660F771FE7
:1003D000881F991F4A95D1F708958F929F92AF92E7
:1003E000BF92CF92DF92EF92FF926B017C010E944D
:1003F000C8014B015C01C114D104E104F104B9F05E
:100400000E94C801681979098A099B09683E7340EE
:100410008105910580F321E0C21AD108E108F108B5
:1004200088EE880E83E0981EA11CB11CE4CFFF90DB
:10043000EF90DF90CF90BF90AF909F908F900895F6
:10044000AF92BF92CF92DF92EF92FF920F931F93E2
:10045000CF93DF936C017B018B01040F151FEB0120
:100460005E01AE18BF08C017D10759F06991D601D7
:10047000ED91FC910190F081E02DC6010995892B49
:1004800079F7C501DF91CF911F910F91FF90EF9008
:10049000DF90CF90BF90AF900895FC01538D448DB5
:1004A000252F30E0842F90E0821B930B541710F01F
:1004B000CF96089501970895FC01918D828D98172C
:1004C00061F0A28DAE0FBF2FB11D5D968C91928D04
:1004D0009F5F9F73928F90E008958FEF9FEF089535
:1004E000FC01918D828D981731F0828DE80FF11DFE
:1004F000858D90E008958FEF9FEF0895FC01918D19
:10050000228D892F90E0805C9F4F821B91098F7311
:100510009927089580EE95E00E947E0221E0892BC4
:1005200009F420E0822F089580E090E0892B29F0E3
:100530000E948A0281110C9400000895FC01A48D90
:10054000A80FB92FB11DA35ABF4F2C91848D90E0F5
:1005500001968F739927848FA689B7892C93A089D8
:10056000B1898C91837080648C93938D848D981362
:1005700006C00288F389E02D80818F7D80830895F5
:10058000EF92FF920F931F93CF93DF93EC0181E0E3
:10059000888F9B8D8C8D98131AC0E889F98980818A
:1005A00085FF15C09FB7F894EE89FF896083E889BD
:1005B000F98980818370806480839FBF81E090E0AF
:1005C000DF91CF911F910F91FF90EF900895F62E3C
:1005D0000B8D10E00F5F1F4F0F731127E02E8C8DD6
:1005E0008E110CC00FB607FCFACFE889F98980811B
:1005F00085FFF5CFCE010E949E02F1CFEB8DEC0F6F
:10060000FD2FF11DE35AFF4FF0829FB7F8940B8F37
:10061000EA89FB8980818062CFCFCF93DF93EC01A1
:10062000888D8823B9F0AA89BB89E889F9898C91DA
:1006300085FD03C0808186FD0DC00FB607FCF7CF96
:100640008C9185FFF2CF808185FFEDCFCE010E9496
:100650009E02E9CFDF91CF9108958EBD00000DB4C9
:1006600007FEFDCF8EB50895FF920F931F93CF9392
:10067000DF93F82E162F072FCEE8D7E060E08B81AE
:100680000E947C018F2D0E942D03802F0E942D033C
:10069000812F0E942D0361E08B81DF91CF911F910B
:1006A0000F91FF900C947C01209192073091930759
:1006B000409194075091950760E070E0CB010E9453
:1006C0008F1720E030E040EA50E40E94D91320E088
:1006D00030E040EC50E40E948F1720E030E040E230
:1006E00050E40E94231720E030E040E857E40E94E5
:1006F000D91320E030E040EA50E40E948F170E94B6
:1007000008189B0177FD02C024563109B90188E120
:100710000C943403209192073091930740919407F1
:100720005091950760E070E0CB010E948F1720E0A8
:1007300030E040EA50E40E94D91320E030E040EC81
:1007400050E40E948F1720E030E040E250E40E9425
:10075000231720E030E040E857E40E94D91320E05E
:1007600030E040EA50E40E948F170E9408189B0175
:1007700077FD02C024563109B90189E10C94340394
:100780001F93CF93DF93182FD62FC72F60E0809150
:1007900091070E947C01812F0E942D030CB405FC5F
:1007A00014C0CEBD00000DB407FEFDCF8EB5DEBD7A
:1007B00000000DB407FEFDCF8EB561E0809191077A
:1007C000DF91CF911F910C947C01DEBD00000DB430
:1007D00007FEFDCF8EB5CEBD00000DB407FEFDCFE8
:1007E000EBCF8F929F92AF92BF92CF92DF92EF9218
:1007F000FF92CF93DF936B017C0120E030E0A901F1
:100800000E94731387FD40C020E030E04AE754E4C3
:10081000C701B6010E943718181634F4C12CD12C28
:100820008AE7E82E84E4F82EC0918600D0918700F4
:10083000BE016F5F7F4F90E080E00E9478134B0114
:100840005C0120E030E04AE754E4C701B6010E94B1
:100850008F179B01AC01C501B4010E94D9130E94FE
:1008600008186C177D0708F4EB01D0938900C0933A
:100870008800DF91CF91FF90EF90DF90CF90BF90F5
:10088000AF909F908F900895C12CD12C7601CCCF42
:100890002091D3033091D4032F5F3F4F31704091AB
:1008A000D5055091D6054217530759F44091D50507
:1008B0005091D6054F5F5F4F51705093D6054093CE
:1008C000D505E091D303F091D403EB52FC4F808324
:1008D0003093D4032093D3030895CF93DF93C2E3DF
:1008E000D1E08991882319F00E944804FACFDF9162
:1008F000CF910895FC0101900020E9F73197AF01F5
:10090000481B590BBC0180EE95E00C942002CF935C
:10091000DF930E947A04EC0185E691E00E947A045C
:100920008C0F9D1FDF91CF910895E5E8F6E030E050
:1009300020E09191992359F02F5F3F4F8913F9CF10
:1009400070E060E0C9018B57994F0C94021260E08F
:1009500070E0CB010895FC0180819181009711F036
:100960000C9439190895FC0124813581232B39F425
:1009700021E0FB018081882349F020E007C08081CD
:1009800091810E94881A21E0892BB9F7822F08955E
:100990000F931F93CF93DF93EC0188819981009788
:1009A00059F02A813B812617370730F081E0DF912B
:1009B000CF911F910F9108958B016F5F7F4F0E9420
:1009C000C219009759F0998388831B830A832C816D
:1009D0003D81232B59F7FC011082E8CF80E0E7CF5F
:1009E000EF92FF920F931F93CF93DF93EC017B0164
:1009F0008A01BA010E94C80428813981811114C07A
:100A00002115310519F0C9010E943919198218827E
:100A10001D821C821B821A82CE01DF91CF911F9111
:100A20000F91FF90EF9008951D830C83B701C901CA
:100A30000E94911AF1CFAF92BF92CF92DF92EF92C4
:100A4000FF920F931F93CF93DF93CDB7DEB7CD59AE
:100A5000D1090FB6F894DEBF0FBECDBF2FB7F89403
:100A60008091D8059091D905A091DA05B091DB0568
:100A70002FBF4091BB035091BC036091BD037091A7
:100A8000BE03841B950BA60BB70B883C9105A105F3
:100A9000B10508F476C09AE3E92E91E0F92E6E01D3
:100AA0008EE7C80ED11C6091CB037091CC0380916E
:100AB000CD039091CE03860123E040E00E94E41133
:100AC0005E019EE8A90EB11C6091C7037091C80336
:100AD0008091C9039091CA03850123E040E00E9400
:100AE000E4118091B7039091B803A091B903B0913C
:100AF000BA03BF93AF939F938F936091BF0370919D
:100B0000C0038091C1039091C2030E9401187F939A
:100B10006F936091C3037091C4038091C50390915A
:100B2000C6030E9401189F938F937F936F93BF9288
:100B3000AF92DF92CF92FF92EF928FE391E09F937B
:100B40008F931F928DE78F93CE0101969F938F9382
:100B50000E94A61A0FB6F894DEBF0FBECDBFC356D3
:100B6000DF4F0FB6F894DEBF0FBECDBFDF91CF9140
:100B70001F910F91FF90EF90DF90CF90BF90AF90BB
:100B8000089586E3E82E81E0F82E89CF1F920F9218
:100B90000FB60F9211242F933F938F939F93AF9390
:100BA000BF938091D8059091D905A091DA05B091B5
:100BB000DB053091D70523E0230F2D3758F501963B
:100BC000A11DB11D2093D7058093D8059093D90519
:100BD000A093DA05B093DB058091DC059091DD05EB
:100BE000A091DE05B091DF050196A11DB11D809396
:100BF000DC059093DD05A093DE05B093DF05BF9182
:100C0000AF919F918F913F912F910F900FBE0F90B9
:100C10001F90189526E8230F0296A11DB11DD2CF73
:100C20001F920F920FB60F9211242F933F934F9361
:100C30005F936F937F938F939F93AF93BF93EF9344
:100C4000FF9380EE95E00E949E02FF91EF91BF918D
:100C5000AF919F918F917F916F915F914F913F9154
:100C60002F910F900FBE0F901F9018951F920F920B
:100C70000FB60F9211242F938F939F93EF93FF93AF
:100C8000E091F005F091F1058081E091F605F09199
:100C9000F70582FD1BC090818091F9058F5F8F73EE
:100CA0002091FA05821741F0E091F905F0E0E05259
:100CB000FA4F958F8093F905FF91EF919F918F9156
:100CC0002F910F900FBE0F901F9018958081F4CF39
:100CD000E0EEF5E01382128288EE93E0A0E0B0E04F
:100CE00084839583A683B78384E291E09183808394
:100CF00085EC90E09587848784EC90E097878687E1
:100D000080EC90E0918B808B81EC90E0938B828BD8
:100D100082EC90E0958B848B86EC90E0978B868BB1
:100D2000118E128E138E148EEEE8F7E08AE0838324
:100D30008DE080838BE081838CE0828385EB96EA73
:100D4000A5E5B0E484839583A683B783E3E8F6E062
:100D500011821082128285E896E090938807809332
:100D6000870790938A078093890710928B071092C8
:100D70008C0710928D07EDE7F6E011821082138246
:100D800012821582148250E040E067E671E0CF01E4
:100D90000C94F004CF93DF93CDB7DEB7CA54D109DA
:100DA0000FB6F894DEBF0FBECDBF789484B58260D5
:100DB00084BD84B5816084BD85B5826085BD85B5FF
:100DC000816085BD80916E00816080936E0010927D
:100DD00081008091810082608093810080918100F8
:100DE0008160809381008091800081608093800089
:100DF0008091B10084608093B1008091B0008160E7
:100E00008093B00080917A00846080937A00809112
:100E10007A00826080937A0080917A00816080936A
:100E20007A0080917A00806880937A001092C100E5
:100E30001FB7F8948091B202811124C0EFECF1E069
:100E40008491E3EEF1E09491E82FF0E0EE0FFF1FC4
:100E5000E554FE4FA591B491EC91E92321F461E0B2
:100E60008AE00E947C018AE00E944B018CB580617F
:100E70008CBD8CB580648CBD8DE00E944B018BE0F5
:100E80000E944B018091B2028F5F8093B2021FBF1C
:100E90008CB5837F84608CBD8CB58F7D8CBD61E00B
:100EA00070E088E20E94C00363E070E080E20E948C
:100EB000C00361E070E088E30E94C00370E060E07E
:100EC00082E00E94C00363E070E080E30E94C00300
:100ED000809191070E944B0161E0809191070E94EF
:100EE0007C01E091F005F091F10512E01083E091B2
:100EF000EC05F091ED051082E091EE05F091EF0523
:100F000080E180831092F805E091F405F091F505F9
:100F100086E08083E091F205F091F30580818061A5
:100F20008083E091F205F091F305808188608083F1
:100F3000E091F205F091F305808180688083E09173
:100F4000F205F091F30580818F7D808310928406F5
:100F5000109283061092850685E896E090938807A4
:100F60008093870790938A078093890710928B0755
:100F700010928C0710928D0764EF71E080E090E092
:100F80000E94ED010E9454030E948A0389E00E949E
:100F90004B011092800010928100109285001092F7
:100FA00084001093800088E180938100809180000C
:100FB0008068809380008FEC97E090938700809307
:100FC00086001092890010928800809181008260D2
:100FD0008093810088E691E00E94870480EE95E08E
:100FE0000E947E02892B49F180EE95E00E945C020E
:100FF0002091B5033091B6032F5F3F4F33274091C7
:10100000B3035091B4032417350759F44091B30347
:101010005091B4034F5F5F4F55275093B4034093F3
:10102000B303E091B503F091B603ED54FD4F808317
:101030003093B6032093B503D1CF1EA21DA218A6EC
:101040001FA21AA619A650E040E067E671E0CE01A3
:1010500085960E94F0042091B5033091B6038091EB
:10106000B3039091B4032817390711F40C94291194
:101070008091B3039091B4032091B5033091B603EE
:101080002817390711F40C942911FC01ED54FD4F78
:1010900020812A3011F40C948F112D3011F40C940E
:1010A0008F1101969927E8CF29831A8209A51AA5DD
:1010B0000F5F1F4FB801CE0185960E94C804882398
:1010C00069F02DA13EA189A59AA5BE016F5F7F4F52
:1010D000820F931F0E94911A1AA709A789A59AA5A2
:1010E0008536910510F40C94971118A21F8E1AA240
:1010F00019A21CA21BA26DA17EA16115710531F080
:1011000049A55AA5CE014F960E94F004AF8CB8A015
:10111000A114B10439F00BA11CA175010115110531
:1011200009F076C08BA19CA1892B09F428C11A82F1
:1011300019821C821B821E821D8241E050E062E8FF
:1011400071E0CE0101960E94F0044D815E818BA179
:101150009CA18417950770F08F8D98A1009751F08E
:1011600069817A816115710529F00E94981A11E050
:10117000892B09F010E0CE0101960E94AB041123E7
:1011800009F4F1C01A8E198E1C8E1B8E1E8E1D8EB8
:101190006F8D78A16115710531F04BA15CA1CE0175
:1011A00049960E94F00462E871E0CE0149960E94DF
:1011B000B304882309F462C084E891E00E948704A4
:1011C00081EA91E00E94870486EB91E00E94870407
:1011D0008FEC91E00E94870484EE91E00E948704E6
:1011E0008AEF91E00E94870480E192E00E948704E8
:1011F00083E292E00E9487048BE392E00E948704DE
:101200000E946D04CE0149960E94AB04B8C07601DD
:1012100067012FEFC21AD20AF7018081082E000C55
:10122000990B0E945213892B91F7015011090A0D55
:101230001B1DF8018081082E000C990B0E9452138F
:10124000892B31F00E151F0518F001501109F1CF4F
:101250000F5F1F4FA8014E195F095CA34BA3AE148B
:10126000BF0420F4B701C5010E947F1AEF8DF8A1D9
:101270008BA19CA1E80FF91F108254CF65E572E0A5
:10128000CE0149960E94B3048823D9F088E592E004
:101290000E947A048BE592E00E947A0480E692E054
:1012A0000E947A0485E692E00E947A048AE692E03F
:1012B0000E947A048FE692E00E947A0480EA92E02B
:1012C0009DCF64E772E0CE0149960E94B304882363
:1012D00039F087E792E00E947A048DE791E08ECFA3
:1012E00061E872E0CE0149960E94B304811188CF73
:1012F00064E872E0CE0149960E94B304882329F085
:101300000E9454030E948A037BCF67E872E0CE01FB
:1013100049960E94B304882319F08AE892E06ECFC0
:101320001F92F1E0FF9324EA32E03F932F931F9244
:1013300088E18F9381E090E08C0F9D1F9F938F93A6
:101340000E94A61A8E010F5F1F4F0FB6F894DEBFE2
:101350000FBECDBFF80181918F01882309F452CFD0
:101360000E944804F7CF6EEA72E0CE014F960E94C9
:10137000B304882349F00E941B050E946D04CE012E
:101380004F960E94AB0467CE60EB72E0CE014F96A1
:101390000E94B3048111F1CF1A8219821C821B8230
:1013A0001E821D826F8D78A16115710531F04BA1F0
:1013B0005CA1CE0101960E94F00410928406109266
:1013C00083061092850625E836E03093880720933F
:1013D000870730938A072093890710928B07109212
:1013E0008C0710928D076D817E8149815A8130E092
:1013F00020E06217730709F461C0A0E041155105B0
:1014000021F0FA01E20FF31FA0818FE98A0F8A31E0
:1014100008F4A05280918D078823B1F010928406C1
:10142000109283061092850685E896E090938807CF
:101430008093870790938A078093890710928B0780
:1014400010928C0710928D07AD3029F0AA3031F43C
:1014500091E090938D072F5F3F4FCBCF8091830614
:1014600090918406FC01ED57F94FA28301968130DB
:10147000E1E09E0764F49093840680938306E091F4
:101480008306F0918406ED57F94F1282E4CF109253
:101490008406109283061092850685E896E0909364
:1014A00088078093870790938A0780938907109213
:1014B0008B0710928C0710928D07E1CFE5E8F6E0DC
:1014C00001900020E9F7AF0146585640DA01AD57C8
:1014D000B94F13961C92139790E080E030E020E023
:1014E00010E0F12C1296F901ED57F94F028100231B
:1014F00009F443C0111102C0083299F0F11004C080
:101500000B3391F0112331F1BF016358764064171A
:10151000750764F4638162833196F6CF10E0F12C95
:10152000E2CFFF24F394F0CF11E0EECF0C93111132
:10153000DACF10E00932B9F6F901EB57F94F6191B2
:10154000662361F3683251F36932C9F710E0FF2472
:10155000F394C9CF003249F4F901EB57F94F608198
:10156000662341F061816193FACF0930A9F32F5FBF
:101570003F4FDFCF0196F12CDCCFE5E8F6E001909C
:101580000020E9F7E80FF91FF0938807E093870739
:10159000F0938A07E093890780E03E2F2F2F9191E7
:1015A000992381F0983231F43093890720938A0788
:1015B00081E0F3CF811120C09B33F1F43093890790
:1015C00020938A079091850681E09F3209F080E0A0
:1015D00080938B0781E0953209F080E080938C073F
:1015E00087E40E946A0123968FAF239781110FC071
:1015F00023961FAE239705C4993279F6DF018D91AA
:10160000882351F2883241F28932C9F7D1CF87E479
:101610000E9495046B017C0120E030E040E85FE32C
:101620000E9473138111E9C1F091CB03FAAF2091AD
:10163000CC032BAF3091CD033CAF4091CE034DAFE7
:101640005091C7035EAF8091C8038FAF9091C903DB
:1016500021969FAF2197E091CA032296EFAF229780
:1016600088E50E946A01882309F49AC188E50E94EE
:101670009504262E7BA78BAB9CAB8091000181113A
:1016800010C02091CB033091CC034091CD035091F9
:10169000CE03622D8BA90E942317262E7BA78BAB2E
:1016A0009CAB89E50E946A01882309F481C189E520
:1016B0000E949504162F072F382E9DAB80910001B4
:1016C000811111C02091C7033091C8034091C90313
:1016D0005091CA03612F702F832D0E942317162F5C
:1016E000072F382E9DAB86E40E946A01882359F0AB
:1016F00086E40E9495046093C3037093C4038093AF
:10170000C5039093C60383E50E946A01882319F1FB
:1017100083E50E9495046B017C0120E030E0A90183
:101720000E94731387FD4EC120E030E04AE754E485
:10173000C701B6010E94371818160CF447C1C092B1
:10174000BF03D092C003E092C103F092C203C7016D
:10175000B6010E94F1032AAD3BAD4CAD5DAD622DEB
:101760007BA58BA99CA90E9422176FA778AB89AB98
:101770009AAB2EAD3FAD21964FAD219722965FAD2E
:101780002297612F702F832D9DA90E9422176B0134
:101790007C012FA538A949A95AA9CA01B9010E94FB
:1017A000D9134B015C01A7019601C701B6010E9444
:1017B000D9139B01AC01C501B4010E9423170E94FB
:1017C00042184B015C012DEC3CEC4CEC5DE30E94BB
:1017D000371887FD16C34090C3035090C403609030
:1017E000C5037090C60320E030E0A901C301B20137
:1017F0000E94371818163CF0412CECE75E2EE2E10F
:101800006E2EE9E47E2EA30192016DEC7CEC8CEC53
:101810009DE30E948F1720E030E64AE657E40E94DD
:10182000D9132B013C012FE632E143E85AE30E9431
:10183000731387FDD2C020E030E04AE754E4C301CF
:10184000B2010E94371818160CF4D0C02DEC3CECF5
:101850004CEC5DE3C501B4010E948F170E94011892
:101860007FAB6EABCB01892B21F4E1E0F0E0FFAB65
:10187000EEAB2EA93FA9B901330F880B990B0E943B
:101880007A134B015C01AC019B016FA578A989A972
:101890009AA90E948F1727966CAF7DAF8EAF9FAF2E
:1018A0002797A5019401C701B6010E948F172B96B7
:1018B0006CAF7DAF8EAF9FAF2B9741E050E058AB40
:1018C0004FA78EA99FA9EFA5F8A98E179F070CF423
:1018D00062C2BF01FF0F880B990B0E947A136B0144
:1018E0007C01AC019B0127966CAD7DAD8EAD9FADAB
:1018F00027970E94D9132AAD3BAD4CAD5DAD0E9438
:1019000023174B015C018092CB039092CC03A092F1
:10191000CD03B092CE03A70196012B966CAD7DADA1
:101920008EAD9FAD2B970E94D9132EAD3FAD219662
:101930004FAD219722965FAD22970E9423176B012E
:101940007C01C092C703D092C803E092C903F09211
:10195000CA0320E030E048EC52E4C501B4010E9423
:10196000D9130E94081888E10E94340320E030E077
:1019700048EC52E4C701B6010E94D9130E9408182E
:1019800089E10E943403C301B2010E9408180E9439
:10199000ED012FA538A92F5F3F4F38AB2FA791CF6F
:1019A0002AACFBADFBA72CAD2BAB3DAD3CAB79CE50
:1019B0001EAD0FAD21963FAC219722964FAD2297D9
:1019C0004DAB91CEC12CD12C7601B9CEC12CD12CEE
:1019D000FAE7EF2EF4E4FF2EB2CE7FE6472E72E157
:1019E000572E73E8672E7AE3772E30CF412C512C97
:1019F0006AE7662E64E4762E29CF20E030E0A90164
:101A0000C701B6010E947313811149C23091CB0303
:101A10003AAF4091CC034BAF5091CD035CAF809176
:101A2000CE038DAF9091C7039EAFE091C803EFAF97
:101A3000F091C9032196FFAF21972091CA03229606
:101A40002FAF229788E50E946A01882309F481C19B
:101A500088E50E949504262E7BA78BAB9CAB8091DA
:101A60000001811110C02091CB033091CC03409133
:101A7000CD035091CE03622D8BA90E942317262EF1
:101A80007BA78BAB9CAB89E50E946A01882309F494
:101A900068C189E50E949504162F072F382E9DAB4B
:101AA00080910001811111C02091C7033091C803BA
:101AB0004091C9035091CA03612F702F832D0E945A
:101AC0002317162F072F382E9DAB86E40E946A013C
:101AD000882359F086E40E9495046093C3037093B1
:101AE000C4038093C5039093C6032AAD3BAD4CADB0
:101AF0005DAD622D7BA58BA99CA90E9422176FA7C3
:101B000078AB89AB9AAB2EAD3FAD21964FAD219707
:101B100022965FAD2297612F702F832D9DA90E9481
:101B200022174B015C012FA538A949A95AA9CA015E
:101B3000B9010E94D9136B017C01A5019401C50173
:101B4000B4010E94D9139B01AC01C701B6010E94E8
:101B500023170E9442186EAB7FAB88AF99AF2DEC74
:101B60003CEC4CEC5DE30E94371818160CF013C1E6
:101B7000C090C303D090C403E090C503F090C603A7
:101B800020E030E0A901C701B6010E9437181816FD
:101B900054F420E030E44CE156E4C701B6010E9461
:101BA000371818163CF0C12C50E4D52E5CE1E52E18
:101BB00056E4F52EA70196016DEC7CEC8CEC9DE3D0
:101BC0000E948F1720E030E64AE657E40E94D913BE
:101BD0002B013C012FE632E143E85AE30E947313E4
:101BE00087FDC9C020E030E04AE754E4C301B201F8
:101BF0000E94371818160CF4C7C02DEC3CEC4CECC6
:101C00005DE36EA97FA988AD99AD0E948F170E94F0
:101C100001187FAB6EABFB01EF2B21F421E030E02C
:101C20003FAB2EAB4EA95FA9BA01550F880B990B9C
:101C30000E947A136B017C01AC019B016FA578A90E
:101C400089A99AA90E948F1727966CAF7DAF8EAF96
:101C50009FAF2797A7019601C501B4010E948F1776
:101C60002B966CAF7DAF8EAF9FAF2B9781E090E04E
:101C700098AB8FA7EEA9FFA92FA538A9E217F30704
:101C80000CF489C0B901330F880B990B0E947A13A9
:101C90006B017C01AC019B0127966CAD7DAD8EADD7
:101CA0009FAD27970E94D9132AAD3BAD4CAD5DADDA
:101CB0000E9423174B015C018092CB039092CC03CE
:101CC000A092CD03B092CE03A70196012B966CADE6
:101CD0007DAD8EAD9FAD2B970E94D9132EAD3FAD3C
:101CE00021964FAD219722965FAD22970E94231730
:101CF0006B017C01C092C703D092C803E092C90374
:101D0000F092CA0320E030E048EC52E4C501B4018F
:101D10000E94D9130E94081888E10E94340320E031
:101D200030E048EC52E4C701B6010E94D9130E948A
:101D3000081889E10E943403C301B2010E94081807
:101D40000E94ED014FA558A94F5F5F4F58AB4FA7B9
:101D500091CF2AAC3BAD3BA74CAD4BAB5DAD5CAB83
:101D600092CE1EAD0FAD21963FAC219722968FAD3E
:101D700022978DABAACE4FE6442E42E1542E43E883
:101D8000642E4AE3742E39CF412C512C3AE7632E4E
:101D900034E4732E32CF822D9BA5ABA9BCA98093CE
:101DA000CB039093CC03A093CD03B093CE03812FAC
:101DB000902FA32DBDA98093C7039093C803A09330
:101DC000C903B093CA0320E030E048EC52E4622D2E
:101DD0007BA58BA99CA90E94D9130E94081888E1B1
:101DE0000E94340320E030E048EC52E4612F702F71
:101DF000832D9DA90E94D9130E94081889E10E9491
:101E000034038DE40E946A01882309F40CC28DE436
:101E10000E9495046B017C0120E030E040E450E436
:101E20000E947313882351F020E030E040E850E432
:101E3000C701B6010E9473138111DBC16091BF031A
:101E40007091C0038091C1039091C2030E94F1037D
:101E50002FB7F8948091D8059091D905A091DA0513
:101E6000B091DB052FBF8093BB039093BC03A0937D
:101E7000BD03B093BE038091B7039091B803A091C6
:101E8000B903B091BA030196A11DB11D8093B703A8
:101E90009093B803A093B903B093BA03C9C120E0EB
:101EA00030E040EE51E4C701B6010E947313811186
:101EB00015C01092CB031092CC031092CD03109258
:101EC000CE031092C7031092C8031092C903109258
:101ED000CA030E9454030E948A0393CF20E030E09B
:101EE00044EB52E4C701B6010E947313811104C090
:101EF00051E05093000185CF20E030E046EB52E402
:101F0000C701B6010E947313811103C01092000132
:101F100078CF20E030E048EB52E4C701B6010E94E0
:101F20007313811115C01092CB031092CC03109241
:101F3000CD031092CE031092C7031092C8031092E3
:101F4000C9031092CA030E9454030E948A0350CB13
:101F500020E030E040E050E4C701B6010E94731376
:101F6000882351F020E030E040E450E4C701B6019E
:101F70000E94731381113CCB2090CB033090CC0393
:101F80004090CD035090CE036090C7037090C8037B
:101F90008090C9039090CA0388E50E946A01882353
:101FA00009F40DC188E50E949504B62EC72ED82EDF
:101FB000E92E80910001811112C02091CB03309154
:101FC000CC034091CD035091CE036B2D7C2D8D2DF4
:101FD0009E2D0E942317B62EC72ED82EE92E89E5F6
:101FE0000E946A01882309F4EFC089E50E949504E4
:101FF000F62E072F182FA92E80910001811112C0F3
:102000002091C7033091C8034091C9035091CA037E
:102010006F2D702F812F9A2D0E942317F62E072FD8
:10202000182FA92E86E40E946A01882359F086E4BD
:102030000E9495046093C3037093C4038093C50307
:102040009093C6039101A2016B2D7C2D8D2D9E2DA9
:102050000E9422176BA77CA78DA79EA79301A401BE
:102060006F2D702F812F9A2D0E9422172B013C017A
:102070002BA53CA54DA55EA5CA01B9010E94D913A7
:102080006BA77CA78DA79EA7A3019201C301B201F4
:102090000E94D9139B01AC016BA57CA58DA59EA5C3
:1020A0000E9423170E9442186BA77CA78DA79EA7AA
:1020B0002DEC3CEC4CEC5DE30E94371818160CF04C
:1020C000A0CE4090C3035090C4036090C5037090AD
:1020D000C60320E030E0A901C301B2010E94371815
:1020E00018163CF0412C2CE7522E22E1622E29E4F6
:1020F000722EA30192016BA57CA58DA59EA50E94C1
:102100008F1720E030E040E752E40E94D91320E02E
:1021100030E04AE754E40E94D9132B013C012FE63A
:1021200032E143E85AE30E94731387FD52C020E076
:1021300030E04AE754E4C301B2010E943718181690
:102140000CF450C08B2D9C2DAD2DBE2D8093CB0358
:102150009093CC03A093CD03B093CE038F2D902FFB
:10216000A12FBA2D8093C7039093C803A093C903EE
:10217000B093CA0320E030E048EC52E46B2D7C2D94
:102180008D2D9E2D0E94D9130E94081888E10E946F
:10219000340320E030E048EC52E46F2D702F812FA3
:1021A0009A2D0E94D9130E94081889E10E943403D5
:1021B000C301B2010E9408180E94ED0122CEB22C88
:1021C000C32CD42CE52C0BCFF62C072D182DA92CC5
:1021D00029CF9FE6492E92E1592E93E8692E9AE382
:1021E000792EB0CF412C512C8AE7682E84E4782ECA
:1021F000A9CF20E030E040EA50E4C701B6010E94D8
:102200007313811104C060E070E0CB011FCE20E0A9
:1022100030E040E050E4C701B6010E947313811121
:102220000DC00E946D0423968FAD2397811110CEAF
:102230000E946D04CE0101960C94040920E030E068
:1022400040E151E4C701B6010E9473138111EBCF45
:10225000E8CFCE0185960E94AB048FB7F894C0906A
:10226000D805D090D905E090DA05F090DB058FBF56
:102270008091CF039091D003A091D103B091D2036C
:10228000A7019601281B390B4A0B5B0BDA01C90128
:10229000883C9105A105B10550F00E941B05C09234
:1022A000CF03D092D003E092D103F092D2032091D9
:1022B000D3033091D4038091D5059091D60528178A
:1022C0003907E9F080EE95E00E944D0218161906D4
:1022D000B4F4E091D505F091D605EB52FC4F608146
:1022E00080EE95E00E94C0028091D5059091D605C0
:1022F000019691709093D6058093D505D8CF80E054
:1023000090E0892B11F40C94EE070E948A02882336
:1023100011F40C94EE070E9400000C94EE0750E0BC
:1023200040E067E671E0CE0185960E94F0042091BE
:10233000B3033091B4038091B5039091B60328178D
:10234000390711F40C947508E091B303F091B403CC
:10235000ED54FD4F20818091B3039091B403019619
:1023600099279093B4038093B3032A3021F02D3042
:1023700011F00C9454082091B3033091B403809170
:10238000B5039091B6032817390711F40C9475081A
:10239000E091B303F091B403ED54FD4F80818A3096
:1023A00021F08D3011F00C9475088091B303909159
:1023B000B403019699279093B4038093B303DBCFC2
:1023C0008DE796E00C94AB04EF920F931F93CF939D
:1023D000DF93E80134E047FD34E1042E000C550B97
:1023E00057FF03C0519541955109E32E022F242F29
:1023F000AE010E944614CE01DF91CF911F910F9143
:10240000EF900895B0E0A0E0E8E0F2E10C94E2166D
:102410005C017B016115710519F0DB018D939C93C3
:1024200085010F5F1F4FF501D0818D2F90E00E9435
:1024300052136C01892BB9F5DD32B9F50F5F1F4FCF
:10244000D5011196DC91C1E05801F1E0AF1AB10855
:1024500043E050E060E770E0C5010E945B13892B08
:1024600069F5680182E0C80ED11C45E050E06BE6DA
:1024700070E0C6010E945B13892B21F4680197E08C
:10248000C90ED11CE114F10419F0D701CD92DC92F0
:1024900060E070E080E89FEFC111FFC060E070E095
:1024A00080E89FE7FAC05801BBCFDB3229F48501F1
:1024B0000E5F1F4FF501D181C0E0C6CF43E050E071
:1024C00068E670E0C5010E945B13892BE9F0F80112
:1024D00010E000E020E030E0A9015F01B0ED8B2EBC
:1024E0008D0E89E08815C8F19C2E689491F88C2F88
:1024F0008870C2FF16C0811102C00F5F1F4F319656
:10250000D501DC91C92DE9CFE114F10429F00E5F6A
:102510001F4FF7011183008360E070E080EC9FE7BC
:10252000BCC0882311F001501109A5E0B0E00E9461
:10253000D1169B01AC01220F331F441F551F280DDC
:10254000311D411D511D283999E93907490799E184
:102550005907A8F2C6609C2ED2CFAEEF8A1206C0F1
:10256000C3FD3CC09C2E689493F8C9CFDF7DD53461
:10257000A9F580818D3239F4C061DF011296818125
:1025800062E070E006C0DF018B32C1F3119661E0BA
:1025900070E080535D01A61AB70A8A30F8F4E0E8CB
:1025A000CE16ECE0DE065CF4B601660F771F660F10
:1025B000771FC60ED71ECC0CDD1CC80ED11C5D01CA
:1025C000FFEFAF1ABF0A8C9180538A30A8F1C4FF85
:1025D00003C0D194C194D1080C0D1D1DC1FF09C0C9
:1025E000E114F10431F081E0A81AB108D701AD92ED
:1025F000BC92CA01B9010E947813C370C33009F4B8
:1026000090584B015C0120E030E0A9010E94731357
:10261000882309F440C0CFE9D0E017FF05C0119529
:1026200001951109C7E8D0E06E01B8E1CB1AD108D5
:1026300080E2E82EF12C0FC0D501B1CFFE0125912B
:102640003591459154910E191F09C501B4010E949D
:10265000D9134B015C01D501C4010E151F0574F798
:102660002497F594E794CC16DD06A9F78A2F880FF6
:102670008B2F881F8F3F49F020E030E0A901C50172
:10268000B4010E947313811106C082E290E090931E
:10269000970780939607C501B401CDB7DEB7ECE08C
:1026A0000C94FE1691110C947D16803219F089500D
:1026B0008550C8F70895FB01DC014150504088F077
:1026C0008D9181341CF08B350CF4805E6591613402
:1026D0001CF06B350CF4605E861B611171F3990B75
:1026E0000895881BFCCF0E94B51308F481E008957B
:1026F000E89409C097FB3EF490958095709561959C
:102700007F4F8F4F9F4F9923A9F0F92F96E9BB2751
:102710009395F695879577956795B795F111F8CFCD
:10272000FAF4BB0F11F460FF1BC06F5F7F4F8F4F38
:102730009F4F16C0882311F096E911C0772321F02E
:102740009EE8872F762F05C0662371F096E8862FC6
:1027500070E060E02AF09A95660F771F881FDAF71D
:10276000880F9695879597F90895990F0008550F4A
:10277000AA0BE0E8FEEF16161706E807F907C0F007
:1027800012161306E407F50798F0621B730B840B0F
:10279000950B39F40A2661F0232B242B252B21F4E9
:1027A00008950A2609F4A140A6958FEF811D811D89
:1027B00008950E94EC130C9497160E94891638F025
:1027C0000E94901620F0952311F00C9480160C9422
:1027D000861611240C94CB160E94A81670F3959FB0
:1027E000C1F3950F50E0551F629FF001729FBB2708
:1027F000F00DB11D639FAA27F00DB11DAA1F649FA4
:102800006627B00DA11D661F829F2227B00DA11D56
:10281000621F739FB00DA11D621F839FA00D611DDC
:10282000221F749F3327A00D611D231F849F600DFD
:10283000211D822F762F6A2F11249F5750409AF026
:10284000F1F088234AF0EE0FFF1FBB1F661F771FB2
:10285000881F91505040A9F79E3F510580F00C947D
:1028600080160C94CB165F3FE4F3983ED4F3869524
:1028700077956795B795F795E7959F5FC1F7FE2B1D
:10288000880F911D9695879597F90895A9E0B0E076
:10289000ECE4F4E10C94E2166A01F22EB02E102F53
:1028A000FBE3AF2EA01608F41BE31F5F012F27E008
:1028B000AE014F5F5F4F0E94A515BC018981982F23
:1028C0009970913009F43FC09BE2E1FC04C09E2D59
:1028D0009170E0FC3AC05E2D5071E82FE87083FFE4
:1028E00046C084E0911101C083E0EF2DE81B8F15F5
:1028F00008F0E0E0D6018E2F20E2552351F1992314
:1029000029F0D6019C93C60101966C0196012D5FBA
:102910003F4FE2FE24C08EE4D6018C9391E41196E1
:102920009C93119712968C93D9018E2F90E281116E
:102930001BC0E20FF32FF11D10828EEF9FEF29963F
:10294000ECE00C94FE169DE2C6CF90E2C4CF2D932E
:1029500081508111FCCFCE0ED11CE0E0D0CF8EE6AD
:10296000D6018C9391E6DBCF9D938150E0CF482F29
:10297000447082FF3DC084E0911101C083E08F1557
:1029800010F4EF2DE81BD6018E2F20E2552309F11C
:10299000992329F0D6019C93C60101966C019601FA
:1029A0002D5F3F4FE2FE1BC089E4D6018C938EE47D
:1029B00011968C93119786E412968C93D9018E2FE1
:1029C00090E2882309F4B5CF9D938150FACF2D93DF
:1029D00081508111FCCFCE0ED11CE0E0D9CF89E629
:1029E000D6018C938EE611968C93119786E6E4CFF0
:1029F0009B0177FF02C030E020E0A1E0B0E0911140
:102A000002C0B0E0A0E0F9013196AE0FBF1F8B2CE1
:102A1000912CBB2009F461C05401EFEFAE1ABE0A3D
:102A2000AA0DBB1DFA161B0619F014F04F2D4A1BF8
:102A3000511188C0E3FC59C07601A42FB0E2A11166
:102A40004FC0C40ED11C992309F45BC040E0D601ED
:102A50001196F60190836D01552309F448C0012FAA
:102A6000060F9A81582F507184FF03C0913309F4E7
:102A7000015010160CF047C0093008F008E0EEE2F3
:102A8000FE2E5B01A01AB1088501919481949108F2
:102A90002F3F320729F4D601FC92F60131966F01DF
:102AA0006217730794F1021713077CF5DB01A21B71
:102AB000B30BAA24A394B12CAC0EBD1EAA0DBB1D52
:102AC00011968C9121503109D6011196281539059E
:102AD000F4F0F60180836D01DBCFB12CA12CA0CFE7
:102AE000F701B1937F01A150AACF9111B0CFD601C8
:102AF000942F50E302C05D9391509111FCCFC40E0E
:102B0000D11C40E0ACCF01E0BACF80E3DBCF62174D
:102B1000730731F4963388F4953311F4552369F033
:102B2000F6018083FD01842F90E2811108C0A40F7B
:102B3000B11D1C9290E080E002CF81E3F1CF919330
:102B40008150F3CF911183CF8ACF283008F027E04E
:102B50003327DA01990F311D87FD916000966105D9
:102B6000710539F432602E5F3D9330E32A95E1F729
:102B700008959F3F30F080387105610509F03C5F92
:102B80003C5F3D93913008F08068911DDF93CF93B7
:102B90001F930F93FF92EF92192F987F9695E92F2D
:102BA00096959695E90FFF27E350FF4F9927332716
:102BB000EE24FF24A701E70105900894079428F468
:102BC000360FE71EF81E491F511D660F771F881F1D
:102BD000991F0694A1F70590079428F4E70EF81EB4
:102BE000491F561FC11D770F881F991F661F069426
:102BF000A1F70590079428F4F80E491F561FC71F28
:102C0000D11D880F991F661F771F0694A1F70590A5
:102C1000079420F4490F561FC71FD81F990F661F2E
:102C2000771F881F0694A9F784911095177041F0BB
:102C3000D695C79557954795F794E7941A95C1F798
:102C4000E3EAF0E0689415901591359165919591BE
:102C500005907FE27395E118F10A430B560BC90BFF
:102C6000D009C0F7E10CF11E431F561FC91FD01D2C
:102C70007EF4703311F48A95E6CFE894015030F079
:102C8000080F0AF40027021708F4202F2395022FBB
:102C90007A3328F079E37D932A95E9F710C07D9384
:102CA0002A9589F606949795679537951795179401
:102CB000E118F10A430B560BC90BD00998F0239584
:102CC0007E9173957A3308F070E37C932013B8F704
:102CD0007E9170617D9330F0839571E37D9370E315
:102CE0002A95E1F71124EF90FF900F911F91CF915A
:102CF000DF91992787FD9095089599278827089552
:102D000097F99F6780E870E060E008959FEF80EC9E
:102D1000089500240A941616170618060906089541
:102D200000240A9412161306140605060895092EA7
:102D30000394000C11F4882352F0BB0F40F4BF2B16
:102D400011F460FF04C06F5F7F4F8F4F9F4F089556
:102D500057FD9058440F551F59F05F3F71F047954C
:102D6000880F97FB991F61F09F3F79F08795089531
:102D7000121613061406551FF2CF4695F1DF08C050
:102D8000161617061806991FF1CF8695710561056D
:102D900008940895E894BB2766277727CB0197F915
:102DA00008950E941317A59F900DB49F900DA49FA6
:102DB000800D911D112408952F923F924F925F92A2
:102DC0006F927F928F929F92AF92BF92CF92DF923B
:102DD000EF92FF920F931F93CF93DF93CDB7DEB7A0
:102DE000CA1BDB0B0FB6F894DEBF0FBECDBF099434
:102DF0002A88398848885F846E847D848C849B848B
:102E0000AA84B984C884DF80EE80FD800C811B8198
:102E1000AA81B981CE0FD11D0FB6F894DEBF0FBEC7
:102E2000CDBFED010895A29FB001B39FC001A39F44
:102E3000700D811D1124911DB29F700D811D1124F3
:102E4000911D08955058BB27AA270E943A170C9449
:102E500097160E94891638F00E94901620F039F4D7
:102E60009F3F19F426F40C9486160EF4E095E7FBC8
:102E70000C948016E92F0E94A81658F3BA1762071F
:102E800073078407950720F079F4A6F50C94CA1609
:102E90000EF4E0950B2EBA2FA02D0B01B901900175
:102EA0000C01CA01A0011124FF27591B99F0593FB9
:102EB00050F4503E68F11A16F040A22F232F342F01
:102EC0004427585FF3CF469537952795A795F0404F
:102ED0005395C9F77EF41F16BA0B620B730B840B64
:102EE000BAF09150A1F0FF0FBB1F661F771F881F1C
:102EF000C2F70EC0BA0F621F731F841F48F4879574
:102F000077956795B795F7959E3F08F0B0CF939565
:102F1000880F08F09927EE0F9795879508950E94DE
:102F2000A3170C9497160E94901658F00E948916C9
:102F300040F029F45F3F29F00C94801651110C9455
:102F4000CB160C9486160E94A81668F39923B1F349
:102F5000552391F3951B550BBB27AA2762177307BF
:102F6000840738F09F5F5F4F220F331F441FAA1F53
:102F7000A9F335D00E2E3AF0E0E832D0915050400F
:102F8000E695001CCAF72BD0FE2F29D0660F771FBD
:102F9000881FBB1F261737074807AB07B0E809F0A3
:102FA000BB0B802DBF01FF2793585F4F3AF09E3F28
:102FB000510578F00C9480160C94CB165F3FE4F327
:102FC000983ED4F3869577956795B795F7959F5F6B
:102FD000C9F7880F911D9695879597F90895E1E0B7
:102FE000660F771F881FBB1F621773078407BA0716
:102FF00020F0621B730B840BBA0BEE1F88F7E09571
:1030000008950E9408186894B1110C94CB16089585
:103010000E94B01688F09F5798F0B92F9927B751A2
:10302000B0F0E1F0660F771F881F991F1AF0BA956C
:10303000C9F714C0B13091F00E94CA16B1E00895EA
:103040000C94CA16672F782F8827B85F39F0B93FDC
:10305000CCF3869577956795B395D9F73EF490951F
:103060008095709561957F4F8F4F9F4F08950E9477
:10307000B51308F48FEF089519F416F40C9486161E
:103080000C9482180E94B016B8F39923C9F3B6F3D2
:103090009F57550B87FF0E9490180024A0E640EA36
:1030A000900180585695979528F4805C660F771F9D
:1030B000881F20F026173707480730F4621B730B70
:1030C000840B202931294A2BA69517940794202593
:1030D00031254A2758F7660F771F881F20F02617DB
:1030E0003707480730F4620B730B840B200D311D3A
:1030F000411DA09581F7B901842F9158880F9695AD
:10310000879508959F3F31F0915020F487957795EA
:103110006795B795880F911D9695879597F90895AE
:1031200091505040660F771F881FD2F70895EE0F19
:10313000FF1F0590F491E02D09940F931F93CF93F7
:10314000DF938230910510F482E090E0E0919A07DD
:10315000F0919B0730E020E0B0E0A0E0309799F4D8
:103160002115310509F44AC0281B390B24303105DB
:10317000D8F58A819B816115710589F1FB019383E3
:103180008283FE0111C04081518102811381481761
:103190005907E0F04817590799F4109761F0129613
:1031A0000C93129713961C933296CF01DF91CF9117
:1031B0001F910F91089500939A0710939B07F4CFE6
:1031C0002115310551F04217530738F0A901DB01F1
:1031D0009A01BD01DF01F801C1CFEF01F9CF909352
:1031E0009B0780939A07CDCFFE01E20FF31F8193D7
:1031F00091932250310939832883D7CF20919807A2
:1032000030919907232B41F420910301309104015F
:103210003093990720939807209101013091020182
:103220002115310541F42DB73EB74091050150916C
:103230000601241B350BE0919807F0919907E217DE
:10324000F307A0F42E1B3F0B2817390778F0AC01C9
:103250004E5F5F4F2417350748F04E0F5F1F5093A6
:10326000990740939807819391939FCFF0E0E0E016
:103270009CCFCF93DF930097E9F0FC013297138244
:103280001282A0919A07B0919B07ED0130E020E0F7
:103290001097A1F420813181820F931F209198070C
:1032A000309199072817390709F061C0F093990701
:1032B000E0939807DF91CF910895EA01CE17DF07D9
:1032C000E8F54A815B819E0141155105B1F7E9019D
:1032D000FB83EA8349915991C40FD51FEC17FD0771
:1032E00061F4808191810296840F951FE901998391
:1032F0008883828193819B838A83F0E0E0E0129649
:103300008D919C9113970097B9F52D913C91119750
:10331000CD010296820F931F209198073091990753
:103320002817390739F6309751F510929B071092FC
:103330009A07B0939907A0939807BCCFD383C28311
:1033400040815181840F951FC817D90761F44E5FE2
:103350005F4F88819981480F591F518340838A812B
:103360009B81938382832115310509F0B0CFF093BF
:103370009B07E0939A079ECFFD01DC01C0CF13822B
:103380001282D7CFB0E0A0E0E8ECF9E10C94DE16B1
:103390008C01009751F4CB010E949D188C01C8014B
:1033A000CDB7DEB7E0E10C94FA16FC01E60FF71F8B
:1033B0009C0122503109E217F30708F49DC0D9019E
:1033C000CD91DC911197C617D70798F0C530D1057C
:1033D00030F3CE0104978617970708F3C61BD70B67
:1033E0002297C193D1936D937C93CF010E94391999
:1033F000D6CF5B01AC1ABD0A4C018C0E9D1EA0916C
:103400009A07B0919B07512C412CF12CE12C10977D
:1034100031F580919807909199078815990509F0E1
:103420005CC04616570608F058C080910101909183
:103430000201009741F48DB79EB74091050150916C
:103440000601841B950BE817F90708F055C0F093A7
:103450009907E0939807F90171836083A0CF8D915C
:103460009C91119712966C90129713967C901397DB
:10347000A815B90559F56C0142E0C40ED11CCA1457
:10348000DB0420F1AC014A195B09DA0112961597A9
:1034900080F06282738251834083D9016D937C9363
:1034A000E114F10471F0D7011396FC93EE93129797
:1034B00076CF22968C0F9D1FF90191838083F301B3
:1034C000EFCFF0939B07E0939A0769CF4816590610
:1034D00008F42C017D01D3019ACFCB010E949D18E5
:1034E0007C01009749F0AE01B8010E947F1AC80123
:1034F0000E943919870153CF10E000E050CFFB0143
:10350000DC0102C001900D9241505040D8F708955F
:10351000FB01DC018D91019080190110D9F3990B09
:103520000895FB01DC0101900D920020E1F7089560
:10353000FB01DC014150504030F08D910190801929
:1035400019F40020B9F7881B990B0895AEE0B0E09C
:10355000ECEAFAE10C94EA160D891E898F89988DA0
:1035600026E02C831A83098397FF02C080E090E84D
:1035700001979E838D83AE01455E5F4F698D7A8D85
:10358000CE0101960E94D61A4D815E8157FD0AC078
:103590002F813885421753070CF49A01020F131F2D
:1035A000F80110822E96E4E00C940617ABE0B0E030
:1035B000ECEDFAE10C94DC167C013B018A01FC0184
:1035C00017821682838181FFC8C1CE0101965C01FA
:1035D000F7019381F30193FD859193FF81913F0161
:1035E000882309F453C1853239F493FD859193FF03
:1035F00081913F01853229F4B70190E00E94C61CF9
:10360000E7CF912C212C312CFFE1F31538F08B32D0
:1036100011F190F4803209F1833229F137FC3CC07A
:1036200020ED280F2A3050F536FE20C08AE0989E03
:10363000200D1124922E06C08D3291F0803371F747
:10364000689430F8F30193FD859193FF81913F01D8
:103650008111DACF21C0689431F8689432F8F2CF42
:10366000689433F8EFCF689434F8ECCFEAE02E9EFC
:10367000200D1124222E689435F8E4CF8E3229F4DF
:1036800036FC04C1689436F8DDCF8C3619F46894A2
:1036900037F8D8CF8836B1F2982F9F7D9554933064
:1036A000E0F08336A1F18337C1F1833509F063C0BF
:1036B0002801F2E04F0E511CF801C080D180692D25
:1036C00070E036FC02C06FEF7FEFC6010E94B01CB5
:1036D0004C01689437F882010AC00C5F1F4FFFE36A
:1036E000F98388248394912C6501E89437F833FE9C
:1036F0002DC0522C8114910471F5552009F468CF26
:10370000B70180E290E00E94C61C5A94F6CFF801FF
:10371000808189830E5F1F4FE4CF2801F2E04F0EB6
:10372000511CF801C080D180692D70E036FC02C0C8
:103730006FEF7FEFC6010E94BB1C4C018201D5CF09
:10374000B70180E290E00E94C61C2A942814190454
:1037500009F0B0F7CECFF60137FC859137FE8191A5
:103760006F01B70190E00E94C61C51105A94F1E01D
:103770008F1A9108BFCF843619F0893609F077C0C7
:10378000F80137FE6BC060817181828193810C5F8B
:103790001F4FF32DFF763F2E97FF09C09095809520
:1037A000709561957F4F8F4F9F4F689437F82AE04F
:1037B00030E0A5010E94F61CC82ECA188C2C432CA0
:1037C00036FE0CC0E89440F8C91440F434FE05C03D
:1037D00032FC03C0F32DFE7E4F2E892C44FE95C093
:1037E000FE01EC0DF11D8081803309F087C0242D8E
:1037F000297E422E842D8870582E43FC95C040FEB1
:103800008FC09C2C821418F42C0C922C981844FE17
:1038100091C0B70180E390E00E94C61C42FE09C03F
:1038200088E790E041FE02C088E590E0B7010E9481
:10383000C61CC91408F48AC0CA94D12C9FEFC91AB7
:10384000D90ACA0CDB1CF60182916F01B70190E026
:103850000E94C61CAC14BD04B1F74FCF60817181CA
:10386000072E000C880B990B0E5F1F4F92CFD32CA5
:10387000E894D4F82AE030E0853739F1232D297F08
:10388000D22E8F3601F148F48835A9F0F7018681F0
:1038900097812B96E2E10C94F816803749F088372F
:1038A000A9F7D4FE02C06894D2F820E130E00DC040
:1038B0006894D4F8F6CF34FE03C0822F8660D82EE9
:1038C00020E132E002C028E030E0F801D7FE0FC06E
:1038D00060817181828193810C5F1F4FA5010E94DD
:1038E000F61CC82ECA183D2CE89437F867CF6081C3
:1038F000718190E080E00E5F1F4FF0CF42FC02C06C
:10390000839478CF8394839475CF842D867809F43B
:1039100071CFF6CFB70180E290E00E94C61C83947D
:103920008214C0F3512C73CF522C5818821408F40F
:103930006ECFF8CF842D867809F47BCF8BE241FEE1
:1039400080E247FC8DE2B70190E071CFB70180E3E0
:1039500090E00E94C61C9A946CCF8FEF9FEF99CF96
:10396000FC010590615070400110D8F7809590954A
:103970008E0F9F1F0895FC0161507040019001104F
:10398000D8F7809590958E0F9F1F08950F931F93E2
:10399000CF93DF93182F092FEB018B8181FD09C095
:1039A0001FEF0FEF812F902FDF91CF911F910F917C
:1039B000089582FF14C02E813F818C819D8128173C
:1039C00039073CF4E881F981CF0101969983888316
:1039D00010838E819F8101969F838E83E3CFE8853C
:1039E000F985812F0995892BA1F3DACFFA01AA274E
:1039F000283051F1203181F1E8946F936E7F6E5F32
:103A00007F4F8F4F9F4FAF4FB1E03ED0B4E03CD0DF
:103A1000670F781F891F9A1FA11D680F791F8A1FC2
:103A2000911DA11D6A0F711D811D911DA11D20D029
:103A300009F468943F912AE0269F11243019305DE3
:103A40003193DEF6CF010895462F4770405D4193D4
:103A5000B3E00FD0C9F7F6CF462F4F70405D4A3321
:103A600018F0495D31FD4052419302D0A9F7EACFE9
:103A7000B4E0A6959795879577956795BA95C9F718
:103A800000976105710508959B01AC010A2E06940B
:103A90005795479537952795BA95C9F7620F731FC4
:103AA000841F951FA01D089510E0C8EFD0E004C04A
:103AB000FE010E9497182196C93FD107C9F7F894D3
:023AC000FFCF36
:103AC2000100009C07800041424344464748494A5E
:103AD2004B4C4D4E505152535455565758595A000B
:103AE20000000000C00220024D020D037E025C02B3
:103AF20070026F6B0A0052756E0049646C65003C7F
:103B020025737C4D506F733A25732C25732C302E00
:103B12003030307C46533A256C642C25647C4C6EE4
:103B22003A256C643E0D0A00E9BB91E889B2E8923D
:103B3200B2E585ACE88BB14C415345525F56312E0C
:103B4200300024002447202D2056696577206763C2
:103B52006F6465207061727365722073746174653D
:103B6200002449202D2056696577206275696C64AE
:103B720020696E666F00244E202D205669657720DD
:103B82007374617274757020626C6F636B7300245E
:103B920058202D204B696C6C20616C61726D206C19
:103BA2006F636B002448202D2052756E20686F6D64
:103BB200696E67206379636C65002443202D20437E
:103BC2006865636B2067636F6465206D6F64650071
:103BD200245253543D2A202D204572617365206181
:103BE2006C6C00245253543D24202D204572617385
:103BF200652073657474696E677300245253543D73
:103C020023202D20457261736520706172616D659C
:103C12007465727300244700473000204735340032
:103C22002047313700204732310020473930002009
:103C32004739340024490042445F4C4153455220E5
:103C420000245800244800244300473020473534DC
:103C52002047313720473231204739302047393425
:103C6200204D30006572726F723A25640A003F007F
:023C720021002F
:00000001FF
