:020000040800F2
:10000000B8030020BD360008BB110008BD11000870
:10001000C1110008C5110008C91100080000000046
:10002000000000000000000000000000CD110008EA
:10003000CF11000800000000D1110008D311000802
:10004000D3360008D3360008D3360008D33600086C
:10005000D3360008D3360008D3360008D33600085C
:10006000D3360008D3360008D3360008D33600084C
:10007000D3360008D3360008D3360008D33600083C
:10008000D3360008D3360008D3360008D33600082C
:10009000D3360008D3360008D3360008D33600081C
:1000A000D3360008D3360008D3360008D33600080C
:1000B000D3360008D3360008D3360008D3360008FC
:1000C000D3360008D3360008D3360008D3360008EC
:1000D000D3360008D3360008D3360008D3360008DC
:1000E000D3360008D3360008D336000800F002F8F3
:1000F00000F044F80AA090E8000C82448344AAF17E
:100100000107DA4501D100F039F8AFF2090EBAE87B
:100110000F0013F0010F18BFFB1A43F0010318473B
:10012000D8680000F8680000103A24BF78C878C189
:10013000FAD8520724BF30C830C144BF04680C60ED
:10014000704700000023002400250026103A28BF35
:1001500078C1FBD8520728BF30C148BF0B60704739
:10016000782903F06D87732904F0458100207047DA
:100170001FB504F042F81FBD10B510BD04F03FF9E3
:100180001146FFF7F5FF00F0F7FF04F05DF903B447
:10019000FFF7F2FF03BC04F067F900000B49D1F848
:1001A00000C04A685CF8043B1068184442F8040B2D
:1001B0008C4528BFA1F1DC0C8A4228BFA1F1DC02EA
:1001C000C1F800C04A6020F0004070475001002094
:1001D00070B505460E4614463146284602F0C3FC6B
:1001E000204602F05EFC70BD2DE9F05F04460D462E
:1001F00016461F46301B401C1FFA80FA781B401C15
:100200001FFA80FB3B4632462946204602F081FC1D
:100210004FF000080FE04FF0000906E00A9802F0E6
:1002200040FC09F101001FFA80F9D145F6DB08F125
:1002300001001FFA80F8D845EDDBFD484088401EDC
:1002400083B2FB480088401E82B20021084602F0BB
:1002500060FCBDE8F09F2DE9FF4F85B081468A46DE
:100260000020049003900798A0EB09050898A0EBE4
:100270000A06CDF80890CDF804A0002D01DD012775
:1002800005E00DB9002702E04FF0FF376D42002E68
:1002900002DD4FF0010806E016B94FF0000802E059
:1002A0004FF0FF387642B54201DD2C4600E034467F
:1002B0004FF0000B21E0019A91B2029A90B202F045
:1002C0005CFC0498284404900398304403900498FC
:1002D000A04205DD0498001B049002983844029067
:1002E0000398A04205DD0398001B03900198404449
:1002F00001900BF101001FFA80FB601C8345DADDE1
:1003000009B0BDE8F08F2DE9F04104460D461646D0
:100310001F46DDF81880EA1991B2A21990B2424640
:10032000FFF756FFEA1991B2A21B90B24246FFF7BF
:100330004FFFEA1B91B2A21990B24246FFF748FF65
:10034000EA1B91B2A21B90B24246FFF741FFAA19E5
:1003500091B2E21990B24246FFF73AFFAA1991B260
:10036000E21B90B24246FFF733FFAA1B91B2E2199B
:1003700090B24246FFF72CFFAA1B91B2E21B90B24B
:100380004246FFF725FFBDE8F0812DE9FF4F81B020
:10039000824617469846DDF838B0002445464FEAB5
:1003A0004800C0F10306BBF1000F1FD01BE0A146BF
:1003B00008E04B462246009750460299FFF7A3FFFC
:1003C00009F10109A945F4DD002E04DA042000FB3F
:1003D0000460861D06E0601B042101FB006000F143
:1003E0000A066D1E641CAC42E1DD18E015E02B46E8
:1003F0002246009750460299FFF785FF002E04DA47
:10040000042000FB0460861D06E0601B042101FB44
:10041000006000F10A066D1E641CAC42E7DD05B009
:10042000BDE8F08F2DE9FF4F85B081460020049094
:1004300083460798A0EB090506990898461ACDF857
:100440000C9006980290002D01DD012705E00DB902
:10045000002702E04FF0FF376D42002E02DD4FF023
:10046000010806E016B94FF0000802E04FF0FF382F
:100470007642B54201DD2C4600E034464FF0000ADA
:100480001FE001200090DDE91232DDE90210FFF7E4
:100490007CFF049828440490B3440498A04205DDEE
:1004A0000498001B0490039838440390A34504DD8E
:1004B000ABEB040B0298404402900AF101001FFAD2
:1004C00080FA601C8245DCDD09B0BDE8F08F2DE9C3
:1004D000F04104460D4616461F462B463246294635
:1004E0002046FFF7B8FE3B46224629462046FFF746
:1004F000B2FE3B46324639462046FFF7ACFE3B464D
:10050000324629463046FFF7A6FEBDE8F081F8B531
:1005100004460D4616461F46464800883B4632466E
:10052000294600902046FFF75FFEF8BD2DE9F84F01
:1005300006460F4691469846C9F101000FFA80FA27
:100540004FF0010B4FEA4900404200B200900024F6
:100550004D4652E0BAF1000F09DB681E85B20098E3
:10056000801C00B20090009850440FFA80FA601C82
:1005700084B20BF102000FFA80FB0AEB0B000FFABA
:1005800080FA08F0040058B17A1991B2321990B289
:1005900002F0F3FA3A1991B2721990B202F0EDFA40
:1005A00008F0020058B17A1B91B2321990B202F0F1
:1005B000E4FA3A1B91B2721990B202F0DEFA08F036
:1005C000080058B13A1991B2721B90B202F0D5FAF4
:1005D0007A1991B2321B90B202F0CFFA08F0010002
:1005E00058B13A1B91B2721B90B202F0C6FA7A1B54
:1005F00091B2321B90B202F0C0FAAC42AADBBDE865
:10060000F88F2DE9FC5F06460F4690469A46DDF8C6
:100610003090C8F101000FFA80FB012001904FEAF1
:100620004800404200B200900024454675E00000BA
:10063000640000202E000020BBF1000F09DB681EC3
:1006400085B20098801C00B20090009858440FFAC0
:1006500080FB601C84B20198801C00B2019001985C
:1006600058440FFA80FB0AF0010048B307EB050C71
:100670000CF1010CCC441FFA8CF306EB040C1FFAAE
:100680008CF2A7EB050C1FFA8CF106EB040C1FFA99
:100690008CF0FFF7E0FD07EB040C0CF1010CCC44EF
:1006A0001FFA8CF306EB050C1FFA8CF2A7EB040C77
:1006B0001FFA8CF106EB050C1FFA8CF0FFF7CBFD4F
:1006C0000AF0020048B307EB050C0CF1010CCC4416
:1006D0001FFA8CF3A6EB040C1FFA8CF2A7EB050CA7
:1006E0001FFA8CF1A6EB040C1FFA8CF0FFF7B3FD98
:1006F00007EB040C0CF1010CCC441FFA8CF3A6EBB5
:10070000050C1FFA8CF2A7EB040C1FFA8CF1A6EB78
:10071000050C1FFA8CF0FFF79EFDAC428CDBBDE8A8
:10072000FC9F2DE9F04105460E4617469846069C6B
:10073000391B8AB2291988B233463146FFF78BFD3F
:10074000A8EB040083B2301981B22A462846FFF78D
:1007500082FD391B8AB2291988B243464146FFF708
:100760007AFDA8EB040083B2301981B23A463846CC
:10077000FFF771FD321991B22A1990B20123224676
:10078000FFF7D4FE321991B23A1B90B202232246EF
:10079000FFF7CCFEA8EB040291B23A1B90B20423FF
:1007A0002246FFF7C3FEA8EB040291B22A1990B2C9
:1007B00008232246FFF7BAFEBDE8F0812DE9F84391
:1007C00007460D4690461E46089CFA480088711C54
:1007D0008BB2A8EB04018AB23919009088B229467D
:1007E000FFF702FD701B401C022101FB1400401E9C
:1007F00080B22A1991B2A8EB0402009090B20123B2
:100800002246FFF7FEFE701B401C022101FB140074
:10081000401E80B22A1991B23A19009090B2022378
:100820002246FFF7EEFEBDE8F8832DE9F0470446C7
:100830000D4616461F46DDE908893B4632462946E5
:100840002046FFF708FD4B46424639463046FFF743
:1008500002FD2B46224649464046FFF7FCFCBDE818
:10086000F08702880B8803800A8070472DE9FF4FCC
:1008700085B000260027BDF81800BDF8201088427A
:1008800007DD08A906A8FFF7ECFF07A905A8FFF7F1
:10089000E8FFBDF82000BDF84C10884207DD08A92C
:1008A00013A8FFF7DEFF07A912A8FFF7DAFFBDF8CC
:1008B0001800BDF82010884207DD08A906A8FFF738
:1008C000D0FF07A905A8FFF7CCFFBDF81800BDF8B9
:1008D0004C10884238D1BDF8140003900490BDF844
:1008E0001C00BDF81010884203DABDF81C0004900B
:1008F00008E0BDF81C00BDF80C10884202DDBDF810
:100900001C000390BDF84800BDF81010884203DABF
:10091000BDF84800049008E0BDF84800BDF80C1090
:10092000884202DDBDF848000390A248008800908C
:10093000BDF81830BDF80C201946BDF81000FFF7BF
:1009400053FC09B0BDE8F08FBDF81C00BDF81410D1
:10095000A0EB010BBDF82000BDF81810401A029062
:10096000BDF84800BDF81410451ABDF84C00BDF89C
:100970001810A0EB0109BDF84800BDF81C10A0EB51
:10098000010ABDF84C00BDF82010401A0190BDF8D6
:100990002000BDF84C10884202D1BDF8208004E050
:1009A000BDF82000401E1FFA80F8BDF8184027E06F
:1009B000029896FBF0F0BDF81410084480B2049041
:1009C00097FBF9F0BDF81410084480B203905E4420
:1009D0002F44BDF81000BDF80C10884203DD03A9B8
:1009E00004A8FFF73EFF7348008823460090BDF837
:1009F0000C202146BDF81000FFF7F6FB601C84B206
:100A00004445D5DDBDF82000201A00FB0AF6BDF8EC
:100A10001800201A00FB05F727E0019896FBF0F07C
:100A2000BDF81C10084480B2049097FBF9F0BDF8A3
:100A30001410084480B2039056442F44BDF81000AF
:100A4000BDF80C10884203DD03A904A8FFF709FFD5
:100A50005848008823460090BDF80C202146BDF878
:100A60001000FFF7C1FB601C84B2BDF84C0084424B
:100A7000D3DD00BF65E72DE9FF4F83B081468A468D
:100A80009346DDE910644B4800880290A6F12000EF
:100A9000C6B204EBD47009EB6000401E82B20AEBD0
:100AA0000400401E83B251464846019402F031F8DA
:100AB000129850BB002525E00C2C07D106EB460010
:100AC0003D4901EB800010F8058004E03B4800EB55
:100AD000061010F8058000270DE008F0010018B19D
:100AE000584601F0DEFF02E0069801F0DAFF4FEA17
:100AF0006808781CC7B204EBD471B7EB610FECDB6C
:100B0000681CC5B2A542D7DB2DE0002529E00C2CDE
:100B100007D106EB4600284901EB800010F805805C
:100B200004E0264800EB061010F80580002711E0CD
:100B30002048A0F800B008F0010038B10AEB050227
:100B400091B209EB070290B202F017F84FEA680879
:100B5000781CC7B204EBD471B7EB610FE8DB681CFB
:100B6000C5B2A542D3DB13490298088014484088D7
:100B7000401E83B212480088401E82B200210846FF
:100B800001F0C7FF07B0BDE8F08F2DE9FE43064630
:100B90000F4615461C46DDF8288025E008480088E9
:100BA000401EB04204DB06484088401EB84209DAC5
:100BB000BDE8FE832E00002082440008F6480008AD
:100BC0006400002020788DE82101FC480388FC485F
:100BD000028839463046FFF74EFF284605EBD071B4
:100BE00006EB61018EB2641C20787E2802DC20783E
:100BF0002028D3DA00BFDBE710B50246012000E071
:100C000050430B1EA1F10104E1B2F9D110BD2DE951
:100C1000FF4F83B0074691461E46109C4FF0000AD6
:100C2000002543E0701B401EC1B20A20FFF7E4FF1D
:100C3000B9FBF0F00A21B0FBF1F201FB1208BAF1A6
:100C4000000F1BD1701EA84218DDB8F1000F13D1A0
:100C500000202021A346CDE90014029004EBDB71B3
:100C6000491001FB057188B2D4490B88D4490A8820
:100C70000499FFF700FF17E04FF0010A002108F187
:100C80003000C0B2A346CDE90141009004EBDB7116
:100C9000491001FB057188B2C8490B88C8490A8808
:100CA0000499FFF7E8FE00BF681CC5B2B542B9DB86
:100CB00007B0BDE8F08F2DE9FC5F054688469146F8
:100CC0009A46DDF830B000954B20019000245FE09B
:100CD00004EB0410BB4911F810009BF80010884287
:100CE00053D104EB0410B74901EB400040789BF866
:100CF0000110884249D108F10F0083B205F10F00BD
:100D000082B24146284601F004FF00263BE000275E
:100D100034E00D9890B904EB0410AA4901EB4000AF
:100D2000801C805D80213941084018B1484601F09F
:100D3000B8FE21E0504601F0B4FE1DE0A048A0F846
:100D4000009004EB04109F4901EB4000801C805D83
:100D500080213941084018B14146284601F00DFF75
:100D6000681C85B20098281A102805D1009D08F14A
:100D700001001FFA80F803E0781CC7B2082FC8DB17
:100D800000BF701CC6B2202EC1DB00BF601C84B245
:100D9000019884429CDB8C484088401E83B28A487C
:100DA0000088401E82B20021084601F0B2FEBDE874
:100DB000FC9F2DE9FC5F0546884691469A46DDF882
:100DC00030B0009507200190002467E004EB840018
:100DD00000EB44107D4911F810009BF80010884288
:100DE00059D104EB840000EB4410784901EB40003A
:100DF00040789BF8011088424DD108F1170083B26A
:100E000005F1170082B24146284601F082FE002615
:100E10003FE0002738E00D98A0B904EB840000EB18
:100E200044106A4901EB4000801C805D80213941FB
:100E3000084018B1484601F034FE23E0504601F066
:100E400030FE1FE05E48A0F8009004EB840000EB49
:100E500044105E4901EB4000801C805D80213941D7
:100E6000084018B14146284601F087FE681C85B24B
:100E70000098281A182805D1009D08F101001FFAD2
:100E800080F803E0781CC7B2082FC4DB00BF701CD9
:100E9000C6B2482EBDDB00BF601C84B201988442FC
:100EA00094DB49484088401E83B247480088401E72
:100EB00082B20021084601F02CFEBDE8FC9F2DE91E
:100EC000FC5F0546884691469A46DDF830B00095AD
:100ED0000420019000245FE004EB84103C4911F8E9
:100EE00010009BF80010884253D104EB841038495D
:100EF00001EB400040789BF80110884249D108F18D
:100F00001F0083B205F11F0082B24146284601F05E
:100F100000FE00263BE0002734E00D9890B904EB7A
:100F200084102B4901EB4000801C805D80213941F9
:100F3000084018B1484601F0B4FD21E0504601F0E8
:100F4000B0FD1DE01E48A0F8009004EB841020497D
:100F500001EB4000801C805D80213941084018B1C0
:100F60004146284601F009FE681C85B20098281AFF
:100F7000202805D1009D08F101001FFA80F803E048
:100F8000781CC7B2082FC8DB00BF701CC6B2802E09
:100F9000C1DB00BF601C84B2019884429CDB0A481C
:100FA0004088401E83B208480088401E82B200215B
:100FB000084601F0AEFDBDE8FC9F000030000020B7
:100FC0002E000020E64E000864000020DC580008D7
:100FD000E25A00082DE9FF4F83B006468846914645
:100FE000DDE91147109DB2464FF0000B71E0BBF1F7
:100FF000000F40D104EBD4715E4A1288A2EB61016C
:10100000B14204DB5B494988091B414502DA07B05C
:10101000BDE8F08F2878802802DD4FF0010B58E002
:1010200028780D2806D108EB04001FFA80F85646F0
:101030006D1C1EE0102C0DDD102128788DE883003A
:101040004A4641463046069BFFF715FD06F108006B
:1010500086B20EE028788DE891004A464146304637
:10106000069BFFF708FD204604EBD07106EB6101FB
:101070008EB26D1C2DE03F480088001BB04204DB9F
:101080003C484088001B404500DAC0E74FF0000BA9
:10109000202C08D1CDE900574A4641463046069BF0
:1010A000FFF70DFF12E0182C08D1CDE900574A4692
:1010B00041463046069BFFF77CFE07E0CDE900572E
:1010C0004A4641463046069BFFF7F5FDAD1C3019F8
:1010D00086B2287800288AD100BF98E72DE9FE4F14
:1010E0000E4617469846DDE90D9A0C9C204603F003
:1010F000B1F885B21F490988A1EBC50000EBD0719A
:10110000C1F34F0B43463A46314658468DE8100628
:10111000FFF760FFBDE8FE8F2DE9F04706460F465A
:10112000154607F1270083B206F1270082B239463F
:10113000304601F0EEFC00240AE015F8149005EBAF
:10114000440090F8018049EA082001F0AAFC641CE0
:10115000B4F5C86FF1DB07484088401E83B20548EC
:101160000088401E82B20021084601F0D2FCBDE892
:10117000F08700006400002000F09BF8482002F097
:10118000A5FE01F0BBFD17E000F04FF901F079FA80
:1011900000F089F900F02CFA00F0EEFA00F023FCE0
:1011A00000F0CAFB00F00DFD00F048FD01F0F5FA7B
:1011B00000F064FE01F05BFAE6E7704700BFFEE76F
:1011C00000BFFEE700BFFEE700BFFEE770477047C5
:1011D000704770470CB50020019000906C48006883
:1011E00040F480306A49086000BF6948006800F434
:1011F000003000900198401C0190009818B90198A7
:10120000B0F5A06FF1D16248006800F4003010B171
:101210000120009001E0002000900098012843D1B7
:101220005C48006840F010005A49086008460068B1
:1012300020F0030008600846006840F002000860E3
:10124000534840685249486008464068486008462C
:10125000406840F4806048600846406820F47C1094
:1012600048600846406840F4E81048600846006856
:1012700040F08070086000BF4548006800F00070D2
:101280000028F9D04248406820F0030040494860F7
:101290000846406840F00200486000BF3C48406893
:1012A00000F00C000828F9D10CBD10B5FFF792FF33
:1012B00010BD10B53648006840F0010034490860A0
:1012C000084640683449084031494860084600688B
:1012D000324908402E4908600846006820F4802002
:1012E00008600846406820F4FE0048604FF41F0084
:1012F0008860FFF7DAFF4FF000602949086010BDF1
:1013000010B5002100200022214B5B6803F00C0186
:1013100021B1042906D0082928D107E0214B224C0D
:10132000236027E01F4B204C236023E0184B5B68B1
:1013300003F47010164B5B6803F48032022303EB56
:10134000904022B9194B4343174C23600DE0104BDA
:101350005B6803F4003323B1144B4343124C236006
:1013600003E0104B4343104C236003E00D4B0E4C45
:10137000236000BF00BF064B5B68C3F303130C4C34
:10138000E15C094B1B68CB40074C236010BD00009B
:1013900000100240002002400000FFF8FFFFF6FEB0
:1013A00008ED00E000127A000000002000093D0076
:1013B000040000203EB504464FF6FF7001F0F5FB37
:1013C0001F200090FE480288142300210846FEF7E3
:1013D0000BFF1F200090FA48438802884088143889
:1013E00081B20020FEF700FF4FF6FF70F54908803C
:1013F000012010211F234FF6FF72CDE9004102901A
:1014000002210020FFF76AFE01201021EEA2CDE9A3
:1014100000210290EA484088123881B21F234FF61B
:10142000FF720020FFF75AFE3EBD0EB5ECA0FFF79D
:10143000C1FF01201021F0A21F23CDE9002102905D
:10144000DA021E210020FFF749FE01201021E6A24A
:101450001F23CDE900210290DA023C210020FFF792
:101460003DFE01201021E7A21F23CDE900210290BB
:101470004FF61F025A210020FFF730FE01201021F5
:10148000E6A21F23CDE9002102901A467821002010
:10149000FFF724FE40F2DC5002F032FD40F2DC5057
:1014A00002F02EFD0EBD0EB54FF6FF700090C44841
:1014B0004388028800210846FEF796FE012010218D
:1014C000DDA24FF6E073CDE90021029000221E213B
:1014D0001420FFF77FFD4FF4487002F011FD00204B
:1014E0000090B7484388028800210846FEF77CFE3A
:1014F00001201021D2A24FF6E073CDE90021029025
:101500004FF6FF721E211420FFF764FD4FF4487060
:1015100002F0F6FC4FF478400090A9484388028816
:1015200000210846FEF760FE01201021C6A24FF6FA
:10153000E073CDE9002102901F221E211420FFF745
:1015400049FD4FF4487002F0DBFC4FF4FC60009062
:101550009B484388028800210846FEF745FE01208B
:101560001021BBA24FF6E073CDE9002102901F22AB
:101570001E211420FFF72EFD4FF4487002F0C0FC2E
:101580001F2000908E484388028800210846FEF7FD
:101590002BFE01201021B0A24FF6E073CDE900210F
:1015A00002904FF478421E211420FFF713FD4FF4F0
:1015B000487002F0A5FC48F2304000908048438813
:1015C000028800210846FEF70FFE01201021A4A288
:1015D0004FF6E073CDE9002102904FF61F021E2165
:1015E0001420FFF7F7FC4FF4487002F089FC0EBDA1
:1015F0002DE9F84300249CA0FFF7DCFE4FF6FF70B6
:1016000000906F484088143883B26D4802881421D6
:101610000020FEF7E9FD00BF48E0994830F81400CB
:1016200068490880DFF898C1BCF8025005EBD57C0A
:101630004FEA6C0CACF1500CC4EB0419CC440CF127
:101640003C0C1FFA8CF3DFF878C1BCF8006006EBA5
:10165000D67C4FEA6C0CACF1500CC4EB0419CC44B2
:101660000CF13C0C1FFA8CF2DFF854C1BCF802708C
:1016700007EBD77C4FEA6C0CACF1500CC4EB0419AF
:10168000CC441FFA8CF1DFF838C1BCF8008008EBBD
:10169000D87C4FEA6C0CACF1500CC4EB0419CC4470
:1016A0001FFA8CF0FEF713FF601CC4B2052CB4DBEC
:1016B00040F2DC5002F024FC4FF6FF7000904048EE
:1016C0004088143883B23E48028814210020FEF777
:1016D0008BFD002448E06A4830F81400394908803E
:1016E000DFF8DCC0BCF8026006EBD67C4FEA6C0C7D
:1016F000ACF1500CC4EB0419CC440CF13C0C1FFAB7
:101700008CF3DFF8BCC0BCF8007007EBD77C4FEA65
:101710006C0CACF1500CC4EB0419CC440CF13C0C37
:101720001FFA8CF2DFF898C0BCF8028008EBD87C76
:101730004FEA6C0CACF1500CC4EB0419CC441FFA0A
:101740008CF1DFF87CC0BCF8005005EBD57C4FEA8B
:101750006C0CACF1500CC4EB0419CC441FFA8CF0A7
:10176000FEF7D5FE601CC4B2052CB4DB40F2DC50A1
:1017700002F0C6FBBDE8F883F8B5002441A0FFF7EE
:1017800019FE4FF6FF7000900D484088143883B260
:101790000B48028814210020FEF726FD00BF8EE0D2
:1017A0000020074B00905D8805EBD5735B10323B42
:1017B00004EBC40707EB0417D919014B1E886DE031
:1017C000640000202E000020687474703A2F2F7778
:1017D00077772E6C636477696B692E636F6D000099
:1017E000C8ABB6AFB5E7D7D3D7DBBACFB2E2CAD46E
:1017F000B3CCD0F200000000C8ABB6AFB5E7D7D38A
:1018000000000000342E302220495053205354371A
:101810003739362033323058343830007869616FC8
:1018200046656E67405144746563682032303233D8
:101830002D31312D32300000574849544500000009
:10184000424C41434B000000524544200000000040
:10185000475245454E200000424C554520000000AF
:101860004752415900000000B2E2CAD4333A47550A
:1018700049BED8D0CECCEEB3E4B2E2CAD400000068
:1018800014000020B2E2CAD4343A475549BBADD463
:10189000B2CCEEB3E4B2E2CAD400000006EBD673D9
:1018A0005B10503B04EBC40707EB0417D819FE4B41
:1018B00033F814201E23FEF768FD601CC4B2052C0B
:1018C000FFF66EAF40F2DC5002F01AFB4FF6FF70ED
:1018D0000090F6484088143883B2F44802881421F6
:1018E0000020FEF781FC00241FE00120EF4B009058
:1018F0005D8805EBD5735B10323B04EBC40707EB47
:101900000417D919E94B1E8806EBD6735B10503BC0
:1019100004EBC40707EB0417D819E34B33F8142082
:101920001E23FEF732FD601CC4B2052CDDDB40F245
:10193000DC5002F0E5FAF8BD0EB5DDA0FFF73AFD88
:1019400000200C21DFA24FF6E073CDE900210290C8
:101950001F221E210A20FFF73DFB01200C21E4A2DB
:101960004FF6E073CDE9002102901F222D210A20BD
:10197000FFF730FB00200C21E8A24FF6E073CDE921
:10198000002102901F223C210A20FFF723FB0020A8
:101990001021EAA24FF6E073CDE9002102901F2248
:1019A00050210A20FFF716FB01201021EEA24FF66E
:1019B000E073CDE9002102901F2264210A20FFF785
:1019C00009FB00201021F3A24FF6E073CDE90021BE
:1019D00002901F2278210A20FFF7FCFA4FF496604C
:1019E00002F08EFA0EBD2DE9FC5F0024F1A0FFF796
:1019F000E1FC4FF6FF700090AC484088143883B289
:101A0000AA48028814210020FEF7EEFB00BF5DE02B
:101A1000A54830F81400EE490880A448458805EB35
:101A2000D57040101438C4EB0411084481B29F48AB
:101A3000068806EBD6704010153804EB840200EBE4
:101A4000820080B2DFF864C2CDE90001BCF8027008
:101A500007EBD77C4FEA6C0CACF1490CC4EB041BD0
:101A6000DC441FFA8CF3DFF844C2BCF8008008EBBA
:101A7000D87C4FEA6C0CACF1330C04EB840B0CEB10
:101A80008B0C1FFA8CF2DFF824C2BCF8029009EB31
:101A9000D97C4FEA6C0CACF1140CC4EB041BDC4495
:101AA0001FFA8CF1DFF804C2BCF800A00AEBDA7C64
:101AB0004FEA6C0CACF1500C04EB840B0CEB8B0C70
:101AC0001FFA8CF0FEF7B1FE601CC4B2052C9FDB40
:101AD00040F2DC5002F014FA4FF6FF7000907348A9
:101AE0004088143883B27148028814210020FEF720
:101AF0007BFB00245DE06C4830F81400B44908809A
:101B00006A48458805EBD57040101438C4EB0411C1
:101B1000084481B26548068806EBD6704010153837
:101B200004EB840200EB820080B2DFF880C1CDE9D3
:101B30000001BCF8027007EBD77C4FEA6C0CACF1EB
:101B4000490CC4EB041BDC441FFA8CF3DFF85CC1C6
:101B5000BCF8008008EBD87C4FEA6C0CACF1330C7D
:101B600004EB840B0CEB8B0C1FFA8CF2DFF83CC1FE
:101B7000BCF8029009EBD97C4FEA6C0CACF1140C68
:101B8000C4EB041BDC441FFA8CF1DFF820C1BCF865
:101B900000A00AEBDA7C4FEA6C0CACF1500C04EBC1
:101BA000840B0CEB8B0C1FFA8CF0FEF75FFE601CB5
:101BB000C4B2052C9FDB40F2DC5002F0A1F9BDE875
:101BC000FC9F0EB583A0FFF7F5FB0020102186A235
:101BD0004FF6E073CDE9002102901F221E210A205A
:101BE000FFF7F8F90020102188A24FF6E073CDE945
:101BF000002102901F2232210A20FFF7EBF9012079
:101C0000182188A24FF6E073CDE9002102901F222F
:101C100046210A20FFF7DEF90120202187A24FF696
:101C2000E073CDE9002102901F2264210A20FFF712
:101C3000D1F94FF4966002F063F90EBD0EB583A0A2
:101C4000FFF7B8FB864A1E210846FFF765FA012018
:101C5000102184A24FF6E073CDE9002102901F22EB
:101C60004B212A20FFF7B6F97D4A1E215A20FFF7A3
:101C700053FA012010217BA24FF6E073CDE9002139
:101C800002901F224B216620FFF7A4F9744A1E21FF
:101C90009620FFF741FA0120102172A24FF6E0735F
:101CA000CDE900210290DFE0140000206400002054
:101CB000B2E2CAD4363AD3A2CEC4CFD4CABEB2E2BC
:101CC000CAD40000365831323A616263646566678F
:101CD00068696A6B6C6D6E6F70717273747576770C
:101CE00078797A303132333435363738390000007C
:101CF000365831323A4142434445464748494A4BB7
:101D00004C4D4E4F505152535455565758595A30C6
:101D100031323334353637383900000036583132F5
:101D20003A7E21402324255E262A28295F2B7B7DAD
:101D30003A3C3E3F2F7C2D2B2E0000003858313688
:101D40003A6162636465666768696A6B6C6D6E6F41
:101D5000707172737475767778797A303132333482
:101D60003536373839000000385831363A41424369
:101D70004445464748494A4B4C4D4E4F50515253AB
:101D80005455565758595A3031323334353637381E
:101D900039000000385831363A7E21402324255E30
:101DA000262A28295F2B7B7D3A3C3E3F2F7C2D2B1A
:101DB0002E000000B2E2CAD4353A47554920547289
:101DC00069616E676C65CCEEB3E4B2E2CAD4000020
:101DD0002E000020B2E2CAD4373AD6D0CEC4CFD437
:101DE000CABEB2E2CAD4000031365831363AC8AB66
:101DF000B6AFB5E7D7D3BCBCCAF5D3D0CFDEB9AB4D
:101E0000CBBEBBB6D3ADC4FA0000000031365831AA
:101E1000363A57656C636F6D65C8ABB6AFB5E7D73B
:101E2000D300000032345832343AC9EEDBDACAD07B
:101E3000D6D0CEC4B2E2CAD4000000003332583348
:101E4000323AD7D6CCE5B2E2CAD40000B2E2CAD464
:101E5000383ACDBCC6ACCFD4CABEB2E2CAD40000B8
:101E6000EC5C0008515100001F224B21A220FFF71B
:101E7000B1F84FF4966002F043F80EBD10B588B08B
:101E80000024FA4B0FCBCDE90623CDE9040100BFB6
:101E900023E0204600F0E1FEF5A0FFF78BFA0121D8
:101EA000102204A850F824004FF6E073CDE9012178
:101EB00000901F221E211420FFF78CF8F14A3221D6
:101EC0001E20FFF729F94FF47A7002F019F84FF449
:101ED0007A7002F015F8601CC4B2042CD9DB002023
:101EE00000F0BBFE08B010BD0EB5E7A0FFF762FA28
:101EF0000120EA4900900988203988B2E8A310221D
:101F00000221FEF742FE4FF47840E649088060E087
:101F1000E54948688047E448007C00F0010000285B
:101F200053D0E1480089DD490988884251DADE480A
:101F30008089DA49498888424BDABDF808004FF6B3
:101F4000FF71884207D1D8480089ADF80800D6480B
:101F50008089ADF80A00D4480189D048008820382B
:101F600081421BDDD0488089122817DA4FF6FF70B6
:101F7000CD4908810881C4A0FFF71CFA0120C74998
:101F800000900988203988B2C5A310220221FEF7EB
:101F9000FCFD4FF47840C34908800DE04FF47840D1
:101FA0000221C14CCDE90010A3892289BDF80A1095
:101FB000BDF80800FEF736FABB480089ADF8080006
:101FC000B9488089ADF80A0003E04FF6FF70ADF81C
:101FD00008009DE700B587B0B4A0FFF7EBF900203B
:101FE000B0490880AD480088069000EBD0704010E2
:101FF000323080B20490A9480088059000EBD07080
:102000004010323880B25A2303902821049AFEF7F8
:102010005EFA4FF47840A3490880A04800880690F3
:1020200000EBD0704010401E80B204909B480088A6
:10203000059000EBD0704010313880B259230390E6
:102040002921049AFEF763FA1F20964908809348D5
:102050000088069000EBD0704010313080B20490C0
:102060008E480088059000EBD070401059230390F3
:102070002921049AFEF74BFA4FF6FF708949088030
:102080000120009085480088069000EBD070401039
:10209000203880B28AA3102239210590FEF775FD01
:1020A00048F230407F4908800A2000907B48008831
:1020B000069000EBD07040106E3080B204907748EC
:1020C0000088059000EBD07040106E3880B2A923D4
:1020D00003909621049AFEF771FB4FF61F00714999
:1020E00008800A2000906D480088069000EBD070B0
:1020F00040100A3080B2049068480088059000EBD8
:10210000D07040106E3880B2A92303909621049AB3
:10211000FEF754FB61480088069001200090069865
:1021200000EBD07040100A2340F2CF12A02105909E
:10213000FEF72BF900205B490880012000905748EA
:102140000088069000EBD07040107D3880B25DA30F
:10215000102298210590FEF718FD012000904F48AD
:102160000088069000EBD0704010733080B256A308
:10217000102298210590FEF708FD4FF47840494958
:1021800008801020009045480088069000EBD07031
:1021900040100C3880B2032332227D210590FEF7D7
:1021A00036FD00203F490880082000903B48008809
:1021B000069000EBD07040101E3080B2049037487B
:1021C0000088059000EBD07040101E3880B2FA23D2
:1021D0000390DC21049AFEF7A4FA4AF251603149D7
:1021E0000880072000902D480088069000EBD070F2
:1021F00040101D3080B2049028480088059000EB04
:10220000D07040101D3880B2F8230390DD21049A6D
:10221000FEF7D4FA4FF61F002249088001200090F3
:102220001E480088069000EBD07040100F3880B236
:1022300026A31022E3210590FEF7A7FC0120102120
:1022400024A2CDE90021029014480088069000EBFA
:10225000D07040102F3880B24FF6FF734FF47842A1
:10226000C3210590FEF7B6FEFDE10000706900088D
:10227000B2E2CAD431303AC6C1C4BBD0FDD7AAB28B
:10228000E2CAD400EC5C0008B2E2CAD431323AB4FB
:10229000A5C3FE50454EB2E2CAD40000640000203F
:1022A000525354002E00002034000020B2E2CAD461
:1022B00031313AB4A5C3FEB0B4BCFCB2E2CAD4001A
:1022C0004F4E000030000000313030004558495476
:1022D00000000000B0B445584954BCFCCDCBB3F667
:1022E00000000000F948406806908047F748007CED
:1022F00000F001000028B7D0F448808928287DDD4F
:10230000F24880895A2879DAF1480088059000EB74
:10231000D07040103238ED490989884252DAEC48D1
:102320000088069000EBD0704010401EE7490989F4
:10233000884247DD4FF47840E6490880E448008849
:10234000069000EBD0704010401E80B20490E04830
:102350000088059000EBD0704010313880B25923CE
:1023600003902921049AFEF7D2F81F20D94908804A
:10237000D7480088069000EBD0704010313080B212
:102380000490D3480088059000EBD070401059238A
:1023900003902921049AFEF7BAF84FF6FF70CD4951
:1023A000088001200090CA480088069000EBD07099
:1023B0004010203880B2AFF2F80310223921059086
:1023C000FEF7E3FBC2480088059000EBD070401098
:1023D000BE490989884253DABD480088069000EB5F
:1023E000D07040103230B9490989884248DD1F2039
:1023F000B8490880B6480088069000E040E000EB4D
:10240000D0704010401E80B20490B1480088059002
:1024100000EBD0704010313880B25923039029214D
:10242000049AFEF774F84FF47840AA490880A84847
:102430000088069000EBD0704010313080B20490DC
:10244000A3480088059000EBD070401059230390FA
:102450002921049AFEF75BF84FF6FF709D4908802A
:10246000012000909A480088069000EBD070401040
:102470000D3080B298A3102239210590FEF785FB1C
:1024800093480088059000EBD070401064388F4965
:102490000989884275DC8E480088069000EBD07070
:1024A000401064308949098988426ADB87488089FD
:1024B000962866DD85488089A92862DA48F230408E
:1024C000844908800A20009081480088069000EB2B
:1024D000D07040106E3080B205907C4800890A3878
:1024E00080B2A92304909621059AFEF767F94FF66A
:1024F0001F00784908800A200090754800880690DF
:1025000000EBD07040106E3880B204906F480089A4
:102510000A3080B2A9230246962105900498FEF75E
:102520004DF901200090694800890A2340F2CF123A
:10253000A0210690FDF729FF4FF4784065490880F7
:1025400063480088059000EBD070401064385F4904
:102550000989081A0690102000905D4800880490B0
:1025600000EBD07040100C3880B20290069800EB5F
:10257000D0704010032302467D2103900298FEF79D
:1025800046FB53480088059000EBD07040101E3881
:102590004E490989884266DC4D480088069000EB68
:1025A000D07040101E304949098988425BDB47489A
:1025B0008089DC2857DD45488089FA2853DA4FF6B0
:1025C000FF70444908800820009041480088069028
:1025D00000EBD07040101E3080B204903C48008860
:1025E000059000EBD07040101E3880B2FA230390A3
:1025F000DC21049AFEF795F842F61230354908803E
:102600000720009032480088069000EBD070401000
:102610001D3080B204902E480088059000EBD070E9
:1026200040101D3880B2F8230390DD21049AFEF794
:10263000C5F848F21F40274908800120009024482F
:102640000088069000EBD07040100F3880B2AFF2D7
:1026500084331022E3210590FEF797FA4FF6FF70BE
:102660001A49088100E03DE600BF07B000BD10B583
:1026700016490868804700B110BDFFF7ABFCFFF7B3
:1026800033FC70B590B000200D900E900F90242177
:1026900004A801F0FEFD11A0FEF78CFE00F02EFC58
:1026A0000646324613A10DA801F066FC0120102158
:1026B0000DAA4FF6E073CDE9002102901F221921E7
:1026C0003220FEF787FC00245FE000003400002089
:1026D000640000202E0000204F464600B2E2CAD41B
:1026E000323AB6C14944BACDD1D5C9ABD6B5B2E2BA
:1026F000CAD4000049443A3078257800864830F83A
:1027000014008649088004EBC40000EB041000F1BB
:10271000410304EBC40000EB04102D3081B21E22F3
:102720000A20FDF7F4FE04EBC40000EB041000F1F6
:102730003701142000F02DFA054678480088A84299
:1027400004D177A10DA801F061FD03E075A10DA8EA
:1027500001F05CFD0DAB2A4674A104A801F00CFC4D
:102760000120102104AACDE90021029004EBC4004D
:1027700000EB04102F3081B24FF6E07367480288F7
:102780002820FEF727FC601CC4B2072CB6DB40F201
:10279000DC5001F0B5FB10B070BD38B569A0FEF794
:1027A00009FE1F205D4908806B4801F011FD0120E2
:1027B0006AA31022322100900F20FEF7E6F90120D3
:1027C0006CA31022462100900F20FEF7DEF90120B5
:1027D0006EA310225A2100900F20FEF7D6F9012097
:1027E00070A310226E2100900F20FEF7CEF9012079
:1027F00072A31022822100900F20FEF7C6F901205B
:1028000074A31022962100900F20FEF7BEF901203C
:1028100075A31022AA2100900F20FEF7B6F94FF4FD
:1028200078403E490880002473E0FDF7B7FC42F28F
:10283000107190FBF1F201FB1205102005232A46CE
:10284000322100906420FEF7E2F9FDF7A7FC42F286
:10285000107190FBF1F201FB1205102005232A46AE
:10286000462100906420FEF7D2F9FDF797FC42F272
:10287000107190FBF1F201FB1205102005232A468E
:102880005A2100906420FEF7C2F9FDF787FC42F25E
:10289000107190FBF1F201FB1205102005232A466E
:1028A0006E2100906420FEF7B2F9FDF777FC42F24A
:1028B000107190FBF1F201FB1205102005232A464E
:1028C000822100906420FEF7A2F9FDF767FC322117
:1028D00090FBF1F201FB1205102005232A469621F8
:1028E00000906420FEF793F9FDF758FC642190FBFB
:1028F000F1F201FB1205102005232A46AA210090BF
:102900006420FEF784F94FF4FA7001F0F9FA601CC4
:10291000C4B20F2C89DB38BD1E0000202E00002021
:102920004F4B00004552524F5200000072656164E7
:1029300020636F6C6F723A30782530345820202530
:1029400073000000B2E2CAD4393AB6AFCCACCAFDCB
:10295000D7D6CFD4CABE000040E201002048434889
:102960004F3A202020202020202020202075672F73
:102970006D3300002020434F323A202020202020B9
:10298000202020202070706D000000002054564F41
:10299000433A202020202020202020202075672F4F
:1029A0006D330000504D322E353A2020202020205B
:1029B000202020202075672F6D33000020504D31DE
:1029C000303A202020202020202020202075672F32
:1029D0006D33000020205445503A20202020202034
:1029E0002020202020430000202048554D3A202060
:1029F00020202020202020202025000010B5044683
:102A00004FF40070FE49086080200860204600F006
:102A1000F5FA4FF40070FA49091F086010BD10B5AF
:102A200004464FF40070F64908608020091F0860D2
:102A3000204600F0E3FA4FF40070F149091F0860E6
:102A400010BD10B54FF40070ED4908608020091FDB
:102A5000086000F0EEFA04464FF40070E849091FE0
:102A60000860204610BD70B505460C462846FFF7A5
:102A7000C5FFE0B2FFF7D3FF70BD10B50446204696
:102A8000FFF7BCFFFFF7DDFF10BD10B5DD49087A89
:102A9000FFF7B4FF10BD10B5DA49887AFFF7AEFF33
:102AA00010BD10B504464FF40070D5490860802071
:102AB000091F0860201200F0A1FAE0B200F09EFAAF
:102AC0004FF40070CE49091F086010BD70B54FF477
:102AD0000070CB49086080200860CA49887A00F0FD
:102AE0008DFA8020C649091F086000F0A2FA00F0A4
:102AF000A0FA044600F09DFA05464FF40070C04964
:102B0000091F08604FF6FF7000EA04242C4320469A
:102B100070BD2DE9F04104460D4616461F46B949E1
:102B2000087BFFF76BFF2012FFF779FFE0B2FFF79A
:102B300076FF3012FFF773FFF0B2FFF770FFB14975
:102B4000887BFFF75BFF2812FFF769FFE8B2FFF70A
:102B500066FF3812FFF763FFF8B2FFF760FFFFF779
:102B600094FFBDE8F08170B504460D462B46224621
:102B700029462046FFF7CDFF70BD70B504460D46CF
:102B800029462046FFF7EFFF9F480088FFF789FF9F
:102B900070BD70B504460D4629462046FFF7E3FF99
:102BA000FFF794FF0646304670BD70B50446954861
:102BB0004088401E83B293480088401E82B20021A4
:102BC0000846FFF7A6FF4FF400708D49086080208B
:102BD000091F086000250DE0002606E0201200F025
:102BE0000DFAE0B200F00AFA761C86480088B0427E
:102BF000F4D86D1C83484088A842EDD84FF400708B
:102C00007F49091F086070BD08B50121082001F047
:102C1000F9F84FF47070ADF8000003208DF8020051
:102C200010208DF8030069467548143800F02EFE18
:102C300001207649086008BD10B54FF480707049D6
:102C40000860642001F05CF94FF480706C49091F42
:102C50000860322001F054F910BD10B504462A2056
:102C6000684988812B20C8812C2008812E2048812A
:102C70002046E11704EB91718910A4EB8101614AB0
:102C800091711046807930B1012810D002281AD0F5
:102C9000032830D123E04FF4A0705A4908804FF444
:102CA000F070488048213620FFF7DDFE24E04FF425
:102CB000F070544908804FF4A070488028213620D5
:102CC000FFF7D1FE18E04FF4A0704E4908804FF492
:102CD000F070488088213620FFF7C5FE0CE04FF4E5
:102CE000F070484908804FF4A0704880E8213620F1
:102CF000FFF7B9FE00E000BF00BF10BD10B500F047
:102D0000C1F9FFF781FFFFF797FFF020FFF776FE8D
:102D1000C320FFF784FEF020FFF770FE9620FFF738
:102D20007EFE3620FFF76AFE4820FFF778FE3A2045
:102D3000FFF764FE0520FFF772FEB020FFF75EFE8E
:102D40008020FFF76CFEB620FFF758FE0020FFF74B
:102D500066FE0220FFF763FEB520FFF74FFE02205C
:102D6000FFF75DFE0320FFF75AFE0020FFF757FE36
:102D70000420FFF754FEB120FFF740FE8020FFF74C
:102D80004EFE1020FFF74BFEB420FFF737FE002069
:102D9000FFF745FEB720FFF731FEC620FFF73FFEE5
:102DA000C520FFF72BFE1C20FFF739FEE420FFF7BC
:102DB00025FE3120FFF733FEE820FFF71FFE4020FD
:102DC000FFF72DFE8A20FFF72AFE0020FFF727FEDF
:102DD0000020FFF724FE2920FFF721FE1920FFF72E
:102DE0001EFEA520FFF71BFE3320FFF718FEC220B2
:102DF000FFF704FEA720FFF701FEE02008E0000037
:102E0000140C0140640000202E0000209881214213
:102E1000FFF7F4FDF020FFF702FE0920FFF7FFFDAA
:102E20001320FFF7FCFD1220FFF7F9FD1220FFF73A
:102E3000F6FD2B20FFF7F3FD3C20FFF7F0FD4420CB
:102E4000FFF7EDFD4B20FFF7EAFD1B20FFF7E7FD45
:102E50001820FFF7E4FD1720FFF7E1FD1D20FFF725
:102E6000DEFD2120FFF7DBFDE120FFF7C7FDF020AD
:102E7000FFF7D5FD0920FFF7D2FD1320FFF7CFFDA7
:102E80000C20FFF7CCFD0D20FFF7C9FD2720FFF731
:102E9000C6FD3B20FFF7C3FD4420FFF7C0FD4D20DA
:102EA000FFF7BDFD0B20FFF7BAFD1720FFF7B7FDB9
:102EB0001720FFF7B4FD1D20FFF7B1FD2120FFF71C
:102EC000AEFDF020FFF79AFD3C20FFF7A8FDF020B3
:102ED000FFF794FD6920FFF7A2FD1320FFF78EFD99
:102EE0001120FFF78BFD2920FFF788FD0020FFF759
:102EF000B4FE4FF6FF70FFF758FE10BD38B5002046
:102F00000090F020FFF77AFDC320FFF788FDF02046
:102F1000FFF774FD9620FFF782FD4FF400702D49F6
:102F2000086001242CE080202A490860FB2000F082
:102F300065F880202749091F086004F11001C8B214
:102F400000F05CF8802023490860D32000F056F898
:102F500080202049091F086000F06BF8611E0DF801
:102F6000010080201B490860FB2000F047F880200A
:102F70001849091F0860002000F040F8601CC4B226
:102F8000042CD0DB4FF400701249091F0860F020B8
:102F9000FFF734FD3C20FFF742FDF020FFF72EFD48
:102FA0006920FFF73CFD9DF801000B498880084629
:102FB00080884FF6FF7101EA0020074988800846A3
:102FC00080889DF80210084303498880084680885D
:102FD00038BD0000140C01406400002010B500F062
:102FE00004FA08B1012010BD0248034948600020DE
:102FF000F9E70000BB34000834000020002100BFC6
:1030000014E000F080021AB180222F4B1A6003E016
:1030100080222D4B1B1D1A6020222B4B1B1D1A607A
:103020001B1F1A604206100E4A1CD1B20829E8DBA9
:10303000704710B500200021FF2200BF1FE04306AB
:10304000180E02F080031BB180231F4C236003E0A5
:1030500080231D4C241D236053061A0E20231A4C76
:10306000241D2360184B083B1B68C3F380130BB16E
:10307000431CD8B22023144C23604B1CD9B208291E
:10308000DDDB10BD08B50121042000F0BBFEA0204F
:10309000ADF8000003208DF8020010208DF8030029
:1030A00069460948103800F0F1FB4020ADF80000F7
:1030B00048208DF8030003208DF80200694602487D
:1030C000103800F0E3FB08BD1008014010B50120E6
:1030D00000F032FF10BD08B501210C2000F092FE77
:1030E0004FF40070ADF8000010208DF803000320AD
:1030F0008DF8020069468C4800F0C8FB2020ADF82E
:1031000000006946894800F0C1FB01208849086039
:103110008849C1F8A40108BD10B58348001D0068A6
:1031200020F0F0008049091D08600846006840F062
:10313000300008600120804908608049C1F894018E
:10314000FFF7C4FF00207C490860FFF7BFFF0020A5
:103150007A49C1F8940110BD10B57348001D00688C
:1031600020F0F0007049091D08600846006840F032
:103170003000086000206E4908606E49C1F8A40163
:10318000FFF7A4FF01206A490860FFF79FFF0120B5
:103190006849C1F8A40110BD10B500246248001DA3
:1031A000006820F0F0006049091D086008460068CA
:1031B00040F08000086001205F49086000F0BCFE1C
:1031C00001205E49C1F8940100F0B6FE07E0601CE2
:1031D000C4B2FA2C03DDFFF7BFFF012010BD564833
:1031E000803800680028F2D15149086000BFF5E737
:1031F00010B500204E4908604B48001D006820F0C3
:10320000F0004949091D08600846006840F0300098
:10321000086000204749C1F8A401FFF757FF0120CB
:1032200043490860FFF752FF00204449C1F8940168
:1032300010BD10B500203E4908603B48001D0068E5
:1032400020F0F0003849091D08600846006840F089
:103250003000086001203749C1F8A401FFF736FFAC
:10326000012033490860FFF731FF00203349C1F8DE
:10327000940110BD70B504462B48001D006820F075
:10328000F0002949091D08600846006840F0300038
:103290000860002026490860002511E0E009264961
:1032A00008606006040E01202449C1F89401FFF76C
:1032B0000DFF00201E490860FFF708FF681CC5B21B
:1032C000082DEBDB70BD70B5054600241648001DC7
:1032D000006820F0F0001449091D086008460068E5
:1032E00040F080000860002613E0002010490860CC
:1032F000032000F021FE01201049C1F8940160066E
:10330000040E0D488038006808B1601CC4B2701CFF
:10331000C6B2082EE9DB15B9FFF78BFF01E0FFF716
:1033200067FF204670BD000000080140000C01400E
:103330009481214200002142A401214200802142C7
:103340002DE9F04105460E4617464FF00008FFF7FD
:10335000E3FE7020FFF78EFFFFF71EFFE8B2FFF7D6
:1033600089FFFFF719FF00240BE0305DFFF782FFB4
:10337000FFF712FF8046B8F1000F00D003E0601C99
:10338000C4B2BC42F1DB00BFFFF7E6FE4046BDE839
:10339000F0812DE9F04106460F461546FFF7BCFEC9
:1033A0007020FFF767FFFFF7F7FEF0B2FFF762FF4D
:1033B000FFF7F2FEFFF7B0FE7120FFF75BFFFFF7AC
:1033C000EBFE00240BE0691EA14201D0012100E0C8
:1033D00000210846FFF777FF3855601CC4B2AC42A5
:1033E000F1DBFFF7B9FEBDE8F0811CB50121042037
:1033F00000F008FD4FF48060ADF8000010208DF85B
:10340000030003208DF802006946A54800F03EFA4B
:103410004FF48061A24800F0E6FA4FF48070ADF8F6
:10342000000048208DF8030069469D4800F02EFA00
:103430004FF480719A4800F0D6FAFFF74CFE002056
:10344000984908600A2000F05BFD01209649C1F808
:10345000A8014FF4FA7000F053FD012201A9A82041
:10346000FFF797FF9DF80400112801D001201CBD33
:10347000022201A99F20FFF78CFF9DF80400262857
:1034800001D00120F3E79DF8050048B19DF8050043
:10349000012805D09DF80500022801D00120E6E7AB
:1034A000012201A9A320FFF774FF9DF804006428FE
:1034B00001D00120DBE70020D9E77CB500240026FD
:1034C0007A480078401C79490870084600780A213B
:1034D00090FBF1F201FB120018B1744800780A2841
:1034E0007EDA012269460220FFF753FF9DF80000B3
:1034F000002875D09DF800000328F1DA9DF800102F
:10350000FF208840C5B2E843C0B240F0C00068491F
:103510000874002492E0674931F81400042201A9DC
:10352000FFF737FF6248007C0121A14008400028D6
:103530007DD06148807930B101281DD0022838D073
:10354000032878D158E09DF805009DF8041001F09B
:103550000F0100EB01205649083121F814009DF8B5
:1035600007009DF8061001F00F0100EB0121504803
:103570000C3020F814105EE09DF805009DF8041052
:1035800001F00F0100EB01204B494988081A81B274
:1035900047480C3020F814109DF807009DF80610DD
:1035A00001F00F0100EB01204149083121F814001E
:1035B00041E09DF805009DF8041001F00F0100EBBB
:1035C00001203D490988081A81B23948083020F89D
:1035D00014109DF807009DF8061001F00F0100E09F
:1035E0003BE000EB012034494988081A81B2304899
:1035F0000C3020F814101EE09DF805009DF8041012
:1036000001F00F0100EB012029490C3121F81400D1
:103610009DF807009DF8061001F00F0100EB012056
:1036200025490988081A81B22148083000E003E0E2
:1036300020F8141000BF00BF601CC4B2022CFFF6BB
:103640006AAF01261A48008920B91948808908B94B
:10365000002000900020154908709DF80000A8B9CE
:103660001348007C00F0800030B11148007C20F04D
:1036700080000F49087409E04FF6FF700C4908817B
:1036800088810846007C00F0E00008740748007854
:10369000F02802DD0A200549087030467CBD000094
:1036A00000080140A80121420000214248000020FA
:1036B00034000020806900086400002008480047AA
:1036C000FEE7FEE7FEE7FEE7FEE7FEE7FEE7FEE7D2
:1036D000FEE7FEE703480449024A044B7047000036
:1036E000ED000008B8010020B8030020B801002058
:1036F00031490143314A1160704770B50021002300
:103700000F22C47804B32D4C246804F4E064C4F59B
:10371000E064210AC1F10403CA40447804FA03F1C9
:103720008478144021430901254C0678A15504787A
:1037300004F01F050124AC4005786D11AD0005F1C2
:10374000E025C5F8004109E0047804F01F050124D4
:10375000AC401C4D0678761145F8264070BD1A4ADB
:103760000A400243154B1B1F1A60704739B1134AB8
:10377000121D12680243114B1B1D1A6006E00F4A0E
:10378000121D126882430D4B1B1D1A6070470428DE
:1037900008D14FF0E021096941F004014FF0E02227
:1037A000116107E04FF0E021096921F004014FF0B9
:1037B000E0221161704700000000FA050CED00E006
:1037C00000E400E080E100E080FFFF1F10B5044648
:1037D000CC48844208D10121042000F02DFB0021B7
:1037E000042000F029FB46E0C748844208D10121AB
:1037F000082000F021FB0021082000F01DFB3AE02A
:10380000C248844208D10121102000F015FB00219C
:10381000102000F011FB2EE0BD48844208D10121A8
:10382000202000F009FB0021202000F005FB22E011
:10383000B848844208D10121402000F0FDFA00215F
:10384000402000F0F9FA16E0B348844208D1012183
:10385000802000F0F1FA0021802000F0EDFA0AE06B
:10386000AE48844207D10121801500F0E5FA00211D
:10387000A01500F0E1FA10BD10B50121084600F0D6
:10388000DBFA0021012000F0D7FA10BD2DE9F0414C
:10389000024600250026002000230024002791F87E
:1038A00003C00CF00F0591F803C00CF0100CBCF134
:1038B000000F03D091F802C04CEA050591F800C052
:1038C000BCF1000F31D0146800202BE04FF0010C48
:1038D0000CFA00F3B1F800C00CEA03069E4220D1B6
:1038E00083004FF00F0C0CFA03F7BC4305FA03FCFE
:1038F0004CEA040491F803C0BCF1280F06D14FF044
:10390000010C0CFA00FCC2F814C00AE091F803C0E4
:10391000BCF1480F05D14FF0010C0CFA00FCC2F8C5
:1039200010C0401C0828D1D31460B1F800C0BCF10D
:10393000FF0F34DD546800202EE000F1080C4FF03A
:10394000010808FA0CF3B1F800C00CEA03069E4225
:1039500021D183004FF00F0C0CFA03F7BC4305FA9A
:1039600003FC4CEA040491F803C0BCF1280F05D114
:1039700000F1080C08FA0CF8C2F8148091F803C0A2
:10398000BCF1480F07D100F1080C4FF0010808FA0C
:103990000CF8C2F81080401C0828CED35460BDE853
:1039A000F0814FF6FF710180022181700421C17006
:1039B00070470246002093680B400BB1012000E0E5
:1039C000002070470146886880B270470246002098
:1039D000D3680B400BB1012000E000207047014686
:1039E000C86880B2704701617047416170470AB191
:1039F000016100E041617047C16070474FF480325F
:103A00000A438261816182618269826970470246EC
:103A10000020434B18684FF68073184040EA0210AC
:103A200008433F4B186070473E49C8617047F0B586
:103A30000A46002300240021002500F00046B6F1CC
:103A4000004F02D1364EF16901E0354E7168C0F386
:103A5000034583B200F44016B6F5401F08D121F0AB
:103A600070612F4E766826F070662D4F7E6012E0F2
:103A700000F48016B6F5801F06D1032606FA05F479
:103A8000A14341F0706106E0460D360103FA06F6E7
:103A9000B14341F0706122B1460D360103FA06F6DA
:103AA000314300F00046B6F1004F02D11C4EF161E7
:103AB00001E01B4E7160F0BD30B500228B071C0F7A
:103AC0000F2303FA04F2164B08338C1053F82430FA
:103AD0009343134C08348D1044F8253023468C1042
:103AE00053F824308C07240F00FA04F423430C4CC1
:103AF00008348D1044F8253030BD0A49DC310860A7
:103B00007047000000080140000C01400010014017
:103B10000014014000180140001C01400020014039
:103B20000000014000002042DF48006840F0010032
:103B3000DD49086008464068DC490840DA494860C9
:103B400008460068DA490840D74908600846006816
:103B500020F4802008600846406820F4FE00486099
:103B60004FF41F0088607047CF49096821F4803105
:103B7000CD4A11601146096821F480211160B0F529
:103B8000803F03D0B0F5802F0ED106E0C64909680A
:103B900041F48031C44A116007E0C349096841F427
:103BA000A021C14A116000E000BF00BF704710B5FE
:103BB00001460022002300204A11012A02D1BA4CFA
:103BC000236806E0022A02D1B74C236A01E0B64C12
:103BD000636A01F01F02012494401C400CB10120D3
:103BE00000E0002010BD38B5002000900024002522
:103BF00000BF3120FFF7DBFF05460098401C009016
:103C00000098B0F5A06F01D0002DF2D03120FFF761
:103C1000CEFF08B1012400E00024204638BD014653
:103C20000020A14A106820F0F80040EAC1001060AE
:103C30007047A04908607047024600209A4B5868B8
:103C400020F47C1042EA01031843974B58607047F8
:103C500098490866704701460020934A506820F052
:103C600003000843506070478F48406800F00C0024
:103C70007047014600208C4A506820F0F00008434D
:103C80005060704701460020874A506820F4E06089
:103C900008435060704701460020834A506820F472
:103CA000605040EAC1005060704729B17E4A527AA4
:103CB00002437D4B5A7204E07B4A527A82437A4B2C
:103CC0005A7270477B49D83108607047014600201E
:103CD000754A506820F44040084350607047002106
:103CE000714A20321170704A82F82010012802D0E7
:103CF00004280AD104E001216B4A2032117005E04A
:103D00000521694A2032117000E000BF00BF7047F2
:103D10006949086070476449096A0143624A11624F
:103D20007047654944390860704730B5002100226A
:103D3000002400235C4D6D6805F00C0121B10429BD
:103D400005D0082923D105E05C4D056022E05B4DDC
:103D500005601FE0544D6D6805F47012524D6D689A
:103D600005F48034022505EB92421CB9544D5543AD
:103D700005600BE04C4D6D6805F400351DB1504DEC
:103D80005543056002E04D4D5543056002E04B4D43
:103D9000056000BF00BF444D6D6805F0F0010909E2
:103DA000484D6B5C0568DD4045603F4D6D6805F42E
:103DB000E061090A434D6B5C4568DD4085603A4D22
:103DC0006D6805F46051C90A3E4D6B5C4568DD4085
:103DD000C560354D6D6805F44041890B3A4D6B5C0B
:103DE000C568B5FBF3F5056130BD29B12E4A5269AE
:103DF00002432D4B5A6104E02B4A526982432A4BFD
:103E00005A61704729B1284A92690243264B9A6148
:103E100004E0254A92698243234B9A61704729B195
:103E2000214AD2690243204BDA6104E01E4AD2697A
:103E300082431D4BDA61704729B11B4AD2680243A5
:103E4000194BDA6004E0184AD2688243164BDA60F4
:103E5000704729B1144A12690243134B1A6104E0F6
:103E6000114A12698243104B1A6170471249403956
:103E7000086070470F49C86470470B49C8717047A4
:103E80000948406A40F0807007494862704701461F
:103E90000020054A92680A400AB1012000E0002093
:103EA0007047014988727047001002400000FFF817
:103EB000FFFFF6FE000042428004424200127A00F8
:103EC00000093D00490000205900002010B50446BB
:103ED0006FF00400FFF75BFCE11704EB5171C1F3D5
:103EE000C701234A11701046007800EB4001C1EB76
:103EF000C0104FF6FF7101EAC0001E49088010BDD6
:103F000001461C4A12884A434FF0E0235A610022BE
:103F10009A6101221A6100BF4FF0E022106900F09F
:103F200001021AB100F48032002AF5D000224FF0CD
:103F3000E0231A619A61704701460D4A12784A439C
:103F40004FF0E0235A6100229A6101221A6100BFFA
:103F50004FF0E022106900F001021AB100F4803243
:103F6000002AF5D000224FF0E0231A619A617047D1
:103F70005E000020600000200FB41CB5074B06AAAD
:103F80007B4469460090059800F00BFA00206946D2
:103F900000F01AFA1CBC5DF814FB00004504000098
:103FA00070B5044685690068C10601D5302600E079
:103FB0002026C00707D070BDD4E9012130469047C4
:103FC000206A401C20626D1EF6D570BD70B5044697
:103FD00085690078C00707D170BDD4E90121202090
:103FE0009047206A401C20626D1EF6D570BD70B5EA
:103FF0000C460546012A05D02878800600D5EA69D6
:10400000002302E0012305E05B1C934202D2E05C46
:104010000028F9D1A869E618C01AA861286A1844CE
:1040200028622846FFF7BCFF04E0D5E9012114F817
:10403000010B9047B442F8D32846FFF7C7FF70BD85
:1040400070B504460D4621461068AFF30080218804
:10405000090502D50F4A7A4402E00E4A7A440E322C
:10406000002104F1240305E000F00F060009965D2D
:104070005E54491C0028F7D120780023000704D59E
:10408000702D02D009B1022311322046BDE87040E4
:1040900000F029B92A2900002DE9F05F894604467D
:1040A0004FF0000ADFF824B1FB44C0F820A02046FE
:1040B000E168884700287DD0252806D0D4E9012171
:1040C0009047206A401C2062F1E700255F462046A9
:1040D000E16888472028064607DB312E05D2B8194B
:1040E00010F8200C08B10543F1E7A80701D525F029
:1040F0000405C4F81CA00027C4F818A02A2E09D073
:10410000304600F0B7F938B304EB8708303EC8F802
:10411000186019E059F8041B204604EB87029161EE
:10412000E1688847012F064618D1E069002820DAA7
:1041300025F020051DE0D8F8180000EB800006EB04
:1041400040003038C8F818002046E1688847064625
:1041500000F090F90028EED1012F0AD02E2E08D1C0
:104160002046E16888477F1C0646022F45F020055F
:10417000C4DBA069002803DA404245F00105A061D4
:10418000E80701D025F01005A6B1A6F141001928D5
:1041900002D8203645F400654A463146204625605F
:1041A0004D46FBF7DDFF60B1012807D0ED1D25F07E
:1041B000070000E007E000F1080978E705F10409CD
:1041C00075E730467AE7206ABDE8F09F00290000D5
:1041D0000B4910B5A1F17C020A4CC2E93712372114
:1041E00006E000EB104342F82130074B00FB034090
:1041F0000B1EA1F10101F4DC10BD0120E8E7000075
:10420000F0000020E119D666CD0D010040EA01035F
:10421000024630B59B0710D14FF0013400E008C2D0
:1042200008C91D1B9D4315EAC41FF8D013F0FF01F8
:1042300002F8011B0DD01B0AF8E711F8013B002B17
:1042400002F8013B05D011F8013B002B02F8013BBD
:10425000F3D130BD10B5431C02E010F8011B71B161
:104260008107FAD14FF0013202C88C1A8C4314EA4C
:10427000C211F9D0C01A0A0603D0C01E10BDC01A60
:1042800010BD0A0401D0801E10BD0902FCD0401EE2
:1042900010BD4FF0000200B51346944696462039F3
:1042A00022BFA0E80C50A0E80C50B1F12001BFF4EF
:1042B000F7AF090728BFA0E80C5048BF0CC05DF855
:1042C00004EB890028BF40F8042B08BF704748BFA3
:1042D00020F8022B11F0804F18BF00F8012B704717
:1042E0007047704770472DE9F0470D469946924652
:1042F000044600F124080168880604D5E06921F02D
:104300001001216000E00120A84201DD471B00E010
:104310000027A1697A1902EB0900081AA061207828
:10432000C00602D42046FFF73BFE002608E0D4E991
:1043300001211AF806009047206A401C761C206272
:104340004E45F4DB2078C0060AD52046FFF728FE4C
:1043500006E0D4E9012130209047206A401C206209
:10436000381EA7F10107F4DC07E0D4E9012118F8B1
:1043700005009047206A401C2062281EA5F1010517
:10438000F3DC2046FFF722FE2078000602D502204B
:10439000BDE8F0870120FBE701694A1C026108784B
:1043A000704700B58FB0CDE9013100210591054975
:1043B0007944CDE9031011466846FFF76DFE0FB052
:1043C00000BD0000E5FFFFFF0A6802F8010B0A606C
:1043D000704710B5436913B1AFF3008001E0FFF7F8
:1043E00006FE012010BD127800F124010A7000229F
:1043F0004A700122EDE711684FF0FF32E9E7754698
:1044000000F02CF8AE4605006946534620F0070040
:10441000854618B020B5FFF75DF9BDE820404FF0A4
:1044200000064FF000074FF000084FF0000B21F09E
:104430000701AC46ACE8C009ACE8C009ACE8C0096B
:10444000ACE8C0098D46704710B50446AFF3008054
:104450002046BDE81040FBF79ABE000000487047B8
:10446000580100207047000001491820ABBEFEE74C
:104470002600020030380A2801D2012070470020AF
:104480007047000000000000000000000000000075
:104490000404040404040004000000140A0A0000D8
:1044A000000000000000000014143F140A3F0A0A34
:1044B000000000041E1505060C14150F0400000072
:1044C00012150D0A142C2A1200000000040A0A1EFC
:1044D000151509360000000202010000000000006E
:1044E000000000201008080808080810200000023A
:1044F0000408080808080804020000000004150E5B
:104500000E150400000000000404041F040404004D
:104510000000000000000000000000020201000096
:104520000000001F0000000000000000000000006C
:104530000000000200000010080808040402020243
:10454000010000000E1111111111110E00000000E8
:10455000040604040404040E000000000E111108F7
:104560000402011F000000000E11100C1010110EAB
:1045700000000000080C0A0A091E081800000000CC
:104580001F01010F1010110E000000000E09010F95
:104590001111110E000000001F0908040404040496
:1045A000000000000E11110E1111110E000000008C
:1045B0000E1111111E10120E000000000000040068
:1045C00000000004000000000000000400000004DF
:1045D000040000201008040204081020000000005D
:1045E00000001F00001F000000000002040810204F
:1045F00010080402000000000E1111080404000459
:10460000000000000E111915151D011E000000000C
:1046100004040C0A0A1E1233000000000F12120ECE
:104620001212120F000000001E1101010101110EF3
:10463000000000000F1212121212120F00000000F0
:104640001F120A0E0A02121F000000001F120A0E9B
:104650000A020207000000001C1201013911120CAD
:10466000000000003312121E12121233000000006C
:104670001F0404040404041F000000003E0808088E
:10468000080808090700000037120A060A0A12374C
:1046900000000000070202020202223F00000000A8
:1046A0001B1B1B1B15151515000000003B121616D1
:1046B0001A1A1217000000000E1111111111110E1B
:1046C000000000000F12120E02020207000000009C
:1046D0000E1111111117190E180000000F12120EF1
:1046E0000A121237000000001E1101060810110FF7
:1046F000000000001F1504040404040E0000000064
:10470000331212121212120C000000003312120A9D
:104710000A0C0404000000001515150E0A0A0A0A06
:10472000000000001B0A0A04040A0A1B0000000023
:104730001B0A0A040404040E000000001F090804F8
:104740000402121F0000001C0404040404040404F6
:104750001C00000202020404080808100000000EF9
:1047600008080808080808080E0000040A000000ED
:104770000000000000000000000000000000000039
:10478000003F0004000000000000000000000000E6
:104790000000000C121C123C000000000302020E7C
:1047A0001212120E000000000000001C1202021C77
:1047B000000000001810101C1212123C0000000033
:1047C0000000000C121E021C000000003804041E31
:1047D0000404041E000000000000003C120C021E35
:1047E000221C00000302020E121212370000000009
:1047F000040000060404040E000000000800000C81
:1048000008080808080700000302023A0A0E1237D7
:1048100000000000070404040404041F000000005A
:104820000000000F15151515000000000000000F16
:1048300012121237000000000000000C1212120CBD
:10484000000000000000000F1212120E020700000C
:104850000000001C1212121C103800000000001B87
:1048600006020207000000000000001E020C101EDD
:10487000000000000004040E0404041800000000FE
:104880000000001B1212123C000000000000003764
:10489000120A0C040000000000000015150E0A0AA0
:1048A000000000000000001B0A040A1B00000000BA
:1048B00000000037120A0C04040300000000001E70
:1048C0000804041E00000018080808040808080866
:1048D000180008080808080808080808080800065A
:1048E000040404080404040406000225180000005F
:1048F00000000000000000000000000000000000B8
:10490000000000000000000000080808080808086F
:1049100000001818000000486C241200000000007D
:104920000000000000000000002424247F12121266
:104930007F12121200000000081C2A2A0A0C1828F4
:10494000282A2A1C080800000022251515152A58B7
:104950005454542200000000000C1212120A762552
:104960002911916E000000060604030000000000FB
:10497000000000000000004020101008080808088F
:104980000810102040000002040808101010101039
:104990001008080402000000000008086B1C1C6BD3
:1049A00008080000000000000000080808087F0850
:1049B00008080800000000000000000000000000DF
:1049C0000000060604030000000000000000FE00D6
:1049D00000000000000000000000000000000000D7
:1049E0000000060600000000804040202010100853
:1049F000080404020200000000182442424242421D
:104A0000424224180000000000080E0808080808A8
:104A10000808083E00000000003C424242202010EE
:104A20000804427E00000000003C42422018204062
:104A30004042221C000000000020302824242222B2
:104A40007E20207800000000007E0202021A26402C
:104A50004042221C0000000000382402021A2642B4
:104A60004242241800000000007E22221010080894
:104A70000808080800000000003C424242241824B4
:104A80004242423C00000000001824424242645866
:104A90004040241C00000000000000001818000026
:104AA00000001818000000000000000000080000CE
:104AB0000000000808040000004020100804020460
:104AC0000810204000000000000000007F000000EF
:104AD0007F000000000000000002040810204020B9
:104AE0001008040200000000003C42424640201032
:104AF0001000181800000000001C225A555555558A
:104B00002D42221C00000000000808181414243C48
:104B1000224242E700000000001F2222221E224201
:104B20004242221F00000000007C424201010101BC
:104B30000142221C00000000001F22424242424269
:104B40004242221F00000000003F4212121E1212B9
:104B50000242423F00000000003F4212121E1212A9
:104B60000202020700000000003C22220101017144
:104B70002122221C0000000000E7424242427E4205
:104B8000424242E700000000003E0808080808080A
:104B90000808083E00000000007C101010101010E3
:104BA00010101010110F0000007722120A0E0A12C6
:104BB0001222227700000000000702020202020215
:104BC0000202427F000000000077363636362A2A7D
:104BD0002A2A2A6B0000000000E346464A4A525245
:104BE0005262624700000000001C224141414141E5
:104BF0004141221C00000000003F424242423E026E
:104C00000202020700000000001C22414141414114
:104C10004D53321C60000000003F4242423E1212DF
:104C2000222242C700000000007C424202041820F9
:104C30004042423E00000000007F49080808080882
:104C40000808081C0000000000E7424242424242BD
:104C50004242423C0000000000E742422224241469
:104C60001418080800000000006B494949495555CF
:104C7000362222220000000000E7422424181818DF
:104C8000242442E7000000000077222214140808C0
:104C90000808081C00000000007E212010100804F5
:104CA0000442423F00000078080808080808080885
:104CB0000808080878000000020204040808081028
:104CC000102020204040001E101010101010101056
:104CD000101010101E0000384400000000000000FA
:104CE00000000000000000000000000000000000C4
:104CF0000000000000FF00060800000000000000A7
:104D0000000000000000000000000000003C4278AD
:104D1000444242FC0000000000030202021A264244
:104D20004242261A00000000000000000038440241
:104D300002024438000000000060404040784442D5
:104D4000424264D80000000000000000003C427EA7
:104D50000202423C0000000000F08808087E0808BB
:104D60000808083E0000000000000000007C22222D
:104D70001C023C42423C000000030202023A46424E
:104D8000424242E700000000000C0C00000E080840
:104D90000808083E000000000030300000382020E5
:104DA00020202020221E0000000302020272120AAC
:104DB0001612227700000000000E080808080808F4
:104DC0000808083E0000000000000000007F9292EA
:104DD000929292B70000000000000000003B4642A3
:104DE000424242E70000000000000000003C424256
:104DF0004242423C0000000000000000001B26422E
:104E00004242221E020700000000000000784442D7
:104E10004242447840E000000000000000774C046B
:104E20000404041F0000000000000000007C420297
:104E30003C40423E0000000000000008083E080818
:104E40000808083000000000000000000063424233
:104E5000424262DC000000000000000000E7422443
:104E600024140808000000000000000000EB49497D
:104E70005555222200000000000000000076241892
:104E80001818246E000000000000000000E7422413
:104E9000241418080807000000000000007E2210FB
:104EA0000808447E000000C0202020202010202080
:104EB00020202020C0001010101010101010101012
:104EC0001010101010100006080808080810080834
:104ED0000808080806000C32C200000000000000AC
:104EE000000000000000C9EE000027FC140414A418
:104EF000811042084040104017FC2040E0E0215063
:104F000022482C4620400040DBDA110411241124F1
:104F100011241124FD2411241124112411241124FD
:104F20001D24E124422402040404CAD0020001002A
:104F300000007FFC0100010001003FF8210821086A
:104F4000210821082128211001000100C8AB000020
:104F50000000018002400430180860061FF90100BB
:104F6000010001003FF80100010001007FFEB6AF23
:104F70000000000000203E20007C002200227F2252
:104F80001022102212221222224223423D82009C31
:104F9000B5E70000010001001FF0610C410441046D
:104FA0007FFC4104410441047FFC01000102010235
:104FB00001FCD7D3000000003FF800100060008023
:104FC000010000807FFE0040004000200020002003
:104FD00018400780BCBC10201020102013FEFC20BD
:104FE0001020102015FC18843088D0481050102054
:104FF000105051882606CAF5010001200110011049
:105000007FFC038005400540092011102108410460
:105010008102010001000100D3D002000200FFFE66
:10502000040004000FF0081018102FF0481088102A
:105030000FF00810081008500820CFDE00007BF8A1
:105040004A08520853F8620852084BF84A444A4842
:105050006A3052204210428843064200B9AB0080B9
:105060000480048008400840102020104208820676
:1050700004000440082010203FF010100000CBBEB8
:1050800000003FF8000800087FE8000800081F88BB
:1050900010881088108810881F8810880028001039
:1050A000BBB600800080FC8004FC050449082A404F
:1050B0001440104028A024A04510811002080404C8
:1050C0000802D3AD00002080133C122402240224E5
:1050D000F2241224122412B41328122010202820A3
:1050E00047FE0000C4FA0900090011FC32045448CC
:1050F0009950114812441444114010800200510488
:10510000511290120FF0B4BF00000020102013FEC7
:10511000202026244A247A241224222423FC7C20C2
:10512000002204227822003CC9AB000000000400E9
:105130000FF0102020207FFC2084208420842084F5
:105140003FF82000200220021FFECCEE00000000ED
:10515000204023FE204079FC220423FC220423FC6F
:10516000220423FC3A0465FA01980204B3E4000027
:10517000010001007FFE02200410040808043FFC27
:10518000044204400440044208421042607EBED8FB
:1051900000000000207E3E804880488048FE488213
:1051A0007F8208820C8214FA12842280218040FEC1
:1051B000D0CE000000007F842208223022C02202CC
:1051C00022047FC8223022C2220222042208223076
:1051D0004040BBAD000000007FFE00000FF011104A
:1051E0001110111051125FF25112511251124FF25F
:1051F00040027FFCD4B2000000007FFE47E248126C
:10520000481247E24FF2501250125112511242927C
:105210004472580A3FFCCDBC000000003FFE44022F
:1052200047F24C225362408243625E1A41824062DE
:10523000430240C240223FFCC6AC00000040204078
:10524000204020403FFE2000200020003FE02010B2
:1052500020102010201040104010CFD4000000007B
:105260003FFC200420043FFC200420041FF82444B9
:105270001448144814480C5004407FFECABE000075
:1052800000003FFC0000000000007FFE008008904E
:105290000888108810842084208240820780B2CB46
:1052A0000000002008207FFE002000783F881108C1
:1052B000089009207FFE018003400D30310C400230
:1052C000B5A500000010081004203FF821042104B7
:1052D0003FFC210421043FF801007FFE0100010092
:1052E0000100D6D000000100010001003FFC2104B4
:1052F000210421042104210421043FFC01000100B8
:1053000001000100D3A20000000008207FFE082059
:10531000092001003FF82108210821081FF401405D
:1053200002200C10700ECEC40000010001000080AD
:105330003F7C081008100410042002200240018065
:10534000018002601C18E006D7DB0000000010207E
:1053500011FE2202220249FC5800300013FE2528CB
:10536000792401240D24722202A2BACF0000000089
:10537000018002400430180860061FF800001FF882
:10538000200420042004200420041FF8C1C10000D0
:10539000010001007FFE00003FF820083FF83FF8C1
:1053A000400647C24824082008221022603EB6C8A2
:1053B0000000000000803FFE44105FFC44104410D9
:1053C00043F040005FF84408423041C04360BC1ED7
:1053D000B2E20000000067C2145205520552C552E5
:1053E000255205520552155217522282224244423A
:1053F000483ECAD4000000002014101417FE00120A
:105400000010601013F0109010901090149214EA95
:105410001F0A0006B3CC0000000019FE720212023F
:1054200012027DFC18001BFE3420502053FE102079
:105430001020102013FED0F20000000000803FFE7C
:10544000400047FC4208413040C05FFE40424042BD
:105450004044404840404440B5F70000000023FE6F
:10546000122202FA0222E22212FE1272128A128A18
:10547000128A16BA1A421202040EB9E200000100A2
:10548000010411080908091009207FFE04400440A6
:1054900004400440084208421042607CB0E600002C
:1054A000000048FE4900490049007EFE4182414417
:1054B0007944452845284510452846440382C8A814
:1054C00000001000100013FC7D041104190418845E
:1054D0003488504850501020105010881304140283
:1054E000CBF9000000003F7C204020403E40227E5F
:1054F0002244224422443E84208420844084410467
:105500004204C6C100003FF8200820083FF82410DC
:1055100022202FF8222022203FFC2220422044205B
:1055200084200820C4BB04407FFC04401FF01010FE
:105530001FF010101FF00400FFFE11103FF8D116ED
:10554000115011200100D0FD2080108010FE0100BC
:10555000FE0021FC20243C2424A024A024BC24A060
:1055600024A04560553E8A00D7AA20202020202074
:10557000FDFC4020504093FEFC40108011FC1C04B8
:10558000F0885050102010101010BFAA00007FFCAF
:1055900008200820082008200820FFFE08200820F6
:1055A000082008201020102020204020D4B4000023
:1055B00027FE1420144085FC450445FC150415FC09
:1055C0002524E42024A829242A2230A00040D2BA8D
:1055D0000080204017FE11208120423C4244166486
:1055E00012942348E24822302220225022880306C7
:1055F000BEA70FE0082008200FE0082008200FE0D9
:1056000000007EFC428442847EFC428442847EFC14
:105610004284CDF800007FFC4004400442145294C0
:105620004A54442444244A544A5452946104400441
:1056300040144008D5BE1020082008207E20003EDF
:1056400004204420442025FC290429040F04F104EB
:10565000410401FC0104B0B410401020102013FEDE
:10566000FA02144410401BFE3088D088110810D074
:105670001020105050882304BCFC201020103B7CCC
:10568000211441FE7A14A27C2710F97C251025FEF6
:1056900022102A10350028FE0000D0A31040102050
:1056A000102011FEFC00108831043A025488508802
:1056B000905010501020105010881306D7BC014095
:1056C0004120212023FE022016201BFC1220222034
:1056D00023FCE2202220222023FE22000200B4A587
:1056E00020202020782049FC91247D245524552415
:1056F0007DFC552454207C28542457FE45028C0000
:10570000C3FE1110111017FC1110FC0013F8120841
:1057100017F81A0833F8D04017FC10A011105208DF
:105720002406B6C10020202011FC1020002003FE1A
:10573000F002109410501110109013FE1428184409
:1057400010820302BACD04000E007800087C0844E1
:10575000FF44084418441C442A442A444844887C92
:10576000084408000800D1D5100008FE7F10222050
:10577000147C7F4444544854525444544854515423
:105780004228442488423082D6B5084008400FFCA5
:105790001040104033F8320853F8920813F81208FA
:1057A00013F8120812081FFE1000C8DD02000100E5
:1057B0007FFE4002882411102288044008203018FF
:1057C000DFF61010101010101FF01010D6A70100F7
:1057D000010001007FFC0100010001003FF01010FA
:1057E000082004400280010006C01830E00EB3D645
:1057F00010201020102011FCFC20102013FE100897
:10580000180833FED00810881048100850282010BF
:10581000B5E302000200020003FC020002003FF0B8
:105820002010201020103FF0000024882244424421
:105830008004CCAC010001007FFC01000280044028
:105840000A203118C006010008884884481248120E
:1058500087F00000CAFD082049202A20083EFF44A6
:105860002A44494488A41028FE28221042106428A3
:1058700018283444C282D7D6020001007FFE4002BD
:1058800080041FE0004000800100FFFE01000100D5
:105890000100010005000200CDCB03F82208120828
:1058A00013F802080208F3F81244122812101288A2
:1058B00013041204280047FE0000B3F601000100A3
:1058C00021082108210821083FF8010801000100F2
:1058D00041044104410441047FFC0004C9EE00007E
:1058E000000000001000000800080C7FFC044010BD
:1058F00001C8A002186042301832231812C30014E5
:10590000030004030C047FF0080F80080B40781399
:105910006018332018631818831C19030818030033
:10592000000300000000DBDA0000000000000410AB
:105930000C04180C04108C04108C04108C04108CB3
:1059400004D08C3F108C04108C04108C04108C0438
:10595000108C04108C04108C05F08C0E208C782098
:105960008C20408C00808C01000C02000C00000098
:10597000CAD000000000000000300000180000182D
:105980000800001C1FFFE000180000182007FFF0AF
:1059900004182004182004182004182004182004D7
:1059A00018200418200418200418200418E00418F3
:1059B00040001800001800000000D6D000000000D1
:1059C000000000000000000000180000180000188F
:1059D000000018003FFFFE30180630180630180689
:1059E0003018063018063FFFFE3018060018000079
:1059F0001800001800001800001800000000000047
:105A000000000000CEC40000000000000000000004
:105A10003800001C00000600FFFFFF0600300600F3
:105A2000300300600300600180C000C18000E3001B
:105A3000003600001C0000770003C1E01E003C603F
:105A40000007000000000000000000000000B2E2BB
:105A500000000000000000000000000040000321E2
:105A6000FF33398333118333019B33C19B33719BE4
:105A700033199B33019B33019B33119B3319B33390
:105A8000303033306C0330C6036383032E01BE0015
:105A90000000000000000000CAD400000000000068
:105AA0000000000000004000D83000CE1800C21CEA
:105AB00000C001FFFF0000C0F800C01800C019FFBF
:105AC000C01818401818601918601B18611E18318A
:105AD0001C1FB139F01910000F0000000000000079
