:020000040800F2
:10000000C0070020A53700087D28000881280008C7
:1000100085280008892800088D28000800000000B5
:10002000000000000000000000000000912800080F
:100030009528000800000000992800089D28000865
:10004000D3370008D3370008D3370008D337000868
:10005000D3370008D3370008D3370008D337000858
:10006000D3370008D3370008D3370008D337000848
:10007000D3370008D3370008D3370008D337000838
:10008000D3370008D3370008D3370008D337000828
:10009000D3370008D3370008D3370008D337000818
:1000A000D3370008D3370008D3370008D337000808
:1000B000D3370008D3370008D3370008D3370008F8
:1000C000D3370008D3370008D3370008D3370008E8
:1000D000D3370008D3370008D3370008D3370008D8
:1000E000D3370008D3370008D3370008D3370008C8
:1000F000D3370008D3370008D337000800F002F8E0
:1001000000F044F80AA090E8000C82448344AAF16D
:100110000107DA4501D100F039F8AFF2090EBAE86B
:100120000F0013F0010F18BFFB1A43F0010318472B
:100130001C7500003C750000103A24BF78C878C1D7
:10014000FAD8520724BF30C830C144BF04680C60DD
:10015000704700000023002400250026103A28BF25
:1001600078C1FBD8520728BF30C148BF0B60704729
:10017000782904F08F85732904F067870020704781
:100180001FB504F064FE1FBD10B510BD04F061FF83
:100190001146FFF7F5FF00F023F804F07FFF03B4EA
:1001A000FFF7F2FF03BC04F089FF00000B49D1F810
:1001B00000C04A685CF8043B1068184442F8040B1D
:1001C0008C4528BFA1F1DC0C8A4228BFA1F1DC02DA
:1001D000C1F800C04A6020F000407047580100207C
:1001E0004FF4A06003F018FD04F046FC02F0DFFDC0
:1001F00017E001F026F802F087F901F068F801F045
:100200000BF901F0D5F901F014FB01F0B7FA01F098
:1002100006FC01F017FD02F0EEF901F056FD02F0C8
:1002200069F9E6E770B505460E461446314628469C
:1002300002F0F0FC204602F07AFC70BD2DE9F05F80
:1002400004460D4616461F46301B401C1FFA80FA16
:10025000781B401C1FFA80FB3B463246294620464D
:1002600002F0AEFC4FF000080FE04FF0000906E08E
:100270000A9802F05CFC09F101001FFA80F9D145EF
:10028000F6DB08F101001FFA80F8D845EDDBFD48E8
:100290004088401E83B2FB480088401E82B2002185
:1002A000084602F08DFCBDE8F09F2DE9FF4F85B0B8
:1002B00081468A460020049003900798A0EB090528
:1002C0000898A0EB0A06CDF80890CDF804A0002D00
:1002D00001DD012705E00DB9002702E04FF0FF37EF
:1002E0006D42002E02DD4FF0010806E016B94FF016
:1002F000000802E04FF0FF387642B54201DD2C469F
:1003000000E034464FF0000B21E0019A91B2029ACE
:1003100090B202F089FC0498284404900398304479
:1003200003900498A04205DD0498001B04900298F5
:10033000384402900398A04205DD0398001B039007
:100340000198404401900BF101001FFA80FB601CF2
:100350008345DADD09B0BDE8F08F2DE9F0410446B0
:100360000D4616461F46DDF81880EA1991B2A2190B
:1003700090B24246FFF756FFEA1991B2A21B90B223
:100380004246FFF74FFFEA1B91B2A21990B24246D4
:10039000FFF748FFEA1B91B2A21B90B24246FFF75B
:1003A00041FFAA1991B2E21990B24246FFF73AFF13
:1003B000AA1991B2E21B90B24246FFF733FFAA1B83
:1003C00091B2E21990B24246FFF72CFFAA1B91B2FC
:1003D000E21B90B24246FFF725FFBDE8F0812DE910
:1003E000FF4F81B0824617469846DDF838B00024AA
:1003F00045464FEA4800C0F10306BBF1000F1FD08D
:100400001BE0A14608E04B46224600975046029961
:10041000FFF7A3FF09F10109A945F4DD002E04DA75
:10042000042000FB0460861D06E0601B042101FB24
:10043000006000F10A066D1E641CAC42E1DD18E0AC
:1004400015E02B462246009750460299FFF785FF9C
:10045000002E04DA042000FB0460861D06E0601B09
:10046000042101FB006000F10A066D1E641CAC4211
:10047000E7DD05B0BDE8F08F2DE9FF4F85B081467F
:100480000020049083460798A0EB09050699089878
:10049000461ACDF80C9006980290002D01DD012738
:1004A00005E00DB9002702E04FF0FF376D42002E46
:1004B00002DD4FF0010806E016B94FF0000802E037
:1004C0004FF0FF387642B54201DD2C4600E034465D
:1004D0004FF0000A1FE001200090DDE91232DDE953
:1004E0000210FFF77CFF049828440490B34404985A
:1004F000A04205DD0498001B049003983844039043
:10050000A34504DDABEB040B0298404402900AF1D2
:1005100001001FFA80FA601C8245DCDD09B0BDE8ED
:10052000F08F2DE9F04104460D4616461F462B4636
:10053000324629462046FFF7B8FE3B46224629466A
:100540002046FFF7B2FE3B46324639462046FFF7CB
:10055000ACFE3B46324629463046FFF7A6FEBDE8D4
:10056000F081F8B504460D4616461F4646480088F9
:100570003B463246294600902046FFF75FFEF8BD15
:100580002DE9F84F06460F4691469846C9F10100FD
:100590000FFA80FA4FF0010B4FEA4900404200B2D7
:1005A000009000244D4652E0BAF1000F09DB681EAE
:1005B00085B20098801C00B20090009850440FFA59
:1005C00080FA601C84B20BF102000FFA80FB0AEB88
:1005D0000B000FFA80FA08F0040058B17A1991B2B2
:1005E000321990B202F020FB3A1991B2721990B20E
:1005F00002F01AFB08F0020058B17A1B91B23219CE
:1006000090B202F011FB3A1B91B2721990B202F053
:100610000BFB08F0080058B13A1991B2721B90B266
:1006200002F002FB7A1991B2321B90B202F0FCFA8E
:1006300008F0010058B13A1B91B2721B90B202F05F
:10064000F3FA7A1B91B2321B90B202F0EDFAAC428F
:10065000AADBBDE8F88F2DE9FC5F06460F46904601
:100660009A46DDF83090C8F101000FFA80FB0120B6
:1006700001904FEA4800404200B2009000244546F5
:1006800075E000006C00002030000020BBF1000F7E
:1006900009DB681E85B20098801C00B200900098AB
:1006A00058440FFA80FB601C84B20198801C00B291
:1006B0000190019858440FFA80FB0AF0010048B3FA
:1006C00007EB050C0CF1010CCC441FFA8CF306EB84
:1006D000040C1FFA8CF2A7EB050C1FFA8CF106EB49
:1006E000040C1FFA8CF0FFF7E0FD07EB040C0CF193
:1006F000010CCC441FFA8CF306EB050C1FFA8CF2AC
:10070000A7EB040C1FFA8CF106EB050C1FFA8CF01A
:10071000FFF7CBFD0AF0020048B307EB050C0CF124
:10072000010CCC441FFA8CF3A6EB040C1FFA8CF2DC
:10073000A7EB050C1FFA8CF1A6EB040C1FFA8CF04A
:10074000FFF7B3FD07EB040C0CF1010CCC441FFACE
:100750008CF3A6EB050C1FFA8CF2A7EB040C1FFA26
:100760008CF1A6EB050C1FFA8CF0FFF79EFDAC4256
:100770008CDBBDE8FC9F2DE9F04105460E4617468F
:100780009846069C391B8AB2291988B233463146ED
:10079000FFF78BFDA8EB040083B2301981B22A4623
:1007A0002846FFF782FD391B8AB2291988B24346D1
:1007B0004146FFF77AFDA8EB040083B2301981B2FD
:1007C0003A463846FFF771FD321991B22A1990B2B4
:1007D00001232246FFF7D4FE321991B23A1B90B2A0
:1007E00002232246FFF7CCFEA8EB040291B23A1B8B
:1007F00090B204232246FFF7C3FEA8EB040291B295
:100800002A1990B208232246FFF7BAFEBDE8F0810C
:100810002DE9F84307460D4690461E46089CFA48C7
:100820000088711C8BB2A8EB04018AB239190090C0
:1008300088B22946FFF702FD701B401C022101FB14
:100840001400401E80B22A1991B2A8EB0402009055
:1008500090B201232246FFF7FEFE701B401C0221CE
:1008600001FB1400401E80B22A1991B23A1900907F
:1008700090B202232246FFF7EEFEBDE8F8832DE991
:10088000F04704460D4616461F46DDE908893B46FB
:10089000324629462046FFF708FD4B464246394678
:1008A0003046FFF702FD2B46224649464046FFF7F9
:1008B000FCFCBDE8F08702880B8803800A80704743
:1008C0002DE9FF4F85B000260027BDF81800BDF8C0
:1008D0002010884207DD08A906A8FFF7ECFF07A94A
:1008E00005A8FFF7E8FFBDF82000BDF84C108842CE
:1008F00007DD08A913A8FFF7DEFF07A912A8FFF775
:10090000DAFFBDF81800BDF82010884207DD08A9FD
:1009100006A8FFF7D0FF07A905A8FFF7CCFFBDF891
:100920001800BDF84C10884238D1BDF8140003906F
:100930000490BDF81C00BDF81010884203DABDF821
:100940001C00049008E0BDF81C00BDF80C108842A3
:1009500002DDBDF81C000390BDF84800BDF8101082
:10096000884203DABDF84800049008E0BDF848006A
:10097000BDF80C10884202DDBDF848000390A24883
:1009800000880090BDF81830BDF80C201946BDF85D
:100990001000FFF753FC09B0BDE8F08FBDF81C0054
:1009A000BDF81410A0EB010BBDF82000BDF8181025
:1009B000401A0290BDF84800BDF81410451ABDF861
:1009C0004C00BDF81810A0EB0109BDF84800BDF8B7
:1009D0001C10A0EB010ABDF84C00BDF82010401A15
:1009E0000190BDF82000BDF84C10884202D1BDF83E
:1009F000208004E0BDF82000401E1FFA80F8BDF8FA
:100A0000184027E0029896FBF0F0BDF81410084457
:100A100080B2049097FBF9F0BDF81410084480B23E
:100A200003905E442F44BDF81000BDF80C108842BE
:100A300003DD03A904A8FFF73EFF7348008823469F
:100A40000090BDF80C202146BDF81000FFF7F6FB22
:100A5000601C84B24445D5DDBDF82000201A00FB9F
:100A60000AF6BDF81800201A00FB05F727E00198E8
:100A700096FBF0F0BDF81C10084480B2049097FB80
:100A8000F9F0BDF81410084480B2039056442F4486
:100A9000BDF81000BDF80C10884203DD03A904A8BE
:100AA000FFF709FF5848008823460090BDF80C2046
:100AB0002146BDF81000FFF7C1FB601C84B2BDF8F1
:100AC0004C008442D3DD00BF65E72DE9FF4F83B0C2
:100AD00081468A469346DDE910644B4800880290BF
:100AE000A6F12000C6B204EBD47009EB6000401EF2
:100AF00082B20AEB0400401E83B25146484601947C
:100B000002F05EF8129850BB002525E00C2C07D1AE
:100B100006EB46003D4901EB800010F8058004E03B
:100B20003B4800EB061010F8058000270DE008F0A8
:100B3000010018B1584601F0FAFF02E0069801F0F2
:100B4000F6FF4FEA6808781CC7B204EBD471B7EB24
:100B5000610FECDB681CC5B2A542D7DB2DE0002598
:100B600029E00C2C07D106EB4600284901EB800058
:100B700010F8058004E0264800EB061010F8058008
:100B8000002711E02048A0F800B008F0010038B1BB
:100B90000AEB050291B209EB070290B202F044F8A9
:100BA0004FEA6808781CC7B204EBD471B7EB610F49
:100BB000E8DB681CC5B2A542D3DB13490298088064
:100BC00014484088401E83B212480088401E82B2FA
:100BD0000021084601F0F4FF07B0BDE8F08F2DE9D1
:100BE000FE4306460F4615461C46DDF8288025E0E4
:100BF00008480088401EB04204DB06484088401E7A
:100C0000B84209DABDE8FE8330000020D650000863
:100C10004A5500086C00002020788DE82101FC482E
:100C20000388FC48028839463046FFF74EFF2846C5
:100C300005EBD07106EB61018EB2641C20787E2832
:100C400002DC20782028D3DA00BFDBE710B50246AB
:100C5000012000E050430B1EA1F10104E1B2F9D1E3
:100C600010BD2DE9FF4F83B0074691461E46109CEC
:100C70004FF0000A002543E0701B401EC1B20A205D
:100C8000FFF7E4FFB9FBF0F00A21B0FBF1F201FB42
:100C90001208BAF1000F1BD1701EA84218DDB8F17E
:100CA000000F13D100202021A346CDE900140290AB
:100CB00004EBDB71491001FB057188B2D4490B8844
:100CC000D4490A880499FFF700FF17E04FF0010AA2
:100CD000002108F13000C0B2A346CDE901410090E7
:100CE00004EBDB71491001FB057188B2C8490B8820
:100CF000C8490A880499FFF7E8FE00BF681CC5B21E
:100D0000B542B9DB07B0BDE8F08F2DE9FC5F0546C1
:100D1000884691469A46DDF830B000954B20019008
:100D200000245FE004EB0410BB4911F810009BF8AD
:100D30000010884253D104EB0410B74901EB400086
:100D400040789BF80110884249D108F10F0083B226
:100D500005F10F0082B24146284601F031FF00261E
:100D60003BE0002734E00D9890B904EB0410AA4949
:100D700001EB4000801C805D80213941084018B1A2
:100D8000484601F0D4FE21E0504601F0D0FE1DE0BF
:100D9000A048A0F8009004EB04109F4901EB40002C
:100DA000801C805D80213941084018B141462846A9
:100DB00001F03AFF681C85B20098281A102805D166
:100DC000009D08F101001FFA80F803E0781CC7B20B
:100DD000082FC8DB00BF701CC6B2202EC1DB00BFCD
:100DE000601C84B2019884429CDB8C484088401E81
:100DF00083B28A480088401E82B20021084601F072
:100E0000DFFEBDE8FC9F2DE9FC5F05468846914664
:100E10009A46DDF830B0009507200190002467E085
:100E200004EB840000EB44107D4911F810009BF89E
:100E30000010884259D104EB840000EB441078493B
:100E400001EB400040789BF8011088424DD108F139
:100E5000170083B205F1170082B24146284601F01F
:100E6000AFFE00263FE0002738E00D98A0B904EB64
:100E7000840000EB44106A4901EB4000801C805D57
:100E800080213941084018B1484601F050FE23E066
:100E9000504601F04CFE1FE05E48A0F8009004EBC5
:100EA000840000EB44105E4901EB4000801C805D33
:100EB00080213941084018B14146284601F0B4FE6E
:100EC000681C85B20098281A182805D1009D08F1E1
:100ED00001001FFA80F803E0781CC7B2082FC4DBBA
:100EE00000BF701CC6B2482EBDDB00BF601C84B2C0
:100EF0000198844294DB49484088401E83B24748A9
:100F00000088401E82B20021084601F059FEBDE86B
:100F1000FC9F2DE9FC5F0546884691469A46DDF820
:100F200030B000950420019000245FE004EB8410B1
:100F30003C4911F810009BF80010884253D104EB93
:100F40008410384901EB400040789BF8011088423A
:100F500049D108F11F0083B205F11F0082B241465A
:100F6000284601F02DFE00263BE0002734E00D98D6
:100F700090B904EB84102B4901EB4000801C805D8C
:100F800080213941084018B1484601F0D0FD21E0E8
:100F9000504601F0CCFD1DE01E48A0F8009004EB87
:100FA0008410204901EB4000801C805D8021394184
:100FB000084018B14146284601F036FE681C85B24B
:100FC0000098281A202805D1009D08F101001FFA79
:100FD00080F803E0781CC7B2082FC8DB00BF701C84
:100FE000C6B2802EC1DB00BF601C84B2019884426F
:100FF0009CDB0A484088401E83B208480088401E97
:1010000082B20021084601F0DBFDBDE8FC9F000034
:1010100032000020300000203A5B00086C00002005
:1010200030650008366700082DE9FF4F83B006469B
:1010300088469146DDE91147109DB2464FF0000BFE
:1010400071E0BBF1000F40D104EBD4715E4A12880D
:10105000A2EB6101B14204DB5B494988091B4145B0
:1010600002DA07B0BDE8F08F2878802802DD4FF063
:10107000010B58E028780D2806D108EB04001FFA70
:1010800080F856466D1C1EE0102C0DDD10212878CE
:101090008DE883004A4641463046069BFFF715FD22
:1010A00006F1080086B20EE028788DE891004A46E5
:1010B00041463046069BFFF708FD204604EBD07101
:1010C00006EB61018EB26D1C2DE03F480088001BCD
:1010D000B04204DB3C484088001B404500DAC0E7D2
:1010E0004FF0000B202C08D1CDE900574A4641466D
:1010F0003046069BFFF70DFF12E0182C08D1CDE912
:1011000000574A4641463046069BFFF77CFE07E003
:10111000CDE900574A4641463046069BFFF7F5FDAC
:10112000AD1C301986B2287800288AD100BF98E714
:101130002DE9FE4F0E4617469846DDE90D9A0C9CA8
:10114000204603F0B1FE85B21F490988A1EBC50016
:1011500000EBD071C1F34F0B43463A463146584637
:101160008DE81006FFF760FFBDE8FE8F2DE9F04720
:1011700006460F46154607F1270083B206F1270001
:1011800082B23946304601F01BFD00240AE015F812
:10119000149005EB440090F8018049EA082001F022
:1011A000C6FC641CB4F5C86FF1DB07484088401EDC
:1011B00083B205480088401E82B20021084601F033
:1011C000FFFCBDE8F08700006C0000203EB504463F
:1011D0004FF6FF7001F040FD1F200090FE4802888E
:1011E000142300210846FFF729F81F200090FA4831
:1011F000438802884088143881B20020FFF71EF827
:101200004FF6FF70F5490880012010211F234FF68B
:10121000FF72CDE90041029002210020FFF788FF14
:1012200001201021EEA2CDE900210290EA48408879
:10123000123881B21F234FF6FF720020FFF778FFAC
:101240003EBD0EB5ECA0FFF7C1FF01201021F0A2BA
:101250001F23CDE900210290DA021E210020FFF7B2
:1012600067FF01201021E6A21F23CDE90021029093
:10127000DA023C210020FFF75BFF01201021E7A2EA
:101280001F23CDE9002102904FF61F025A210020B2
:10129000FFF74EFF01201021E6A21F23CDE9002118
:1012A00002901A4678210020FFF742FF40F2EE201C
:1012B00003F01FFC40F2EE2003F01BFC40F2EE2096
:1012C00003F017FC40F2EE2003F013FC0EBD0EB548
:1012D0004FF6FF700090C0484388028800210846FE
:1012E000FEF7ACFF01201021D9A24FF6E073CDE943
:1012F0000021029000221E211420FFF795FE4FF4DA
:10130000487003F0F6FB00200090B3484388028841
:1013100000210846FEF792FF01201021CEA24FF6D1
:10132000E073CDE9002102904FF6FF721E211420D8
:10133000FFF77AFE4FF4487003F0DBFB4FF4784080
:101340000090A5484388028800210846FEF776FFF2
:1013500001201021C2A24FF6E073CDE900210290D6
:101360001F221E211420FFF75FFE4FF4487003F088
:10137000C0FB4FF4FC60009097484388028800212E
:101380000846FEF75BFF01201021B7A24FF6E0737D
:10139000CDE9002102901F221E211420FFF744FEF8
:1013A0004FF4487003F0A5FB1F2000908A48438843
:1013B000028800210846FEF741FF01201021ACA25F
:1013C0004FF6E073CDE9002102904FF478421E21E0
:1013D0001420FFF729FE4FF4487003F08AFB48F20F
:1013E000304000907C484388028800210846FEF780
:1013F00025FF01201021A0A24FF6E073CDE90021C6
:1014000002904FF61F021E211420FFF70DFE4FF42D
:10141000487003F06EFB0EBD2DE9F843002498A040
:10142000FFF7D4FE4FF6FF7000906B4840881438E9
:1014300083B26948028814210020FEF7FFFE00BF36
:1014400048E0954830F8140064490880DFF888C106
:10145000BCF8025005EBD57C4FEA6C0CACF1500C9B
:10146000C4EB0419CC440CF13C0C1FFA8CF3DFF8EC
:1014700068C1BCF8006006EBD67C4FEA6C0CACF19E
:10148000500CC4EB0419CC440CF13C0C1FFA8CF248
:10149000DFF844C1BCF8027007EBD77C4FEA6C0C54
:1014A000ACF1500CC4EB0419CC441FFA8CF1DFF8FA
:1014B00028C1BCF8008008EBD87C4FEA6C0CACF17A
:1014C000500CC4EB0419CC441FFA8CF0FFF729F838
:1014D000601CC4B2052CB4DB40F2EE2003F009FB23
:1014E00040F2EE2003F005FB4FF6FF7000903A4803
:1014F0004088143883B23848028814210020FEF74F
:101500009DFE002448E0644830F814003349088008
:10151000DFF8C4C0BCF8026006EBD67C4FEA6C0C66
:10152000ACF1500CC4EB0419CC440CF13C0C1FFA88
:101530008CF3DFF8A4C0BCF8007007EBD77C4FEA4F
:101540006C0CACF1500CC4EB0419CC440CF13C0C09
:101550001FFA8CF2DFF880C0BCF8028008EBD87C60
:101560004FEA6C0CACF1500CC4EB0419CC441FFADC
:101570008CF1DFF864C0BCF8005005EBD57C4FEA75
:101580006C0CACF1500CC4EB0419CC441FFA8CF079
:10159000FEF7E7FF601CC4B2052CB4DB40F2EE207E
:1015A00003F0A7FA40F2EE2003F0A3FABDE8F883B7
:1015B000F8B5002439A0FFF709FE4FF6FF70009040
:1015C00005484088143883B203480288142100205B
:1015D000FEF734FE00BF8DE06C00002030000020DC
:1015E000687474703A2F2F7777772E6C63647769FD
:1015F0006B692E636F6D0000C8ABB6AFB5E7D7D38C
:10160000D7DBBACFB2E2CAD4B3CCD0F2000000002C
:10161000C8ABB6AFB5E7D7D300000000342E3022F8
:1016200020495053205354373739362033323058FD
:10163000343830007869616F46656E674051447494
:1016400065636820323032332D31312D3230000065
:101650005748495445000000424C41434B000000AC
:101660005245442000000000475245454E200000EE
:10167000424C5545200000004752415900000000EF
:10168000B2E2CAD4333A475549BED8D0CECCEEB335
:10169000E4B2E2CAD400000000000020B2E2CAD4E2
:1016A000343A475549BBADD4B2CCEEB3E4B2E2CA4A
:1016B000D40000000020FA4B00905D8805EBD57344
:1016C0005B10323B04EBC40707EB0417D919F44B4A
:1016D0001E8806EBD6735B10503B04EBC40707EB88
:1016E0000417D819EF4B33F814201E23FEF777FEAA
:1016F000601CC4B2052CDDDB40F2EE2003F0F9F9EA
:1017000040F2EE2003F0F5F94FF6FF700090E44848
:101710004088143883B2E248028814210020FEF782
:101720008DFD00241FE00120DD4B00905D8805EB5E
:10173000D5735B10323B04EBC40707EB0417D919D0
:10174000D74B1E8806EBD6735B10503B04EBC407E7
:1017500007EB0417D819D34B33F814201E23FEF7D8
:101760003EFE601CC4B2052CDDDB40F2EE2003F02F
:10177000C0F940F2EE2003F0BCF9F8BD0EB5CAA0E6
:10178000FFF724FD00200C21CCA24FF6E073CDE939
:10179000002102901F221E210A20FFF745FC012094
:1017A0000C21D1A24FF6E073CDE9002102901F2257
:1017B0002D210A20FFF738FC00200C21D5A24FF67E
:1017C000E073CDE9002102901F223C210A20FFF79F
:1017D0002BFC00201021D7A24FF6E073CDE90021A9
:1017E00002901F2250210A20FFF71EFC0120102129
:1017F000DBA24FF6E073CDE9002102901F226421A5
:101800000A20FFF711FC00201021E0A24FF6E07340
:10181000CDE9002102901F2278210A20FFF704FC65
:101820004FF4167003F065F94FF4167003F061F988
:101830000EBD2DE9FC5F0024DCA0FFF7C7FC4FF6CE
:10184000FF70009096484088143883B2944802880C
:1018500014210020FEF7F2FC00BF5DE0914830F853
:101860001400D94908808E48458805EBD570401092
:101870001438C4EB0411084481B28948068806EB89
:10188000D6704010153804EB840200EB820080B261
:10189000DFF80CC2CDE90001BCF8027007EBD77C81
:1018A0004FEA6C0CACF1490CC4EB041BDC441FFA8E
:1018B0008CF3DFF8ECC1BCF8008008EBD87C4FEA71
:1018C0006C0CACF1330C04EB840B0CEB8B0C1FFA9F
:1018D0008CF2DFF8CCC1BCF8029009EBD97C4FEA5E
:1018E0006C0CACF1140CC4EB041BDC441FFA8CF13F
:1018F000DFF8ACC1BCF800A00AEBDA7C4FEA6C0C54
:10190000ACF1500C04EB840B0CEB8B0C1FFA8CF03D
:10191000FEF7B5FF601CC4B2052C9FDB40F2EE2041
:1019200003F0E7F840F2EE2003F0E3F84FF6FF7023
:1019300000905B484088143883B2594802881421CB
:101940000020FEF77BFC00245DE0564830F81400D0
:101950009D4908805248458805EBD57040101438E1
:10196000C4EB0411084481B24D48068806EBD670DA
:101970004010153804EB840200EB820080B2DFF8DF
:1019800020C1CDE90001BCF8027007EBD77C4FEA1B
:101990006C0CACF1490CC4EB041BDC441FFA8CF357
:1019A000DFF8FCC0BCF8008008EBD87C4FEA6C0C78
:1019B000ACF1330C04EB840B0CEB8B0C1FFA8CF2A8
:1019C000DFF8DCC0BCF8029009EBD97C4FEA6C0C64
:1019D000ACF1140CC4EB041BDC441FFA8CF1DFF8EF
:1019E000C0C0BCF800A00AEBDA7C4FEA6C0CACF18A
:1019F000500C04EB840B0CEB8B0C1FFA8CF0FEF7F5
:101A00005FFF601CC4B2052C9FDB40F2EE2003F0A8
:101A100070F840F2EE2003F06CF8BDE8FC9F0EB5C4
:101A20006AA0FFF7D3FB002010216DA24FF6E073F0
:101A3000CDE9002102901F221E210A20FFF7F4FAAF
:101A4000002010216FA24FF6E073CDE90021029033
:101A50001F2232210A20FFF7E7FA012018216FA286
:101A60004FF6E073CDE9002102901F2246210A20A3
:101A7000FFF7DAFA012020216EA24FF6E073CDE9DC
:101A8000002102901F2264210A20FFF7CDFA4FF4B3
:101A9000167003F02EF84FF4167003F02AF80EBDFE
:101AA0006C00002000000020B2E2CAD4363AD3A273
:101AB000CEC4CFD4CABEB2E2CAD400003658313246
:101AC0003A6162636465666768696A6B6C6D6E6FC4
:101AD000707172737475767778797A303132333405
:101AE0003536373839000000365831323A414243F2
:101AF0004445464748494A4B4C4D4E4F505152532E
:101B00005455565758595A303132333435363738A0
:101B100039000000365831323A7E21402324255EB8
:101B2000262A28295F2B7B7D3A3C3E3F2F7C2D2B9C
:101B30002E000000385831363A616263646566678A
:101B400068696A6B6C6D6E6F70717273747576779D
:101B500078797A303132333435363738390000000D
:101B6000385831363A4142434445464748494A4B42
:101B70004C4D4E4F505152535455565758595A3058
:101B80003132333435363738390000003858313681
:101B90003A7E21402324255E262A28295F2B7B7D3F
:101BA0003A3C3E3F2F7C2D2B2E000000B2E2CAD4DF
:101BB000353A47554920547269616E676C65CCEEC1
:101BC000B3E4B2E2CAD4000030000020B2E2CAD4CA
:101BD000373AD6D0CEC4CFD4CABEB2E2CAD40000FF
:101BE00031365831363AC8ABB6AFB5E7D7D3BCBCFF
:101BF000CAF5D3D0CFDEB9ABCBBEBBB6D3ADC4FA3A
:101C00000000000031365831363A57656C636F6D0D
:101C100065C8ABB6AFB5E7D7D30000003234583251
:101C2000343AC9EEDBDACAD0D6D0CEC4B2E2CAD4D6
:101C30000000000033325833323AD7D6CCE5B2E256
:101C4000CAD400000EB5FBA0FFF7C0FAFE4A1E2161
:101C50000846FFF78BFA01201021FCA24FF6E07333
:101C6000CDE9002102901F224B212A20FFF7DCF949
:101C7000F54A1E215A20FFF779FA01201021F3A21C
:101C80004FF6E073CDE9002102901F224B21662020
:101C9000FFF7CAF9EC4A1E219620FFF767FA0120E8
:101CA0001021EAA24FF6E073CDE9002102901F2235
:101CB0004B21A220FFF7B8F94FF4167002F019FF7C
:101CC0004FF4167002F015FF0EBD10B588B0002459
:101CD000DF4B0FCBCDE90623CDE9040100BF27E0A0
:101CE000204601F013F8DBA0FFF770FA0121102263
:101CF00004A850F824004FF6E073CDE901210090CC
:101D00001F221E211420FFF78FF9CF4A32211E20F7
:101D1000FFF72CFA40F2EE2002F0EBFE40F2EE204C
:101D200002F0E7FE4FF4FA7002F0E3FE601CC4B26A
:101D3000042CD5DB002000F0E9FF08B010BD0EB583
:101D4000C9A0FFF743FA0120CC4900900988203947
:101D500088B2CBA310220221FEF741FF4FF4784056
:101D6000C849088062E0C84948688047C648007C86
:101D700000F00100002855D0C3480189BF48008801
:101D8000801E814252DAC0488189BC484088801E4A
:101D900081424BDABDF808004FF6FF71884207D147
:101DA000B9480089ADF80800B7488089ADF80A0045
:101DB000B5480189B1480088203881421BDDB2480E
:101DC0008089122817DA4FF6FF70AF490881088121
:101DD000A5A0FFF7FBF90120A84900900988203948
:101DE00088B2A7A310220221FEF7F9FE4FF4784033
:101DF000A44908800DE04FF478400221A24CCDE9BF
:101E00000010A3892289BDF80A10BDF80800FEF76A
:101E100033FB9D480089ADF808009B488089ADF8E8
:101E20000A0003E04FF6FF70ADF808009BE700B52D
:101E300087B096A0FFF7CAF90020924908808F4822
:101E40000088069000EBD0704010323080B20490D1
:101E50008A480088059000EBD0704010323880B27C
:101E60005A2303902821049AFEF75BFB4FF4784035
:101E70008449088081480088069000EBD0704010AB
:101E8000401E80B204907D480088059000EBD07021
:101E90004010313880B2592303902921049AFEF76B
:101EA00060FB1F207749088074480088069000EB8B
:101EB000D0704010313080B2049070480088059096
:101EC00000EBD0704010592303902921049AFEF7AB
:101ED00048FB4FF6FF706B4908800120009067486F
:101EE0000088069000EBD0704010203880B26CA3C0
:101EF000102239210590FEF772FE48F23040614908
:101F000008800A2000905D480088069000EBD070A1
:101F100040106E3080B2049058480088059000EB65
:101F2000D07040106E3880B2A92303909621049A95
:101F3000FEF76EFC4FF61F00524908800A20009001
:101F40004E480088069000EBD07040100A3080B2F6
:101F500004904A480088059000EBD07040106E381D
:101F600080B2A92303909621049AFEF751FC4348BE
:101F70000088069001200090069800EBD070401079
:101F80000A2340F2CF12A0210590FEF728FA002084
:101F90003C4908800120009038480088069000EBFA
:101FA000D07040107D3880B23EA310229821059059
:101FB000FEF715FE0120009030480088069000EBE7
:101FC000D0704010733080B237A310229821059052
:101FD000FEF705FE4FF478402A4908801020009053
:101FE00026480088069000EBD07040100C3880B274
:101FF000032332227D210590FEF733FE0020214984
:102000000880082000901D480088069000EBD070E2
:1020100040101E3080B2049018480088059000EBF4
:10202000D07040101E3880B2FA230390DC21049A4D
:102030003CE00000B2E2CAD4383ACDBCC6ACCFD442
:10204000CABEB2E2CAD40000406900085151000083
:10205000C4750008B2E2CAD431303AC6C1C4BBD09C
:10206000FDD7AAB2E2CAD400B2E2CAD431323AB43D
:10207000A5C3FE50454EB2E2CAD400006C00002059
:10208000525354003000002038000020B2E2CAD47D
:1020900031313AB4A5C3FEB0B4BCFCB2E2CAD4003C
:1020A0004F4E00003000000031303000FEF763FB7F
:1020B0004AF25160FE49088007200090FD480088E0
:1020C000069000EBD07040101D3080B20490F948AB
:1020D0000088059000EBD07040101D3880B2F823C6
:1020E0000390DD21049AFEF793FB4FF61F00F049A1
:1020F000088001200090EF480088069000EBD07027
:1021000040100F3880B2ECA31022E3210590FEF7B7
:1021100066FD01201021EAA2CDE900210290E548E8
:102120000088069000EBD07040102F3880B24FF638
:10213000FF734FF47842C3210590FEF775FFD5E198
:10214000E348406806908047E148007C00F00100C9
:102150000028F4D0DE48808928287DDDDC4880898D
:102160005A2879DAD3480088059000EBD0704010E7
:102170003238D7490989884252DACE480088069019
:1021800000EBD0704010401ED1490989884247DDDC
:102190004FF47840C6490880C6480088069000EB96
:1021A000D0704010401E80B20490C2480088059054
:1021B00000EBD0704010313880B2592303902921B0
:1021C000049AFEF7CEF91F20B9490880B948008863
:1021D000069000EBD0704010313080B20490B548CA
:1021E0000088059000EBD0704010592303902921FE
:1021F000049AFEF7B6F94FF6FF70AD49088001204A
:102200000090AC480088069000EBD0704010203859
:1022100080B2AFF27413102239210590FEF7DFFC73
:10222000A4480088059000EBD0704010A8490989A7
:10223000884253DA9F480088069000EBD070401027
:102240003230A3490989884248DD1F209849088017
:1022500098480088069000E040E000EBD070401005
:10226000401E80B2049093480088059000EBD07027
:102270004010313880B2592303902921049AFEF787
:1022800070F94FF478408A4908808A48008806909F
:1022900000EBD0704010313080B204908548008847
:1022A000059000EBD0704010592303902921049A27
:1022B000FEF757F94FF6FF707D4908800120009026
:1022C0007C480088069000EBD07040100D3080B242
:1022D00080A3102239210590FEF781FC7548008803
:1022E000059000EBD0704010643879490989884224
:1022F00075DC70480088069000EBD07040106430A8
:102300007349098988426ADB71488089962866DDAD
:102310006F488089A92862DA48F230406449088011
:102320000A20009063480088069000EBD0704010AF
:102330006E3080B20590664800890A3880B2A923C1
:1023400004909621059AFEF763FA4FF61F0058494C
:1023500008800A20009057480088069000EBD07053
:1023600040106E3880B20490594800890A3080B21B
:10237000A9230246962105900498FEF749FA012008
:102380000090534800890A2340F2CF12A021069002
:10239000FEF725F84FF47840454908804548008805
:1023A000059000EBD0704010643849490989081A3B
:1023B0000690102000903F480088049000EBD070F9
:1023C00040100C3880B20290069800EBD07040109C
:1023D000032302467D2103900298FEF742FC354814
:1023E0000088059000EBD07040101E3838490989EC
:1023F00088427BDC2F480088069000EBD0704010AC
:102400001E3033490989884270DB31488089DC28D5
:102410006CDD2F488089FA2868DA4FF6FF7024496E
:1024200008800820009023480088069000EBD070B8
:1024300040101E3080B204901E480088059000EBCA
:10244000D07040101E3880B2FA230390DC21049A29
:10245000FEF791F942F612301549088007200090E6
:1024600014480088069000EBD07040101D3080B2F8
:10247000049010480088059000EBD07040101D3883
:1024800080B2F8230390DD21049AFEF7C1F948F2E7
:102490001F400749088001200090064800880690E8
:1024A00000EBD07040100F3880B203A3102214E06C
:1024B000300000206C000020455849540000000006
:1024C000B0B445584954BCFCCDCBB3F60000000075
:1024D000380000204F46460008E0E3210590FEF753
:1024E0007EFB4FF6FF70A349088100E028E600BF9D
:1024F00007B000BD10B59F490868804700B110BD06
:10250000FFF795FCFFF71BFC70B590B000200D9015
:102510000E900F90242104A802F0E5FC96A0FEF78F
:1025200055FE00F045FD0646324699A10DA802F081
:102530004DFB012010210DAA4FF6E073CDE90021DB
:1025400002901F2219213220FEF76EFD002446E082
:10255000914830F814009149088004EBC40000EB66
:10256000041000F1410304EBC40000EB04102D3013
:1025700081B21E220A20FDF7F4FF04EBC40000EB39
:10258000041000F13701142000F05AFB054683487F
:102590000088A84204D182A10DA802F061FC03E0EA
:1025A00080A10DA802F05CFC0DAB2A467FA104A817
:1025B00002F00CFB0120102104AACDE900210290B9
:1025C00004EBC40000EB04102F3081B24FF6E0732F
:1025D000724802882820FEF727FD601CC4B2072C31
:1025E000B6DB40F2EE2002F084FA40F2EE2002F078
:1025F00080FA10B070BD38B572A0FEF7E7FD1F205D
:1026000066490880744802F00DFC012073A3102273
:10261000322100900F20FEF7E2FA012075A310226C
:10262000462100900F20FEF7DAFA012077A310224E
:102630005A2100900F20FEF7D2FA012079A3102230
:102640006E2100900F20FEF7CAFA01207BA3102212
:10265000822100900F20FEF7C2FA01207DA31022F4
:10266000962100900F20FEF7BAFA01207EA31022D7
:10267000AA2100900F20FEF7B2FA4FF478404749A4
:102680000880002473E0FDF791FD42F2107190FB89
:10269000F1F201FB1205102005232A463221009099
:1026A0006420FEF7DEFAFDF781FD42F2107190FB27
:1026B000F1F201FB1205102005232A464621009065
:1026C0006420FEF7CEFAFDF771FD42F2107190FB27
:1026D000F1F201FB1205102005232A465A21009031
:1026E0006420FEF7BEFAFDF761FD42F2107190FB27
:1026F000F1F201FB1205102005232A466E210090FD
:102700006420FEF7AEFAFDF751FD42F2107190FB26
:10271000F1F201FB1205102005232A4682210090C8
:102720006420FEF79EFAFDF741FD322190FBF1F2A5
:1027300001FB1205102005232A46962100906420F3
:10274000FEF78FFAFDF732FD642190FBF1F201FBF9
:102750001205102005232A46AA2100906420FEF7C6
:1027600080FA4FF4FA7002F0C4F9601CC4B20F2C66
:1027700089DB38BD38000020B2E2CAD4323AB6C193
:102780004944BACDD1D5C9ABD6B5B2E2CAD400005E
:1027900049443A30782578000A00002030000020B3
:1027A0004F4B00004552524F520000007265616469
:1027B00020636F6C6F723A307825303458202025B2
:1027C00073000000B2E2CAD4393AB6AFCCACCAFD4D
:1027D000D7D6CFD4CABE000040E20100204843480B
:1027E0004F3A202020202020202020202075672FF5
:1027F0006D3300002020434F323A2020202020203B
:10280000202020202070706D000000002054564FC2
:10281000433A202020202020202020202075672FD0
:102820006D330000504D322E353A202020202020DC
:10283000202020202075672F6D33000020504D315F
:10284000303A202020202020202020202075672FB3
:102850006D33000020205445503A202020202020B5
:102860002020202020430000202048554D3A2020E1
:1028700020202020202020202025000000BFFEE76F
:1028800000BFFEE700BFFEE700BFFEE700BFFEE7B8
:1028900000BFFEE700BFFEE700BFFEE700BFFEE7A8
:1028A0000CB50020019000906948006840F4803029
:1028B0006749086000BF6648006800F40030009077
:1028C0000198401C0190009818B90198B0F5805FFC
:1028D000F1D15F48006800F4003010B10120009091
:1028E00001E0002000900098012833D1584840684A
:1028F000574948600846406848600846406840F4C8
:10290000806048600846406820F47C1048600846B3
:10291000406840F4741048600846006840F08070D9
:10292000086000BF4A48006800F000700028F9D035
:102930004748406820F00300454948600846406821
:1029400040F00200486000BF4148406800F00C00C1
:102950000828F9D10CBD10B5FFF7A2FF10BD10B5C6
:102960003B48006840F0010039490860084640686B
:1029700038490840364948600846006836490840EA
:10298000334908600846006820F480200860084643
:10299000406820F4FE0048604FF41F008860FFF795
:1029A000DAFF4FF000602D49086010BD30B50021FE
:1029B000002000220023264C646804F00C0121B1A1
:1029C000042906D0082932D107E0254C254D2C607A
:1029D00031E0234C234D2C602DE01D4C646804F441
:1029E00070101B4C646804F48032022404EB9040A5
:1029F000112800D1122022B91B4C4443194D2C60E0
:102A00000DE0134C646804F4003424B1164C4443C4
:102A1000144D2C6003E0124C4443124D2C60012BEA
:102A200004D1104C246864080E4D2C6003E00C4C5B
:102A30000C4D2C6000BF00BF054C6468C4F3031448
:102A40000A4D295D074C2468CC40064D2C6030BDF2
:102A5000001002400000FFF0FFFFF6FE08ED00E06E
:102A600000127A001C00002000093D002000002018
:102A700010B504464FF40070FE49086080200860DD
:102A80002146FD4800F014FB4FF40070F949091F7E
:102A9000086010BD10B504464FF40070F549086099
:102AA0008020091F08602146F34800F001FB4FF425
:102AB0000070F049091F086010BD10B54FF4007098
:102AC000EC4908608020091F08600021EA4800F0F6
:102AD00000FBFF21E84800F0EBFA04460121E6483C
:102AE00000F0F7FA4FF40070E249091F0860204631
:102AF00010BD70B505460C462846FFF7B9FFE0B299
:102B0000FFF7C8FF70BD10B504462046FFF7B0FFC1
:102B1000FFF7D3FF10BD10B5D849087AFFF7A8FF1B
:102B200010BD10B5D549887AFFF7A2FF10BD10B5CA
:102B300004464FF40070CF4908608020091F0860E8
:102B40002112CD4800F0B4FAE1B2CB4800F0B0FA5F
:102B50004FF40070C749091F086010BD70B54FF4ED
:102B60000070C449086080200860C448817AC24867
:102B700000F09EFA0021C04800F0ABFA8020BD4969
:102B8000091F0860FF21BC4800F092FAFF21BA48F3
:102B900000F08EFA0446FF21B74800F089FA054696
:102BA0000121B54800F095FA4FF40070B149091FB2
:102BB00008604FF6FF7000EA04242C43204670BDE5
:102BC0002DE9F04104460D4616461F46AB49087BE9
:102BD000FFF74EFF2012FFF75DFFE0B2FFF75AFF4D
:102BE0003012FFF757FFF0B2FFF754FFA349887B7D
:102BF000FFF73EFF2812FFF74DFFE8B2FFF74AFF4D
:102C00003812FFF747FFF8B2FFF744FFFFF783FFE3
:102C1000BDE8F08170B504460D462B462246294694
:102C20002046FFF7CDFF70BD70B504460D4629461E
:102C30002046FFF7EFFF92480088FFF778FF70BD4E
:102C400070B504460D4629462046FFF7E3FFFFF71F
:102C500085FF0646304670BD70B5044687484088FB
:102C6000401E83B285480088401E82B2002108467B
:102C7000FFF7A6FF4FF400707E4908608020091F0F
:102C8000086000250FE0002608E021127A4800F0D5
:102C90000FFAE1B2784800F00BFA761C774800880A
:102CA000B042F2D86D1C75484088A842EBD84FF46A
:102CB00000707049091F086070BD08B50121082027
:102CC00001F0CFF94FF47070ADF8000003208DF8DB
:102CD000020010208DF8030069466648143800F0A1
:102CE000D7FD01206749086008BD10B54FF480701A
:102CF00060490860642001F0FCFE4FF480705D497B
:102D0000091F0860322001F0F4FE10BD10B5044622
:102D10002A205A4988812B20C8812C2008812E2006
:102D200048812046E11704EB91718910A4EB8101E1
:102D3000524A91711046807930B1012810D0022892
:102D40001AD0032830D123E04FF4A0704B490880FB
:102D50004FF4F070488048213620FFF7CAFE24E087
:102D60004FF4F070454908804FF4A0704880282146
:102D70003620FFF7BEFE18E04FF4A0703F490880F0
:102D80004FF4F070488088213620FFF7B2FE0CE047
:102D90004FF4F070394908804FF4A0704880E82162
:102DA0003620FFF7A6FE00E000BF00BF10BD10B543
:102DB00000F0A2F9FFF781FFFFF797FFF020FFF780
:102DC00057FEC320FFF766FEF020FFF751FE962066
:102DD000FFF760FE3620FFF74BFE4820FFF75AFE54
:102DE0003A20FFF745FE0520FFF754FEB020FFF71D
:102DF0003FFE8020FFF74EFEB620FFF739FE002091
:102E0000FFF748FE0220FFF745FEB520FFF730FE32
:102E10000220FFF73FFE0320FFF73CFE0020FFF7F4
:102E200039FE0420FFF736FEB120FFF721FE802097
:102E3000FFF730FE1020FFF72DFEB420FFF718FE3D
:102E40000020FFF727FEB720FFF712FEC620FFF78E
:102E500021FEC520FFF70CFE1C20FFF71BFEE4201F
:102E6000FFF706FE3120FFF715FEE820FFF700FE12
:102E7000402009E0140C0140003001406C000020AB
:102E80003000002098812142FFF704FE8A20FFF7DE
:102E900001FE0020FFF7FEFD0020FFF7FBFD2920CB
:102EA000FFF7F8FD1920FFF7F5FDA520FFF7F2FD6C
:102EB0003320FFF7EFFDC220FFF7DAFDA720FFF771
:102EC000D7FDE020FFF7D4FDF020FFF7E3FD092058
:102ED000FFF7E0FD1320FFF7DDFD1220FFF7DAFD1D
:102EE0001220FFF7D7FD2B20FFF7D4FD3C20FFF782
:102EF000D1FD4420FFF7CEFD4B20FFF7CBFD1B207B
:102F0000FFF7C8FD1820FFF7C5FD1720FFF7C2FD2A
:102F10001D20FFF7BFFD2120FFF7BCFDE120FFF7DB
:102F2000A7FDF020FFF7B6FD0920FFF7B3FD132042
:102F3000FFF7B0FD0C20FFF7ADFD0D20FFF7AAFD58
:102F40002720FFF7A7FD3B20FFF7A4FD4420FFF754
:102F5000A1FD4D20FFF79EFD0B20FFF79BFD1720E5
:102F6000FFF798FD1720FFF795FD1D20FFF792FD55
:102F70002120FFF78FFDF020FFF77AFD3C20FFF7BF
:102F800089FDF020FFF774FD6920FFF783FD132012
:102F9000FFF76EFD1120FFF76BFD2920FFF768FD9D
:102FA0000020FFF7B3FE4FF6FF70FFF755FE10BD90
:102FB00038B500200090F020FFF75AFDC320FFF73E
:102FC00069FDF020FFF754FD9620FFF763FD4FF4F5
:102FD00000703449086001243BE0802031490860DA
:102FE000FB21314800F064F880202E49091F086059
:102FF00004F11000C1B22C4800F05AF88020294991
:103000000860D321284800F053F80021264800F03A
:1030100060F880202349091F0860FF21224800F042
:1030200047F8611E0DF8010001211F4800F051F81A
:1030300080201C490860FB211B4800F039F88020E3
:103040001849091F08600021174800F031F8601C7A
:10305000C4B2042CC1DB4FF400701249091F086090
:10306000F020FFF705FD3C20FFF714FDF020FFF7EF
:10307000FFFC6920FFF70EFD9DF801000B498880D9
:10308000084680884FF6FF7101EA002007498880D2
:10309000084680889DF80210084304498880084645
:1030A000808838BD140C0140003001406C000020C5
:1030B000024600BF108900F002000028FAD091817A
:1030C00000BF108900F001000028FAD09089C0B23A
:1030D000704702884FF6C7731A400280012902D157
:1030E0000288028003E0028842F01802028002880F
:1030F00042F040020280704700B587B001210520F0
:1031000000F0AFFFA020ADF8040003208DF806000A
:1031100018208DF8070001A91C4800F0B9FB4020D9
:10312000ADF8040048208DF8070003208DF8060054
:1031300001A9164800F0ACFB0121080300F091FF43
:103140000020ADF808004FF48270ADF80A000020AE
:10315000ADF80C000220ADF80E000120ADF8100013
:103160004002ADF812000020ADF81400ADF81600D2
:103170000720ADF8180002A9054801F00DF901215A
:10318000034801F0ADF907B000BD000000080140A0
:103190000030014010B500F09CF908B1012010BDCD
:1031A0000248034948600020F9E70000A335000801
:1031B0003800002010B5012001F077FC10BD08B5E3
:1031C00001210C2000F04DFF4FF40070ADF800001D
:1031D00010208DF8030003208DF8020069468C480A
:1031E00000F056FB2020ADF800006946894800F049
:1031F0004FFB0120884908608849C1F8A40108BD37
:1032000010B58348001D006820F0F0008049091DBA
:1032100008600846006840F03000086001208049DE
:1032200008608049C1F89401FFF7C4FF00207C4981
:103230000860FFF7BFFF00207A49C1F8940110BD74
:1032400010B57348001D006820F0F0007049091D9A
:1032500008600846006840F03000086000206E49B1
:1032600008606E49C1F8A401FFF7A4FF01206A4974
:103270000860FFF79FFF01206849C1F8A40110BD55
:1032800010B500246248001D006820F0F00060497D
:10329000091D08600846006840F0800008600120B1
:1032A0005F49086001F001FC01205E49C1F894010A
:1032B00001F0FBFB07E0601CC4B2FA2C03DDFFF752
:1032C000BFFF012010BD5648803800680028F2D1A9
:1032D0005149086000BFF5E710B500204E4908606D
:1032E0004B48001D006820F0F0004949091D0860A6
:1032F0000846006840F03000086000204749C1F8E7
:10330000A401FFF757FF012043490860FFF752FF70
:1033100000204449C1F8940110BD10B500203E4979
:1033200008603B48001D006820F0F0003849091D86
:1033300008600846006840F0300008600120374906
:10334000C1F8A401FFF736FF012033490860FFF7F9
:1033500031FF00203349C1F8940110BD70B5044617
:103360002B48001D006820F0F0002949091D086065
:103370000846006840F030000860002026490860D8
:10338000002511E0E009264908606006040E0120CE
:103390002449C1F89401FFF70DFF00201E49086081
:1033A000FFF708FF681CC5B2082DEBDB70BD70B5D8
:1033B000054600241648001D006820F0F00014495E
:1033C000091D08600846006840F08000086000267B
:1033D00013E0002010490860032001F066FB012083
:1033E0001049C1F894016006040E0D488038006849
:1033F00008B1601CC4B2701CC6B2082EE9DB15B956
:10340000FFF78BFF01E0FFF767FF204670BD00006C
:1034100000080140000C014094812142000021423B
:10342000A4012142008021422DE9F04105460E46CB
:1034300017464FF00008FFF7E3FE7020FFF78EFFFE
:10344000FFF71EFFE8B2FFF789FFFFF719FF00241F
:103450000BE0305DFFF782FFFFF712FF8046B8F107
:10346000000F00D003E0601CC4B2BC42F1DB00BF1F
:10347000FFF7E6FE4046BDE8F0812DE9F041064643
:103480000F461546FFF7BCFE7020FFF767FFFFF7FA
:10349000F7FEF0B2FFF762FFFFF7F2FEFFF7B0FEB4
:1034A0007120FFF75BFFFFF7EBFE00240BE0691EC6
:1034B000A14201D0012100E000210846FFF777FF7B
:1034C0003855601CC4B2AC42F1DBFFF7B9FEBDE871
:1034D000F0811CB50121042000F0C3FD4FF4806091
:1034E000ADF8000010208DF8030003208DF80200D5
:1034F0006946A54800F0CCF94FF48061A24800F07D
:1035000098FA4FF48070ADF8000048208DF8030061
:1035100069469D4800F0BCF94FF480719A4800F06C
:1035200088FAFFF74CFE0020984908600A2001F055
:10353000E0FA01209649C1F8A8014FF4FA7001F0B1
:10354000D8FA012201A9A820FFF797FF9DF80400EF
:10355000112801D001201CBD022201A99F20FFF7E4
:103560008CFF9DF80400262801D00120F3E79DF888
:10357000050048B19DF80500012805D09DF805001B
:10358000022801D00120E6E7012201A9A320FFF7CC
:1035900074FF9DF80400642801D00120DBE70020BF
:1035A000D9E77CB5002400267A480078401C794988
:1035B0000870084600780A2190FBF1F201FB120026
:1035C00018B1744800780A287EDA01226946022080
:1035D000FFF753FF9DF80000002875D09DF800000C
:1035E0000328F1DA9DF80010FF208840C5B2E843B7
:1035F000C0B240F0C00068490874002492E06749F6
:1036000031F81400042201A9FFF737FF6248007C5B
:103610000121A140084000287DD06148807930B167
:1036200001281DD0022838D0032878D158E09DF811
:1036300005009DF8041001F00F0100EB0120564930
:10364000083121F814009DF807009DF8061001F0DC
:103650000F0100EB012150480C3020F814105EE0FF
:103660009DF805009DF8041001F00F0100EB01200A
:103670004B494988081A81B247480C3020F8141089
:103680009DF807009DF8061001F00F0100EB0120E6
:103690004149083121F8140041E09DF805009DF8EA
:1036A000041001F00F0100EB01203D490988081AC0
:1036B00081B23948083020F814109DF807009DF8B1
:1036C000061001F00F0100E03BE000EB012034495F
:1036D0004988081A81B230480C3020F814101EE0D6
:1036E0009DF805009DF8041001F00F0100EB01208A
:1036F00029490C3121F814009DF807009DF80610A7
:1037000001F00F0100EB012025490988081A81B258
:103710002148083000E003E020F8141000BF00BF8B
:10372000601CC4B2022CFFF66AAF01261A48008959
:1037300020B91948808908B9002000900020154957
:1037400008709DF80000A8B91348007C00F08000C4
:1037500030B11148007C20F080000F49087409E066
:103760004FF6FF700C49088188810846007C00F004
:10377000E000087407480078F02802DD0A200549B7
:10378000087030467CBD000000080140A8012142BD
:10379000000021424C00002038000020D4750008B1
:1037A0006C0000200E494FF44070A1F8B0010D48A4
:1037B000C16811F0010FFBD10B4880470B4800474F
:1037C000FEE7FEE7FEE7FEE7FEE7FEE7FEE7FEE7D1
:1037D000FEE7FEE706480749074A084B7047000026
:1037E00000F0FF1F002002405F290008FD000008D4
:1037F000C0010020C0070020C0030020C00300203B
:1038000010B50446F948844208D10121042000F093
:1038100042FC0021042000F03EFC2EE0F4488442EB
:1038200008D10121082000F036FC0021082000F01A
:1038300032FC22E0EF48844208D10121102000F040
:103840002AFC0021102000F026FC16E0EA48844201
:1038500008D10121202000F01EFC0021202000F0D2
:103860001AFC0AE0E548844207D10121402000F01B
:1038700012FC0021402000F00EFC10BD10B501210B
:10388000084600F008FC0021012000F004FC10BDF7
:103890002DE9F041024600250026002000230024E7
:1038A000002791F803C00CF00F0591F803C00CF04D
:1038B000100CBCF1000F03D091F802C04CEA0505D2
:1038C000DFF830C3624505D1B1F800C04FEA6C3C67
:1038D000A1F800C091F800C0BCF1000F31D014680D
:1038E00000202BE04FF0010C0CFA00F3B1F800C0FF
:1038F0000CEA03069E4220D183004FF00F0C0CFA15
:1039000003F7BC4305FA03FC4CEA040491F803C036
:10391000BCF1280F06D14FF0010C0CFA00FCC2F8E4
:1039200014C00AE091F803C0BCF1480F05D14FF074
:10393000010C0CFA00FCC2F810C0401C0828D1D3BE
:103940001460B1F800C0BCF1FF0F34DD54680020F2
:103950002EE000F1080C4FF0010808FA0CF3B1F862
:1039600000C00CEA03069E4221D183004FF00F0CE9
:103970000CFA03F7BC4305FA03FC4CEA040491F883
:1039800003C0BCF1280F05D100F1080C08FA0CF8AF
:10399000C2F8148091F803C0BCF1480F07D100F1C0
:1039A000080C4FF0010808FA0CF8C2F81080401C0F
:1039B0000828CED35460BDE8F0814FF6FF71018036
:1039C000022181700421C170704702460020894B9A
:1039D0009A4200D1491393680B400BB1012000E0DB
:1039E000002070470146834A914205D18A684FF60C
:1039F000FF7303EA423001E08A6890B270470246E2
:103A000000207C4B9A4200D14913D3680B400BB184
:103A1000012000E0002070470146764A914205D11E
:103A2000CA684FF6FF7303EA423001E0CA6890B2F9
:103A30007047704A904200D14913016170476D4A46
:103A4000904200D14913416170476A4B984200D1BE
:103A500049130AB1016100E041617047654A904233
:103A600000D14913C16070474FF48032614B9842D6
:103A700000D149130A43826181618261826982694E
:103A80007047024600205E4B18684FF6807318405E
:103A900040EA021008435A4B1860704730B1584949
:103AA000096841F08001564A116005E054490968EF
:103AB00021F08001524A11607047F0B50D46002296
:103AC00000230021002400F00046B6F1004F02D18F
:103AD0004B4EF16905E04A4E71684E0861F30C06E1
:103AE0003146C0F3034482B200F00046B6F1004F05
:103AF0001BD100F44016B6F5401F06D104F11006A4
:103B0000032707FA06F3994330E000F48016B6F570
:103B1000801F04D1032606FA04F3994326E0460DDC
:103B2000360102FA06F6B14320E000F44016B6F57D
:103B3000401F08D121F07061314E766826F0706622
:103B40002F4F7E6012E000F48016B6F5801F06D17C
:103B5000032606FA04F3994341F0706106E0460D2E
:103B6000360102FA06F6B14341F0706125B1460D07
:103B7000360102FA06F6314300F00046B6F1004F76
:103B800002D11F4EF16101E01D4E7160F0BD30B5F4
:103B90000022022802D1A1F10D03D9B28B071C0F1C
:103BA0000F2303FA04F2164B08338C1053F8243019
:103BB0009343134C08348D1044F8253023468C1061
:103BC00053F824408B071B0F00FA03F31C430C4BE4
:103BD00008338D1043F8254030BD98B10849496835
:103BE00041F40001064A516012E000000008014063
:103BF000000C014000100140001401400018014079
:103C0000000001400349496821F40001014A516064
:103C1000704700000000014031490143314A116002
:103C2000704770B5002100230F22C47804B32D4CD7
:103C3000246804F4E064C4F5E064210AC1F10403DB
:103C4000CA40447804FA03F18478144021430901FE
:103C5000254C0678A155047804F01F050124AC40DA
:103C600005786D11AD0005F1E025C5F8004109E0CA
:103C7000047804F01F050124AC401C4D0678761131
:103C800045F8264070BD1A4A0A400243154B1B1FD7
:103C90001A60704739B1134A121D12680243114B62
:103CA0001B1D1A6006E00F4A121D126882430D4B5D
:103CB0001B1D1A607047042808D14FF0E0210969E4
:103CC00041F004014FF0E022116107E04FF0E021E4
:103CD000096921F004014FF0E022116170470000F2
:103CE0000000FA050CED00E000E400E080E100E0F7
:103CF00080FFFF1FF948006840F00100F7490860A5
:103D000008464068F6490840F4494860084600689B
:103D1000F4490840F14908600846006820F4802012
:103D200008600846406820F4FE0048604FF41F0019
:103D300088607047E949096821F48031E74A1160D9
:103D40001146096821F480211160B0F5803F03D04D
:103D5000B0F5802F0ED106E0E049096841F48031CA
:103D6000DE4A116007E0DD49096841F4A021DB4A21
:103D7000116000E000BF00BF704710B5014600228F
:103D8000002300204A11012A02D1D44C236806E006
:103D9000022A02D1D14C236A01E0D04C636A01F0BF
:103DA0001F02012494401C400CB1012000E00020BF
:103DB00010BD38B5002000900024002500BF312040
:103DC000FFF7DBFF05460098401C00900098B0F517
:103DD000805F01D0002DF2D03120FFF7CEFF08B177
:103DE000012400E00024204638BD01460020BB4AE3
:103DF000106820F0F80040EAC1001060704730B150
:103E0000B649096841F00101B44A116005E0B349BF
:103E1000096821F00101B14A116070470246002093
:103E2000AE4B586820F47C1042EA01031843AB4BB8
:103E30005860704730B1A949096841F08071A74ABC
:103E4000116005E0A549096821F08071A34A11605D
:103E5000704701460020A14A506820F00300084343
:103E6000506070479D48406800F00C007047014664
:103E700000209A4A506820F0F000084350607047D4
:103E800001460020954A506820F4E06008435060E5
:103E9000704701460020914A506820F4605040EA83
:103EA000C1005060704729B18C4A527A02438B4B53
:103EB0005A7204E0894A527A8243884B5A72704798
:103EC0008649496821F44001844A51601146496895
:103ED00041EA805151607047014600207F4A506896
:103EE00020F4404008435060704700217B4A203254
:103EF00011707A4A82F82010012802D004280AD1D1
:103F000004E00121754A2032117005E00521734A51
:103F10002032117000E000BF00BF704730B16F4920
:103F2000496A41F001016D4A516205E06B49496AF5
:103F300021F00101694A516270476849096A0143E9
:103F4000664A1162704730B16449096A41F4004120
:103F5000624A116205E06149096A21F400415F4A41
:103F60001162704770B50021002200240023002553
:103F70005A4E766806F00C0121B1042905D00829B3
:103F800034D105E0584E066033E0574E066030E00D
:103F9000524E766806F47012504E766806F48034FD
:103FA000022606EB9242112A00D1122264B94F4E2A
:103FB000366806F010061EB14B4E564306600FE001
:103FC0004B4E564306600BE0444E766806F40036CE
:103FD0001EB1474E5643066002E0434E564306600C
:103FE000012D02D106687608066002E03E4E0660AA
:103FF00000BF00BF394E766806F0F00109093D4E5A
:10400000735C0668DE404660344E766806F4E06114
:10401000090A384E735C4668DE4086602F4E76682B
:1040200006F46051C90A334E735C4668DE40C660D0
:104030002A4E766806F44041890B2F4E735CC668A1
:10404000B6FBF3F6066170BD29B1244A52690243FA
:10405000224B5A6104E0214A526982431F4B5A6144
:10406000704729B11D4A926902431C4B9A6104E0D2
:104070001A4A92698243194B9A61704729B1174ACB
:10408000D2690243154BDA6104E0144AD2698243D3
:10409000124BDA61704729B1104AD26802430F4BC4
:1040A000DA6004E00D4AD26882430C4BDA60704754
:1040B00029B10A4A12690243084B1A6104E0074A0F
:1040C00012698243054B1A617047B8B10349096A06
:1040D00041F48031014A116216E0000000100240F4
:1040E0000000FFF0FFFFF6FE00127A0000380240E9
:1040F00000093D004D0000205D0000209149096A43
:1041000021F480318F4A1162704730B18D490968BE
:1041100041F400218B4A116005E08A49096821F4C5
:104120000021884A116070478649C87170478548E8
:10413000406A40F080708349486270470146002021
:10414000804A92680A400AB1012000E000207047CE
:104150007C4988727047024600207A4BD86A7A4BB5
:10416000184042EA01031843764BD8627047014673
:104170000020744AD06A20F0F0000843D0627047F3
:10418000014600206F4AD06A20F470600843D06274
:10419000704730B16B49096841F08061694A11602C
:1041A00005E06849096821F08061664A116070473E
:1041B00001460020634AD06A20F470400843D06270
:1041C000704730B15F49096841F080515D4A116024
:1041D00005E05C49096821F080515A4A1160704736
:1041E0005849496821F44001564A516011464968CE
:1041F00041EA8051516070475249C96A21F4003147
:10420000504AD1621146C96A41EA4041D1627047C1
:104210004C49C96A21F480214A4AD1621146C96ACF
:1042200041EA8041D162704729B1464A926A02430D
:10423000444B9A6204E0434A926A8243414B9A6239
:10424000704730B13F49496841F000413D4A5160F3
:1042500005E03C49496821F000413A4A5160704705
:104260003849C96A21F40021364AD1621146C96A27
:1042700041EAC041D16270473249C96A21F4401114
:10428000304AD1621146C96A41EA0051D162704791
:1042900030B12C49C96A41F480012A4AD16205E053
:1042A0002849C96A21F48001264AD162704725490C
:1042B000C96A21F0E061234AD1621146C96A41EA24
:1042C0000061D16270471F49C96A21F000611D4A2F
:1042D000D1621146C96A41EAC061D1627047194989
:1042E000C96A21F04051174AD1621146C96A41EAB0
:1042F0000071D162704730B11249C96A41F0804102
:10430000104AD16205E00F49C96A21F080410D4A87
:10431000D16270470B49C96A21F00041094AD16254
:104320001146C96A41EAC071D162704705494968BE
:1043300021F08051034A51601146496841EA0071F9
:104340005160704700100240F0FFFEFF10B50446B8
:10435000BD48844208D101218014FFF79CFE002152
:10436000A014FFF798FE16E0B848844208D1012156
:104370000014FFF79DFE00212014FFF799FE0AE0CC
:10438000B348844207D10121C013FFF791FE0021F9
:10439000E013FFF78DFE10BD10B50022028802F475
:1043A00041520B884C8823438C882343CC88234379
:1043B0000C8923434C8923438C892343CC89234391
:1043C0001A430280838B4FF2FF74234083830B8A4E
:1043D000038210BD2DE9F04F85B005460C464FF025
:1043E000000902274FF000084FF0010B0026B246EB
:1043F000A88B4FF240010840A88302202884B5F81A
:104400001C90A068022801D100BF38E0A08810B934
:104410004FF0010B01E04FF0020B8C48854200D1B8
:1044200000E000BF6846FFF79DFDDDF800A0E088D2
:10443000B0F5007F0AD14FEA1A2000EB800040005F
:10444000A168B0FBF1F0401D86B20BE04FEA4B10C3
:10445000BAFBF0F000EB80004000A168B0FBF1F087
:10446000401D86B20A20B6FBF0F606F00108A6EB66
:104470000800C0F34F074FF6FF7000EA0828022F2C
:1044800001DBFF2F02DD02274FF00008E08840EA41
:10449000080038432884A088A1890843618808431C
:1044A0002188084340F4006040EA0909A5F81C90FF
:1044B00005B0BDE8F08F0021018041808180C1807E
:1044C00001818181C1810721018270470021018022
:1044D00041808180C18002218160002181817047FB
:1044E00021B1028842F04002028004E002884FF6C7
:1044F000BF731A400280704721B1828B42F4806200
:10450000828304E0828B4FF6FF331A408283704728
:1045100030B5002400230C110125A540ABB21AB11F
:1045200085881D43858002E085889D43858030BD58
:104530001AB183880B43838002E083888B43838096
:104540007047818170470146888970474FF6FF6246
:10455000914204D0028842F48072028004E0028812
:104560004FF6FF631A400280704721B1828842F003
:104570000402828004E082884FF6FB731A40828036
:10458000704702884FF2FF731A40028002880A4384
:1045900002807047018841F480510180704721B149
:1045A000028842F40052028004E002884DF6FF7354
:1045B0001A400280704702460020012901D0108B6A
:1045C00000E0908A70470146088A7047B1F5804F35
:1045D00004D1028842F48042028004E002884BF653
:1045E000FF731A40028070470246002013890B4077
:1045F0000BB1012000E000207047CA4302817047E0
:10460000F0B50246002000240023002501F00F072A
:104610000126BE40B4B20B1101269E40B3B296886B
:1046200006EA03051689264016B10DB1012000E007
:104630000020F0BD10B5002201F00F040123A340BB
:104640009AB2D343038110BD0030014000380040CE
:10465000003C004010B50446F948844209D10121CC
:104660008803FFF718FD00214FF48040FFF713FD8A
:1046700056E0F448844209D101214804FFF718FDAF
:1046800000214FF40030FFF713FD49E0EE4884426B
:1046900009D101218804FFF70BFD00214FF4802090
:1046A000FFF706FD3CE0E948844209D10121C80436
:1046B000FFF7FEFC00214FF40020FFF7F9FC2FE08C
:1046C000E348844209D101210805FFF7F1FC0021EC
:1046D0004FF48010FFF7ECFC22E0DE48844208D162
:1046E00001214020FFF7E4FC00214020FFF7E0FC1F
:1046F00016E0D948844208D101218020FFF7D8FC78
:1047000000218020FFF7D4FC0AE0D448844207D17E
:1047100001218015FFF7CCFC0021A015FFF7C8FC94
:1047200010BD2DE9F04786B005460E460024A2468E
:1047300000BFA14600272F462C8A4CF6FF7004408C
:10474000F08804432C82AC894EF6F3100440B08804
:1047500031890843718908430443AC81AC8A4FF620
:10476000FF400440B0890443AC8201A8FFF7FAFB84
:10477000B348874202D1DDF810A001E0DDF80CA0BB
:10478000A88900F4004040B10AEBCA0000EB0A100F
:1047900031684900B0FBF1F807E00AEBCA0000EB12
:1047A0000A1031688900B0FBF1F86420B8FBF0F022
:1047B00004012009642101FB1089A88900F400404C
:1047C00040B1322000EBC900B0FBF1F000F007006F
:1047D000044308E0322000EB09106421B0FBF1F043
:1047E00000F00F0004432C8106B0BDE8F0874FF4C1
:1047F0001651016000218180C18001810C2141811D
:1048000000218181704710B502460020108A4FF2C6
:10481000FF0318400B884C8823438C882343CC88A3
:1048200023431843108210BD002101804180818004
:10483000C180704721B1828942F40052828104E034
:1048400082894DF6FF731A4082817047F0B50346A6
:1048500000240026002500201846C1F3421401F070
:104860001F06012707FA06F5012C01D10C3004E0E0
:10487000022C01D1103000E014301AB107682F4328
:10488000076002E00768AF430760F0BD1AB1838A92
:104890000B43838202E0838A8B4383827047028AC0
:1048A0004FF6F0731A400282028A0A43028270476E
:1048B00082894FF2FF731A40828182890A43828182
:1048C000704721B1828942F00202828104E082892C
:1048D0004FF6FD731A4082817047028A4FF6DF73EC
:1048E0001A400282028A0A430282704721B1028A78
:1048F00042F48042028204E0028A4BF6FF731A40BF
:1049000002827047C1F3080282807047014688889E
:10491000C0F308007047818941F00101818170472F
:10492000028BD2B20283028B42EA012202837047D9
:10493000028B02F47F420283028B0A430283704798
:1049400021B1828A42F02002828204E0828A4FF6FC
:10495000DF731A408282704721B1828A42F01002CE
:10496000828204E0828A4FF6EF731A408282704797
:1049700021B1828A42F00802828204E0828A4FF6E4
:10498000F7731A408282704721B1828942F4004253
:10499000828103E08289C2F30E028281704721B1D5
:1049A000828A42F40062828204E0828A4FF2FF73BC
:1049B0001A4082827047828A4FF6FB731A408282C5
:1049C000828A0A438282704721B1828A42F00202BF
:1049D000828204E0828A4FF6FD731A408282704719
:1049E0000246002013880B400BB1012000E000209C
:1049F0007047CA430280704770B502460B460024D8
:104A0000002100250020C3F3421503F01F010126F9
:104A100006FA01F1012D02D19689314006E0022DFE
:104A200002D1168A314001E0968A31401C120126DB
:104A300006FA04F41688344091B18CB1012010E0DC
:104A4000003801400044004000480040004C004055
:104A50000050004000180040001C004000200040B2
:104A6000002070BD10B5002200230A1201249440DA
:104A7000A3B2DC43048010BD10B56FF00400FFF753
:104A80001AF94C4800684C49B0FBF1F04B490870EA
:104A90000846007800EB4001C1EBC0104FF6FF71F3
:104AA00001EAC0004649088010BD0146434A127819
:104AB0004A434FF0E0235A6100229A611A46126974
:104AC00042F001021A6100BF4FF0E022106900F0CD
:104AD00001021AB100F48032002AF5D04FF0E02232
:104AE000126922F001024FF0E0231A6100229A615C
:104AF00070470146324A12884A434FF0E0235A6118
:104B000000229A611A46126942F001021A6100BF3E
:104B10004FF0E022106900F001021AB100F4803277
:104B2000002AF5D04FF0E022126922F001024FF086
:104B3000E0231A6100229A61704770B504460D4661
:104B400000BF40211F48FFF74BFF0028F9D0E1B21A
:104B50001C48FFF7D7FE204670BD10B586B004464E
:104B6000012144F20400FFF77CFA4FF40070ADF825
:104B7000140003208DF8160018208DF8170005A9E1
:104B80001148FEF785FE01940020ADF80800ADF84D
:104B90000A00ADF80C00ADF810000820ADF80E00CA
:104BA00001A90848FFF7BDFD01210648FFF742FEB5
:104BB00006B010BD1C00002000127A006800002022
:104BC0006A00002000380140000801400FB41CB505
:104BD000074B06AA7B4469460090059800F00BFA43
:104BE0000020694600F01AFA1CBC5DF814FB0000B6
:104BF0004504000070B5044685690068C10601D50A
:104C0000302600E02026C00707D070BDD4E901217E
:104C100030469047206A401C20626D1EF6D570BD5C
:104C200070B5044685690078C00707D170BDD4E926
:104C3000012120209047206A401C20626D1EF6D57D
:104C400070BD70B50C460546012A05D0287880064F
:104C500000D5EA69002302E0012305E05B1C9342D2
:104C600002D2E05C0028F9D1A869E618C01AA86150
:104C7000286A184428622846FFF7BCFF04E0D5E9FB
:104C8000012114F8010B9047B442F8D32846FFF7EE
:104C9000C7FF70BD70B504460D4621461068AFF3DE
:104CA00000802188090502D50F4A7A4402E00E4AA5
:104CB0007A440E32002104F1240305E000F00F06CF
:104CC0000009965D5E54491C0028F7D12078002326
:104CD000000704D5702D02D009B1022311322046FD
:104CE000BDE8704000F029B92A2900002DE9F05FE5
:104CF000894604464FF0000ADFF824B1FB44C0F8AF
:104D000020A02046E168884700287DD0252806D0CD
:104D1000D4E901219047206A401C2062F1E7002578
:104D20005F462046E16888472028064607DB312E8B
:104D300005D2B81910F8200C08B10543F1E7A8070F
:104D400001D525F00405C4F81CA00027C4F818A05C
:104D50002A2E09D0304600F0B7F938B304EB8708A3
:104D6000303EC8F8186019E059F8041B204604EBDF
:104D700087029161E1688847012F064618D1E069F2
:104D8000002820DA25F020051DE0D8F8180000EBF7
:104D9000800006EB40003038C8F818002046E16873
:104DA0008847064600F090F90028EED1012F0AD07E
:104DB0002E2E08D12046E16888477F1C0646022F28
:104DC00045F02005C4DBA069002803DA404245F025
:104DD0000105A061E80701D025F01005A6B1A6F1F4
:104DE0004100192802D8203645F400654A4631466C
:104DF000204625604D46FBF7BBF960B1012807D07E
:104E0000ED1D25F0070000E007E000F1080978E754
:104E100005F1040975E730467AE7206ABDE8F09F9E
:104E2000002900000B4910B5A1F17C020A4CC2E92F
:104E30003712372106E000EB104342F82130074BD0
:104E400000FB03400B1EA1F10101F4DC10BD0120A9
:104E5000E8E70000F8000020E119D666CD0D01005A
:104E600040EA0103024630B59B0710D14FF00134F0
:104E700000E008C208C91D1B9D4315EAC41FF8D0F5
:104E800013F0FF0102F8011B0DD01B0AF8E711F81F
:104E9000013B002B02F8013B05D011F8013B002B30
:104EA00002F8013BF3D130BD10B5431C02E010F80D
:104EB000011B71B18107FAD14FF0013202C88C1A7F
:104EC0008C4314EAC211F9D0C01A0A0603D0C01EDE
:104ED00010BDC01A10BD0A0401D0801E10BD090209
:104EE000FCD0401E10BD4FF0000200B513469446A2
:104EF0009646203922BFA0E80C50A0E80C50B1F132
:104F00002001BFF4F7AF090728BFA0E80C5048BF45
:104F10000CC05DF804EB890028BF40F8042B08BFE3
:104F2000704748BF20F8022B11F0804F18BF00F8DF
:104F3000012B70477047704770472DE9F0470D46C9
:104F400099469246044600F124080168880604D573
:104F5000E06921F01001216000E00120A84201DD9C
:104F6000471B00E00027A1697A1902EB0900081A23
:104F7000A0612078C00602D42046FFF73BFE002641
:104F800008E0D4E901211AF806009047206A401C85
:104F9000761C20624E45F4DB2078C0060AD52046F8
:104FA000FFF728FE06E0D4E9012130209047206A6F
:104FB000401C2062381EA7F10107F4DC07E0D4E9A9
:104FC000012118F805009047206A401C2062281E25
:104FD000A5F10105F3DC2046FFF722FE207800064C
:104FE00002D50220BDE8F0870120FBE701694A1CD9
:104FF00002610878704700B58FB0CDE9013100211A
:10500000059105497944CDE9031011466846FFF73B
:105010006DFE0FB000BD0000E5FFFFFF0A6802F85B
:10502000010B0A60704710B5436913B1AFF30080FC
:1050300001E0FFF706FE012010BD127800F1240107
:105040000A7000224A700122EDE711684FF0FF322A
:10505000E9E7754600F02CF8AE4605006946534670
:1050600020F00700854618B020B5FEF7B3FBBDE879
:1050700020404FF000064FF000074FF000084FF0BF
:10508000000B21F00701AC46ACE8C009ACE8C00950
:10509000ACE8C009ACE8C0098D46704710B50446BD
:1050A000AFF300802046BDE81040FBF778B8000061
:1050B0000048704760010020704700000149182037
:1050C000ABBEFEE72600020030380A2801D20120DC
:1050D0007047002070470000000000000000000042
:1050E0000000000004040404040400040000001490
:1050F0000A0A0000000000000000000014143F1421
:105100000A3F0A0A000000041E1505060C14150FBC
:105110000400000012150D0A142C2A1200000000D1
:10512000040A0A1E151509360000000202010000DB
:1051300000000000000000201008080808080810FF
:105140002000000204080808080808040200000003
:105150000004150E0E150400000000000404041FD6
:105160000404040000000000000000000000000231
:10517000020100000000001F00000000000000000D
:1051800000000000000000020000001008080804F1
:1051900004020202010000000E1111111111110E82
:1051A00000000000040604040404040E00000000D3
:1051B0000E1111080402011F000000000E11100C56
:1051C0001010110E00000000080C0A0A091E081831
:1051D000000000001F01010F1010110E0000000060
:1051E0000E09010F1111110E000000001F09080423
:1051F00004040404000000000E11110E1111110E20
:10520000000000000E1111111E10120E000000000F
:105210000000040000000004000000000000000482
:1052200000000004040000201008040204081020FC
:105230000000000000001F00001F0000000000022E
:105240000408102010080402000000000E111108CC
:1052500004040004000000000E111915151D011EA4
:105260000000000004040C0A0A1E123300000000B3
:105270000F12120E1212120F000000001E11010177
:105280000101110E000000000F1212121212120F73
:10529000000000001F120A0E0A02121F0000000088
:1052A0001F120A0E0A020207000000001C12010170
:1052B0003911120C000000003312121E12121233A8
:1052C000000000001F0404040404041F0000000088
:1052D0003E080808080808090700000037120A06F7
:1052E0000A0A123700000000070202020202223FEF
:1052F000000000001B1B1B1B1515151500000000EE
:105300003B1216161A1A1217000000000E11111186
:105310001111110E000000000F12120E02020207FE
:10532000000000000E1111111117190E18000000D5
:105330000F12120E0A121237000000001E11010691
:105340000810110F000000001F1504040404040ECF
:1053500000000000331212121212120C00000000A2
:105360003312120A0A0C0404000000001515150E71
:105370000A0A0A0A000000001B0A0A04040A0A1B9F
:10538000000000001B0A0A040404040E00000000D0
:105390001F0908040402121F0000001C0404040476
:1053A000040404041C00000202020404080808109B
:1053B0000000000E08080808080808080E0000048D
:1053C0000A000000000000000000000000000000D3
:1053D00000000000003F000400000000000000008A
:1053E000000000000000000C121C123C0000000035
:1053F0000302020E1212120E000000000000001C38
:105400001202021C000000001810101C1212123CA4
:10541000000000000000000C121E021C0000000032
:105420003804041E0404041E000000000000003CB8
:10543000120C021E221C00000302020E121212376E
:1054400000000000040000060404040E0000000038
:105450000800000C08080808080700000302023AC8
:105460000A0E123700000000070404040404041F9D
:10547000000000000000000F1515151500000000C9
:105480000000000F12121237000000000000000C94
:105490001212120C000000000000000F1212120E77
:1054A000020700000000001C1212121C103800003D
:1054B0000000001B06020207000000000000001EA2
:1054C000020C101E000000000004040E0404041866
:1054D000000000000000001B1212123C000000003F
:1054E00000000037120A0C04000000000000001544
:1054F000150E0A0A000000000000001B0A040A1B27
:105500000000000000000037120A0C040403000031
:105510000000001E0804041E00000018080808040B
:1055200008080808180008080808080808080808F3
:105530000808000604040408040404040600022504
:105540001800000000000000000000000000000043
:105550000000000000000000000000000008080833
:105560000808080800001818000000486C24120001
:1055700000000000000000000000000000242424BF
:105580007F1212127F12121200000000081C2A2A39
:105590000A0C1828282A2A1C0808000000222515B1
:1055A00015152A585454542200000000000C121201
:1055B000120A76252911916E0000000606040300E8
:1055C0000000000000000000000000402010100853
:1055D00008080808081010204000000204080810FD
:1055E0001010101010080804020000000000080845
:1055F0006B1C1C6B0808000000000000000008087D
:1056000008087F08080808000000000000000000EB
:105610000000000000000606040300000000000077
:105620000000FE000000000000000000000000007C
:10563000000000000000060600000000804040203E
:105640002010100808040402020000000018244280
:1056500042424242424224180000000000080E0864
:10566000080808080808083E00000000003C424204
:10567000422020100804427E00000000003C42420C
:10568000201820404042221C00000000002030284A
:10569000242422227E20207800000000007E0202C6
:1056A000021A26404042221C00000000003824025A
:1056B000021A26424242241800000000007E2222E4
:1056C000101008080808080800000000003C4242CA
:1056D000422418244242423C0000000000182442A8
:1056E000424264584040241C0000000000000000BA
:1056F000181800000000181800000000000000004A
:10570000000800000000000808040000004020100D
:1057100008040204081020400000000000000000FF
:105720007F0000007F00000000000000000204086D
:10573000102040201008040200000000003C4242FB
:10574000464020101000181800000000001C225ACB
:10575000555555552D42221C000000000008081820
:105760001414243C224242E700000000001F2222C1
:10577000221E22424242221F00000000007C4242C0
:10578000010101010142221C00000000001F224211
:10579000424242424242221F00000000003F4212A9
:1057A000121E12120242423F00000000003F42124D
:1057B000121E12120202020700000000003C222208
:1057C000010101712122221C0000000000E7424279
:1057D00042427E42424242E700000000003E08088A
:1057E000080808080808083E00000000007C1010A7
:1057F0001010101010101010110F0000007722125E
:105800000A0E0A121222227700000000000702028C
:10581000020202020202427F0000000000773636D8
:1058200036362A2A2A2A2A6B0000000000E3464660
:105830004A4A52525262624700000000001C224154
:10584000414141414141221C00000000003F4242D1
:1058500042423E020202020700000000001C2241F8
:10586000414141414D53321C60000000003F424223
:10587000423E1212222242C700000000007C424237
:10588000020418204042423E00000000007F490808
:10589000080808080808081C0000000000E7424249
:1058A000424242424242423C0000000000E7424283
:1058B000222424141418080800000000006B494931
:1058C00049495555362222220000000000E74224B3
:1058D00024181818242442E7000000000077222230
:1058E000141408080808081C00000000007E21208D
:1058F000101008040442423F00000078080808081D
:1059000008080808080808087800000002020404D3
:1059100008080810102020204040001E1010101011
:1059200010101010101010101E000038440000005D
:105930000000000000000000000000000000000067
:10594000000000000000000000FF0006080000004A
:105950000000000000000000000000000000000047
:10596000003C4278444242FC000000000003020276
:10597000021A26424242261A0000000000000000DF
:105980000038440202024438000000000060404039
:1059900040784442424264D8000000000000000009
:1059A000003C427E0202423C0000000000F08808F9
:1059B000087E08080808083E0000000000000000FB
:1059C000007C22221C023C42423C000000030202F6
:1059D000023A4642424242E700000000000C0C003E
:1059E000000E08080808083E0000000000303000E3
:1059F0000038202020202020221E00000003020268
:105A00000272120A1612227700000000000E080827
:105A1000080808080808083E000000000000000010
:105A2000007F9292929292B7000000000000000066
:105A3000003B4642424242E70000000000000000F6
:105A4000003C42424242423C000000000000000094
:105A5000001B26424242221E0207000000000000F6
:105A6000007844424242447840E0000000000000D8
:105A700000774C040404041F000000000000000034
:105A8000007C42023C40423E000000000000000852
:105A9000083E080808080830000000000000000068
:105AA00000634242424262DC00000000000000004D
:105AB00000E7422424140808000000000000000051
:105AC00000EB49495555222200000000000000006B
:105AD000007624181818246E000000000000000052
