:020000040800F2
:1000000098070220E1020008E52C000809220008F8
:10001000ED02000889070008A53D00080000000067
:10002000000000000000000000000000F52E0008A5
:10003000450C000800000000E72C0008AD30000867
:10004000FB020008FB020008FB020008FB0200089C
:10005000FB020008FB020008FB020008FB0200088C
:10006000FB020008FB020008FB020008FB0200087C
:10007000FB020008FB020008FB020008FB0200086C
:10008000FB020008FB020008FB020008FB0200085C
:10009000FB020008FB020008FB020008FB0200084C
:1000A000FB020008FB020008FB020008FB0200083C
:1000B000FB020008FB020008FB020008FB0200082C
:1000C000FB020008FB020008FB020008FB0200081C
:1000D000FB020008FB020008FB020008FB0200080C
:1000E000FB020008FB020008FB020008FB020008FC
:1000F000FB020008FB020008FB020008FB020008EC
:10010000FB020008FB020008FB020008FB020008DB
:10011000FB020008FB020008FB020008FB020008CB
:10012000FB020008FB020008FB020008FB020008BB
:10013000FB020008FB020008FB020008FB020008AB
:10014000FB020008FB020008FB020008FB0200089B
:10015000FB020008FB020008FB020008FB0200088B
:10016000FB020008FB020008FB020008FB0200087B
:10017000FB020008FB020008FB0200080000000070
:10018000FB020008FB020008FB020008FB0200085B
:10019000FB020008FB020008FB020008FB0200084B
:1001A000FB020008FB020008FB020008FB0200083B
:1001B000FB020008FB020008FB020008FB0200082B
:1001C000FB020008FB02000800000000FB02000820
:1001D000FB020008FB020008FB020008FB0200080B
:1001E000FB020008FB020008FB020008FB020008FB
:1001F000FB020008FB02000800F002F800F046F8DD
:100200000AA090E8000C82448344AAF10107DA4571
:1002100001D100F03BF8AFF2090EBAE80F0013F07D
:10022000010F18BFFB1A43F00103184720640000B8
:1002300040640000103A24BF78C878C1FAD8520749
:1002400024BF30C830C144BF04680C607047000050
:100250000023002400250026103A28BF78C1FBD8CF
:10026000520728BF30C148BF0B607047782900F0A3
:10027000BB80732900F04982002070471FB503F04E
:100280001FFF00F08EF91FBD10B510BD00F041FA40
:100290001146FFF7F3FF03F082FE00F05FFA03B4AC
:1002A000FFF7F2FF03BC00F069FA00000B49D1F838
:1002B00000C04A685CF8043B1068184442F8040B1C
:1002C0008C4528BFA1F1DC0C8A4228BFA1F1DC02D9
:1002D000C1F800C04A6020F00040704730010220A1
:1002E0000948804709480047FEE7FEE7FEE7FEE7CA
:1002F000FEE7FEE7FEE7FEE7FEE7FEE70448054906
:10030000054A064B70470000B1300008F9010008AB
:1003100098010220980702209803022098030220E7
:100320000FB41CB5074B06AA7B446946009005989C
:1003300000F0C1F90020694600F0D0F91CBC5DF85E
:1003400014FB0000B103000070B504468569006825
:10035000C10601D5302600E02026C00707D070BDB9
:10036000D4E9012130469047206A401C20626D1E6E
:10037000F6D570BD70B5044685690078C00707D111
:1003800070BDD4E9012120209047206A401C2062E2
:100390006D1EF6D570BD70B50C460546012A05D018
:1003A0002878800600D5EA69002302E0012305E0F1
:1003B0005B1C934202D2E05C0028F9D1A869E618E0
:1003C000C01AA861286A184428622846FFF7BCFFB3
:1003D00004E0D5E9012114F8010B9047B442F8D3A9
:1003E0002846FFF7C7FF70BD70B504460D4621468D
:1003F0001068AFF300802188090502D50F4A7A44BE
:1004000002E00E4A7A440E32002104F1240305E092
:1004100000F00F060009965D5E54491C0028F7D1D4
:1004200020780023000704D5702D02D009B10223E3
:1004300011322046BDE8704000F0DEB8D661000001
:100440002DE9F05F894604464FF0000ADFF824B139
:10045000FB44C0F820A02046E168884700287DD0F2
:10046000252806D0D4E901219047206A401C20624B
:10047000F1E700255F462046E168884720280646C8
:1004800007DB312E05D2B81910F8200C08B105434E
:10049000F1E7A80701D525F00405C4F81CA0002742
:1004A000C4F818A02A2E09D0304603F0DAFC38B37D
:1004B00004EB8708303EC8F8186019E059F8041BAF
:1004C000204604EB87029161E1688847012F0646C8
:1004D00018D1E069002820DA25F020051DE0D8F8C1
:1004E000180000EB800006EB40003038C8F8180018
:1004F0002046E1688847064603F0B3FC0028EED1A9
:10050000012F0AD02E2E08D12046E16888477F1C93
:100510000646022F45F02005C4DBA069002803DA57
:10052000404245F00105A061E80701D025F0100523
:10053000A6B1A6F14100192802D8203645F400657D
:100540004A463146204625604D46FFF78FFE60B192
:10055000012807D0ED1D25F0070000E007E000F1BD
:10056000080978E705F1040975E730467AE7206A5B
:10057000BDE8F09FAC6100000B4910B5A1F17C0211
:100580000A4CC2E93712372106E000EB104342F86B
:100590002130074B00FB03400B1EA1F10101F4DCED
:1005A00010BD0120E8E70000D0000220E119D66666
:1005B000CD0D010010B5431C02E010F8011B71B114
:1005C0008107FAD14FF0013202C88C1A8C4314EA29
:1005D000C211F9D0C01A0A0603D0C01E10BDC01A3D
:1005E00010BD0A0401D0801E10BD0902FCD0401EBF
:1005F00010BD7047704770472DE9F0470D4699468A
:100600009246044600F124080168880604D5E06992
:1006100021F01001216000E00120A84201DD471B0C
:1006200000E00027A1697A1902EB0900081AA0610D
:100630002078C00602D42046FFF786FE002608E098
:10064000D4E901211AF806009047206A401C761C64
:1006500020624E45F4DB2078C0060AD52046FFF71D
:1006600073FE06E0D4E9012130209047206A401C47
:100670002062381EA7F10107F4DC07E0D4E901216C
:1006800018F805009047206A401C2062281EA5F13A
:100690000105F3DC2046FFF76DFE2078000602D549
:1006A0000220BDE8F0870120FBE7000001694A1C39
:1006B00002610878704700B58FB0CDE901310021A3
:1006C000059105497944CDE9031011466846FFF7C5
:1006D000B7FE0FB000BD0000E5FFFFFF0A6802F89B
:1006E000010B0A60704710B5436913B1AFF3008086
:1006F00001E0FFF750FE012010BD127800F1240147
:100700000A7000224A700122EDE711684FF0FF32B3
:10071000E9E7754600F02CF8AE46050069465346F9
:1007200020F00700854618B020B5FFF7E7FDBDE8CB
:1007300020404FF000064FF000074FF000084FF048
:10074000000B21F00701AC46ACE8C009ACE8C009D9
:10075000ACE8C009ACE8C0098D46704710B5044646
:10076000AFF300802046BDE81040FFF798BD0000C1
:1007700000487047380102207047000001491820E6
:10078000ABBEFEE726000200FEE70000184830B5C9
:1007900087B0016841F080010160016801F08001CB
:1007A0000591016841F48071016000686946114C4F
:1007B00000F480700590402000900120019002908C
:1007C00003200390204601F029F80B4D08210091E9
:1007D0006946284601F022F801222046402101F016
:1007E00044F901222846082101F03FF907B030BD45
:1007F00030380240001C0240002002402DE9F04148
:10080000374F80460024386820F0C00038603868D0
:1008100038602546334E00224021304601F025F94C
:10082000032003F055FB01223046402101F01DF961
:1008300060060821040E384601F012F900281CBF9A
:10084000601CC4B2681CC5B2082DE4D3B8F1000F17
:100850004FF000024FF04001304621D001F005F981
:100860003968384621F0C0013960396841F04001EB
:1008700039600022082101F0F8F8012003F028FB7C
:1008800001223046402101F0F0F8012003F020FB66
:1008900000223046402101F0E8F82046BDE8F08112
:1008A00001F0E3F83968384621F0C0013960396851
:1008B00041F0400139600122082101F0D6F8012001
:1008C00003F006FB01223046402101F0CEF8012062
:1008D00003F0FEFA00223046402101F0C6F8DCE7C2
:1008E00000200240001C02402DE9F0411B4F05464C
:1008F000386820F0C0003860386840F04000386048
:10090000174E00224021304601F0AFF8002415F0C8
:10091000800F05D001223846082101F0A6F804E036
:1009200000223846082101F0A0F868060122050ED1
:100930003046402101F099F8012003F0C9FA002265
:100940003046402101F091F8012003F0C1FA601C0B
:10095000C4B2082CDBD3BDE8F081000000200240C7
:10096000001C024070B5134C206820F0C0002060CD
:10097000206840F04000206001222046082101F05C
:1009800074F80D4D01224021284601F06EF8012037
:1009900003F09EFA00222046082101F066F80120AB
:1009A00003F096FA2846BDE870400022402101F08D
:1009B0005CB8000000200240001C024070B5134CDF
:1009C000206820F0C0002060206840F040002060D7
:1009D0000F4D00224021284601F047F80022204612
:1009E000082101F042F8012003F072FA01222846A2
:1009F000402101F03AF8012003F06AFA2046BDE8F0
:100A000070400122082101F030B8000000200240AF
:100A1000001C024070B52A4E0024306820F0C0004F
:100A200030603068306001220821304601F01DF846
:100A3000012003F04DFA234D01224021284601F008
:100A400014F8012003F044FA0821304601F008F8B8
:100A500000282ED0601CC4B2FA2C24D93068344649
:100A600020F0C0003060306840F04000306000226C
:100A70002846402100F0F9FF00222046082100F01E
:100A8000F4FF012003F024FA01222846402100F05F
:100A9000ECFF012003F01CFA01222046082100F09F
:100AA000E4FF012070BD0821304600F0D9FF002886
:100AB000D0D100222846402100F0D7FF002070BD91
:100AC00000200240001C024070B4BFF34F8FBFF300
:100AD0006F8F1A4900200860194D296841F40031D0
:100AE0002960BFF34F8FBFF36F8F16490860BFF3C4
:100AF0004F8F081F006843F6FF76134AC0F34E3C41
:100B0000C0F3C90406EA4C11204641EA8073136021
:100B1000401EFAD2BCF1010CF4D2BFF34F8F28680B
:100B200040F480302860BFF34F8FBFF36F8F0748CA
:100B3000016841F00401016070BC704750EF00E0B3
:100B400014ED00E084ED00E060EF00E09CEF00E0D9
:100B500030B583B01DA000F077F810244FF6E07395
:100B60001FA000250295CDE900041F221E210A20A6
:100B700002F0C2F923A04FF6E073CDE900041F2272
:100B8000029532210A2002F0B7F918204FF6E073DF
:100B900022A101240294CDE900101F2246210A203F
:100BA00002F0AAF920204FF6E07322A102941F223E
:100BB000CDE9001064210A2002F09EF903B04FF441
:100BC0009660BDE8304003F05DB90000B2E2CAD4DF
:100BD000373AD6D0CEC4CFD4CABEB2E2CAD400000F
:100BE00031365831363AC8ABB6AFB5E7D7D3BCBC0F
:100BF000CAF5D3D0CFDEB9ABCBBEBBB6D3ADC4FA4A
:100C00000000000031365831363A57656C636F6D1D
:100C100065C8ABB6AFB5E7D7D30000003234583261
:100C2000343AC9EEDBDACAD0D6D0CEC4B2E2CAD4E6
:100C30000000000033325833323AD7D6CCE5B2E266
:100C4000CAD4000070470000F0B583B007464FF6E5
:100C5000FF7001F0DBFA184C1F25002100951423CA
:100C60000846228801F066FC009563882288A3F17B
:100C7000140081B2002001F05DFC10494FF6FF70B6
:100C80000126024610251F2308800221009700201C
:100C9000CDE9015600F09EFD09A00296CDE90005C0
:100CA00060881F234FF6FF72123881B2002000F0D7
:100CB00091FD03B0F0BD0000440002202800022096
:100CC000687474703A2F2F7777772E6C6364776926
:100CD0006B692E636F6D00002DE9F05F0746994642
:100CE000C2F101000E460FFA80F84FF0010BC2EB83
:100CF000C230002540000FFA80FA140008BFBDE89A
:100D0000F09FB8F1000F09DB601E84B20AF1020007
:100D10000FFA80FA08EB0A000FFA80F8681C85B217
:100D20000BF102000FFA80FB08EB0B000FFA80F8C2
:100D300019F0040F0BD0301981B2781980B201F08C
:100D40007FFB701981B2381980B201F079FB19F07C
:100D5000020F0BD0301B81B2781980B201F070FB0A
:100D6000701B81B2381980B201F06AFB19F0080FCC
:100D70000BD0701981B2381B80B201F061FB3019C1
:100D800081B2781B80B201F05BFB19F0010F0BD030
:100D9000701B81B2381B80B201F052FB301B81B254
:100DA000781B80B201F04CFBA542AAD3BDE8F09FAE
:100DB0002DE9F0471E46174688468146DDE908546E
:100DC00001F06AFA23462A463146384601F064FAB1
:100DD00043464A4621462846BDE8F04701F05CBA42
:100DE00070B584B027A0FFF72FFF0C254FF6E073F6
:100DF00029A000240294CDE900051F221E210A200B
:100E000002F07AF82FA04FF6E073CDE90005012635
:100E100002961F222D210A2002F06EF834A04FF610
:100E2000E073CDE900051F2202943C210A2002F064
:100E300063F810254FF6E07335A002941F22CDE928
:100E4000000550210A2002F057F83CA04FF6E0734D
:100E5000CDE900051F22029664210A2002F04CF819
:100E600041A04FF6E073CDE900051F2202947821DE
:100E70000A2002F041F804B04FF49660BDE87040DB
:100E800003F000B8B2E2CAD4363AD3A2CEC4CFD46B
:100E9000CABEB2E2CAD40000365831323A61626347
:100EA0006465666768696A6B6C6D6E6F707172738A
:100EB0007475767778797A3031323334353637381D
:100EC00039000000365831323A41424344454647E2
:100ED00048494A4B4C4D4E4F50515253545556571A
:100EE00058595A30313233343536373839000000EA
:100EF000365831323A7E21402324255E262A28297D
:100F00005F2B7B7D3A3C3E3F2F7C2D2B2E0000003B
:100F1000385831363A6162636465666768696A6B3E
:100F20006C6D6E6F707172737475767778797A30D4
:100F300031323334353637383900000038583136DD
:100F40003A4142434445464748494A4B4C4D4E4F2F
:100F5000505152535455565758595A3031323334F0
:100F60003536373839000000385831363A7E21405E
:100F70002324255E262A28295F2B7B7D3A3C3E3F91
:100F80002F7C2D2B2E000000314810B588B0016851
:100F900041F080010160016801F080010691016863
:100FA00041F48071016000680124694600F480709A
:100FB0000690802000900020CDE9010403200390DA
:100FC000244800F02BFC20026946CDE90004224CA5
:100FD000204600F023FCFFF7D9FB00222046A11594
:100FE00000F043FD0A2002F04DFF012220461102CD
:100FF00000F03BFD4FF4FA7002F044FF0122A820FC
:1010000005A900F02BF89DF8140011281DD102222B
:101010009F2005A900F022F89DF81400262814D17D
:101020009DF8150000281CBF012802280DD105A934
:101030004FF001024FF0A30000F010F89DF81400EB
:10104000642802BF002008B010BD012008B010BD08
:1010500030380240001C0240002002402DE9F041DF
:1010600015460E460446FFF77DFC7020FFF73CFC5A
:10107000FFF7D0FCE0B2FFF737FCFFF7CBFCFFF740
:1010800071FC7120FFF730FCFFF7C4FC0024002D39
:1010900088BF6F1E0AD9BC4214BF01200020FFF791
:1010A000ADFB3055601CC4B2AC42F4D3BDE8F04196
:1010B000FFF784BC2DE9F043624E0024634D83B0FA
:1010C00027463078401CC1B25F483170A0FB012038
:1010D000C008404200EB800011EB400001D00A291B
:1010E0007DD20122022001A9FFF7B8FF9DF804007C
:1010F000002875D0032874D2FF21DFF85491554F92
:101100004FF0010801FA00F0C04340F0C00028741D
:1011100039F8140004226946FFF7A0FF287C08FA7A
:1011200004F1084265D0B87930B1012818D00228FE
:101130002CD0032843D05CE09DF800109DF80100FE
:1011400001F00F0100EB012105EB440001819DF846
:1011500002209DF8031002F00F0201EB02212CE0A7
:101160009DF800109DF8010001F00F0100EB012037
:101170007988091A05EB440081819DF802209DF8C9
:10118000031002F00F0201EB022131E09DF8001084
:101190009DF8010001F00F0100EB01203988091AC8
:1011A00005EB440001819DF802209DF8031002F038
:1011B0000F0201EB02217A88511A818119E09DF812
:1011C00000109DF8010001F00F0100EB012105EB7B
:1011D000440081819DF803109DF8022002E016E092
:1011E00021E017E002F00F0201EB02213A88511AC8
:1011F0000181601CC4B2022C8AD32A8901270021F4
:10120000002A02BFA88900288DF8041031709DF8CB
:10121000040040B13078F02884BF0A20307038468E
:1012200003B0BDE8F083297C11F0800F11BF21F0DD
:1012300080004FF6FF702881A88108BF01F0E00010
:101240002874E7E740000220CDCCCCCC2C00022053
:10125000D4650008440002202DE9FF5F81460E4658
:10126000C2F101004FF0010B07B2DDF83880C2EB8C
:10127000C230002540000FFA80FA140004BF04B009
:10128000BDE8F09F002F08DB601E84B20AF1020067
:101290000FFA80FA07EB0A0007B2681C85B20BF15F
:1012A00002000FFA80FB07EB0B0007B2039810F067
:1012B000010F17D030194044401C83B209EB0500E0
:1012C00082B2311B89B280B200F0E6FF701940444F
:1012D000401C83B209EB040082B2711B89B280B258
:1012E00000F0DAFF039810F0020F17D030194044D5
:1012F000401C83B2A9EB050082B2311B89B280B2D7
:1013000000F0CAFF70194044401C83B2A9EB0400EE
:1013100082B2711B89B280B200F0BEFFA542B1D388
:1013200004B0BDE8F09F00002DE9FF4F87B0002713
:10133000B846DDE91423BDF828C0614508D90C463C
:1013400061468446BDF82400ADF82840ADF824C0BD
:101350009CB2BDF828C0A44507D963469446BDF8A1
:101360002420ADF82840ADF824C0BDF828C0614560
:1013700008D90C4661468446BDF82400ADF82840E3
:10138000ADF824C09EB2B1428A4620D1BDF82410E7
:10139000ADF80400814288BFADF8041038BF08469C
:1013A00091B2814238BF084605D3BDF804208A4275
:1013B00038BFADF8041043495346BDF804200988EE
:1013C0000091194601F0B6F80BB0BDE8F08FBDF8FA
:1013D00024100546BDF828B092B2481B0690ABEB2E
:1013E0000A000590A6EB0A000390501A0290B3453C
:1013F000A2EB0509A6EB0B0004901CBFABF10100AA
:101400001FFA80FB5446DA4522D80399059898FBC9
:10141000F1F197FBF0F0C84429441FFA81FCADF8C4
:1014200004C00699284480B260450F4403D90146A0
:101430006046ADF8041023462249BDF8042009880F
:101440000091194601F076F8601C84B25C45DCD945
:10145000BDF82800211A0298B44201FB00F7A4EB62
:101460000A0000FB09F892BFDFF858A00BB0BDE8F6
:10147000F08F0498BDF8241097FBF0F0084403990E
:1014800080B298FBF1F1C84429441FFA81FC02990B
:101490006045ADF804C00F4403D901466046ADF87D
:1014A00004102346BAF80010BDF804200091194634
:1014B00001F040F8601C84B2B442DAD90BB0BDE848
:1014C000F08F0000280002202DE9FF4F83B0054671
:1014D000804689464B204FF0000ADDF844B0019069
:1014E0000AEB0A102F49109A11F810301278934223
:1014F00032D101EB40000090417810984078814251
:101500002AD109F10F00494683B205F10F0082B2DA
:10151000284601F017FA002700980024C619BBF1ED
:10152000000F2ED02049059808808020B178E04037
:10153000014203D04946284600F082FF681C85B26C
:10154000A5EB0800102826D0601CC4B2082CE6D3F6
:10155000781CC7B2202FDFD30AF101001FFA80FAEE
:1015600001988245BCD311484188008807B0491EC4
:10157000401EBDE8F04F8BB282B20021084601F058
:10158000E1B98020B178E040014214BF0598069887
:1015900001F094FBD8E709F1010045461FFA80F9F4
:1015A000D6E700002E4B000828000220440002204D
:1015B0002DE9FF4F83B005468046894607204FF04E
:1015C000000ADDF844B001900AEB8A00304900EBD4
:1015D0004A10109A11F810301278934232D101EB70
:1015E0004000009041781098407881422AD109F15A
:1015F0001700494683B205F1170082B2284601F070
:10160000A1F9002700980024C619BBF1000F2ED0C5
:101610002049059808808020B178E040014203D03D
:101620004946284600F00CFF681C85B2A5EB08006F
:10163000182826D0601CC4B2082CE6D3781CC7B288
:10164000482FDFD30AF101001FFA80FA0198824582
:10165000BAD311484188008807B0491E401EBDE832
:10166000F04F8BB282B20021084601F06BB98020A6
:10167000B178E040014214BF0598069801F01EFBC6
:10168000D8E709F1010045461FFA80F9D6E70000C6
:101690002455000828000220440002202DE9FF4FB5
:1016A00083B005468046894604204FF0000ADDF8E5
:1016B00044B001900AEB8A102F49109A11F81030AB
:1016C0001278934232D101EB40000090417810989B
:1016D000407881422AD109F11F00494683B205F1C1
:1016E0001F0082B2284601F02DF90027009800243F
:1016F000C619BBF1000F2ED0204905980880802024
:10170000B178E040014203D04946284600F098FEF7
:10171000681C85B2A5EB0800202826D0601CC4B246
:10172000082CE6D3781CC7B2802FDFD30AF1010062
:101730001FFA80FA01988245BCD31148418800887D
:1017400007B0491E401EBDE8F04F8BB282B20021A7
:10175000084601F0F7B88020B178E040014214BF9C
:101760000598069801F0AAFAD8E709F10100454664
:101770001FFA80F9D6E700002A5700082800022047
:101780004400022070B5154601F1270293B200F122
:10179000270292B201F0D6F8002405EB440015F8B8
:1017A0001410407841EA002001F088FA641CB4F576
:1017B000C86FF2DB064841880088491E401E8BB284
:1017C000BDE8704082B20021084601F0BBB80000BD
:1017D000440002202DE9F04383B01F46904689461D
:1017E000DDE90A460C9D2046FEF7E4FE0A4980B278
:1017F00040423B4642460988CDE9004601EBC00C19
:10180000494602950CEBDC70C0F34F0001F074FB0D
:1018100003B0BDE8F0830000440002202DE9F84F3A
:10182000DFF830920022DFF828820F2709F1040A3E
:101830004FF0010E0B680EFA02F52B40AB4240F060
:101840000181D1F804C0BCF1020F18BFBCF1120F26
:1018500015D14FEAD20C00EB8C0CDCF820604FEA7B
:1018600042744FEAD46407FA04FB26EA0B06D1F867
:1018700010B00BFA04F444EA0604CCF820400668E1
:101880004FEA420C91F804B04FF003040BF0030B45
:1018900004FA0CF40BFA0CFB26EA04064BEA0606E3
:1018A00006604E68012E18BF022E03D0112E18BFFD
:1018B000122E14D18668D1F80CB026EA04060BFA71
:1018C0000CFB4BEA06068660466826EA05050E799B
:1018D000C6F3001606FA02F646EA05054560C56835
:1018E00025EA04048D6805FA0CFC4CEA040CC0F8E7
:1018F0000CC0D1F804C01CF0805F7CD0D8F800C0C8
:101900004CF4804CC8F800C0D8F800C00CF4804CEF
:10191000CDF800C022F0030C0CF1804505F5983598
:10192000D5F808C84FEA82744FEA147407FA04F62F
:101930002CEA0606A0F1804CBCF5003C48D0A0F192
:10194000804CBCF5013C08BF4FF0010C40D0A0F129
:10195000804CBCF5023C08BF4FF0020C38D0A0F11F
:10196000804CBCF5033C08BF4FF0030C30D0A0F115
:10197000804CBCF5043C08BF4FF0040C28D0A0F10B
:10198000804CBCF5053C08BF4FF0050C20D0A0F101
:10199000804CBCF5063C08BF4FF0060C18D0A0F1F7
:1019A000804CBCF5073C08BF4FF0070C10D0A0F1ED
:1019B000804CBCF5083C08BF4FF0080C08D0A0F1E3
:1019C000804CBCF5093C0CBF4FF0090C4FF00A0CE1
:1019D0000CFA04FC4CEA060CC5F808C8D9F800C09B
:1019E0004C682CEA030C14F4803F18BF4CEA030C3B
:1019F000C9F800C000E025E0DAF800C04C682CEA25
:101A0000030C14F4003F18BF4CEA030CCAF800C0E2
:101A1000114CD4F800C04D682CEA030C15F4801F5B
:101A200018BF4CEA030CC4F800C00C4CD4F800C03A
:101A30004D682CEA030C15F4001F18BF4CEA030C88
:101A4000C4F800C0521C102AFFF4F4AEBDE8F88FB1
:101A500044380240003C0140083C01400C3C01403D
:101A60000069084018BF01207047002A08BF090418
:101A70008161704701480068704700002000022023
:101A800002480168491C01607047000020000220E4
:101A9000074810B5016841F400710160052000F0AD
:101AA00051F80F2000F006F800F018F8002010BDE3
:101AB000003C024010B5044607484FF47A720068B3
:101AC000B0FBF2F000F08AFB00222146501E00F02D
:101AD00007F8002010BD00001C0002207047000025
:101AE000174B4DF8044D1B68C3F30223C3F1070CD9
:101AF000BCF1040F88BF4FF0040C1C1D072C34BF31
:101B00000023DB1E012404FA0CFCACF1010C0CEAEE
:101B10000101994004FA03F35B1E1A4011430028A7
:101B20004FEA0111B8BF00F00F0000F1E020B4BF90
:101B300080F8141D80F800145DF8044B7047000015
:101B40000CED00E0074A00F0070011684FF6FF03B4
:101B5000194041EA002040F0FD7040F080601060C4
:101B6000704700000CED00E01C4838B5016841F0FA
:101B70008051016000681A4C00F08050009020688D
:101B800040F480302060FFF775FF0546606810F470
:101B9000803F09D1FFF76EFF401BB0F57A7F14D864
:101BA000606810F4803FF5D0206840F40030206079
:101BB000FFF760FF0546606810F4003F0BD1FFF7A8
:101BC00059FF401BB0F57A7F01D9032038BD60680A
:101BD00010F4003FF3D0002038BD00004038024030
:101BE000007000402DE9F047DFF8688104460D469B
:101BF000D8F8000000F00F00A8420CD2D8F800007E
:101C000020F00F002843C8F80000D8F8000000F0CA
:101C10000F00A84270D120784F4F10F0020F05D06E
:101C20003868A16820F0F00008433860207810F090
:101C3000010F4ED060684949012820D00968022868
:101C400022D011F0020F57D0396821F00301084368
:101C50003860FFF70FFF0646606841F288390128B7
:101C600016D00228386800F00C0021D0F8B1FFF738
:101C700001FF801B484528D90320BDE8F08709688B
:101C800011F4003FE0D137E011F0007FDCD133E008
:101C9000386800F00C0004281BD0FFF7EBFE801B17
:101CA0004845E9D8386800F00C000428F5D110E068
:101CB00008280ED0FFF7DEFE801B4845DCD83868C8
:101CC00000F00C000828F5D103E0386810F00C0F84
:101CD000CDD1D8F8000000F00F00A8420FD9D8F8F5
:101CE000000020F00F002843C8F80000D8F80000DA
:101CF00000F00F00A84202D00120BDE8F087207854
:101D000010F0040F05D03868E16820F4E050084373
:101D10003860207810F0080F06D03868216920F468
:101D2000604040EAC100386000F01EF83968F022D7
:101D300092FAA2F201F0F001B2FA82F2D140084A1E
:101D4000515CC840074908600F20FFF7B3FE002030
:101D5000BDE8F087003C02400838024000380240ED
:101D6000C46500081C0002202148006810F00C0126
:101D7000204808BF7047DFF880C0042904BF6046D0
:101D80007047082918BF70474DF8044D1B4A116869
:101D9000136801F03F0113F4800F47F6C0730BD0B6
:101DA000BCFBF1F01168194093FAA3F3B3FA83F383
:101DB000D94000FB01F00AE0B0FBF1F011681940D6
:101DC00093FAA3F3B3FA83F3D94000FB01F011684F
:101DD0004FF440325DF8044B92FAA2F201F4403124
:101DE000B2FA82F2D140491C4900B0FBF1F07047D1
:101DF000083802400024F40040787D010438024095
:101E00002DE9F84FDFF8A88304460078A8F104070D
:101E100010F0010FA7F104055AD0D8F8000000F027
:101E20000C00042809D0D8F8000000F00C000828A5
:101E30000CD1386810F4800F08D0286810F4003FE7
:101E400046D06068002800F0AF8141E06068B0F5DE
:101E5000803F04BF286840F480300AD010B1B0F54C
:101E6000A02F11D0286820F480302860286820F442
:101E7000802028606068D0B1FFF7FCFD0646286826
:101E800010F4003F08D023E0286840F48020286048
:101E9000286840F48030ECE7FFF7ECFD801B6428F5
:101EA00000F22581286810F4003FF5D010E0FFF71C
:101EB000E1FD0646286810F4003F09D0FFF7DAFD7F
:101EC000801B642800F21381286810F4003FF5D1CC
:101ED000207810F0020F50D0D8F800004FF0F80929
:101EE00010F00C0F18D0D8F8000000F00C000828F3
:101EF00004BF386810F4800F0ED0E068002828680E
:101F000028D040F001002860FFF7B4FD064628689D
:101F100010F0020F09D011E0286810F0020F1CBF6A
:101F2000E06801280AD000F03FB9FFF7A3FD801B4D
:101F300002287DD8286810F0020FF6D0286899FA98
:101F4000A9F22169B2FA82F220F0F8009140084328
:101F5000286012E020F001002860FFF78BFD0646A4
:101F6000286810F0020F08D0FFF784FD801B0228BC
:101F70005ED8286810F0020FF6D1207810F0080F14
:101F800033D0DFF8309260690028D9F8000016D00D
:101F900040F00100C9F80000FFF76CFD0646D9F8D3
:101FA000000010F0020F20D1FFF764FD801B022813
:101FB0003ED8D9F8000010F0020FF5D015E020F05F
:101FC0000100C9F80000FFF755FD0646D9F80000EA
:101FD00010F0020F09D0FFF74DFD801B022827D813
:101FE000D9F8000010F0020FF5D1207810F0040F9E
:101FF00063D07148016841F08051016000686F4E04
:1020000000F080500090306840F480703060FFF73E
:1020100031FD8146306810F4807F0BD1FFF72AFD37
:10202000A0EB0900642862D8306810F4807F00E0DB
:102030005DE0F3D0A068624E012804BF306840F034
:10204000010009D008B1052813D0306820F0010044
:102050003060306820F004003060A06841F2883AB7
:10206000D0B1FFF707FD8146306810F0020F08D0AD
:1020700023E0306840F004003060306840F0010038
:10208000EAE7FFF7F7FCA0EB090050452FD83068CE
:1020900010F0020FF5D010E0FFF7ECFC814630683D
:1020A00010F0020F09D0FFF7E5FCA0EB0900504546
:1020B0001DD8306810F0020FF5D1A069E8B3D8F848
:1020C000001001F00C0108296ED00228286820F0C9
:1020D000807028600ED0FFF7CDFC0446286810F011
:1020E000007F5ED0FFF7C6FC001B022855D90320F5
:1020F000BDE8F88FFFF7BEFC0646286810F0007FA9
:1021000008D0FFF7B7FC801B0228F0D8286810F031
:10211000007FF6D1D4E9070147F6C0724FF0FF33D4
:1021200092FAA2F20843616AB2FA82F29140A26A7C
:1021300003EB52024FF4403300E032E093FAA3F392
:10214000B3FA83F39A4011434FF070620843E16A97
:1021500092FAA2F2B2FA82F291404FF0E0420843C2
:10216000216B92FAA2F2B2FA82F2914008433860EF
:10217000286840F080702860FFF77CFC04462868DF
:1021800010F0007F0DD1FFF775FC001B0228AED8C0
:10219000286810F0007FF6D003E0286810F0007F78
:1021A000A0D10020BDE8F88F0120BDE8F88F000025
:1021B0000838024074380240403802400070004045
:1021C000703802404FF0E021042808690CBF40F04D
:1021D000040020F00400086170470000401EB0F1C8
:1021E000807F24BF012070474FF0E0214861F0203C
:1021F000044A82F8140D002088610720086100203D
:10220000704700000FE000E0FEE700002DE9F04716
:10221000194F054600217888401E83B23888401E39
:1022200082B2084600F08EFBDFF850804FF000606D
:10223000C8F800002020C8F8000000267888002890
:1022400088BF4FEA152911D938880024002809D9F8
:10225000484600F033FEE8B200F030FE3888641CD7
:10226000A042F5D87888761CB042EDD84FF40060D3
:10227000C8F80000BDE8F08744000220180C0240B6
:10228000DFF810C008B5BCF800C0CDF800C000F001
:1022900051F908BD280002202DE9F04F00268246A2
:1022A0005F1A3546A2EB00088946B8F1000F83B0EB
:1022B000C8BF012007DC0FBF00204FF0FF300190A6
:1022C000C8F1000800D10190002FC8BF012006DC32
:1022D0000FBF00204FF0FF3000907F4200D10090F0
:1022E000B845CCBF44463C464FF0000B601C52BF83
:1022F000029003B0BDE8F08F1FFA89F11FFA8AF04F
:1023000000F09EF84644A6423D4402DD0198361B8B
:102310008244A54202DD00982D1B81440BF101008F
:102320001FFA80FB02988345E6DD03B0BDE8F08F1D
:102330002DE9F04F8DB04FF0000A121AD1460492E9
:102340005A1A0192049ACDE90201002AC8BF01205D
:1023500008DC0FBF00204FF0FF300790504218BF3D
:10236000049000D107900198002808BF0020C8BF42
:10237000012001DB099006E04FF0FF300990019841
:10238000C0F100000190049901988142CCBF8846B9
:10239000804600200A90B8F1FF3F44BF0DB0BDE871
:1023A000F08F16984042032101EB4000089008F19D
:1023B00001000B9002980026DDE9164B0690039869
:1023C000002C089F05901CDBA64235460ADCCDF8A0
:1023D00000B02B46DDE90510324601F0E4FC6D1C2F
:1023E000A542F4DD002FBCBF07EB8600871D05DB8F
:1023F000301B641E07EB800000F10A07761CA64222
:10240000E2DD049882440198C245814405DD0799C4
:10241000AAEB080A029808440290C14505DD099913
:10242000A9EB08090398084403900A980B99401CEB
:1024300080B20A908842BDDD0DB0BDE8F08F00008B
:1024400070B50B46024600F07DFA0848084D048836
:102450004FF00060286020202860200A00F02EFD48
:10246000E0B200F02BFDE814286070BD28000220C7
:10247000180C02402DE9F0411C4615460E46074651
:102480000B46FFF709FF3A46234631461046FFF751
:1024900003FF23462A4619463846FFF7FDFE2A4623
:1024A000234631461046BDE8F041FFF7F5BE2DE961
:1024B000F05F994692460D4683460A9C0B460719E3
:1024C000A2EB04081FFA88F2B8B2FFF7E5FEA9EB09
:1024D00004065A4625441046B3B2A9B2FFF7DCFE03
:1024E0004B461FFA88F21946B8B2FFF7D5FE52469E
:1024F000B3B21046A9B2FFF7CFFEA9B22246B8B2D6
:102500000123FEF7E9FBA9B222461FFA88F0022355
:10251000FEF7E2FBB1B222461FFA88F00423FEF771
:10252000DBFBB1B22246B8B2BDE8F05F0823FEF78C
:10253000D3BB00002DE9F041A2EB000C0CF1010C23
:102540001FFA8CF5DDF81880A3EB010C0CF1010CDF
:102550001FFA8CF700F0F6F90026002F0DD90024A1
:10256000002D06D9404600F0A9FB601C84B2A542AC
:10257000F8D8701C86B2BE42F1D306484188008864
:10258000491E401EBDE8F0418BB282B200210846D0
:1025900000F0D8B9440002202DE9F84388461349D9
:1025A0001D46089C0988161B0091591C8BB2414698
:1025B0000719B2B2B8B2FFF7BDFF61422246A5EBE0
:1025C000080000EB410085B20095A0441FFA88F195
:1025D000B0B20123FEF740FE1FFA88F12246B8B2DE
:1025E00000950223FEF738FEBDE8F883280002209C
:1025F00010B586B000F004FC8E48016841F0080177
:102600000160006869468C4C00F0080005904FF4AA
:10261000C3500090012001900290032003902046B7
:10262000FFF7FCF801224FF4C3512046FFF71DFAD3
:10263000012220464021FFF718FA804C4FF08050CD
:102640002060642001F01EFCA0142060322001F004
:1026500019FCF02000F0E0FAC32000F0CFFAF020DF
:1026600000F0DAFA962000F0C9FA362000F0D4FA29
:10267000482000F0C3FA3A2000F0CEFA052000F01E
:10268000BDFAB02000F0C8FA802000F0B7FAB620FA
:1026900000F0C2FA002000F0B1FA022000F0AEFA19
:1026A000B52000F0B9FA022000F0A8FA032000F0EB
:1026B000A5FA002000F0A2FA042000F09FFAB12051
:1026C00000F0AAFA802000F099FA102000F096FAA3
:1026D000B42000F0A1FA002000F090FAB72000F03A
:1026E0009BFAC62000F08AFAC52000F095FA1C205B
:1026F00000F084FAE42000F08FFA312000F07EFA36
:10270000E82000F089FA402000F078FA8A2000F0F2
:1027100075FA002000F072FA002000F06FFA29200C
:1027200000F06CFA192000F069FAA52000F066FAB2
:10273000332000F063FAC22000F06EFAA72000F008
:102740006BFAE02000F068FAF02000F057FA092058
:1027500000F054FA132000F051FA122000F04EFA63
:10276000122000F04BFA2B2000F048FA3C2000F039
:1027700045FA442000F042FA4B2000F03FFA1B20BB
:1027800000F03CFA182000F039FA172000F036FA71
:102790001D2000F033FA212000F030FAE12000F093
:1027A0003BFAF02000F02AFA092000F027FA132063
:1027B00000F024FA0C2000F021FA0D2000F01EFA9F
:1027C000272000F01BFA3B2000F018FA442000F00C
:1027D00015FA4D2000F012FA0B2000F00FFA172026
:1027E00000F00CFA172000F009FA1D2000F006FA9C
:1027F000212000F003FAF02000F00EFA3C2000F057
:10280000FDF9F02000F008FA692000F0F7F9132034
:1028100000F002FA112000F0FFF9292000F0FCF985
:10282000002000F007FA06B04FF6FF70BDE8104038
:10283000FFF7ECBC30380240000C0240180C02409C
:1028400070B50B46024600F07DF80D4C4FF000606D
:102850002060801120600B48807A00F02FFB202040
:10286000206000F0F5FA00F0F3FA054600F0F0FA07
:10287000E11421604FF6FF7101EA0521084370BDA4
:10288000180C0240440002202DE9F843002000907B
:10289000F02000F0C1F9C32000F0B0F9F02000F002
:1028A000BBF9962000F0AAF9224D4FF00060286095
:1028B00001248711E84620262F60FB2000F0FEFA55
:1028C0002E6004F11000C0B200F0F8FA2F60D3209F
:1028D00000F0F4FA2E6000F0BBFA08EB040101F8F6
:1028E000010C2F60FB2000F0E9FA2E60002000F0C0
:1028F000E5FA601CC4B2042CDED34FF400602860FB
:10290000F02000F089F93C2000F078F9F02000F088
:1029100083F9692000F072F99DF801004FF6FF720B
:10292000054902EA00209DF8022010438880BDE896
:10293000F8830000180C0240440002200B460246B7
:10294000AFF300802DE9F041DFF854801C461546B6
:102950000E46074698F80C0000F05EF9380A00F0C1
:102960004DF9F8B200F04AF9280A00F047F9E8B248
:1029700000F044F998F80E0000F04EF9300A00F02B
:102980003DF9F0B200F03AF9200A00F037F9E0B270
:1029900000F034F998F80800BDE8F04100F03CB9C7
:1029A000440002202DE9FF4F83B082468B463F4909
:1029B0009046DDE91004129E20380988C5B20291C4
:1029C0000BEB04005946401E83B20AEB5400401E34
:1029D00082B25046FFF7B6FF354A002E4FF000078F
:1029E00002F274413DD0002C2AD905EB450002EBE0
:1029F0008000019001EB051000900C2C0CBF019899
:102A00000098C65D0025B5EB540F38BF0BEB0709E6
:102A100012D2264816F0010FA0F8008006D00AEB6B
:102A200005001FFA89F180B2FFF70AFD681C7608DD
:102A3000C5B2B5EB540FECD3781CC7B2A742DCD3B8
:102A40001A49029808801B484188008807B0491E2F
:102A5000401EBDE8F04F8BB282B200210846FFF75E
:102A600071BF002CECD905EB450001EB051902EB19
:102A7000800A0C2C0CBF1AF8075019F807500026D2
:102A8000B6EB540F0CD215F0010F14BF4046069858
:102A900000F014F9701C6D08C6B2B6EB540FF2D3F7
:102AA000781CC7B2A742E4D3CAE70000280002207E
:102AB000CA400008440002202DE9FF4F83B04FF0C8
:102AC00000081D00934681464446109E19BFA5F19B
:102AD000010A770807B0BDE8F08F0A23281B401EC3
:102AE0000121C2B2501EC0B204D301FB03F1401E4B
:102AF000C0B2FAD2BBFBF1F01C49A1FB0021C9080E
:102B00004942B8F1000F01EB810100EB410006D111
:102B1000544504DA002818BF4FF0010816D00021F0
:102B2000029113493030C0B2CDE9000607FB049092
:102B30000B88104980B20A880499FFF733FF601CA4
:102B4000C4B2AC42C9D307B0BDE8F08F20210091D8
:102B500007490020CDE901600B88064907FB049076
:102B60000A8880B20499FFF71DFFE8E7CDCCCCCCF2
:102B70002A000220280002202DE9F04F83B00546EC
:102B800018781C4616468946DDF8308020385E28C5
:102B900084BF03B0BDE8F08F154FDFF858A0DFF811
:102BA00058B03888401EA842BCBF03B0BDE8F08FC3
:102BB0007888401E4845BCBF03B0BDE8F08F207840
:102BC0004946CDE90006CDF808802846BAF800301D
:102BD000BBF80020FFF7E6FE05EB560085B214F8BF
:102BE000010F20385E28DCD903B0BDE8F08F00006B
:102BF000440002202A0002202800022010B5054CC3
:102C00004FF0006121602021216000F057F9E014AD
:102C1000206010BD180C024010B5054C4FF000614B
:102C200021608911216000F049F9E014206010BD95
:102C3000180C024020492A2210B54FF4F0738A8103
:102C40002B22CA812C220A812E224A8110F00300F5
:102C50004FF4A072887110D0012818D0022820D01B
:102C6000032818BF10BD0B8036204A80FFF7D4FF21
:102C7000BDE81040E820FFF7C1BF0A8036204B8036
:102C8000FFF7CAFFBDE810404820FFF7B7BF0B8031
:102C900036204A80FFF7C0FFBDE810402820FFF72C
:102CA000ADBF0A8036204B80FFF7B6FFBDE810406D
:102CB0008820FFF7A3BF00004400022070B5084D34
:102CC00004464FF00060286020202860200A00F0B1
:102CD000F5F8E0B200F0F2F8E814286070BD0000EA
:102CE000180C02407047704730B583B01DA0FDF747
:102CF000ABFF1E21204A0846FEF744FD10244FF684
:102D0000E0731EA001250295CDE900041F224B218E
:102D10002A2000F0F1F8184A1E215A20FEF732FD51
:102D200016A04FF6E073CDE900041F2202954B2157
:102D3000662000F0E1F8104A1E219620FEF722FDE1
:102D40000EA04FF6E073CDE900041F2202954B213F
:102D5000A22000F0D1F803B04FF49660BDE83040F7
:102D600001F090B8B2E2CAD4383ACDBCC6ACCFD4E8
:102D7000CABEB2E2CAD40000345900085151000062
:102D8000F0B5184889B004AF002401250FC81026FB
:102D900087E80F002046FFF74DFF13A0FDF754FF13
:102DA00057F824001F22CDE900061E214FF6E073DC
:102DB0001420029500F0A0F8104A32211E20FEF7E0
:102DC000E1FC4FF47A7001F05DF84FF47A7001F095
:102DD00059F8601CC4B2042CDCD30020FFF72AFF92
:102DE00009B0F0BDB4650008B2E2CAD431303AC6C9
:102DF000C1C4BBD0FDD7AAB2E2CAD400345900087E
:102E0000114810B586B0016841F002010160006808
:102E100069460E4C00F0020005904FF420400090EF
:102E2000012001900290032003902046FEF7F6FC5B
:102E30004FF4804100910021204601916946FEF740
:102E4000EDFC06B010BD0000303802400004024026
:102E50002DE9F05F0024DFF85CB0174FFF254FF439
:102E6000004826464FF000494FF0005A6006040E15
:102E700015F0800F14BFC7F80080C7F800906806EF
:102E8000C7F800A0050E642001F022F8DBF800006E
:102E900010F4804F1CBF601CC4B24FF40050386067
:102EA000642001F015F8701CC6B2082EDED320464F
:102EB000BDE8F09F10040240180402404FF40043A4
:102EC0000B4A70B400211D049C104FF0005C10F000
:102ED000800F14BF13601560C2F800C01460400674
:102EE000491C000EC9B20829F1D370BC704700001C
:102EF00018040240704700002DE9FF4F83B00646DA
:102F00008346DFF804A188464FF00009DDE910454B
:102F1000129F2078002804BF07B0BDE8F08F29E099
:102F2000B9F1000F26D0BAF80000401BB042BCBF78
:102F300007B0BDE8F08FBAF80200401B4045BCBFA7
:102F400007B0BDE8F08F4FF00009202D4FD0CDE93C
:102F50000047DDE90523182D4146304650D0FEF7E5
:102F6000B3FA701986B2A41C20780028D8D107B013
:102F7000BDE8F08FBAF80000A0EB5500B042BCBF2E
:102F800007B0BDE8F08FBAF80200401B4045BCBF57
:102F900007B0BDE8F08F2078802888BF4FF0010986
:102FA000BED80D280ED0102D13D910210297CDE9CF
:102FB0000001DDE9052341463046FFF7F3FC06F149
:102FC000080011E008EB05005E461FFA80F8641C5B
:102FD0000BE0CDE9000502974146DDE905233046C7
:102FE000FFF7E0FC06EB550086B2641CBCE7CDE9B8
:102FF0000047DDE9052341463046FEF74FFBB0E7C9
:10300000FEF7D6FAADE7000044000220DFF894C0D6
:1030100010B594B0DCF8004044F08054CCF8004087
:10302000DCF800C00CF0805CCDF848C0DFF878C058
:10303000DCF8004044F44044CCF80040DCF800C028
:1030400002240CF4404CCDF848C04FF0010CCDF8F0
:1030500000C04FF4803CCDF804C04FF4800CCDE9A3
:103060000810CDE90A23CDE9064C6846FEF7C8FEF4
:1030700000B1FEE7FEF778FD00B1FEE70F20CDE9D5
:103080000D0400200F904FF4A05010904FF480508A
:10309000119007210DA8FEF7A5FD002804BF14B06C
:1030A00010BDFEE74038024000700040FEF7E8BC6B
:1030B0000F48016841F4700101600E48016841F059
:1030C000010101600C4A00211160026822F4102203
:1030D00022F080720260031D084A1A60026822F41E
:1030E0008022026006480160580606490860704761
:1030F00088ED00E00038024008380240103000241B
:103100000C38024008ED00E010B5FDF73DFF002847
:103110001CBF012010BD024802494860002010BDBC
:10312000B51000082C0002202DE9F843002429A046
:10313000FDF78AFD2D4D4FF6FF7700971421688823
:103140002A88143883B20020FFF7F4F9284EA046ED
:10315000CDF8008004EBC400698800EB04102A88D5
:103160001E2300EB510100EB520036F814205038BA
:10317000323900F0C7FE601CC4B2052CE8D340F21F
:10318000DC5000F07FFE0097142168882A881438EC
:1031900083B20020FFF7CEF9002401270097698849
:1031A00004EBC4002A8800EB04101E2300EB51013D
:1031B00000EB520036F814205038323900F0A2FEED
:1031C000601CC4B2052CE9D3BDE8F84340F2DC50E2
:1031D00000F058BEB2E2CAD4343A475549BBADD428
:1031E000B2CCEEB3E4B2E2CAD40000004400022044
:1031F0000000022070B54B4C84B04FF6FF700021E8
:103200000090084663882288FFF794F910264FF64D
:10321000E07345A001250295CDE9000600221E219C
:103220001420FFF769FE4FF4487000F02BFE0020D9
:103230000090638801462288FFF77CF93CA04FF696
:10324000E073CDE900061E214FF6FF7214200295AF
:10325000FFF752FE4FF4487000F014FE4FF4784030
:1032600000900021638822880846FFF763F932A0A6
:103270004FF6E073CDE900061F2202951E211420AF
:10328000FFF73AFE4FF4487000F0FCFD4FF4FC608D
:1032900000900021638822880846FFF74BF928A098
:1032A0004FF6E073CDE900061F2202951E2114207F
:1032B000FFF722FE4FF4487000F0E4FD1F2000905D
:1032C0000021638822880846FFF734F91EA04FF6D4
:1032D000E073CDE900061E21029514204FF47842D8
:1032E000FFF70AFE4FF4487000F0CCFD48F2304082
:1032F00000900021638822880846FFF71BF914A07C
:103300004FF6E073CDE900061E214FF61F02142090
:103310000295FFF7F1FD04B04FF44870BDE870402E
:1033200000F0B0BD44000220574849544500000059
:10333000424C41434B000000524544200000000035
:10334000475245454E200000424C554520000000A4
:103350004752415900000000F8B557A0FDF774FC32
:103360005A4D1F2028805A48FDF706F90124009481
:10337000102232210F2057A3FFF7FEFB10220094EA
:1033800046210F2059A3FFF7F7FB102200945A2182
:103390000F205CA3FFF7F0FB102200946E210F209A
:1033A0005EA3FFF7E9FB1022009482210F2061A3A6
:1033B000FFF7E2FB1022009496210F2063A3FFF792
:1033C000DBFB10220094AA210F2065A3FFF7D4FB9A
:1033D0004FF47840674F002442F210762880102581
:1033E000FCF764FF90FBF6F10523009506FB110244
:1033F00032216420FFF760FBFCF758FF90FBF6F1E9
:103400000523009506FB110246216420FFF754FBBB
:10341000FCF74CFF90FBF6F10523009506FB11022B
:103420005A216420FFF748FBFCF740FF90FBF6F1C0
:103430000523009506FB11026E216420FFF73CFB7B
:10344000FCF734FF90FBF6F10523009506FB110213
:1034500082216420FFF730FBFCF728FF87FB002167
:10346000052300950A11A2EBE1716FF0180201FB30
:1034700002F100EB410296216420FFF71DFBFCF7EF
:1034800015FF87FB0021052300954A11A2EBE1718E
:103490006FF0180201FB02F100EB8102AA21642007
:1034A000FFF70AFB4FF4FA7000F0ECFC601CC4B2AA
:1034B0000F2C95D3F8BD0000B2E2CAD4393AB6AFAA
:1034C000CCACCAFDD7D6CFD4CABE0000280002209B
:1034D00040E20100204843484F3A2020202020208D
:1034E000202020202075672F6D3300002020434FBF
:1034F000323A202020202020202020202070706DB3
:10350000000000002054564F433A20202020202065
:10351000202020202075672F6D330000504D322E63
:10352000353A202020202020202020202075672FC1
:103530006D33000020504D31303A202020202020D3
:10354000202020202075672F6D3300002020544557
:10355000503A20202020202020202020204300003E
:10356000202048554D3A20202020202020202020B7
:10357000202500001F85EB512DE9F84300242FA0E2
:10358000FDF762FB334F4FF6FF78CDF80080142132
:1035900078883A88143883B20020FEF7CBFF2E4D8E
:1035A0002E4E35F814003080C4EB0410798800EBFF
:1035B0005101A1F1140293B23A88503989B200EB5B
:1035C0005200A0F11402503892B280B2FEF752FFBE
:1035D000601CC4B2052CE4D340F2DC5000F052FC75
:1035E000CDF80080142178883A88143883B20020FE
:1035F000FEF7A0FF0024C4EB041135F8140030805E
:10360000788801EB5000A0F1140293B23A88503848
:1036100001EB520CACF114018AB281B2ACF1500052
:1036200080B2FEF72DFE601CC4B2052CE3D3BDE8CA
:10363000F84340F2DC5000F025BC0000B2E2CAD4EE
:10364000333A475549BED8D0CECCEEB3E4B2E2CA45
:10365000D4000000440002200000022028000220C4
:103660002DE9F04F8FB0002736A00D970E970C97DD
:1036700003970497059706970797089709970A975E
:103680000B97FDF7E1FAFFF7FFF834A102460CA80B
:10369000FCF746FE4FF010094FF001080CA84FF65A
:1036A000E0731F22CDF80880CDE9000919213220EE
:1036B000FFF722FCDFF8ACB000242B4E0DF10C0A12
:1036C0001E223BF81400308004EBC40000EB04150C
:1036D0000A2005F1410305F12D01FEF7D1FD14206B
:1036E00005F13701FFF7ACF83188814206D11FA1FF
:1036F0000988ADF830108DF8327005E01CA10A6819
:103700000C928988ADF834100CAB1BA1024603A8BB
:10371000FCF706FECDF800A02820CDE901983288FC
:1037200005F12F014FF6E073FFF7E6FB601CC4B212
:10373000072CC5D340F2DC5000F0A4FB0FB0BDE86D
:10374000F08F0000B2E2CAD4323AB6C14944BACDD1
:10375000D1D5C9ABD6B5B2E2CAD4000049443A309B
:10376000782578000A000220280002204F4B000034
:103770004552524F520000007265616420636F6CC5
:103780006F723A30782530345820202573000000BD
:103790002DE9F041002482B036A0FDF755FA3C4FE8
:1037A0004FF6FF78CDF80080142178883A881438D5
:1037B00083B20020FEF7BEFE364D374E04EB840385
:1037C00035F814003080C4EB0410798800EB510206
:1037D000A2F1140081B23888493A400800EB830016
:1037E000A0F115039BB2CDE9003193B2A0F13302F1
:1037F000503892B280B2FDF7DBFA601CC4B2052CDF
:10380000DCD340F2DC5000F03DFBCDF80080142109
:1038100078883A88143883B20020FEF78BFE0024A3
:1038200004EB840335F814003080C4EB041079886D
:1038300000EB5102A2F1140081B23888493A4008E5
:1038400000EB8300A0F115039BB2CDE9003193B2E8
:10385000A0F13302503892B280B2FDF765FD601CD2
:10386000C4B2052CDCD302B040F2DC50BDE8F0411C
:1038700000F008BBB2E2CAD4353A47554920547229
:1038800069616E676C65CCEEB3E4B2E2CAD4000045
:103890004400022000000220280002202DE9F04F01
:1038A00083B0F2A0FDF7D0F9F54D0027F54C322199
:1038B0005A232F80208801EB5002494201EB50002F
:1038C00080B22821FEF7D6FD4FF47849A5F8009084
:1038D0002088791E592301EB50018AB26FF0300124
:1038E00001EB500080B22921FEF7CAFC1F2028807E
:1038F00020883121592301EB500240082921FEF78D
:10390000BFFC4FF6FF7028800126009620886FF0DC
:103910001F011022DCA301EB500080B23921FFF718
:103920002BF948F2304028804FF00A08CDF800808B
:1039300020886E216FF06D0AA92301EB50020AEB7B
:10394000500080B29621FEF727FE4FF61F00288018
:10395000CDF80080A9232088962108EB50020AEBBD
:10396000500080B2FEF718FE00960A232088A0219E
:1039700040F2CF12400800F0C5FA2F806FF07C01B2
:10398000009610222088C1A301EB500080B298213C
:10399000FFF7F2F80096732120881022BCA301EBF8
:1039A00050009821FFF7E8F8A5F800904FF01008B4
:1039B000CDF800806FF00B0120880323322201EB49
:1039C000500080B27D21FFF777F82F80082000900B
:1039D0004FF01E0B20886FF01D01FA230BEB5002F5
:1039E00001EB500080B2DC21FEF761FD4AF251602C
:1039F00028800720009020881D21F82301EB500229
:103A0000494201EB500080B2DD21FEF7C5FD4FF6C3
:103A10001F00288000966FF00E00218810229DA3C1
:103A200000EB510080B2E321FFF7A6F89BA00296BD
:103A3000CDE9000821886FF02E004FF6FF734A464B
:103A400000EB510080B2C321FFF756FA4FF6FF7A20
:103A50002E464FF00108954D68688047287C10F08D
:103A6000010FF8D0A8892938312865D220886FF055
:103A70003102298902EB500291422BDD4FF0FF32D7
:103A800002EB50028A4225DD6FF03001A6F800906B
:103A900001EB500092B280B259232921FEF7F0FBCE
:103AA0001F20308020883121592301EB500240082B
:103AB0002921FEF7E5FBA6F800A06FF01F00CDF866
:103AC00000801022218870A300EB510080B23921C0
:103AD000FFF752F820882989B1EB500F2CD93222F8
:103AE00002EB50028A4227D91F2131804FF0FF316B
:103AF00001EB50018AB26FF0300101EB500080B24F
:103B000059232921FEF7BCFBA6F80090312120881B
:103B1000592301EB500240082921FEF7B1FBA6F81A
:103B200000A00D20CDF800801022218860A300EBBA
:103B300051003921FFF720F821886FF063022889AE
:103B400002EB5102904246DB642202EB51028242B8
:103B500024BFAA89962A3ED9A92A3CD248F23042EB
:103B600032806E220A3802EB510280B20A27009797
:103B7000A9239621FEF710FD4FF61F003080009715
:103B80006FF06D012889A9230A3082B2208801EBE9
:103B9000500080B29621FEF7FFFCCDF800800A238A
:103BA0002889A02140F2CF1200F0ACF9A6F80090CD
:103BB00010222088032329890092A1EB500164314F
:103BC00001EBD1714A106FF00B0101EB500080B294
:103BD0007D21FEF771FF20886FF01D02298902EB1D
:103BE00050029142FFF637AF0BEB50028A4224BFDE
:103BF000A989DC297FF62FAFFA29BFF42CAF082161
:103C0000A6F800A0009181B2FA230BEB51026FF0ED
:103C10001D0101EB500080B2DC21FEF748FC42F6AA
:103C2000123030800720009020881D21F82301EBFE
:103C30005002494201EB500080B2DD21FEF7ACFC9E
:103C400048F21F403080CDF800806FF00E002188D0
:103C5000102210A300EB510080B2E321FEF78CFF8D
:103C60001248A0F808A003B0BDE8F08FB2E2CAD4B1
:103C700031313AB4A5C3FEB0B4BCFCB2E2CAD40040
:103C800028000220440002204F4E000030000000B7
:103C9000313030004558495400000000B0B4455858
:103CA0004954BCFCCDCBB3F6000000002C00022030
:103CB0004F46460082B02BA0FCF7C6FF2E4E4FF0B9
:103CC0000109CDF80090102202212CA33088203861
:103CD00080B2FEF751FFDFF8A8A04FF47848294DD5
:103CE0004FF0020B4FF6FF77AAF800806868804714
:103CF000287C10F0010F08BF67F30F04F6D02A8963
:103D000030889042F2D9AB8971889942EED9A1B23C
:103D1000B94204BF62F30F0463F31F4420388242A8
:103D200012DD122B10D20FA02F81FCF78DFFCDF8E2
:103D3000009010223088022110A3203880B2FEF7B4
:103D40001BFFAAF8008005E0A0B2210CCDE900B865
:103D5000FEF7EEFA288960F30F04A88960F31F4488
:103D6000C4E70000B2E2CAD431323AB4A5C3FE506F
:103D7000454EB2E2CAD4000044000220525354001F
:103D8000280002202C000220054810B5006880475A
:103D9000002818BF10BDFFF781FDFFF78BFF000063
:103DA0002C000220FEE72DE9F05F1D46164600EBD1
:103DB000060B0F4601EB05090A9C1FFA89F18046A4
:103DC0001FFA8BF0FEF7BAFD2046FEF777FFA8EB4F
:103DD000060A1FFA8AF01FFA89F1FEF7AFFD2046A6
:103DE000FEF76CFFA7EB05091FFA8BF01FFA89F1AC
:103DF000FEF7A4FD2046FEF761FF1FFA8AF01FFAC6
:103E000089F1FEF79BFD2046FEF758FF08EB0509F8
:103E100007EB060A1FFA89F01FFA8AF1FEF78EFDFA
:103E20002046FEF74BFFA8EB05081FFA88F01FFAA3
:103E30008AF1FEF783FD2046FEF740FFBD1B1FFA07
:103E400089F0A9B2FEF77AFD2046FEF737FF1FFA88
:103E500088F0A9B2FEF772FD2046BDE8F05FFEF7DC
:103E60002DBF30380A2801D201207047002070474A
:103E700010B504460420FEF7A5F90148046010BD02
:103E800024000220F0B4002400289CBFF0BC70473E
:103E90000E494FF47A724FF0E026096801FB02F5F3
:103EA000D6F814C00021B369B2699A42FCD026BF8B
:103EB000ACEB02073B449B1A19441346A942F3D3C7
:103EC000641C8442ECD3F0BC704700002400022044
:103ED00030B44FF0E02400216369094A126800FB06
:103EE00002FCA269A0699042FCD026BF1D1A2A4498
:103EF000121A114402466145F4D330BC70470000E9
:103F0000240002202DE9F84F1C46894600259046E2
:103F1000614282460A98032202EB410610B3002C4C
:103F2000B8BFBDE8F88F2F46A5420ADC3B462A46BB
:103F300049465046CDF80080FFF735FF7F1CA74269
:103F4000F4DD002EBCBF06EB8500861D05DB281BBB
:103F5000641E06EB800000F10A066D1CA542E2DD3E
:103F6000BDE8F88F002CB8BFBDE8F88F23462A467D
:103F700049465046CDF80080FFF715FF002EBCBF24
:103F800006EB8500861D05DB281B641E06EB800002
:103F900000F10A066D1CA542E8DDBDE8F88FFCF7CC
:103FA00093FDFDF775FD0923022219214FF4D87006
:103FB000FFF72CF8D820FFF75BFFFEF719FB00F0A6
:103FC00017F8FFF74DFBFFF715F9FFF7D5FAFFF7E5
:103FD000ABF8FFF7DDFBFCF703FFFCF7B9FDFEF7DD
:103FE00083FEFFF7B9F9FEF7CBFEFFF7CDFEE6E75C
:103FF00030B583B01CA0FCF727FE10241F2320A09F
:10400000CDE9000401250295DA021E210020FDF70A
:10401000E1FB1F23029516A0CDE90004DA023C2142
:104020000020FDF7D7FB19A04FF61F02CDE90004D1
:104030001F2302955A210020FDF7CCFB19A0029501
:104040001F23CDE9000478211A460020FDF7C2FBAA
:1040500040F2DC50FFF716FF03B040F2DC50BDE841
:104060003040FFF70FBF0000C8ABB6AFB5E7D7D3FE
:10407000D7DBBACFB2E2CAD4B3CCD0F20000000092
:10408000C8ABB6AFB5E7D7D300000000342E30225E
:104090002049505320535437373936203332305863
:1040A000343830007869616F46656E6740514474FA
:1040B00065636820323032332D31312D32300000CB
:1040C0004FF04070E1EE100A704700000000000061
:1040D00000000000000000000404040404040004C4
:1040E000000000140A0A00000000000000000000A8
:1040F00014143F140A3F0A0A000000041E150506A6
:104100000C14150F0400000012150D0A142C2A12AD
:1041100000000000040A0A1E1515093600000002FE
:104120000201000000000000000000201008080844
:1041300008080810200000020408080808080804FD
:10414000020000000004150E0E150400000000001F
:104150000404041F04040400000000000000000028
:1041600000000002020100000000001F000000002B
:10417000000000000000000000000002000000102D
:104180000808080404020202010000000E111111C7
:104190001111110E00000000040604040404040EB2
:1041A000000000000E1111080402011F00000000B1
:1041B0000E11100C1010110E00000000080C0A0A5D
:1041C000091E0818000000001F01010F1010110E39
:1041D000000000000E09010F1111110E0000000077
:1041E0001F09080404040404000000000E11110E4D
:1041F0001111110E000000000E1111111E10120EEF
:1042000000000000000004000000000400000000A6
:104210000000000400000004040000201008040254
:10422000040810200000000000001F00001F000014
:104230000000000204081020100804020000000022
:104240000E11110804040004000000000E111915DD
:10425000151D011E0000000004040C0A0A1E123382
:10426000000000000F12120E1212120F00000000C8
:104270001E1101010101110E000000000F121212A7
:104280001212120F000000001F120A0E0A02121F63
:10429000000000001F120A0E0A02020700000000C0
:1042A0001C1201013911120C000000003312121E01
:1042B00012121233000000001F0404040404041F3F
:1042C000000000003E080808080808090700000070
:1042D00037120A060A0A123700000000070202021B
:1042E0000202223F000000001B1B1B1B15151515A9
:1042F000000000003B1216161A1A121700000000E8
:104300000E1111111111110E000000000F12120EEA
:1043100002020207000000000E1111111117190E00
:10432000180000000F12120E0A12123700000000CF
:104330001E1101060810110F000000001F150404D3
:104340000404040E00000000331212121212120CA8
:10435000000000003312120A0A0C040400000000DE
:104360001515150E0A0A0A0A000000001B0A0A04A5
:10437000040A0A1B000000001B0A0A040404040EBD
:10438000000000001F0908040402121F0000001CA6
:1043900004040404040404041C00000202020404D3
:1043A000080808100000000E080808080808080897
:1043B0000E0000040A0000000000000000000000E1
:1043C0000000000000000000003F000400000000AA
:1043D00000000000000000000000000C121C123C55
:1043E000000000000302020E1212120E0000000074
:1043F0000000001C1202021C000000001810101C1B
:104400001212123C000000000000000C121E021CE0
:10441000000000003804041E0404041E0000000014
:104420000000003C120C021E221C00000302020EBF
:104430001212123700000000040000060404040EEB
:10444000000000000800000C080808080807000029
:104450000302023A0A0E12370000000007040404A7
:104460000404041F000000000000000F15151515BE
:10447000000000000000000F1212123700000000C0
:104480000000000C1212120C000000000000000FCF
:104490001212120E020700000000001C1212121C61
:1044A000103800000000001B060202070000000098
:1044B0000000001E020C101E000000000004040E8C
:1044C00004040418000000000000001B1212123C3B
:1044D0000000000000000037120A0C040000000079
:1044E00000000015150E0A0A000000000000001B65
:1044F0000A040A1B0000000000000037120A0C0426
:10450000040300000000001E0804041E0000001840
:104510000808080408080808180008080808080817
:104520000808080808080006040404080404040431
:104530000600022518000000000000000000000036
:10454000000000000000000000000000000000006B
:1045500000080808080808080000181800000048AB
:104560006C241200000000000000000000000000A9
:10457000002424247F1212127F1212120000000065
:10458000081C2A2A0A0C1828282A2A1C08080000B5
:104590000022251515152A585454542200000000F5
:1045A000000C1212120A76252911916E00000006E5
:1045B00006040300000000000000000000000040AE
:1045C00020101008080808080810102040000002F9
:1045D0000408081010101010100808040200000051
:1045E000000008086B1C1C6B08080000000000009D
:1045F0000000080808087F080808080000000000FC
:104600000000000000000000000006060403000097
:10461000000000000000FE0000000000000000009C
:10462000000000000000000000000606000000007E
:1046300080404020201010080804040202000000FE
:104640000018244242424242424224180000000024
:1046500000080E08080808080808083E00000000C6
:10466000003C4242422020100804427E000000002C
:10467000003C4242201820404042221C0000000022
:1046800000203028242422227E20207800000000F0
:10469000007E0202021A26404042221C0000000056
:1046A00000382402021A2642424224180000000068
:1046B000007E2222101008080808080800000000E8
:1046C000003C4242422418244242423C0000000086
:1046D00000182442424264584040241C000000005C
:1046E000000000001818000000001818000000006A
:1046F000000000000008000000000008080400009E
:1047000000402010080402040810204000000000AF
:10471000000000007F0000007F000000000000009B
:1047200000020408102040201008040200000000CD
:10473000003C4242464020101000181800000000C3
:10474000001C225A555555552D42221C00000000D0
:10475000000808181414243C224242E7000000001C
:10476000001F2222221E22424242221F000000007D
:10477000007C4242010101010142221C00000000B4
:10478000001F2242424242424242221F00000000D9
:10479000003F4212121E12120242423F000000006D
:1047A000003F4212121E1212020202070000000015
:1047B000003C2222010101712122221C0000000084
:1047C00000E7424242427E42424242E7000000008D
:1047D000003E0808080808080808083E0000000015
:1047E000007C10101010101010101010110F00008D
:1047F000007722120A0E0A1212222277000000000D
:1048000000070202020202020202427F00000000D0
:104810000077363636362A2A2A2A2A6B000000000C
:1048200000E346464A4A5252526262470000000084
:10483000001C2241414141414141221C0000000035
:10484000003F424242423E020202020700000000D4
:10485000001C2241414141414D53321C6000000087
:10486000003F4242423E1212222242C70000000094
:10487000007C4242020418204042423E00000000F8
:10488000007F4908080808080808081C0000000004
:1048900000E74242424242424242423C00000000A3
:1048A00000E74242222424141418080800000000E3
:1048B000006B494949495555362222220000000023
:1048C00000E7422424181818242442E700000000BE
:1048D00000772222141408080808081C00000000B1
:1048E000007E2120101008040442423F000000789E
:1048F00008080808080808080808080878000000E0
:104900000202040408080810102020204040001E65
:104910001010101010101010101010101E00003881
:104920004400000000000000000000000000000043
:1049300000000000000000000000000000FF000672
:10494000080000000000000000000000000000005F
:1049500000000000003C4278444242FC000000009D
:1049600000030202021A26424242261A00000000F8
:104970000000000000384402020244380000000039
:104980000060404040784442424264D80000000049
:1049900000000000003C427E0202423C0000000099
:1049A00000F08808087E08080808083E000000009B
:1049B00000000000007C22221C023C42423C00001D
:1049C00000030202023A4642424242E7000000006F
:1049D000000C0C00000E08080808083E000000004B
:1049E000003030000038202020202020221E00002F
:1049F000000302020272120A16122277000000005F
:104A0000000E0808080808080808083E0000000012
:104A100000000000007F9292929292B70000000086
:104A200000000000003B4642424242E70000000016
:104A300000000000003C42424242423C00000000B4
:104A400000000000001B26424242221E0207000016
:104A500000000000007844424242447840E00000F8
:104A60000000000000774C040404041F0000000054
:104A700000000000007C42023C40423E000000007A
:104A800000000008083E0808080808300000000080
:104A90000000000000634242424262DC000000006D
:104AA0000000000000E74224241408080000000071
:104AB0000000000000EB494955552222000000008B
:104AC00000000000007624181818246E0000000072
:104AD0000000000000E74224241418080807000022
:104AE00000000000007E22100808447E000000C084
:104AF000202020202010202020202020C000101066
:104B000010101010101010101010101010100006BF
:104B100008080808081008080808080806000C32E9
:104B2000C200000000000000000000000000C9EE0C
:104B3000000027FC140414A48110420840401040D7
:104B400017FC2040E0E0215022482C462040004045
:104B5000DBDA11041124112411241124FD24112461
:104B600011241124112411241D24E12442240204BF
:104B70000404CAD00200010000007FFC0100010013
:104B800001003FF8210821082108210821282110CF
:104B900001000100C8AB00000000018002400430A9
:104BA000180860061FF90100010001003FF801002C
:104BB000010001007FFEB6AF0000000000203E2093
:104BC000007C002200227F221022102212221222B8
:104BD000224223423D82009CB5E700000100010013
:104BE0001FF0610C410441047FFC41044104410475
:104BF0007FFC01000102010201FCD7D3000000008C
:104C00003FF8001000600080010000807FFE00403F
:104C1000004000200020002018400780BCBC10206D
:104C20001020102013FEFC201020102015FC1884EA
:104C30003088D04810501020105051882606CAF5F0
:104C400001000120011001107FFC03800540054098
:104C50000920111021084104810201000100010016
:104C6000D3D002000200FFFE040004000FF0081081
:104C700018102FF0481088100FF008100810085076
:104C80000820CFDE00007BF84A08520853F862087B
:104C900052084BF84A444A486A305220421042882F
:104CA00043064200B9AB00800480048008400840FD
:104CB0001020201042088206040004400820102022
:104CC0003FF010100000CBBE00003FF800080008C5
:104CD0007FE8000800081F88108810881088108856
:104CE0001F88108800280010BBB600800080FC8060
:104CF00004FC050449082A401440104028A024A0C0
:104D000045108110020804040802D3AD0000208081
:104D1000133C122402240224F2241224122412B47A
:104D2000132812201020282047FE0000C4FA090092
:104D3000090011FC3204544899501148124414449B
:104D40001140108002005104511290120FF0B4BFB4
:104D500000000020102013FE202026244A247A245C
:104D60001224222423FC7C20002204227822003CEE
:104D7000C9AB0000000004000FF0102020207FFCD1
:104D800020842084208420843FF8200020022002F8
:104D90001FFECCEE00000000204023FE204079FCE6
:104DA000220423FC220423FC220423FC3A0465FA97
:104DB00001980204B3E40000010001007FFE02201C
:104DC0000410040808043FFC044204400440044268
:104DD00008421042607EBED800000000207E3E8067
:104DE0004880488048FE48827F8208820C8214FAFC
:104DF00012842280218040FED0CE000000007F84FB
:104E00002208223022C0220222047FC8223022C27D
:104E100022022204220822304040BBAD00000000E4
:104E20007FFE00000FF011101110111051125FF2EF
:104E30005112511251124FF240027FFCD4B20000C5
:104E400000007FFE47E24812481247E24FF250123C
:104E500050125112511242924472580A3FFCCDBC7A
:104E6000000000003FFE440247F24C2253624082A1
:104E700043625E1A41824062430240C240223FFCCC
:104E8000C6AC000000402040204020403FFE2000F3
:104E9000200020003FE020102010201020104010A3
:104EA0004010CFD4000000003FFC200420043FFC51
:104EB000200420041FF824441448144814480C50BB
:104EC00004407FFECABE000000003FFC000000005E
:104ED00000007FFE008008900888108810842084DD
:104EE000208240820780B2CB0000002008207FFE95
:104EF000002000783F881108089009207FFE01807B
:104F000003400D30310C4002B5A500000010081020
:104F100004203FF8210421043FFC210421043FF830
:104F200001007FFE010001000100D6D00000010059
:104F3000010001003FFC210421042104210421047B
:104F400021043FFC0100010001000100D3A2000088
:104F5000000008207FFE0820092001003FF82108FA
:104F6000210821081FF4014002200C10700ECEC44D
:104F700000000100010000803F7C081008100410B0
:104F80000420022002400180018002601C18E0061B
:104F9000D7DB00000000102011FE2202220249FC93
:104FA0005800300013FE2528792401240D24722294
:104FB00002A2BACF000000000180024004301808AD
:104FC00060061FF800001FF82004200420042004BD
:104FD00020041FF8C1C10000010001007FFE000095
:104FE0003FF820083FF83FF8400647C24824082011
:104FF00008221022603EB6C80000000000803FFE7C
:1050000044105FFC4410441043F040005FF8440833
:10501000423041C04360BC1EB2E20000000067C2E3
:10502000145205520552C5522552055205521552C9
:105030001752228222424442483ECAD40000000055
:105040002014101417FE00120010601013F01090BE
:1050500010901090149214EA1F0A0006B3CC0000BE
:10506000000019FE7202120212027DFC18001BFEE3
:105070003420502053FE10201020102013FED0F2B8
:105080000000000000803FFE400047FC4208413025
:1050900040C05FFE4042404240444048404044409F
:1050A000B5F70000000023FE122202FA0222E222DB
:1050B00012FE1272128A128A128A16BA1A42120248
:1050C000040EB9E2000001000104110809080910EA
:1050D00009207FFE04400440044004400842084286
:1050E0001042607CB0E60000000048FE4900490024
:1050F00049007EFE418241447944452845284510B7
:10510000452846440382C8A800001000100013FC84
:105110007D0411041904188434885048505010201C
:105120001050108813041402CBF9000000003F7CDB
:10513000204020403E40227E2244224422443E849D
:1051400020842084408441044204C6C100003FF80A
:10515000200820083FF8241022202FF822202220A7
:105160003FFC22204220442084200820C4BB04406D
:105170007FFC04401FF010101FF010101FF00400FF
:10518000FFFE11103FF8D116115011200100D0FD83
:105190002080108010FE0100FE0021FC20243C2411
:1051A00024A024A024BC24A024A04560553E8A004D
:1051B000D7AA202020202020FDFC4020504093FE34
:1051C000FC40108011FC1C04F0885050102010107E
:1051D0001010BFAA00007FFC08200820082008202B
:1051E0000820FFFE0820082008200820102010209A
:1051F00020204020D4B4000027FE1420144085FC59
:10520000450445FC150415FC2524E42024A8292484
:105210002A2230A00040D2BA0080204017FE112080
:105220008120423C4244166412942348E2482230D2
:105230002220225022880306BEA70FE00820082063
:105240000FE0082008200FE000007EFC428442842A
:105250007EFC428442847EFC4284CDF800007FFCC8
:1052600040044004421452944A54442444244A546E
:105270004A5452946104400440144008D5BE1020A2
:10528000082008207E20003E04204420442025FCE5
:10529000290429040F04F104410401FC0104B0B401
:1052A00010401020102013FEFA02144410401BFE80
:1052B0003088D088110810D0102010505088230456
:1052C000BCFC201020103B7C211441FE7A14A27CEF
:1052D0002710F97C251025FE22102A10350028FE03
:1052E0000000D0A310401020102011FEFC001088F8
:1052F00031043A02548850889050105010201050B9
:1053000010881306D7BC01404120212023FE022033
:1053100016201BFC1220222023FCE2202220222027
:1053200023FE22000200B4A520202020782049FC82
:1053300091247D24552455247DFC552454207C281B
:10534000542457FE45028C00C3FE1110111017FCA7
:105350001110FC0013F8120817F81A0833F8D0409F
:1053600017FC10A0111052082406B6C100202020FE
:1053700011FC1020002003FEF002109410501110B8
:10538000109013FE1428184410820302BACD0400B2
:105390000E007800087C0844FF44084418441C446C
:1053A0002A442A444844887C084408000800D1D58F
:1053B000100008FE7F102220147C7F44445448547F
:1053C0005254445448545154422844248842308210
:1053D000D6B5084008400FFC1040104033F83208A2
:1053E00053F8920813F8120813F8120812081FFE57
:1053F0001000C8DD020001007FFE40028824111069
:105400002288044008203018DFF610101010101009
:105410001FF01010D6A70100010001007FFC010061
:10542000010001003FF0101008200440028001003C
:1054300006C01830E00EB3D610201020102011FC4A
:10544000FC20102013FE1008180833FED008108826
:105450001048100850282010B5E302000200020096
:1054600003FC020002003FF02010201020103FF04B
:1054700000002488224442448004CCAC0100010096
:105480007FFC0100028004400A203118C0060100A0
:10549000088848844812481287F00000CAFD082096
:1054A00049202A20083EFF442A44494488A4102861
:1054B000FE2822104210642818283444C282D7D60D
:1054C000020001007FFE400280041FE000400080D7
:1054D0000100FFFE010001000100010005000200C3
:1054E000CDCB03F82208120813F802080208F3F8DB
:1054F000124412281210128813041204280047FEC6
:105500000000B3F60100010021082108210821084C
:105510003FF8010801000100410441044104410435
:105520007FFC0004C9EE000000000000100000082D
:1055300000080C7FFC04401001C8A0021860423033
:105540001832231812C30014030004030C047FF064
:10555000080F80080B407813601833201863181860
:10556000831C190308180300000300000000DBDAA5
:1055700000000000000004100C04180C04108C043F
:10558000108C04108C04108C04D08C3F108C0410F0
:105590008C04108C04108C04108C04108C04108C5F
:1055A00005F08C0E208C78208C20408C00808C01A3
:1055B000000C02000C000000CAD000000000000037
:1055C00000300000180000180800001C1FFFE00059
:1055D000180000182007FFF00418200418200418F1
:1055E000200418200418200418200418200418206F
:1055F0000418200418E004184000180000180000E7
:105600000000D6D0000000000000000000000000F4
:105610000018000018000018000018003FFFFE30BE
:1056200018063018063018063018063018063FFFE6
:10563000FE301806001800001800001800001800BE
:10564000001800000000000000000000CEC40000B0
:1056500000000000000000003800001C00000600F0
:10566000FFFFFF060030060030030060030060010A
:1056700080C000C18000E300003600001C000077FD
:105680000003C1E01E003C600007000000000000B5
:10569000000000000000B2E2000000000000000076
:1056A0000000000040000321FF33398333118333AE
:1056B000019B33C19B33719B33199B33019B330196
:1056C0009B33119B3319B333303033306C0330C606
:1056D000036383032E01BE000000000000000000F1
:1056E000CAD40000000000000000000000004000DC
:1056F000D83000CE1800C21C00C001FFFF0000C05F
:10570000F800C01800C019FFC01818401818601918
:1057100018601B18611E18311C1FB139F0191000D8
:105720000F000000000000000000D7D600000000BD
:1057300000060000000300000000C0000001C0C01F
:10574000000107C00001FF00021FFE0007F01C005F
:1057500007C070000F00E0000E03F0001C0FF00007
:105760003C0F70003C00E0001800C0000000C000CA
:105770000000C000000060000000200000003700B2
:105780000001FF00007FF80007F830001F803000A4
:105790000080300000C03000006060000018E000B1
:1057A000000FC0000006000000000000CCE5000073
:1057B000000000000000000000C0000000E0002029
:1057C00001B800703FF80061FFC000C3030001C6CC
:1057D0000600038C060003080C0006080C000E18D7
:1057E000183F1E101BF31F903F0700803C1C0190C8
:1057F000707C019060FE01A0C3F801A00FD803A047
:105800000818036000180340001803C00018038044
:10581000001803000018000000180000001000002D
:105820000030000000300000000000000000B2E284
:105830000000000000000000000000000000000068
:10584000020C1008071FF80403BFF00201BC30036C
:1058500003EC3003015C600300D8600300D86003F0
:105860008098620361B8430771B143063132430641
:105870003376C3063A64C7063EECC0063E78C006DF
:105880003C3040067C70000678E060067BFFF00646
:10589000F7C00006E4000006400000060000000615
:1058A0000000007C00008FF000007C000000000081
:1058B000CAD400000000000000000000000000004A
:1058C0003F0000007F8000000180000000C0000059
:1058D00000C0000000CE038000CFFFC000DD41808B
:1058E0000FFE0007FFFC000C00F000180FC03E196F
:1058F000FF40F311BC6083307FE003B1FE2003332F
:10590000802003700030036000100360001807C09F
:10591000000C07C000040780000201000003000023
:105920000001000000000000000000000000000076
:1059300000000000FFFFFFFFFFFFFFFFFFFFFFFF73
:10594000FFFFFFFFFFFFFFFFFFFFFFFFFFFFFFFF67
:10595000FFFFBEF7FFFFDEFF38C6928C8E6B6E6BCB
:10596000107C96AD3CE7FFFFFFFFFFFFFFFFFFFF4F
:10597000FFFFFFFFFFFFFFFFFFFFFFFFFFFFFFFF37
:10598000FFFFFFFFFFFFFFFFFFFFFFFFFFFFFFFF27
:10599000FFFFFFFFFFFFFFFFFFFFFFFFFFFFFFFF17
:1059A000FFFF5DEF159D4F636C420A32882946194F
:1059B00025194521E8318E6B38C6FFFFFFFFFFFF39
:1059C000FFFFFFFFFFFFFFFFFFFFFFFFFFFFFFFFE7
:1059D000FFFFFFFFFFFFFFFFFFFFFFFFFFFFFFFFD7
:1059E000FFFFFFFFFFFFFFFFFFFFFFFFFFFFFFFFC7
:1059F00036A51053104B51530F4B6C3AE9316721C8
:105A00002519E410A30862008308CB529AD6FFFF41
:105A1000FFFFFFFFFFFFFFFFFFFFFFFFFFFFFFFF96
:105A2000FFFFFFFFFFFFFFFFFFFFFFFFFFFFFFFF86
:105A3000FFFFFFFFFFFFFFFFFFFFFFFF3CE770637C
:105A4000B363B87CF56311434D32EA2988212619E6
:105A50000519051904110411E4108300A308728CC0
:105A6000FFFFFFFFFFFFFFFFFFFFFFFFFFFFFFFF46
:105A7000FFFFFFFFFFFFFFFFFFFFFFFFFFFFFFFF36
:105A8000FFFFFFFFFFFFFFFFFFFFDBDE4B3AF042B0
:105A9000356C544BB1322E2AEB21A9216719051917
:105AA000041104110411041104110519E410420039
:105AB000AF73FFFFFFFFFFFFFFFFFFFFFFFFFFFFD2
:105AC000FFFFFFFFFFFFFFFFFFFFFFFFFFFFFFFFE6
:105AD000FFFFFFFFFFFFFFFF5DEF09324C32104B6E
