:1000030000000000000000000000000000000404E5
:10001300040404040004000000140A0A00000000A1
:1000230000000000000014143F140A3F0A0A0000F5
:1000330000041E1505060C14150F0400000012150C
:100043000D0A142C2A1200000000040A0A1E1515BA
:100053000936000000020201000000000000000059
:1000630000201008080808080810200000020408EF
:10007300080808080804020000000004150E0E1505
:100083000400000000000404041F04040400000032
:100093000000000000000000000202010000000058
:1000A300001F00000000000000000000000000002E
:1000B3000002000000100808080404020202010004
:1000C30000000E1111111111110E000000000406A1
:1000D30004040404040E000000000E1111080402BD
:1000E300011F000000000E11100C1010110E000073
:1000F3000000080C0A0A091E0818000000001F016E
:10010300010F1010110E000000000E09010F111154
:10011300110E000000001F09080404040404000079
:1001230000000E11110E1111110E000000000E112E
:1001330011111E10120E0000000000000400000048
:10014300000400000000000000040000000404009C
:100153000020100804020408102000000000000022
:100163001F00001F000000000002040810201008F8
:100173000402000000000E11110804040004000032
:1001830000000E111915151D011E000000000404C6
:100193000C0A0A1E1233000000000F12120E121274
:1001A300120F000000001E1101010101110E0000D9
:1001B30000000F1212121212120F000000001F1281
:1001C3000A0E0A02121F000000001F120A0E0A0282
:1001D3000207000000001C1201013911120C00007B
:1001E30000003312121E12121233000000001F040B
:1001F30004040404041F000000003E080808080863
:1002030008090700000037120A060A0A123700001D
:100213000000070202020202223F000000001B1B33
:100223001B1B15151515000000003B1216161A1A94
:100233001217000000000E1111111111110E000010
:1002430000000F12120E02020207000000000E113E
:1002530011111117190E180000000F12120E0A12B5
:100263001237000000001E1101060810110F0000D4
:1002730000001F1504040404040E000000003312E0
:1002830012121212120C000000003312120A0A0C8E
:100293000404000000001515150E0A0A0A0A0000DE
:1002A30000001B0A0A04040A0A1B000000001B0AC0
:1002B3000A040404040E000000001F0908040402D9
:1002C300121F0000001C04040404040404041C00A2
:1002D300000202020404080808100000000E0808C7
:1002E3000808080808080E0000040A0000000000BF
:1002F3000000000000000000000000000000003FBC
:1003030000040000000000000000000000000000E6
:10031300000C121C123C000000000302020E121219
:10032300120E000000000000001C1202021C00005C
:1003330000001810101C1212123C000000000000F4
:10034300000C121E021C000000003804041E0404EA
:10035300041E000000000000003C120C021E221CC0
:1003630000000302020E1212123700000000040004
:1003730000060404040E000000000800000C080836
:100383000808080700000302023A0A0E12370000A9
:100393000000070404040404041F0000000000001C
:1003A300000F15151515000000000000000F1212B4
:1003B3001237000000000000000C1212120C0000A3
:1003C30000000000000F1212120E020700000000CE
:1003D300001C1212121C103800000000001B060241
:1003E3000207000000000000001E020C101E0000A7
:1003F30000000004040E04040418000000000000C0
:10040300001B1212123C0000000000000037120A09
:100413000C040000000000000015150E0A0A00007D
:1004230000000000001B0A040A1B0000000000007B
:100433000037120A0C04040300000000001E080425
:10044300041E00000018080808040808080818001B
:10045300080808080808080808080808000604042B
:100463000408040404040600022518000000000028
:100473000000000000000000000000000000000079
:100483000000000000000008080808080808000031
:100493001818000000486C2412000000000000003F
:1004A300000000000000002424247F1212127F1297
:1004B300121200000000081C2A2A0A0C1828282AF5
:1004C3002A1C080800000022251515152A58545423
:1004D300542200000000000C1212120A7625291182
:1004E300916E0000000606040300000000000000F7
:1004F3000000000000402010100808080808081039
:1005030010204000000204080810101010101008FA
:10051300080402000000000008086B1C1C6B08089C
:100523000000000000000000080808087F08080811
:1005330008000000000000000000000000000000B0
:10054300060604030000000000000000FE00000097
:100553000000000000000000000000000000000098
:100563000606000000008040402020101008080408
:100573000402020000000018244242424242424266
:1005830024180000000000080E08080808080808DE
:10059300083E00000000003C4242422020100804B4
:1005A300427E00000000003C4242201820404042AE
:1005B300221C0000000000203028242422227E2058
:1005C300207800000000007E0202021A264040420A
:1005D300221C0000000000382402021A2642424274
:1005E300241800000000007E2222101008080808CA
:1005F300080800000000003C424242241824424202
:10060300423C00000000001824424242645840402B
:10061300241C000000000000000018180000000067
:10062300181800000000000000000008000000008F
:100633000008080400000040201008040204081009
:10064300204000000000000000007F0000007F0049
:1006530000000000000000020408102040201008E1
:10066300040200000000003C4242464020101000FB
:10067300181800000000001C225A555555552D42EC
:10068300221C00000000000808181414243C224215
:1006930042E700000000001F2222221E22424242A3
:1006A300221F00000000007C4242010101010142BF
:1006B300221C00000000001F2242424242424242EA
:1006C300221F00000000003F4212121E12120242BB
:1006D300423F00000000003F4212121E12120202AB
:1006E300020700000000003C2222010101712122C7
:1006F300221C0000000000E7424242427E42424286
:1007030042E700000000003E08080808080808083F
:10071300083E00000000007C101010101010101094
:100723001010110F0000007722120A0E0A12122273
:100733002277000000000007020202020202020206
:10074300427F000000000077363636362A2A2A2AEE
:100753002A6B0000000000E346464A4A52525262A6
:10076300624700000000001C2241414141414141D8
:10077300221C00000000003F424242423E020202AD
:10078300020700000000001C2241414141414D533A
:10079300321C60000000003F4242423E12122222FD
:1007A30042C700000000007C42420204182040427D
:1007B300423E00000000007F4908080808080808B6
:1007C300081C0000000000E742424242424242420B
:1007D300423C0000000000E7424222242414141883
:1007E300080800000000006B494949495555362265
:1007F30022220000000000E74224241818182424B1
:1008030042E70000000000772222141408080808B9
:10081300081C00000000007E212010100804044280
:10082300423F00000078080808080808080808087C
:1008330008087800000002020404080808101020C9
:1008430020204040001E1010101010101010101027
:1008530010101E00003844000000000000000000DB
:100863000000000000000000000000000000000085
:10087300000000FF00060800000000000000000068
:1008830000000000000000000000003C42784442E9
:1008930042FC0000000000030202021A2642424208
:1008A300261A000000000000000000384402020283
:1008B3004438000000000060404040784442424217
:1008C30064D80000000000000000003C427E0202E9
:1008D300423C0000000000F08808087E0808080871
:1008E300083E0000000000000000007C22221C02E1
:1008F3003C42423C000000030202023A46424242AA
:1009030042E700000000000C0C00000E0808080875
:10091300083E000000000030300000382020202076
:100923002020221E0000000302020272120A161285
:10093300227700000000000E0808080808080808CD
:10094300083E0000000000000000007F9292929297
:1009530092B70000000000000000003B4642424204
:1009630042E70000000000000000003C4242424217
:10097300423C0000000000000000001B26424242EF
:10098300221E020700000000000000784442424299
:10099300447840E000000000000000774C040404A9
:1009A300041F0000000000000000007C42023C40E5
:1009B300423E0000000000000008083E0808080846
:1009C3000830000000000000000000634242424281
:1009D30062DC000000000000000000E74224241451
:1009E3000808000000000000000000EB49495555CD
:1009F30022220000000000000000007624181818CE
:100A0300246E000000000000000000E742242414CC
:100A130018080807000000000000007E22100808E4
:100A2300447E000000C02020202020102020202011
:100A33002020C000101010101010101010101010F3
:100A43001010101000060808080808100808080805
:100A5300080806000C32C20000000000000000007D
:100A630000000000C9EE000027FC140414A4811048
:100A730042084040104017FC2040E0E0215022484B
:100A83002C4620400040DBDA1104112411241124E8
:100A93001124FD24112411241124112411241D24B3
:100AA300E124422402040404CAD00200010000002D
:100AB3007FFC0100010001003FF821082108210803
:100AC30021082128211001000100C8AB000000000B
:100AD300018002400430180860061FF9010001007C
:100AE30001003FF80100010001007FFEB6AF0000E6
:100AF300000000203E20007C002200227F221022E2
:100B0300102212221222224223423D82009CB5E788
:100B13000000010001001FF0610C410441047FFC4F
:100B23004104410441047FFC01000102010201FC74
:100B3300D7D3000000003FF80010006000800100E0
:100B430000807FFE0040004000200020002018406D
:100B53000780BCBC00000000104013FE10407C4026
:100B6300104013FC1104190830885050106010D045
:100B730013087C06CAF500000100013001080100DA
:100B83007FFE018003400540052009101108210460
:100B9300410201000100D3D00000010002007FFEEA
:100BA300040008001FFC700490041FFC10041004D0
:100BB3001FFC10041004103CCFDE000000007BFC7F
:100BC3004A044A044BFC52044A044BFC4A404A443C
:100BD3007A2842304210420843C6B9AB00000000F5
:100BE30004400420081010101008210442020220BF
:100BF30004100810080810081FFC0004CBBE0000F6
:100C030000003FFC000400043FF400043FE4202400
:100C130020242024202420241FC40004007CBBB6ED
:100C23000000000000807EFC02A202A222A4152480
:100C330014240C300C300C481248228442840102E4
:100C4300D3AD000000002398246414440444644496
:100C5300144414441444144415C4125C1040284032
:100C630047FEC4FA00000000120013FE24222522CE
:100C7300652862242224242020E0050814842444C7
:100C8300241A47F2B4BF00000020102013FE2020D6
:100C930026244A247A241224222423FC7C200022A2
:100CA30004227822003CC9AB0000000004000FF0CE
:100CB300102020207FFC20842084208420843FF87F
:100CC3002000200220021FFECCEE00000000204086
:100CD30023FE204079FC220423FC220423FC22046B
:100CE30023FC3A0465FA01980204B3E4000001000E
:100CF30001007FFE02200410040808043FFC0442A4
:100D030004400440044208421042607EBED8000002
:100D13000000207E3E804880488048FE48827F82D3
:100D230008820C8214FA12842280218040FED0CEE5
:100D3300000000007F842208223022C02202220405
:100D43007FC8223022C222022204220822304040DD
:100D5300BBAD000000007FFE00000FF0111011106A
:100D6300111051125FF25112511251124FF24002FF
:100D73007FFCD4B2000000007FFE47E24812481215
:100D830047E24FF2501250125112511242924472E2
:100D9300580A3FFCCDBC000000003FFE440247F26E
:100DA3004C225362408243625E1A41824062430294
:100DB30040C240223FFCC6AC00000040204020401F
:100DC30020403FFE2000200020003FE020102010A4
:100DD3002010201040104010CFD4000000003FFC32
:100DE300200420043FFC200420041FF8244414485A
:100DF300144814480C5004407FFECABE0000000093
:100E03003FFC0000000000007FFE0080089008887F
:100E1300108810842084208240820780B2CB000097
:100E2300002008207FFE002000783F8811080890EA
:100E330009207FFE018003400D30310C4002B5A52F
:100E430000000010081004203FF8210421043FFC97
:100E5300210421043FF801007FFE0100010001008D
:100E6300D6D000000100010001003FFC2104210451
:100E730021042104210421043FFC0100010001009D
:100E83000100D3A20000000008207FFE08200920F3
:100E930001003FF82108210821081FF40140022026
:100EA3000C10700ECEC400000100010000803F7CD6
:100EB3000810081004100420022002400180018061
:100EC30002601C18E006D7DB00000000102011FEB2
:100ED3002202220249FC5800300013FE25287924FF
:100EE30001240D24722202A2BACF00000000018067
:100EF30002400430180860061FF800001FF82004A1
:100F030020042004200420041FF8C1C100000100B4
:100F130001007FFE00003FF820083FF83FF840063D
:100F230047C24824082008221022603EB6C80000A9
:100F3300000000803FFE44105FFC4410441043F067
:100F430040005FF84408423041C04360BC1EB2E237
:100F53000000000067C2145205520552C5522552C3
:100F63000552055215521752228222424442483EEC
:100F7300CAD4000000002014101417FE0012001041
:100F8300601013F0109010901090149214EA1F0A3E
:100F93000006B3CC0000000019FE72021202120216
:100FA3007DFC18001BFE3420502053FE102010201F
:100FB300102013FED0F20000000000803FFE40002E
:100FC30047FC4208413040C05FFE4042404240443B
:100FD300404840404440B5F70000000023FE122281
:100FE30002FA0222E22212FE1272128A128A128A72
:100FF30016BA1A421202040EB9E2000001000104FB
:1010030011080908091009207FFE04400440044028
:101013000440084208421042607CB0E60000000031
:1010230048FE4900490049007EFE4182414479441B
:10103300452845284510452846440382C8A8000092
:101043001000100013FC7D04110419041884348863
:101053005048505010201050108813041402CBF93C
:10106300000000003F7C204020403E40227E22447E
:10107300224422443E842084208440844104420448
:10108300C6C100003FF8200820083FF824102220A2
:101093002FF8222022203FFC2220422044208420BB
:1010A3000820C4BB04407FFC04401FF010101FF055
:1010B30010101FF00400FFFE11103FF8D11611505D
:1010C30011200100D0002080108010FE0100FE00DE
:1010D30021FC20243C2424A024A024BC24A024A05C
:1010E3004560553E8A00D7AA202020202020FDFC01
:1010F3004020504093FEFC40108011FC1C04F088FB
:101103005050102010101010BFAA00007FFC0820C0
:101113000820082008200820FFFE082008200820B7
:1011230008201020102020204020D4B4000027FEE7
:101133001420144085FC450445FC150415FC2524A6
:10114300E42024A829242A2230A00040D2BA008017
:10115300204017FE11208120423C42441664129421
:101163002348E24822302220225022880306BEA7C9
:101173000FE0082008200FE0082008200FE00000FF
:101183007EFC428442847EFC428442847EFC428410
:10119300CDF800007FFC40044004421452944A54AA
:1011A300442444244A544A5452946104400440144D
:1011B3004008D5BE1020082008207E20003E0420D1
:1011C3004420442025FC290429040F04F10441048C
:1011D30001FC0104B0B410401020102013FEFA02E9
:1011E300144410401BFE3088D088110810D0102002
:1011F300105050882304BCFC201020103B7C211489
:1012030041FE7A14A27C2710F97C251025FE2210BA
:101213002A10350028FE0000D0A310401020102013
:1012230011FEFC00108831043A0254885088905013
:1012330010501020105010881306D7BC01404120D5
:10124300212023FE022016201BFC1220222023FC37
:10125300E2202220222023FE22000200B4A5202027
:101263002020782049FC91247D24552455247DFC9D
:10127300552454207C28542457FE45028C00C3FE79
:101283001110111017FC1110FC0013F8120817F8B5
:101293001A0833F8D04017FC10A011105208240686
:1012A300B6C10020202011FC1020002003FEF00214
:1012B300109410501110109013FE1428184410822B
:1012C3000302BACD04000E007800087C0844FF44F2
:1012D300084418441C442A442A444844887C08444B
:1012E30008000800D1D5100008FE7F102220147CCE
:1012F3007F4444544854525444544854515442280B
:10130300442488423082D6B5084008400FFC104080
:10131300104033F8320853F8920813F8120813F800
:10132300120812081FFE1000C8DD020001007FFE34
:101333004002882411102288044008203018DFF668
:101343001010101010101FF01010D6A7010001008C
:1013530001007FFC0100010001003FF01010082094
:1013630004400280010006C01830E00EB3D61020FE
:101373001020102011FCFC20102013FE1008180868
:1013830033FED00810881048100850282010B5E309
:1013930002000200020003FC020002003FF02010E2
:1013A300201020103FF0000024882244424480048F
:1013B300CCAC010001007FFC0100028004400A2044
:1013C3003118C0060100088848844812481287F083
:1013D3000000CA00082049202A20083EFF442A446E
:1013E300494488A41028FE28221042106428182893
:1013F3003444C282D7D6020001007FFE400280043B
:101403001FE0004000800100FFFE01000100010019
:10141300010005000200CDCB03F82208120813F8DF
:1014230002080208F3F81244122812101288130457
:101433001204280047FE0000B3F601000100210852
:101443002108210821083FF8010801000100410497
:101453004104410441047FFC0004BDC708000800A7
:101463001FE020204040BFF8210821083FF8210851
:1014730021083FF82108410841288010C9EE0000E7
:10148300000000001000000800080C7FFC0440105E
:1014930001C8A002186042301832231812C3001486
:1014A300030004030C047FF0080F80080B4078133B
:1014B3006018332018631818831C190308180300D5
:1014C300000300000000DBDA00000000000004104D
:1014D3000C04180C04108C04108C04108C04108C55
:1014E30004D08C3F108C04108C04108C04108C04DA
:1014F300108C04108C04108C05F08C0E208C78203A
:101503008C20408C00808C01000C02000C00000039
:10151300CAD00000000000000030000018000018CE
:101523000800001C1FFFE000180000182007FFF050
:101533000418200418200418200418200418200478
:1015430018200418200418200418200418E0041894
:1015530040001800001800000000D6D00000000072
:101563000000000000000000001800001800001830
:10157300000018003FFFFE3018063018063018062A
:101583003018063018063FFFFE301806001800001A
:1015930018000018000018000018000000000000E8
:1015A30000000000CEC400000000000000000000A6
:1015B3003800001C00000600FFFFFF060030060095
:1015C300300300600300600180C000C18000E300BD
:1015D300003600001C0000770003C1E01E003C60E1
:1015E3000007000000000000000000000000B2E25D
:1015F3000000000000000000000000004000032184
:10160300FF33398333118333019B33C19B33719B85
:1016130033199B33019B33019B33119B3319B33331
:10162300303033306C0330C6036383032E01BE00B6
:101633000000000000000000CAD400000000000009
:101643000000000000004000D83000CE1800C21C8B
:1016530000C001FFFF0000C0F800C01800C019FF60
:10166300C01818401818601918601B18611E18312B
:101673001C1FB139F01910000F000000000000001A
:101683000000D7D6000000000006000000030000A1
:101693000000C0000001C0C0000107C00001FF003E
:1016A300021FFE0007F01C0007C070000F00E000DF
:1016B3000E03F0001C0FF0003C0F70003C00E00034
:1016C3001800C0000000C0000000C000000060005F
:1016D30000002000000037000001FF00007FF80039
:1016E30007F830001F8030000080300000C0300059
:1016F300006060000018E000000FC000000600005A
:1017030000000000CCE50000000000000000000025
:1017130000C0000000E0002001B800703FF8006145
:10172300FFC000C3030001C60600038C06000308C4
:101733000C0006080C000E18183F1E101BF31F9018
:101743003F0700803C1C0190707C019060FE01A06B
:10175300C3F801A00FD803A00818036000180340C2
:10176300001803C0001803800018030000180000CD
:1017730000180000001000000030000000300000DE
:10178300000000000000B2E20000000000000000C2
:101793000000000000000000020C1008071FF804FE
:1017A30003BFF00201BC300303EC3003015C6003B0
:1017B30000D8600300D860038098620361B84307D0
:1017C30071B14306313243063376C3063A64C70622
:1017D3003EECC0063E78C0063C3040067C700006F6
:1017E30078E060067BFFF006F7C00006E400000621
:1017F30040000006000000060000007C00008FF09F
:1018030000007C0000000000CAD4000000000000BB
:1018130000000000000000003F0000007F80000087
:101823000180000000C0000000C0000000CE038063
:1018330000CFFFC000DD41800FFE0007FFFC000C5E
:1018430000F000180FC03E19FF40F311BC60833055
:101853007FE003B1FE200333802003700030036078
:1018630000100360001807C0000C07C000040780C5
:10187300000201000003000000010000000000005E
:0A188300000000000000000000005B
:1079AB0090003AFEE0FCA3E0FD900039E02DFD9045
:0D79BB000038E03CFC90003EE0FAA3E0FB49
:1079C800900040EAF0A3EBF0127ACD900040E0FE80
:0679D800A3E0FF027AADFE
:10692D00900011E0FCA3E0FD90000FE0FAA3E0FB66
:10693D00A3E0FFA3E090002FCFF0A3EFF09000BEF7
:10694D00E0FFA3E0900031CFF0A3EFF090000DE059
:04695D00FEA3E0FFB6
:0E696100900029EEF0A3EFF0A3ECF0A3EDF010
:10696F00900029E0FEA3E0FFC3EB9FFFEA9ECF2438
:10697F0001CF3400900037F0A3EFF090002BE0FE32
:10698F00A3E0FFC3900030E09FFF90002FE09ECF69
:10699F002401CF3400900039F0A3EFF090002BE0EA
:1069AF00FCA3E0FD90002FE0FFA3E0900048CFF0A4
:1069BF00A3EFF0900029E0FEA3E0FF127701E4902F
:1069CF000033F0A3F0900039E0FEA3E0FFC3900086
:1069DF0034E09F900033E09E5047E4900035F0A3E1
:1069EF00F0900037E0FEA3E0FFC3900036E09F90E9
:1069FF000035E09E501B900031E0FEA3E0FF127ABD
:106A0F00AD900036E004F070D8900035E004F080CF
:106A1F00D0900034E004F070AC900033E004F080CC
:106A2F00A49000C3E024FFFB9000C2E034FFFA9073
:106A3F0000C5E024FFFE9000C4E034FF900048F052
:0B6A4F00A3CEF0E4FDFCFFFE02770187
:055AE100E0FEA3E0FF60
:0E5AE60090001DEEF0A3EFF0A3ECF0A3EDF0A6
:105AF400E4900027F0A3F0A3F0A3F090001DE0FED3
:105B0400A3E0FFC3EB9FFFEA9E90002BF0A3EFF00E
:105B140090001FE0FAA3E0FBC3900024E09BFE90FA
:105B24000023E09A90002DF0A3CEF090001DE0FF3A
:105B3400A3E0900035CFF0A3EFF0A3EAF0A3EBF0DD
:105B440090002BE0FEA3E0FFD39400EE64809480E9
:105B5400400A900031E4F0A304F08021EF4E700875
:105B6400900031F0A3F0801574FF900031F0A3F0A1
:105B7400C3E49FFFE49E90002BF0A3EFF090002D70
:105B8400E0FEA3E0FFD39400EE64809480400A908A
:105B94000033E4F0A304F08021EF4E70089000334A
:105BA400F0A3F0801574FF900033F0A3F0C3E49FDA
:105BB400FFE49E90002DF0A3EFF090002DE0FEA3F3
:105BC400E0FF90002BE0FCA3E0FDD39FEE6480F89F
:105BD400EC64809890002F4007ECF0A3EDF0800572
:105BE400EEF0A3EFF0E4900025F0A3F0900030E095
:105BF4002401FF90002FE03400FED3900026E09FA4
:105C0400900025E09E4003025CD0900035E0FEA3A6
:105C1400E0FFA3E0FCA3E0FD127A1190002BE0FE6C
:105C2400A3E0FF900028E02FF0900027E03EF090E2
:105C3400002DE0FEA3E0FF90002AE02FF090002961
:105C4400E03EF090002FE0FEA3E0FF900027E0FC90
:105C5400A3E0FDD39FEE6480F8EC6480984020EDCF
:105C64009FFFEC9E900027F0A3EFF0900031E0FE40
:105C7400A3E0FF900036E02FF0900035E03EF09076
:105C8400002FE0FEA3E0FF900029E0FCA3E0FDD399
:105C94009FEE6480F8EC6480984020ED9FFFEC9EBA
:105CA400900029F0A3EFF0900033E0FEA3E0FF9012
:105CB4000038E02FF0900037E03EF0900026E0043A
:0C5CC400F07006900025E004F0025BF098
:015CD00022B1
:0E54E300900004EEF0A3EFF0A3ECF0A3EDF0C8
:1054F100E4900012F0A3F0A3F0A3F0900004E0FE0A
:10550100A3E0FFC3EB9FFFEA9E900016F0A3EFF02C
:10551100900006E0FAA3E0FBC390000BE09BFE9035
:10552100000AE09A900018F0A3CEF0900004E0FF8A
:10553100A3E0900020CFF0A3EFF0A3EAF0A3EBF0FB
:10554100900016E0FEA3E0FFD39400EE6480948007
:10555100400A90001CE4F0A304F08021EF4E700893
:1055610090001CF0A3F0801574FF90001CF0A3F0D4
:10557100C3E49FFFE49E900016F0A3EFF0900018A3
:10558100E0FEA3E0FFD39400EE64809480400A9093
:10559100001EE4F0A304F08021EF4E700890001E7D
:1055A100F0A3F0801574FF90001EF0A3F0C3E49FF8
:1055B100FFE49E900018F0A3EFF0900018E0FEA326
:1055C100E0FF900016E0FCA3E0FDD39FEE6480F8BD
:1055D100EC64809890001A4007ECF0A3EDF0800590
:1055E100EEF0A3EFF0E4900010F0A3F090001BE0C8
:1055F1002401FF90001AE03400FED3900011E09FD7
:10560100900010E09E40030256EC900022E0FCA3C3
:10561100E0FD90000EE0FAA3E0FB90000CE0FFA398
:10562100E090002ACFF0A3EFF0A3E4F0A304F09000
:105631000020E0FEA3E0FF1258EB900016E0FEA36D
:10564100E0FF900013E02FF0900012E03EF0900098
:1056510018E0FEA3E0FF900015E02FF0900014E0A9
:105661003EF090001AE0FEA3E0FF900012E0FCA3E0
:10567100E0FDD39FEE6480F8EC6480984020ED9FBC
:10568100FFEC9E900012F0A3EFF090001CE0FEA34F
:10569100E0FF900021E02FF0900020E03EF090002C
:1056A1001AE0FEA3E0FF900014E0FCA3E0FDD39F0D
:1056B100EE6480F8EC6480984020ED9FFFEC9E90B2
:1056C1000014F0A3EFF090001EE0FEA3E0FF9000B5
:1056D10023E02FF0900022E03EF0900011E004F072
:0B56E1007006900010E004F00255ED90
:0156EC00229B
:10718F00900005EAF0A3EBF0900001EEF0A3EFF012
:10719F00A3ECF0A3EDF0C007A3E0FAA3E0FB90008F
:1071AF0003E0FFA3E0900023CFF0A3EFF0D007128E
:1071BF005AE6900001E0FAA3E0FBFFAE02C007A37E
:1071CF00E0FCA3E0FD900007E0FFA3E0900023CFD9
:1071DF00F0A3EFF0D007125AE6900007E0FCA3E00F
:1071EF00FD900005E0FAA3E0FBA3E0FFA3E0900011
:1071FF0023CFF0A3EFF0900001125AE1900005E0C9
:10720F00FAA3E0FBFFAE02C007900003E0FCA3E08F
:10721F00FD900007E0FFA3E0900023CFF0A3EFF075
:05722F00D007025AE641
:107A8800C007900007E0FFA3E090002FCFF0A3EF1E
:107A9800F09000BEE0FFA3E0900031CFF0A3EFF03C
:057AA800D00702696136
:1067F00090003CF0A3EFF0900028E0FFA3E09000B1
:0E6800003ECFF0A3EFF0900024E0FEA3E0FFF7
:10680E00900038ECF0A3EDF0900036EEF0A3EFF030
:10681E0090003AEAF0A3EBF02FFFEE3AA31279AE16
:10682E0090003AE0FEA3E0FFC3900037E09FFF9098
:10683E000036E09EFE90003C1279AF90003AE0FEEA
:10684E00A3E0FF900037E02FFF900036E03EFE9071
:10685E00003CE0FCA3E0FDC3900039E09DFD9000FC
:10686E0038E09C1279BF90003AE0FEA3E0FFC3909F
:10687E000037E09FFF900036E09EFE90003CE0FC6B
:10688E00A3E0FDC3900039E09DFD900038E09C121E
:10689E0079BF90003CE0FEA3E0FF900037E02FFFB1
:1068AE00900036E03E1279AB90003CE0FEA3E0FF94
:1068BE00C3900037E09FFF900036E09E1279AB90B8
:1068CE00003CE0FEA3E0FF900037E02FFF90003683
:1068DE00E03EFE90003AE0FCA3E0FDC3900039E0FC
:1068EE009DFD900038E09C1279BF90003CE0FEA325
:1068FE00E0FFC3900037E09FFF900036E09EFE90D1
:10690E00003AE0FCA3E0FDC3900039E09DFD90004D
:0F691E0038E09CFC90003EE0FAA3E0FB0279C851
:1058EB00900024EEF0A3EFF0A3ECF0A3EDF0A3EA0D
:0458FB00F0A3EBF03B
:1058FF00E490002EF0A3F090002AE0FEA3E0FF90CA
:10590F000030EEF0A3EFF025E0FFEE33FEC374039B
:10591F009F900035F0E49E900034F090002CE070E2
:10592F0002A3E07003025A2E900030E0FEA3E0FFC6
:10593F0090002EE0FCA3E0FDD39FEE6480F8EC64B2
:10594F0080984003025AE0900032ECF0A3EDF09003
:10595F000030E0FEA3E0FFD3900033E09FEE6480C1
:10596F00F8900032E0648098502B900026E0FCA362
:10597F00E0FD90002EE0FAA3E0FB900032E0FFA3E1
:10598F00E0CF1267F0900033E004F070C290003265
:10599F00E004F080BA900034E0FCA3E0FDC3EC64B7
:1059AF00809480502390002EE0FEA3E07802C33352
:1059BF00CE33CED8F92DFFEC3ECF2406CF34009056
:1059CF000034F0A3EFF08043900030E0FEA3E0FF3F
:1059DF00C390002FE09FFF90002EE09EFEEF780215
:1059EF00C333CE33CED8F9FF900035E02FFF9000B0
:1059FF0034E03ECF240ACF3400F0A3EFF090003113
:105A0F00E024FFF0900030E034FFF090002FE0042E
:105A1F00F0600302593790002EE004F002593790DE
:105A2F000030E0FEA3E0FF90002EE0FAA3E0FBD3EE
:105A3F009FEE6480F8EA6480984003025AE0900079
:105A4F0026E0FCA3E0FDEE1267F0900034E0FCA32B
:105A5F00E0FDC3EC64809480502390002EE0FEA301
:105A6F00E07802C333CE33CED8F92DFFEC3ECF24EE
:105A7F0006CF3400900034F0A3EFF0804390003055
:105A8F00E0FEA3E0FFC390002FE09FFF90002EE009
:105A9F009EFEEF7802C333CE33CED8F9FF90003598
:105AAF00E02FFF900034E03ECF240ACF3400F0A364
:105ABF00EFF0900031E024FFF0900030E034FFF081
:105ACF0090002FE004F0700690002EE004F0025AD0
:015ADF002E98
:015AE00022A3
:0449BC00900010F067
:0E49C00090000AEEF0A3EFF0A3ECF0A3EDF0F0
:1049CE00C374019B900012F0E49A900011F09000D5
:1049DE0013E4F0A304F07CFF7DFEAF03AE021231B0
:1049EE002FA3EEF0A3EFF0E4A3F0A3F0AF03A3EA3E
:1049FE00F0A3EFF0900019E0FEA3E0FFC3900018C3
:104A0E00E09F900017E09E4003024C01C3900011FE
:104A1E00E064809480402D90001AE024FFF0900016
:104A2E0019E034FFF0900016E02402F0900015E03B
:104A3E003400F0E0FEA3E0FF900012E02FF09000B3
:104A4E0011E03EF0900018E004F07006900017E0C0
:104A5E0004F0900014E02402F0900013E03400F013
:104A6E00E0FEA3E0FF900012E02FF0900011E03E78
:104A7E00F0900010E030E256900017E0FEA3E0FF49
:104A8E0090000BE02FFF90000AE03EFE900019E030
:104A9E00FCA3E0FD90000DE02DFD90000CE03CFC31
:104AAE00127A11900019E0FEA3E0FF90000BE02FA8
:104ABE00FF90000AE03EFE900017E0FCA3E0FD90A0
:104ACE00000DE02DFD90000CE03CFC127A119000E0
:104ADE0010E030E158900017E0FEA3E0FF90000BCD
:104AEE00E02FFF90000AE03EFE900019E0FCA3E0EC
:104AFE00FDC390000DE09DFD90000CE09CFC127A31
:104B0E0011900019E0FEA3E0FF90000BE02FFF9044
:104B1E00000AE03EFE900017E0FCA3E0FDC390000B
:104B2E000DE09DFD90000CE09CFC127A119000109F
:104B3E00E030E358900019E0FEA3E0FFC390000BB5
:104B4E00E09FFF90000AE09EFE900017E0FCA3E0BD
:104B5E00FD90000DE02DFD90000CE03CFC127A1152
:104B6E00900017E0FEA3E0FFC390000BE09FFF90C4
:104B7E00000AE09EFE900019E0FCA3E0FD90000DFF
:104B8E00E02DFD90000CE03CFC127A11900010E03C
:104B9E0020E003024A02900019E0FEA3E0FFC3905A
:104BAE00000BE09FFF90000AE09EFE900017E0FCD5
:104BBE00A3E0FDC390000DE09DFD90000CE09CFC79
:104BCE00127A11900017E0FEA3E0FFC390000BE0F5
:104BDE009FFF90000AE09EFE900019E0FCA3E0FD0E
:104BEE00C390000DE09DFD90000CE09CFC127A112C
:034BFE00024A0266
:014C01002290
:0E3D440090000AEEF0A3EFF0A3ECF0A3EDF078
:103D5200C374019B900014F0E49A900013F0900059
:103D620015E4F0A304F07CFF7DFEAF03AE02123136
:103D72002FA3EEF0A3EFF0E4A3F0A3F0AF03A3EAC6
:103D8200F0A3EFF090001BE0FEA3E0FFC390001A47
:103D9200E09F900019E09E4003023FEEC3900013A3
:103DA200E064809480402D90001CE024FFF090009D
:103DB2001BE034FFF0900018E02402F0900017E0BE
:103DC2003400F0E0FEA3E0FF900014E02FF090003A
:103DD20013E03EF090001AE004F07006900019E043
:103DE20004F0900016E02402F0900015E03400F098
:103DF200E0FEA3E0FF900014E02FF0900013E03EFD
:103E0200F0900010E020E003023EF5900019E0FE81
:103E1200A3E0FF90000BE02FFF90000AE03EFEC0FF
:103E220006C00790001BE0FEA3E0FFC390000DE078
:103E32009FFD90000CE09EFC900019E0FEA3E0FFC5
:103E420090000AE0FAA3E02FFBEA3EFA90001BE0A2
:103E5200FEA3E0FF90000CE0F8A3E02FFFE83ECFC6
:103E62002401CF3400FE900011E0F8A3E02FFFE818
:103E72003E900023F0A3EFF0D007D006125AE6904E
:103E8200001BE0FEA3E0FF90000BE02FFF90000A72
:103E9200E03EFEC006C007900019E0FEA3E0FFC3AB
:103EA20090000DE09FFD90000CE09EFC90001BE056
:103EB200FEA3E0FF90000AE0FAA3E02FFBEA3EFA3D
:103EC200900019E0FEA3E0FF90000CE0F8A3E02FC1
:103ED200FFE83ECF2401CF3400FE900011E0F8A3AA
:103EE200E02FFFE83E900023F0A3EFF0D007D006CA
:103EF200125AE6900010E020E103023D869000197C
:103F0200E0FEA3E0FFC390000BE09FFF90000AE0F9
:103F12009EFEC006C00790001BE0FEA3E0FFC39018
:103F2200000DE09FFD90000CE09EFC900019E0FE69
:103F3200A3E0FF90000AE0FAA3E0C39FFBEA9EFA27
:103F420090001BE0FEA3E0FF90000CE0F8A3E02F3E
:103F5200FFE83ECF2401CF3400FE900011E0F8A329
:103F6200E02FFFE83E900023F0A3EFF0D007D00649
:103F7200125AE690001BE0FEA3E0FFC390000BE0A4
:103F82009FFF90000AE09EFEC006C007900019E065
:103F9200FEA3E0FFC390000DE09FFD90000CE09EA9
:103FA200FC90001BE0FEA3E0FF90000AE0FAA3E011
:103FB200C39FFBEA9EFA900019E0FEA3E0FF900087
:103FC2000CE0F8A3E02FFFE83ECF2401CF3400FE3F
:103FD200900011E0F8A3E02FFFE83E900023F0A349
:0C3FE200EFF0D007D006125AE6023D8630
:013FEE0022B0
:105CD100900000EEF0A3EFF0A3ECF0A3EDF0A3EA47
:105CE100F0A3EBF0900008E0FEA3E0FF900001E0DC
:105CF1002FFF900000E03EFEC006C007900002E0CA
:105D0100FCA3E0FD900008E0FEA3E0FF900004E0AA
:105D1100FAA3E0C39FFBEA9EFA900002E0FFA3E032
:105D2100900023CFF0A3EFF0D007D006125AE690EF
:105D31000008E0FEA3E0FF900003E02FFD900002C9
:105D4100E03EFC900000E0FAA3E0FB900006E0F8E2
:105D5100A3E0C39FFFE89E900023F0A3EFF0900023
:105D610000125AE1900008E0FEA3E0FF900001E07C
:105D71002FFF900000E03EFEC006C007900006E045
:105D8100FCA3E0FDA3E0FEA3E0FF900004E0FAA382
:105D9100E0C39FFBEA9EFAA3E0FFA3E0900023CFBC
:105DA100F0A3EFF0D007D006125AE6900008E0FE0B
:105DB100A3E0FF900003E02FFD900002E03EFC9085
:105DC1000004E0FAA3E0FB900006E0F8A3E0C39F23
:105DD100FFE89E900023F0A3EFF0900004125AE137
:105DE100900008E0FEA3E0FF900001E02FFF90008B
:105DF10000E03EFE900008E0FCA3E0FD900003E01F
:105E01002DFD900002E03CFC900008E0FAA3E0FBCD
:105E110074011249BC900008E0FEA3E0FFC39000AA
:105E210005E09FFF900004E09EFE900008E0FCA3C7
:105E3100E0FD900003E02DFD900002E03CFC9000AD
:105E410008E0FAA3E0FB74021249BC900008E0FEEE
:105E5100A3E0FFC3900005E09FFF900004E09EFED9
:105E6100900008E0FCA3E0FDC3900007E09DFD90D9
:105E71000006E09CFC900008E0FAA3E0FB90001013
:105E81007404F01249C0900008E0FEA3E0FF900006
:105E910001E02FFF900000E03EFE900008E0FCA32F
:105EA100E0FDC3900007E09DFD900006E09CFC90A2
:105EB1000008E0FAA3E0FB9000107408F00249C06A
:10669F00900000EEF0A3EFF0A3ECF0A3EDF0A3EA6F
:1066AF00F0A3EBF0900008E0FEA3E0FF900001E004
:1066BF002FFF900000E03EFEC006C007900002E0F2
:1066CF00FCA3E0FD900008E0FEA3E0FF900004E0D3
:1066DF00FAA3E0C39FFBEA9EFAA3E0FEA3E0240126
:1066EF00FFE43E90002FF0A3EFF09000BEE0FFA379
:1066FF00E0900031CFF0A3EFF0D007D00612696120
:10670F00900008E0FCA3E0FDC3900005E09DFF9022
:10671F000004E09CFEC006C007900003E02DFD9032
:10672F000002E03CFCC004C005900008E0FAA3E0C2
:10673F00FB9000107401F0900002E0FEA3E0FF90C8
:10674F000006E0FCA3E0C39FFDEC9EFC900009E077
:10675F0025E0FF900008E033FEC3ED9FFFEC9E9015
:10676F000011F0A3EFF0D005D004D007D006123DF2
:10677F0044900008E0FCA3E0FD900001E02DFF90A5
:10678F000000E03CFEC006C007900003E02DFD9026
:10679F000002E03CFCC004C005900008E0FAA3E052
:1067AF00FB9000107402F0900002E0FEA3E0FF9057
:1067BF000006E0FCA3E0C39FFDEC9EFC900009E007
:1067CF0025E0FF900008E033FEC3ED9FFFEC9E90A5
:1067DF000011F0A3EFF0D005D004D007D006023D92
:0167EF004465
:10762000900001EEF0A3EFF0A3ECF0A3EDF0A3EADD
:10763000F0A3EBF0C007A3E0FFA3E0900023CFF09E
:10764000A3EFF0D007125AE6900007E0FCA3E0FD9C
:10765000A3E0FAA3E0FBA3E0FFA3E0900023CFF0B8
:10766000A3EFF0900005125AE190000BE0FCA3E0BC
:10767000FD900001E0FAA3E0FBA3E0FFA3E090008F
:1076800023CFF0A3EFF0900009E0FEA3E0FF025A41
:01769000E613
:1077680090002C7401F0A37400F0A37407F07B015F
:047778007A00790317
:0B777C00900029EBF0A3EAF0A3E9F075
:1077870012318DFFAEF090002CE0FBA3E0FAA3E0EE
:10779700F912318DFD900029E0FBA3E0FAA3E0F98F
:1077A700E5F08DF01231B890002CE0FBA3E0FAA3CE
:0877B700E0F9EE8FF00231B899
:1034E500900001EEF0A3EFF0A3ECF0A3EDF0A3EA5A
:0434F500F0A3EBF065
:1034F90090002112330000000000900025123300D3
:1035090000000000900007E0FEA3E0FF900003E048
:10351900FCA3E0D39FEC9E401A12776890002C74AC
:1035290001F0A37400F0A37405F07B017A0079011E
:1035390012777C90000BE0FEA3E0FF900007E0FC0F
:10354900A3E0D39FEC9E402E90002C7401F0A3744D
:1035590000F0A37407F07B017A00790B12777C9055
:10356900002C7401F0A37400F0A37405F07B017AB8
:1035790000790912777C900007E0FEA3E0FF900034
:1035890003E0FCA3E0D39FEC9E401A1277689000F9
:103599002C7401F0A37400F0A37405F07B017A0088
:1035A900790112777C90000BE0FEA3E0FF90000305
:1035B900E0FCA3E0FD6F7002EC6E600302368D90B3
:1035C9000001E0FEA3E0FF90000FEEF0A3EFF09002
:1035D900000DEEF0A3EFF090000DE0FEA3E0FF90E8
:1035E9000005E0FAA3E0FBC39FEA9E500A90000D94
:1035F900EAF0A3EBF0801E90000FE0FEA3E0FFD3FA
:10360900EB9FEA9E400F900005E0FFA3E090000FBA
:10361900CFF0A3EFF090000DE0FEA3E0FF900009CA
:10362900E0FAA3E0FBC39FEA9E500A90000DEAF07E
:10363900A3EBF0801E90000FE0FEA3E0FFD3EB9F09
:10364900EA9E400F900009E0FFA3E090000FCFF041
:10365900A3EFF090000FE0FAA3E0FB900003E0FF76
:10366900A3E090002FCFF0A3EFF09000BEE0FFA3FE
:10367900E0900031CFF0A3EFF090000DE0FEA3E061
:10368900FF026961900001E0FAA3E0FB900005E008
:10369900FEA3E0C39BFFEE9A900015F0A3EFF09014
:1036A9000003E0FEA3E0FF900007E0FCA3E0C39F56
:1036B900FFEC9E900017F0A3EFF0900009E0FEA345
:1036C900E0C39BFFEE9A900019F0A3EFF09000037E
:1036D900E0FEA3E0FF90000BE0FCA3E0C39FFFEC3A
:1036E9009E90001BF0A3EFF0900005E0FEA3E0FF21
:1036F900900009E0FCA3E0C39FFFEC9E90001DF041
:10370900A3EFF0900007E0FAA3E0FB90000BE0FCC8
:10371900A3E0FDC39BFEEC9A90001FF0A3CEF0EB53
:10372900B50510EAB5040C900007FFA3E09000135B
:10373900CF8010900007E0FEA3E024FFFFEE34FFE6
:10374900900013F0A3EFF0900003E0FFA3E09000D6
:1037590011CFF0A3EFF0900013E0FEA3E0FF90007B
:1037690011E0FCA3E0D39FEC9E400302387990005E
:1037790017E0FEA3E0FBAA06EA3395E0F9F890000A
:1037890021E0FCA3E0FDA3E0FEA3E0FF1278ED90A9
:103799000001E0FCA3E02FFFEC3E90000DF0A3EF49
:1037A900F090001BE0FEA3E0FBAA06EA3395E0F9DE
:1037B900F8900025E0FCA3E0FDA3E0FEA3E0FF12E2
:1037C90078ED900001E0FCA3E02FFFEC3E90000FA4
:1037D900F0A3EFF0900021E0F8A3E0F9A3E0FAA349
:1037E900E0FB900015E0FEA3E0FFEE3395E0FDFC61
:1037F900EB2FFFEA3EFEE93DFDE83CFC900021127B
:1038090032F4900025E0F8A3E0F9A3E0FAA3E0FB85
:10381900900019E0FEA3E0FFEE3395E0FDFCEB2FED
:10382900FFEA3EFEE93DFDE83CFC9000251232F43A
:1038390090000FE0FEA3E0FF90000DE0FCA3E0D3B1
:103849009FEC9E401790002C7401F0A37400F0A324
:10385900740FF07B017A00790D12777C12692D9033
:103869000012E004F07006900011E004F002375FE6
:10387900900007E0FEA3E0FF900011E0FAA3E0FB4F
:10388900C39FFFEA9EFE90001DE0FCA3E0FD1231FC
:103899002FE4FCFD9000211232F4900003E0FEA316
:1038A900E0FFC3EB9FFFEA9EFE900019E0FCA3E056
:1038B900FD12312FE4FCFD9000251232F490000B2B
:1038C900E0FEA3E0FF900011E0FCA3E0D39FEC9E93
:1038D90040030239DE90001FE0FEA3E0FBAA06EADE
:1038E9003395E0F9F8A3E0FCA3E0FDA3E0FEA3E033
:1038F900FF1278ED900005E0FCA3E02FFFEC3E906D
:10390900000DF0A3EFF090001BE0FEA3E0FBAA0678
:10391900EA3395E0F9F8900025E0FCA3E0FDA3E087
:10392900FEA3E0FF1278ED900001E0FCA3E02FFF79
:10393900EC3E90000FF0A3EFF0900021E0F8A3E037
:10394900F9A3E0FAA3E0FB90001DE0FEA3E0FFEE7F
:103959003395E0FDFCEB2FFFEA3EFEE93DFDE83C37
:10396900FC9000211232F4900025E0F8A3E0F9A3BD
:10397900E0FAA3E0FB900019E0FEA3E0FFEE339527
:10398900E0FDFCEB2FFFEA3EFEE93DFDE83CFC9043
:1039990000251232F490000FE0FEA3E0FF90000D25
:1039A900E0FCA3E0D39FEC9E401790002C7401F03B
:1039B900A37400F0A3740FF07B017A00790D1277DC
:1039C9007C12692D900012E004F07006900011E05D
:0539D90004F00238C6F5
:0139DE0022C6
:1052CB00F0900029E0900037F0900021E0FAA3E085
:0152DB00FBD7
:1052DC0090002DEEF0A3EFF0900031EAF0A3EBF08C
:0852EC0090002FECF0A3EDF09F
:1052F4009000BEE0FFA3E090003BCFF0A3EFF0905E
:105304000035E024E0F0A3E0F9C313FF7E00900031
:105314002DE0FAA3E02FFFEE3ACF24FFFBEF34FF9A
:10532400FAE9FFA3E0F8A3E02FFFEE38CF24FFCF84
:1053340034FF900048F0A3EFF090002DE0FEA3E0CE
:10534400FF127701900037E060030253EB900039BD
:10535400F0900036E0FF900039E0FEC39F40030266
:1053640054AAEFB40C17900035E075F00CA4240394
:10537400F582E5F03400F583E5822E801A90003939
:10538400E0FF900035E075F010A42477F582E5F095
:105394003404F583E5822FF582E43583F583E493C1
:1053A400900038F0E490003AF0900036E0C313FF28
:1053B40090003AE0C39F5026900038E030E005901A
:1053C40000318003900033E0FEA3E0FF127AAD9039
:1053D4000038E0C313F090003AE004F080CB900072
:1053E40039E004F0025355E4900039F0900036E0BF
:1053F400FF900039E0FEC39F40030254AAEFB40CAF
:1054040017900035E075F00CA42403F582E5F03420
:1054140000F583E5822E801A900039E0FF90003574
:10542400E075F010A42477F582E5F03404F583E503
:10543400822FF582E43583F583E493900038F0E419
:1054440090003AF0900036E0C313FF90003AE0FE7B
:10545400C39F5049900031E0FDA3E09000BECDF021
:10546400A3EDF0900038E030E024EEFF90002EE051
:105474002FFF90002DE03400FE900039E0FD9000F5
:1054840030E02DFD90002FE03400FC127A119000E2
:1054940038E0C313F090003AE004F080A79000399C
:1054A400E004F00253F090003BE0FFA3E09000BE64
:1054B400CFF0A3EFF09000C3E024FFFB9000C2E024
:1054C40034FFFA9000C5E024FFFE9000C4E034FFEE
:0F54D400900048F0A3CEF0E4FDFCFFFE0277014C
:106EA200900004EEF0A3EFF0A3ECF0A3EDF0A3EB5F
:106EB200F0900009E0FBA3E0FAA3E0F91230C7FF6B
:106EC200D3947E4003026F60EFC394205003026F9D
:106ED200609000C3E024FFFD9000C2E034FFFC900C
:106EE2000004E0FEA3E0FFD39DEE9C50719000C52C
:106EF200E024FFFB9000C4E034FFFA900006E0FCBF
:106F0200A3E0FDD39BEC9A50559000C0E0FBA3E0B8
:106F1200900033CBF0A3EBF0900009E0FBA3E0FA82
:106F22001230C7900035F0900008E0900036F090E3
:106F3200000CE0900037F09000BE1252D79000088B
:106F4200E0C313FF900005E02FF0900004E034004E
:0F6F5200F090000AE475F001123177026EB3225D
:0878A40090000EEFF0A3EDF0DF
:1078AC00A31233000000000190000FE0FF14F0EF72
:1078BC006020A3E0F8A3E0F9A3E0FAA3E0FB9000BA
:1078CC000EE0FFE4FCFDFE1231D79000101232F4F2
:1078DC0080D6900010E0FCA3E0FDA3E0FEA3E0FF47
:0178EC002279
:0E6A5A00900001EEF0A3EFF0A3ECF0A3EDF03E
:106A6800E490000DF090000BF0900009E0FF90001A
:106A78000BE0FEC39F4003026B6AC3EF9E14FD7FC9
:106A88000A1278A4A804A905AA06AB07900005E095
:106A9800FCA3E0FDA3E0FEA3E0FF123262E47B0A60
:106AA800FAF9F812326290000CEBF0A3E0705790FC
:106AB8000009E014FF90000BE0FEC39F5048A3E0DC
:106AC800703E90000AE0F9C3138EF0A4FF90000214
:106AD800E02FFF900001E035F0FEC007900003E0D2
:106AE800FCA3E0FD9000BEE0FAA3E0FB9000C0E04C
:106AF800FFA3E0900033CFF0A3EFF0A37420804D04
:106B080090000D7401F090000AE0F9C313FFA3E0B0
:106B1800FEEF8EF0A4FF900002E02FFF900001E04E
:106B280035F0FEC007900003E0FCA3E0FD9000BE36
:106B3800E0FAA3E0FB9000C0E0FFA3E0900033CFB1
:106B4800F0A3EFF090000CE02430900035F0A3E9BA
:106B5800F0E4A3F0D0071252DC90000BE004F0023E
:026B68006A7150
:016B6A002208
:104C020090002FECF0A3EDF0A3EAF0A3EBF09000FC
:064C12002DEEF0A3EFF00F
:104C180090003FEEF0A3EFF090003DE4F0A3744C59
:104C2800F0E490003BF0A3F090003DE0FEA3E0FF2D
:104C380090003BE0FCA3E0FDC39FEC9E4003024EC6
:104C48001B900035E0FBA3E0FAA3E0F91230C7FFA0
:104C5800900A6775F022ED123331EC75F022A42525
:104C680083F583E4936F6003024E0A9000011230CB
:104C7800E0FF90003BA3E0900A6875F02212333100
:104C8800EC75F022A42583F583E4936F6003024E4C
:104C98000A90002DE0FAA3E0FBFFAE02C006C007B1
:104CA800A3E0FCA3E0FDEB240FFBE43AFA90002F0D
:104CB800E0FEA3E0240FFFE43E900048F0A3EFF0ED
:104CC800D007D006127701E4900039F0E490003A5A
:104CD800F090003AE0FFC394084003024DFB9000B7
:104CE80038E0705AA3E0FE90003BE0FCA3E0900A95
:104CF8006975F022123331EC75F022A42583F5830F
:104D0800E5822EF582E43583F583E493FD3395E05F
:104D1800FC7E007480A807088006CEA2E713CE1395
:104D2800D8F8FFEE5CFEEF5D4E6005900031800321
:104D3800900033E0FEA3E0FF127AAD024DF290003E
:104D480031E0FFA3E09000BECFF0A3EFF090003970
:104D5800E0FF90003BE0FCA3E0900A6975F02212A6
:104D68003331EC75F022A42583F583E5822FF58293
:104D7800E43583F583E493FD3395E0FC90003AE055
:104D8800FF7E007480A807088006CEA2E713CE1322
:104D9800D8F8FFEE5CFEEF5D4E601190002DE0FE4E
:104DA800A3E0FFA3E0FCA3E0FD127A1190002EE03F
:104DB80004F0700690002DE004F090003FE0FEA3A0
:104DC800E0FFC390002EE09FFD90002DE09EFCEDDB
:104DD80064104C7015EEF0A3EFF0900030E004F092
:104DE800701190002FE004F0800990003AE004F080
:104DF800024CD9900039E004F0E0C394205003023B
:104E08004CD490003CE004F0700690003BE004F0C5
:104E1800024C309000C3E024FFFB9000C2E034FF56
:104E2800FA9000C5E024FFFE9000C4E034FF900033
:0D4E380048F0A3CEF0E4FDFCFFFE02770180
:104E450090002FECF0A3EDF0A3EAF0A3EBF09000B7
:064E55002DEEF0A3EFF0CA
:104E5B0090003FEEF0A3EFF090003DE4F0A3740759
:104E6B00F0E490003BF0A3F090003DE0FEA3E0FFE8
:104E7B0090003BE0FCA3E0FDC39FEC9E400302507F
:104E8B005E900035E0FBA3E0FAA3E0F91230C7FF18
:104E9B0090147F75F04AED123331EC75F04AA4256E
:104EAB0083F583E4936F600302504D900001123041
:104EBB00E0FF90003BA3E090148075F04A12333171
:104ECB00EC75F04AA42583F583E4936F60030250DD
:104EDB004D90002DE0FAA3E0FBFFAE02C006C00729
:104EEB00A3E0FCA3E0FDEB2417FBE43AFA90002FC0
:104EFB00E0FEA3E02417FFE43E900048F0A3EFF0A0
:104F0B00D007D006127701E4900039F0E490003A14
:104F1B00F090003AE0FFC39408400302503E90002B
:104F2B0038E0705AA3E0FE90003BE0FCA3E0901445
:104F3B008175F04A123331EC75F04AA42583F58361
:104F4B00E5822EF582E43583F583E493FD3395E01A
:104F5B00FC7E007480A807088006CEA2E713CE1350
:104F6B00D8F8FFEE5CFEEF5D4E60059000318003DC
:104F7B00900033E0FEA3E0FF127AAD0250359000B3
:104F8B0031E0FFA3E09000BECFF0A3EFF09000392B
:104F9B00E0FF90003BE0FCA3E090148175F04A1217
:104FAB003331EC75F04AA42583F583E5822FF58226
:104FBB00E43583F583E493FD3395E0FC90003AE010
:104FCB00FF7E007480A807088006CEA2E713CE13DD
:104FDB00D8F8FFEE5CFEEF5D4E601190002DE0FE09
:104FEB00A3E0FFA3E0FCA3E0FD127A1190002EE0FA
:104FFB0004F0700690002DE004F090003FE0FEA35B
:10500B00E0FFC390002EE09FFD90002DE09EFCED95
:10501B0064184C7015EEF0A3EFF0900030E004F044
:10502B00701190002FE004F0800990003AE004F03A
:10503B00024F1C900039E004F0E0C3944850030287
:10504B004F1790003CE004F0700690003BE004F03A
:10505B00024E739000C3E024FFFB9000C2E034FFCC
:10506B00FA9000C5E024FFFE9000C4E034FF9000EE
:0D507B0048F0A3CEF0E4FDFCFFFE0277013B
:1050880090002FECF0A3EDF0A3EAF0A3EBF0900072
:065098002DEEF0A3EFF085
:10509E0090003FEEF0A3EFF090003DE4F0A3740417
:1050AE00F0E490003BF0A3F090003DE0FEA3E0FFA3
:1050BE0090003BE0FCA3E0FDC39FEC9E4003025238
:1050CE00A1900035E0FBA3E0FAA3E0F91230C7FF90
:1050DE0090168575F082ED123331EC75F082A425B1
:1050EE0083F583E4936F60030252909000011230B7
:1050FE00E0FF90003BA3E090168675F082123331EC
:10510E00EC75F082A42583F583E4936F600302525D
:10511E009090002DE0FAA3E0FBFFAE02C006C007A0
:10512E00A3E0FCA3E0FDEB241FFBE43AFA90002F72
:10513E00E0FEA3E0241FFFE43E900048F0A3EFF052
:10514E00D007D006127701E4900039F0E490003ACF
:10515E00F090003AE0FFC3940840030252819000A1
:10516E0038E0705AA3E0FE90003BE0FCA3E09016FE
:10517E008775F082123331EC75F082A42583F583A6
:10518E00E5822EF582E43583F583E493FD3395E0D5
:10519E00FC7E007480A807088006CEA2E713CE130B
:1051AE00D8F8FFEE5CFEEF5D4E6005900031800397
:1051BE00900033E0FEA3E0FF127AAD025278900029
:1051CE0031E0FFA3E09000BECFF0A3EFF0900039E6
:1051DE00E0FF90003BE0FCA3E090168775F0821292
:1051EE003331EC75F082A42583F583E5822FF582A9
:1051FE00E43583F583E493FD3395E0FC90003AE0CB
:10520E00FF7E007480A807088006CEA2E713CE1397
:10521E00D8F8FFEE5CFEEF5D4E601190002DE0FEC3
:10522E00A3E0FFA3E0FCA3E0FD127A1190002EE0B4
:10523E0004F0700690002DE004F090003FE0FEA315
:10524E00E0FFC390002EE09FFD90002DE09EFCED50
:10525E0064204C7015EEF0A3EFF0900030E004F0F7
:10526E00701190002FE004F0800990003AE004F0F5
:10527E0002515F900039E004F0E0C39480500302C5
:10528E00515A90003CE004F0700690003BE004F0B0
:10529E000250B69000C3E024FFFB9000C2E034FF42
:1052AE00FA9000C5E024FFFE9000C4E034FF9000A9
:0D52BE0048F0A3CEF0E4FDFCFFFE027701F6
:103FEF0090001FECF0A3EDF0A3EAF0A3EBF090002C
:063FFF001DEEF0A3EFF03F
:1040050090002AEEF0A3EFF0E4A3F0900025E0FB8A
:10401500A3E0FAA3E0F91230C770030242849000CE
:104025002CE06003024146900028E0FFC313FDC366
:104035009000C3E09DFD9000C2E09400FCD3900089
:104045001EE09D90001DE09C4003024284C3900049
:10405500C5E09FFF9000C4E09400FE90001FE0FCC7
:10406500A3E0FDD39FEC9E40030242841230C7FFBC
:10407500D39480400890002C7401F0808EEFB40D2D
:104085002E900028E0FF900020E02FF090001FE028
:104095003400F090002AE0FFA3E090001DCFF0A3CC
:1040A500EFF0900026E475F0011231770241399066
:1040B5000028E0D3941090001DE0FEA3E0FF402F00
:1040C500900023E0FBA3E0900033CBF0A3EBF0904E
:1040D5000025E0FBA3E0FAA3E0F91230C790003514
:1040E500F0A374101252CB90001EE02408803DA36B
:1040F500E0FCA3E0FD900023E0FBA3E0900033CBC0
:10410500F0A3EBF0900025E0FBA3E0FAA3E0F912A1
:1041150030C7900035F0900028E09000361252CB61
:10412500900028E0C313FF90001EE02FF090001DC3
:10413500E03400F0900026E475F00112317702407A
:1041450010900028E0F9FF7E00C39000C3E09FFDBA
:104155009000C2E09EFCD390001EE09D90001DE003
:104165009C4003024284C39000C5E09FFF9000C4B9
:10417500E09EFE90001FE0FCA3E0FDD39FEC9E4077
:1041850003024284E490002CF0E9B4204290001D23
:10419500E0FEA3E0FF900023E0FBA3E0900033CB1B
:1041A500F0A3EBF0900025E0F9A3E0FAA3E090007E
:1041B50035C9F0A3EAF0A3E9F0900029E0900038B2
:1041C500F0900021E0FAA3E0FB12508802426590CE
:1041D5000028E0641890001D7044E0FEA3E0FFA3F2
:1041E500E0FCA3E0FD900023E0FBA3E0900033CBCF
:1041F500F0A3EBF0900025E0F9A3E0FAA3E090002E
:1042050035C9F0A3EAF0A3E9F0900029E090003861
:10421500F0900021E0FAA3E0FB124E458042E0FE5B
:10422500A3E0FFA3E0FCA3E0FD900023E0FBA3E0F7
:10423500900033CBF0A3EBF0900025E0F9A3E0FA72
:10424500A3E0900035C9F0A3EAF0A3E9F0900029B6
:10425500E0900038F0900021E0FAA3E0FB124C0258
:10426500900026E475F002123177900028E0FF9067
:0F427500001EE02FF090001DE03400F00240101A
:014284002217
:10737600900010EEF0A3EFF0A3ECF0A3EDF0A3EA7B
:04738600F0A3EBF095
:10738A00900018E0FBA3E0FAA3E0F9127B85EF78FE
:10739A0003C333CE33CED8F9FFC39000C3E09FFFB7
:1073AA009000C2E09EC313FEEF13FF900011E02F7E
:1073BA00FF900010E03EFE900012E0FCA3E0FD907A
:1073CA000016E0FBA3E0900023CBF0A3EBF09000C3
:1073DA0018E0F9A3E0FAA3E0900025C9F0A3EAF0C7
:1073EA00A3E9F090001BE0900028F090001CE090C8
:0E73FA000029F0900014E0FAA3E0FB023FEF40
:106B6B0090000DEEF0A3EFF0900011EBF0A3EAF024
:0B6B7B00A3E9F090000FECF0A3EDF098
:106B860090000DE0FAA3E0FFAE02C006C00724277E
:106B9600FBE43AFAA3E0FEA3E02427FFE43E9000DC
:106BA60048F0A3EFF0D007D006127701E490001466
:106BB600F0A3F0900015E025E0FF900014E033FE0E
:106BC600900011E0FBA3E0FAA3E0F98F828E831216
:106BD60030E0900017F0E92FF9EA3EFA9000011232
:106BE60030E0900016F0FEA3E0FDEDFF127AAD90C6
:106BF6000015E004F07006900014E004F0C3900065
:106C060015E09440900014E06480948640A59000BE
:106C1600C3E024FFFB9000C2E034FFFA9000C5E019
:106C260024FFFE9000C4E034FF900048F0A3CEF0AD
:086C3600E4FDFCFFFE02770102
:107A62001260A1126F611256ED125EC112654812C8
:107A72004285126D0D127020126DDA1245011272DA
:067A8200D6127B0680DD38
:10188D00687474703A2F2F7777772E6C636477694D
:10189D006B692E636F6D00C8ABB6AFB5E7D7D3D705
:1018AD00DBBACFB2E2CAD4B3CCD0F200C8ABB6AF7C
:1018BD00B5E7D7D300D7DBBACFB2E2CAD4B3CCD019
:1018CD00F200342E302220495053205354373739EB
:1018DD00362033323058343830007869616F4665C0
:1018ED006E674051447465636820323032332D3158
:1018FD00312D323000574849544500424C41434B3D
:10190D00005245442000475245454E2000424C555B
:10191D004520004752415900B2E2CAD4333A4755E7
:10192D0049BED8D0CECCEEB3E4B2E2CAD400B2E216
:10193D00CAD4343A475549BBADD4B2CCEEB3E4B2B8
:10194D00E2CAD400B2E2CAD4353A4755492054729E
:10195D0069616E676C65CCEEB3E4B2E2CAD400B2D5
:10196D00E2CAD4363AD3A2CEC4CFD4CABEB2E2CAEA
:10197D00D400365831323A616263646566676869CE
:10198D006A6B6C6D6E6F7071727374757677787932
:10199D007A00365831323A41424344454647484928
:1019AD004A4B4C4D4E4F503031323334353637383B
:1019BD003900365831323A7E21402324255E262ABD
:1019CD0028295F2B7B7D3A3C3E3F2F7C2D2B2E0013
:1019DD00385831363A6162636465666768696A6B67
:1019ED006C6D6E6F707172737475767700385831D7
:1019FD00363A4142434445464748494A4B4C4D4E81
:101A0D00303132333435363700385831363A7E215D
:101A1D00402324255E262A28295F2B7B7D3A3C3ED8
:101A2D003F2F7C00B2E2CAD4373AD6D0CEC4CFD441
:101A3D00CABEB2E2CAD40031365831363AC8ABB656
:101A4D00AFB5E7D7D3BCBCCAF5D3D0CFDEB9ABCBDE
:101A5D00BEBBB6D3ADC4FA0031365831363A5765F0
:101A6D006C636F6D65C8ABB6AFB5E7D7D3003234D5
:101A7D005832343AC9EEDBDACAD0D6D0CEC4B2E28F
:101A8D00CAD40033325833323AD7D6CCE5B2E2CA93
:101A9D00D400B2E2CAD4383ACDBCC6ACCFD4CABE9B
:101AAD00B2E2CAD400515100526F746174696F6E05
:101ABD003A3000526F746174696F6E3A393000526A
:101ACD006F746174696F6E3A31383000526F7461A2
:101ADD0074696F6E3A32373000B2E2CAD431303A9F
:101AED00C6C1C4BBBDC7B6C8B2E2CAD400B2E2CA51
:101AFD00D431323AB4A5C3FE50454EB2E2CAD40039
:101B0D0052535400B2E2CAD431313AB4A5C3FEB037
:101B1D00B4BCFCB2E2CAD4004F4E003000313030BC
:101B2D00004558495400B0B445584954BCFCCDCB80
:101B3D00B3F6004F464600B2E2CAD4323AB6C149B6
:101B4D0044BACDD1D5C9ABD6B5B2E2CAD400494459
:101B5D003A30782578004F4B004552524F52007263
:101B6D0065616420636F6C6F723A3078253034583C
:101B7D002020257300B2E2CAD4393AB6AFCCACCF2F
:101B8D00D4CABE00204843484F3A202020202020B0
:101B9D00202020202075672F6D33002020434F32E9
:101BAD003A202020202020202020202070706D0041
:101BBD002054564F433A2020202020202020202042
:101BCD002075672F6D3300504D322E353A20202071
:101BDD00202020202020202075672F6D33002050DD
:101BED004D31303A2020202020202020202020752B
:101BFD00672F6D330020205445503A20202020209F
:101C0D002020202020204300202048554D3A202020
:101C1D002020202020202020202500FFFFFFFFFF77
:101C2D00FFFFFFFFFFFFFFFFFFFFFFFFFFFFFFFFB7
:101C3D00FFFFFFFFFFFFFFFFFFBEF7FFFFDEFF38D8
:101C4D00C6928C8E6B6E6B107C96AD3CE7FFFFFFE2
:101C5D00FFFFFFFFFFFFFFFFFFFFFFFFFFFFFFFF87
:101C6D00FFFFFFFFFFFFFFFFFFFFFFFFFFFFFFFF77
:101C7D00FFFFFFFFFFFFFFFFFFFFFFFFFFFFFFFF67
:101C8D00FFFFFFFFFFFFFFFFFF5DEF159D4F636C34
:101C9D00420A328829461925194521E8318E6B38BB
:101CAD00C6FFFFFFFFFFFFFFFFFFFFFFFFFFFFFF70
:101CBD00FFFFFFFFFFFFFFFFFFFFFFFFFFFFFFFF27
:101CCD00FFFFFFFFFFFFFFFFFFFFFFFFFFFFFFFF17
:101CDD00FFFFFFFFFFFFFF36A51053104B51530FB2
:101CED004B6C3AE93167212519E410A30862008392
:101CFD0008CB529AD6FFFFFFFFFFFFFFFFFFFFFF4D
:101D0D00FFFFFFFFFFFFFFFFFFFFFFFFFFFFFFFFD6
:101D1D00FFFFFFFFFFFFFFFFFFFFFFFFFFFFFFFFC6
:101D2D00FFFFFF3CE77063B363B87CF56311434D70
:101D3D0032EA29882126190519051904110411E41F
:101D4D00108300A308728CFFFFFFFFFFFFFFFFFF53
:101D5D00FFFFFFFFFFFFFFFFFFFFFFFFFFFFFFFF86
:101D6D00FFFFFFFFFFFFFFFFFFFFFFFFFFFFFFFF76
:101D7D00FFDBDE4B3AF042356C544BB1322E2AEB81
:101D8D0021A9216719051904110411041104110465
:101D9D00110519E4104200AF73FFFFFFFFFFFFFFB6
:101DAD00FFFFFFFFFFFFFFFFFFFFFFFFFFFFFFFF36
:101DBD00FFFFFFFFFFFFFFFFFFFFFFFFFFFFFF5DC8
:101DCD00EF09324C32104B8F324F2A2E2ACC198903
:101DDD001989214719051904110411C410C41004DF
:101DED001104110411E41042003184FFFFFFFFFFC5
:101DFD00FFFFFFFFFFFFFFFFFFFFFFFFFFFFFFFFE6
:101E0D00FFFFFFFFFFFFFFFFFFFFFFFFFFFFFFECE8
:101E1D005247194C320B2AEC21EC210C22915BEE2E
:101E2D004A061126190419E410E410A7296621A306
:101E3D0008051904110411E4108200F7BDFFFFFF1E
:101E4D00FFFFFFFFFFFFFFFFFFFFFFFFFFFFFFFF95
:101E5D00FFFFFFFFFFFFFFFFFFFFFFFFFF35A58325
:101E6D0008882188218921AA218A216B42718CFF42
:101E7D00FF728C83080411C4082942FBDE5DEFEC70
:101E8D005A83080411041104118308E831DFFFFFA0
:101E9D00FFFFFFFFFFFFFFFFFFFFFFFFFFFFFFFF45
:101EAD00FFFFFFFFFFFFFFFFFFFFFFBEF7C731C4BF
:101EBD00102519261947194719A8298A52284A5554
:101ECD00ADFFFFE831A30805194D6B4D6BFFFF7D8D
:101EDD00EF4521C410041104110411620076ADFF09
:101EED00FFFFFFFFFFFFFFFFFFFFFFFFFFFFFFFFF5
:101EFD00FFFFFFFFFFFFFFFFFFFFFF96B56200042F
:101F0D0011041905110519C4088B4AB6B55DEFF713
:101F1D00BDFFFF8E6B62002942AA5A0842FFFFFFE8
:101F2D00FFCC528308041104110411A308AD52FF14
:101F3D00FFFFFFFFFFFFFFFFFFFFFFFFFFFFFFFFA4
:101F4D00FF1CE7FFFFFFFFFFFFFFFF4E6362000473
:101F5D001104110411E41062008E63FFFFFFFFFFF7
:101F6D00FFFFFFCF730100F39C2C6396B5FFFFFFBE
:101F7D00FF2D5B8300041104110411E41067213D52
:101F8D00EFFFFFFFFFFFFFFFFFFFFFF8BDB7B59EA0
:101F9D00EFCB52B394FFFFFFFFDFFFE831A308043F
:101FAD0011041104110411A3084942FFF7FFF7FFB3
:101FBD00FFFFFF6A4A01007284FFFFFFFFFFF7DF9B
:101FCD00EF093AA3080411041104110411051118A5
:101FDD00BEFFFFFFFFFFFFFFFFFFFFF07B6200E88B
:101FED0031C731410035A5FFFF5DEF4621C4100417
:101FFD0011041104110411E410A308769DFFF7FFDD
:10200D00FFB7ADA308A308C7319EE7FFF7FFF7762B
:10201D00A5A308E4100411041104110511051135CF
:10202D00A5FFFFFFFFFFFFFFFFFFFFDBDEA72983FC
:10203D0000C410C410C4101CE79EEF0511E4100479
:10204D00110411041104110419C408E510D16BD148
:10205D006BC5086400A50843002B32779DB384251A
:10206D0019C4100411041104110411251926093580
:10207D009DFFFFFFFFFFFFFFFFFFFFFFFFAF73623E
:10208D00000419051982000D5B8E9B621005110469
:10209D001104110419E41085000511C439815A4049
:1020AD007B229C43AC03A4839B82728249C218A4F9
:1020BD0000C500E41004190411051947196711EC46
:1020CD005ABEFFFFFFFFFFFFFFFFFFDFFFDBDEC499
:1020DD0010E41004110511A41801C08388E4000553
:1020ED00190419C5084421438323D542FEE4FE2774
:1020FD00FF07FFA4FE64FE03FEA3FDE2FC42EC839A
:10210D00B32462E510C40804192619A81987210003
:10211D0090D3BCFFFFFFFFFFFFFFFFDFFFFFFF10AF
:10212D007C420005190511832801D044F8A348E429
:10213D0000C508445A02EDE2FD02FE66FE74FFB8CA
:10214D00FF73FFE7F6A6F645F6A4F5C3FC62FCC2E5
:10215D00FCC2FCE3CBC449061188198701A4900188
:10216D00F8EC9AFFFFFFFFFFFFFFFFFFFFFFFFBE32
:10217D00F7E83183000509824001C023F885F0A3FB
:10218D0048A400445A02FD23CCC2DC04FE28FE48BC
:10219D00F646F624F6E4F564FDE3FC62FCC2FC02AF
:1021AD00E402DCE2FCA47A48016701C47824F80259
:1021BD00F884B07DE7FFFFFFFFFFFFFFFFFFFFFF8D
:1021CD00FFDBDE2519A300C43802E022D844F8A6AF
:1021DD00F8A4786300432183728339829B21F561D2
:1021ED00FD22FDE2FCA2FC42FC42FC42FC22AB8340
:1021FD0041C392045226012519A49844F823F802EC
:10220D00F8A4D09EEFFFFFFFFFFFFFFFFFFFFFFFD3
:10221D00FFFFFF9AD68729A50043B822F823E06572
:10222D00F8E8F807C983484200A30084006329A297
:10223D007A62B3A2CB62D302BB828A8339A400E552
:10224D0000E500E508C46064D844F824F823F802DA
:10225D00F88388DBC6FFFFFFFFFFFFFFFFFFFFFFD8
:10226D00FFFFFFFFFF3DE7505B083123E843F844D4
:10227D00F065F809F9ABF989D10689A3484218022E
:10228D0000420061008200620062008300A320C44E
:10229D0050A58885D865F844F844F823F823F80349
:1022AD00D08210C7295DEFFFFFFFFFFFFFFFFFFF8C
:1022BD00FFFFFFFFFFFFFFFFFF6C32A53802D823A2
:1022CD00F865F866F8A7F84AF90CFA4DFA4CEA0BDE
:1022DD00D2A9B968B147A927B107B907D1E7E8C7AE
:1022ED00F8A7F865F865F844F823F803F802D0A3C9
:1022FD00280509C408EC5AFFFFFFFFFFFFFFFFFF92
:10230D00FFFFFFFFFFFFFFFBDE0519C400A741E63E
:10231D00C003F886F8A7F887F886F8C7F829F98A70
:10232D00F9ABF9ABF98BF96AF929F908F9C7F8A6F0
:10233D00F886F865F864F823F802F006B12529E46B
:10234D0000E41025192519149DFFFFFFFFFFFFFF66
:10235D00FFFFFFFFFFFFFF96AD620082083595BAC4
:10236D00CE8BA244D025F887F8A7F8C7F8A7F88731
:10237D00F886F886F886F887F8A7F8A7F8A6F885FE
:10238D00F865F864F824F064B80D93BBB6CF638399
:10239D00080411E4106621493A5DEFFFFFFFFFFFCE
:1023AD00FFFFFFFFFFFFFFD3944200E410BBCEFF02
:1023BD00FFBEE776B5CCAA07C145E045F846F866FD
:1023CD00F886F886F886F886F865F845F865F865B4
:1023DD00E844D043A8018882903CD7FFEF55958300
:1023ED00080411041105194619B394FFFFFFFFFFEF
:1023FD00FFFFFFFFFFFFFFB394410086215DDFFF6D
:10240D00FFFFFFFFFFDFE77AC6D3B44EB32AC268E2
:10241D00D1E6E0A6E8A5E8A5E8E6D888C906A92290
:10242D00A802A800A000C800D8F7E5FFE7F8ADC4E2
:10243D0010E4100411E41005118B4AFFFFFFFFFF9C
:10244D00FFFFFFFFFFFFFF55A54100A7295DDFFF40
:10245D00F7FFFFFFFFFFFFFFFFFFFFFFEF7DDFDB5D
:10246D00CE59CEF8CDD7CDF7C579CEFBBEABA203F5
:10247D00F045F842D043E800F072D4FFDF39AEE406
:10248D0010E4100411E41005118729FFFFFFFFFF71
:10249D00FFFFFFFFFFFFFF59CE830846211CD7FF2B
:1024AD00F7FFFFFFFFFFFFFFFFFFFFFFFFFFFFFF37
:1024BD00FFFFFFFFFFFFFFFFFFFFFFFFEF8BBA04E3
:1024CD00F845F862E044F000F88EDBFFDFF8A5C4B4
:1024DD0010E410E4100411E4102519FFFFFFFFFFB5
:1024ED00FFFFFFFFFFFFFFBEF78729830839B6FF08
:1024FD00F7DFF7FFFFFFFFFFFFFFFFFFFFFFFFFF0F
:10250D00FFFFFFFFFFFFFFFFFFFFFFBEE74ABA031D
:10251D00F845F864F844F800F86EE3FFD7F48C83BF
:10252D00080411E410E410E4100519FFFFFFFFFF8C
:10253D00FFFFFFFFFFFFFFFFFFEF7300007284FF40
:10254D00EFBEEFDFFFFFFFFFFFFFFFFFFFFFFFFF0F
:10255D00FFFFFFFFFFFFFFFFFFFFFFDFE78BBA036B
:10256D00F845F845F823F800F8D3D4FFD74E5B2192
:10257D0000293A55A58308C4102519FFFFFFFFFF59
:10258D00FFFFFFFFFFFFFFFFFFFBDEA308E8319E0C
:10259D00DF9EE7BFEFFFFFFFFFFFFFFFFFFFFFFF27
:1025AD00FFFFFFFFFFFFFFFFFFFFFFFFF751BC0224
:1025BD00E003F803F043E0ECC27ECFFCBE462121E0
:1025CD0000D394FFFF518400008729FFFFFFFFFF19
:1025DD00FFFFFFFFFFFFFFFFFFFFFF51840000F430
:1025ED008CFFEF9EE7BFEFDFFFFFFFFFFFFFFFFF5A
:1025FD00FFFFFFFFFFFFFFFFFFFFFFFFFF3DDF556A
:10260D00BD52BC72BCB7B55DC7FFDFF06B000009F2
:10261D003ABFF7FFFFFFFF149D55A5FFFFFFFFFF1B
:10262D00FFFFFFFFFFFFFFFFFFFFFFFFFFAC4AA410
:10263D0008BBBEDFE77EE7BEEFDFF7DFFFFFFFFF83
:10264D00FFFFFFFFFFFFFFFFFFFFFFDFFFDFF7FFD5
:10265D00EFDFDFBFD79ED7DFDFD8A583082611DBDD
:10266D00D6FFFFFFFFFFFFFFFFFFFFFFFFFFFFFF96
:10267D00FFFFFFFFFFFFFFFFFFFFFF79EE8BDC2169
:10268D0031A9213DCFBFDF7EDF9EE7BEEFBFEFDF7C
:10269D00F7DFF7DFF7DFF7DFF7BFEFBEEF9EE77E80
:1026AD00DF5ED75ED7DFDF9AB626194208EDA3BFEE
:1026BD00FFFFFFFFFFFFFFFFFFFFFFFFFFFFFFFF1D
:1026CD00FFFFFFFFFFFFFFFFFF74DDC0DB00FE42DA
:1026DD00EE024289217BB6DFDF7ED77EDF7EDF9E75
:1026ED00E79EE79EE79EE79EE77EDF7EDF5DD75D97
:1026FD00D79EDFFFE7F8A50711E31802C560FDE6D9
:10270D00D3DBEEFFFFFFFFFFFFFFFFFFFFFFFFFF2D
:10271D00FFFFFFFFFFFFFF9EF784BAC1FC42FE8261
:10272D00FEA2FE8183452174745EC7DFDF7ED75E16
:10273D00D75DD75ED75ED75DD75DD75ED79EDFFFFE
:10274D00E73DC7F1638408425226E629FF86FEE085
:10275D00F36AC3FFFFFFFFFFFFFFFFFFFFFFFFFF59
:10276D00FFFFFFFFFFFFFF18DEC1D2A2FD22FE42D9
:10277D00FE42FE62FEE2D4416A494253743BA63EDC
:10278D00C7BFD7BFD7BFD7BFDFBFD73EC71AA6F2C8
:10279D0063A729824122B462FE83FEAAFE0FFF6762
:1027AD00FD63BA3CEFFFFFFFFFFFFFFFFFFFFFFFE2
:1027BD00FFFFFFFFFFFFFF9AE680D221FDC2FDE282
:1027CD00F5C2F582F582FD62FD61DC219B846AE92B
:1027DD006A2C63AF6311746E632C63895A04528142
:1027ED007AC2CBE2FC62FD82FDC2FDC2FDE4FD2496
:1027FD00FD62CA1CE7FFFFFFFFFFFFFFFFFFFFFFAB
:10280D00FFFFFFFFFFFFFFFFFFB1CC81D2C0F3C180
:10281D00FC02FD02FDE2FCC2FCC2FC81FC80FBC09F
:10282D00C9A48135AD59CE719C218100DAA1FB82FD
:10283D00FCA2FC82FCA2FC02FD22FDE2FC00FC607D
:10284D00DA90CCFFFFFFFFFFFFFFFFFFFFFFFFFF52
:10285D00FFFFFFFFFFFFFFFFFFFFFF59DE0DC40668
:10286D00CBE4D203DB03DBE3DAC3D2A4C209B3D2D8
:10287D00BC9EF7FFFFFFFFFFFFFBE60EB4A6BA837A
:10288D00D2E3E202EB22EB22E303DBE4D26AC3B62E
:10289D00D5FFFFFFFFFFFFFFFFFFFFFF1AB5FF1A79
:1028AD00C0FF1ACCFF1AD900000000000000000084
:1028BD00000000000000000000000000000000000B
:1028CD0000000000000000000000000000000000FB
:0428DD0000000000F7
:1077BF004A00B2F80007E0001FFFE0F81F5000A2D8
:1077CF00F800F81F07E001CF001F0000841F000022
:0577DF004200BCF800AF
:106C3E0090000DEBF0A3EAF0A3E9F074FFFFFE1253
:106C4E0072349000C2E0FAA3E0FB90002FE4F0A3B0
:106C5E007414F0A3E4F0A3741FF0E4FDFCFFFE1225
:106C6E0069619000C4E0FEA3E0FF24ECFDEE34FF6A
:106C7E00FC9000C2E0FAA3E0FB90002FEEF0A3EF31
:106C8E00F0A3E4F0A3741FF0E4FFFE12696174FF39
:106C9E009000BEF0A3F0900016E4F0A3741FF090E5
:106CAE00000DE0F9A3E0FAA3E0900018C9F0A3EA02
:106CBE00F0A3E9F0A37410F0A37401F074FFFBFAD3
:106CCE007D027C00E4FFFE1273769000C5E024EE98
:106CDE00FD9000C4E034FFFC900016E4F0A3741F96
:106CEE00F0A374FFF0A37418F0A3748DF0A37410C6
:0F6CFE00F0A37401F074FFFBFAE4FFFE0273765B
:106F61007BFF7A1879A4126C3E900016E4F0A374AA
:106F71001FF0A374FFF0A37418F0A374B9F0A37405
:106F810010F0A37401F07B007AF87D1E7C00E4FF11
:106F9100FE127376900016E4F0A3741FF0A374FF41
:106FA100F0A37418F0A374C2F0A37410F0A37401D9
:106FB100F07B007AF87D3C7C00E4FFFE1273769052
:106FC1000016E4F0A3741FF0A374FFF0A37418F08B
:106FD100A374CFF0A37410F0A37401F07B1F7AF8AF
:106FE1007D5A7C00E4FFFE127376900016E4F0A354
:106FF100741FF0A374FFF0A37418F0A374E7F0A357
:107001007410F0A37401F07B1F7A007D787C00E49A
:0F701100FFFE1273767FDC127B9A7FDC027B9A84
:1056ED009000C2E0FAA3E0FBA3E0FFA3E090002F3F
:1056FD00CFF0A3EFF074FFA3F0A3F0E4FDFCFFFEE9
:10570D0012696190002374FFF0A374E0F0A374FF9D
:10571D00F0A37419F0A37402F0A37410F0A3740134
:10572D00F0E4FBFA7D1EFC7F14FE123FEF7F20128A
:10573D007B9A9000C2E0FAA3E0FBA3E0FFA3E09008
:10574D00002FCFF0A3EFF0E4A3F0A3F0FDFCFFFEDC
:10575D0012696190002374FFF0A374E0F0A374FF4D
:10576D00F0A37419F0A37408F0A37410F0A37401DE
:10577D00F074FFFBFA7D1E7C007F147E00123FEF5C
:10578D007F20127B9A9000C2E0FAA3E0FBA3E0FF1A
:10579D00A3E090002FCFF0A3EFF0A374F8F0A3E4F3
:1057AD00F0FDFCFFFE12696190002374FFF0A374FD
:1057BD00E0F0A374FFF0A37419F0A3740EF0A374BA
:1057CD0010F0A37401F07B1F7A007D1E7C007F1406
:1057DD007E00123FEF7F20127B9A9000C2E0FAA369
:1057ED00E0FBA3E0FFA3E090002FCFF0A3EFF0A329
:1057FD007407F0A374E0F0E4FDFCFFFE1269619004
:10580D00002374FFF0A374E0F0A374FFF0A37419E8
:10581D00F0A37413F0A37410F0A37401F07B1F7A3E
:10582D00007D1E7C007F147E00123FEF7F20127BD7
:10583D009A9000C2E0FAA3E0FBA3E0FFA3E0900082
:10584D002FCFF0A3EFF0A3E4F0A3741FF0E4FDFC61
:10585D00FFFE12696190002374FFF0A374E0F0A3C2
:10586D0074FFF0A37419F0A3741AF0A37410F0A3CD
:10587D007401F07B007AF87D1E7C007F147E00128F
:10588D003FEF7F20127B9A9000C2E0FAA3E0FBA3CA
:10589D00E0FFA3E090002FCFF0A3EFF0A37484F00E
:1058AD00A37430F0E4FDFCFFFE12696190002374D7
:1058BD00FFF0A374E0F0A374FFF0A37419F0A374C8
:1058CD0020F0A37410F0A37401F07B1F7AF87D1EF5
:0E58DD007C007F147E00123FEF7F20027B9A3A
:105EC100E4900000F07BFF7A197925126C3E900076
:105ED100C2E0FAA3E0FB9000C5E024ECFE9000C410
:105EE100E034FF90002FF0A3CEF074FFA3F0A3F0F5
:105EF1007D147C00E4FFFE126961E4900000F090E3
:105F01000000E0FD25E024B2F582E43400F583E0F1
:105F1100FFA3E09000BECFF0A3EFF09000C2E0C37A
:105F210013FEA3E01324B0FBEE34FFFAED75F00F7E
:105F3100A4FDACF02BFFEC3AFEC006C007A3E0C302
:105F410013FEA3E01324B0FFEE34FFCF2DFDEF3C91
:105F5100FCC004C0059000C2E0C313FCA3E013FD24
:105F6100900000E0F975F00FA42DFFE5F03CCF247F
:105F7100ECFBEF34FFFA9000C4E0C313FCA3E01381
:105F8100FDE975F00FA42DFFE5F03CCF24ECCF34F3
:105F9100FF900007F0A3EFF0D005D004D007D006A2
:105FA10012718F900000E004F0E0C39405500302E9
:105FB1005F007FDC127B9A9000C2E0FAA3E0FB90C5
:105FC10000C5E024ECFE9000C4E034FF90002FF007
:105FD100A3CEF074FFA3F0A3F07D147C00E4FFFED8
:105FE100126961E4900000F0900000E0FD25E024DA
:105FF100B2F582E43400F583E0FFA3E09000BECF68
:10600100F0A3EFF09000C2E0C313FEA3E01324B0AD
:10601100FBEE34FFFAED75F00FA4FDACF02BFFECB5
:106021003AFEC006C007A3E0C313FEA3E01324B0E9
:10603100FFEE34FFCF2DFDEF3CFCC004C005900006
:10604100C2E0C313FCA3E013FD900000E0F975F07A
:106051000FA42DFFE5F03CCF24ECFBEF34FFFA90C9
:1060610000C4E0C313FCA3E013FDE975F00FA42DF8
:10607100FFE5F03CCF24ECCF34FF900007F0A3EF15
:10608100F0D005D004D007D006127A88900000E045
:1060910004F0E0C394055003025FE97FDC027B9AC0
:10654800E4900000F07BFF7A19793B126C3E9000D2
:10655800C2E0FAA3E0FB9000C5E024ECFE9000C482
:10656800E034FF90002FF0A3CEF074FFA3F0A3F067
:106578007D147C00E4FFFE126961E4900000F09055
:1065880000C2E0C313FEA3E01324B0FDEE34FFFC09
:10659800900000E0F975F019A4FBAAF02DFFEA3C81
:1065A800FEC006C0079000C4E0C313FEA3E0132496
:1065B800CEFFEE34FFCF2BFDEF3AFCE925E024B205
:1065C800F582E43400F583E0FAA3E0FB90002AE4C6
:1065D800F0A3741EF0E4A3F0A3F0D007D00612587D
:1065E800EB900000E004F0E0C3940540927FDC12D9
:1065F8007B9A9000C2E0FAA3E0FB9000C5E024EC8F
:10660800FE9000C4E034FF90002FF0A3CEF074FF9A
:10661800A3F0A3F07D147C00E4FFFE126961E4900E
:106628000000F09000C2E0C313FEA3E01324B0FD05
:10663800EE34FFFC900000E0F975F019A4FBAAF015
:106648002DFFEA3CFEC006C0079000C4E0C313FE5D
:10665800A3E01324CEFFEE34FFCF2BFDEF3AFCE985
:1066680025E024B2F582E43400F583E0FAA3E0FBE8
:1066780090002AE4F0A3741EF0A3E4F0A304F0D081
:1066880007D0061258EB900000E004F0E0C3940530
:0766980040917FDC027B9AB8
:10428500E4900000F07BFF7A197951126C3E9000A2
:10429500C2E0FAA3E0FB9000C5E024ECFE9000C468
:1042A500E034FF90002FF0A3CEF074FFA3F0A3F04D
:1042B5007D147C00E4FFFE126961E4900000F0903B
:1042C5000000E0F9C3940540030243C5E925E02455
:1042D500B2F582E43400F583E0FFA3E09000BECFA1
:1042E500F0A3EFF09000C2E0C313FAA3E013FB24A0
:1042F500B0FDEA34FFFCE975F014A42DFFE5F03CB0
:10430500FEC006C007A3E0C313FEA3E01324ECFD23
:10431500EE34FFFCE975F00FA42DFDE5F03CFCC083
:1043250004C005EB24CDFDEA34FFFCE975F014A4C7
:104335002DFBE5F03CFAC002C0039000C4E0C313B6
:10434500FEA3E01324B7FDEE34FFFCE975F00FA4DE
:104355002DFDE5F03CFCC005C0049000C2E0C31390
:10436500FEA3E01324EBFDEE34FFFCE975F014A485
:104375002DFDE5F03CFCA3E0C313FEA3E01324EC04
:10438500FBEE34FFFAE975F00FA42BFEE5F03A9049
:10439500000BF0A3CEF0900009ECF0A3EDF0900037
:1043A50007D0E0F0A3D0E0F0D003D002D005D004D0
:1043B500D007D006127620900000E004F00242C437
:1043C5007FDC127B9A9000C2E0FAA3E0FB9000C567
:1043D500E024ECFE9000C4E034FF90002FF0A3CE63
:1043E500F074FFA3F0A3F07D147C00E4FFFE1269D6
:1043F50061E4900000F0900000E0F9C394054003EB
:104405000244FCE925E024B2F582E43400F583E0BA
:10441500FFA3E09000BECFF0A3EFF09000C2E0C391
:1044250013FAA3E013FB24B0FDEA34FFFCE975F0B1
:1044350014A42DFFE5F03CFEC006C007A3E0C3139E
:10444500FEA3E01324ECFDEE34FFFCE975F00FA4A8
:104455002DFDE5F03CFCC004C005EB24CDFDEA34A0
:10446500FFFCE975F014A42DFBE5F03CFAC002C091
:10447500039000C4E0C313FEA3E01324B7FDEE349C
:10448500FFFCE975F00FA42DFDE5F03CFCC005C06F
:10449500049000C2E0C313FEA3E01324EBFDEE3449
:1044A500FFFCE975F014A42DFDE5F03CFCA3E0C389
:1044B50013FEA3E01324ECFBEE34FFFAE975F00FCD
:1044C500A42BFEE5F03A90000BF0A3CEF090000986
:1044D500ECF0A3EDF0900007D0E0F0A3D0E0F0D031
:1044E50003D002D005D004D007D0061234E59000E1
:0C44F50000E004F00243FB7FDC027B9A35
:106D0D007BFF7A19796C126C3E9000BE74F8F0A37B
:106D1D00E4F09000C0F0A3741FF090000974FFF030
:106D2D00A37419F0A3747FF0E4A3F07B0C7D1EFC1B
:106D3D007F0AFE126EA290000974FFF0A37419F081
:106D4D00A3749FF0A37401F07B0C7D2D7C007F0A52
:106D5D007E00126EA290000974FFF0A37419F0A3C7
:106D6D0074BFF0E4A3F07B0C7D3CFC7F0AFE126E39
:106D7D00A290000974FFF0A37419F0A374DDF0E480
:106D8D00A3F07B107D50FC7F0AFE126EA2900009CD
:106D9D0074FFF0A37419F0A374FAF0A37401F07BDF
:106DAD00107D647C007F0A7E00126EA29000097433
:106DBD00FFF0A3741AF0A37416F0E4A3F07B107D1A
:0D6DCD0078FC7F0AFE126EA27FB0027B9A56
:107020007BFF7A1A7931126C3E90002374FFF0A333
:1070300074E0F0A374FFF0A3741AF0A37444F0A3F7
:107040007410F0E4A3F07B1FFA7D1EFC7F0AFE1291
:107050003FEF90002374FFF0A374E0F0A374FFF0FF
:10706000A3741AF0A37465F0A37410F0E4A3F07B8A
:107070001FFA7D32FC7F0AFE123FEF90002374FF5F
:10708000F0A374E0F0A374FFF0A3741AF0A3747B70
:10709000F0A37418F0A37401F07B1F7A007D467C86
:1070A000007F0A7E00123FEF90002374FFF0A3746C
:1070B000E0F0A374FFF0A3741AF0A37490F0A3742B
:1070C00020F0A37401F07B1F7A007D647C007F0AAE
:0A70D0007E00123FEF7FB0027B9AB2
:106DDA007BFF7A1A799F126C3E7BFF7A1C79287D99
:106DEA001E7C007F1E7E00126B6B90002374FFF0E6
