:020000040800F2
:10000000B80700200D390008591200085B120008DB
:100010005F12000863120008671200080000000069
:100020000000000000000000000000006B1200084B
:100030006D120008000000006F1200087112000825
:100040002739000827390008273900082739000810
:100050002739000827390008273900082739000800
:1000600027390008273900082739000827390008F0
:1000700027390008273900082739000827390008E0
:1000800027390008273900082739000827390008D0
:1000900027390008273900082739000827390008C0
:1000A00027390008273900082739000827390008B0
:1000B00027390008273900082739000827390008A0
:1000C0002739000827390008273900082739000890
:1000D0002739000827390008273900082739000880
:1000E0002739000827390008273900082739000870
:1000F0002739000827390008273900082739000860
:10010000273900082739000827390008273900084F
:10011000273900082739000827390008273900083F
:10012000273900082739000827390008273900082F
:10013000273900082739000827390008273900081F
:10014000273900082739000827390008273900080F
:1001500027390008273900082739000827390008FF
:1001600027390008273900082739000827390008EF
:1001700027390008273900082739000827390008DF
:10018000273900082739000800F002F800F046F887
:100190000AA090E8000C82448344AAF10107DA45E2
:1001A00001D100F03BF8AFF2090EBAE80F0013F0EE
:1001B000010F18BFFB1A43F00103184768700000D5
:1001C00088700000103A24BF78C878C1FAD8520766
:1001D00024BF30C830C144BF04680C6070470000C1
:1001E0000023002400250026103A28BF78C1FBD840
:1001F000520728BF30C148BF0B607047782904F010
:100200003183732904F00985002070471FB504F07D
:100210004AFD04F004FC1FBD10B510BD04F001FD43
:100220001146FFF7F3FF00F023F804F01FFD03B4BD
:10023000FFF7F2FF03BC04F029FD00000B49D1F8E1
:1002400000C04A685CF8043B1068184442F8040B8C
:100250008C4528BFA1F1DC0C8A4228BFA1F1DC0249
:10026000C1F800C04A6020F0004070474C010020F7
:10027000A82003F0C9FA02F0CEFD17E001F03DF925
:1002800002F067FA01F077F901F01AFA01F0DCFAEE
:1002900001F011FC01F0B8FB01F0FBFC01F036FDB0
:1002A00002F0E3FA01F052FE02F049FAE6E700003C
:1002B00070B505460E4614463146284602F0D9FC74
:1002C000204602F062FC70BD2DE9F05F04460D4649
:1002D00016461F46301B401C1FFA80FA781B401C34
:1002E0001FFA80FB3B4632462946204602F097FC27
:1002F0004FF000080FE04FF0000906E00A9802F006
:1003000044FC09F101001FFA80F9D145F6DB08F140
:1003100001001FFA80F8D845EDDBFD484088401EFB
:1003200083B2FB480088401E82B20021084602F0DA
:1003300076FCBDE8F09F2DE9FF4F85B081468A46E7
:100340000020049003900798A0EB09050898A0EB03
:100350000A06CDF80890CDF804A0002D01DD012794
:1003600005E00DB9002702E04FF0FF376D42002E87
:1003700002DD4FF0010806E016B94FF0000802E078
:100380004FF0FF387642B54201DD2C4600E034469E
:100390004FF0000B21E0019A91B2029A90B202F064
:1003A00072FC049828440490039830440390049805
:1003B000A04205DD0498001B049002983844029086
:1003C0000398A04205DD0398001B03900198404468
:1003D00001900BF101001FFA80FB601C8345DADD00
:1003E00009B0BDE8F08F2DE9F04104460D461646F0
:1003F0001F46DDF81880EA1991B2A21990B2424660
:10040000FFF756FFEA1991B2A21B90B24246FFF7DE
:100410004FFFEA1B91B2A21990B24246FFF748FF84
:10042000EA1B91B2A21B90B24246FFF741FFAA1904
:1004300091B2E21990B24246FFF73AFFAA1991B27F
:10044000E21B90B24246FFF733FFAA1B91B2E219BA
:1004500090B24246FFF72CFFAA1B91B2E21B90B26A
:100460004246FFF725FFBDE8F0812DE9FF4F81B03F
:10047000824617469846DDF838B0002445464FEAD4
:100480004800C0F10306BBF1000F1FD01BE0A146DE
:1004900008E04B462246009750460299FFF7A3FF1B
:1004A00009F10109A945F4DD002E04DA042000FB5E
:1004B0000460861D06E0601B042101FB006000F162
:1004C0000A066D1E641CAC42E1DD18E015E02B4607
:1004D0002246009750460299FFF785FF002E04DA66
:1004E000042000FB0460861D06E0601B042101FB64
:1004F000006000F10A066D1E641CAC42E7DD05B029
:10050000BDE8F08F2DE9FF4F85B0814600200490B3
:1005100083460798A0EB090506990898461ACDF876
:100520000C9006980290002D01DD012705E00DB921
:10053000002702E04FF0FF376D42002E02DD4FF042
:10054000010806E016B94FF0000802E04FF0FF384E
:100550007642B54201DD2C4600E034464FF0000AF9
:100560001FE001200090DDE91232DDE90210FFF703
:100570007CFF049828440490B3440498A04205DD0D
:100580000498001B0490039838440390A34504DDAD
:10059000ABEB040B0298404402900AF101001FFAF1
:1005A00080FA601C8245DCDD09B0BDE8F08F2DE9E2
:1005B000F04104460D4616461F462B463246294654
:1005C0002046FFF7B8FE3B46224629462046FFF765
:1005D000B2FE3B46324639462046FFF7ACFE3B466C
:1005E000324629463046FFF7A6FEBDE8F081F8B551
:1005F00004460D4616461F46464800883B4632468E
:10060000294600902046FFF75FFEF8BD2DE9F84F20
:1006100006460F4691469846C9F101000FFA80FA46
:100620004FF0010B4FEA4900404200B20090002415
:100630004D4652E0BAF1000F09DB681E85B2009802
:10064000801C00B20090009850440FFA80FA601CA1
:1006500084B20BF102000FFA80FB0AEB0B000FFAD9
:1006600080FA08F0040058B17A1991B2321990B2A8
:1006700002F009FB3A1991B2721990B202F003FB31
:1006800008F0020058B17A1B91B2321990B202F010
:10069000FAFA3A1B91B2721990B202F0F4FA08F029
:1006A000080058B13A1991B2721B90B202F0EBFAFD
:1006B0007A1991B2321B90B202F0E5FA08F001000B
:1006C00058B13A1B91B2721B90B202F0DCFA7A1B5D
:1006D00091B2321B90B202F0D6FAAC42AADBBDE86E
:1006E000F88F2DE9FC5F06460F4690469A46DDF8E6
:1006F0003090C8F101000FFA80FB012001904FEA11
:100700004800404200B200900024454675E00000D9
:10071000600000202E000020BBF1000F09DB681EE6
:1007200085B20098801C00B20090009858440FFADF
:1007300080FB601C84B20198801C00B2019001987B
:1007400058440FFA80FB0AF0010048B307EB050C90
:100750000CF1010CCC441FFA8CF306EB040C1FFACD
:100760008CF2A7EB050C1FFA8CF106EB040C1FFAB8
:100770008CF0FFF7E0FD07EB040C0CF1010CCC440E
:100780001FFA8CF306EB050C1FFA8CF2A7EB040C96
:100790001FFA8CF106EB050C1FFA8CF0FFF7CBFD6E
:1007A0000AF0020048B307EB050C0CF1010CCC4435
:1007B0001FFA8CF3A6EB040C1FFA8CF2A7EB050CC6
:1007C0001FFA8CF1A6EB040C1FFA8CF0FFF7B3FDB7
:1007D00007EB040C0CF1010CCC441FFA8CF3A6EBD4
:1007E000050C1FFA8CF2A7EB040C1FFA8CF1A6EB98
:1007F000050C1FFA8CF0FFF79EFDAC428CDBBDE8C8
:10080000FC9F2DE9F04105460E4617469846069C8A
:10081000391B8AB2291988B233463146FFF78BFD5E
:10082000A8EB040083B2301981B22A462846FFF7AC
:1008300082FD391B8AB2291988B243464146FFF727
:100840007AFDA8EB040083B2301981B23A463846EB
:10085000FFF771FD321991B22A1990B20123224695
:10086000FFF7D4FE321991B23A1B90B2022322460E
:10087000FFF7CCFEA8EB040291B23A1B90B204231E
:100880002246FFF7C3FEA8EB040291B22A1990B2E8
:1008900008232246FFF7BAFEBDE8F0812DE9F843B0
:1008A00007460D4690461E46089CFA480088711C73
:1008B0008BB2A8EB04018AB23919009088B229469C
:1008C000FFF702FD701B401C022101FB1400401EBB
:1008D00080B22A1991B2A8EB0402009090B20123D1
:1008E0002246FFF7FEFE701B401C022101FB140094
:1008F000401E80B22A1991B23A19009090B2022398
:100900002246FFF7EEFEBDE8F8832DE9F0470446E6
:100910000D4616461F46DDE908893B463246294604
:100920002046FFF708FD4B46424639463046FFF762
:1009300002FD2B46224649464046FFF7FCFCBDE837
:10094000F08702880B8803800A8070472DE9FF4FEB
:1009500085B000260027BDF81800BDF82010884299
:1009600007DD08A906A8FFF7ECFF07A905A8FFF710
:10097000E8FFBDF82000BDF84C10884207DD08A94B
:1009800013A8FFF7DEFF07A912A8FFF7DAFFBDF8EB
:100990001800BDF82010884207DD08A906A8FFF757
:1009A000D0FF07A905A8FFF7CCFFBDF81800BDF8D8
:1009B0004C10884238D1BDF8140003900490BDF863
:1009C0001C00BDF81010884203DABDF81C0004902A
:1009D00008E0BDF81C00BDF80C10884202DDBDF82F
:1009E0001C000390BDF84800BDF81010884203DADF
:1009F000BDF84800049008E0BDF84800BDF80C10B0
:100A0000884202DDBDF848000390A24800880090AB
:100A1000BDF81830BDF80C201946BDF81000FFF7DE
:100A200053FC09B0BDE8F08FBDF81C00BDF81410F0
:100A3000A0EB010BBDF82000BDF81810401A029081
:100A4000BDF84800BDF81410451ABDF84C00BDF8BB
:100A50001810A0EB0109BDF84800BDF81C10A0EB70
:100A6000010ABDF84C00BDF82010401A0190BDF8F5
:100A70002000BDF84C10884202D1BDF8208004E06F
:100A8000BDF82000401E1FFA80F8BDF8184027E08E
:100A9000029896FBF0F0BDF81410084480B2049060
:100AA00097FBF9F0BDF81410084480B203905E443F
:100AB0002F44BDF81000BDF80C10884203DD03A9D7
:100AC00004A8FFF73EFF7348008823460090BDF856
:100AD0000C202146BDF81000FFF7F6FB601C84B225
:100AE0004445D5DDBDF82000201A00FB0AF6BDF80C
:100AF0001800201A00FB05F727E0019896FBF0F09C
:100B0000BDF81C10084480B2049097FBF9F0BDF8C2
:100B10001410084480B2039056442F44BDF81000CE
:100B2000BDF80C10884203DD03A904A8FFF709FFF4
:100B30005848008823460090BDF80C202146BDF897
:100B40001000FFF7C1FB601C84B2BDF84C0084426A
:100B5000D3DD00BF65E72DE9FF4F83B081468A46AC
:100B60009346DDE910644B4800880290A6F120000E
:100B7000C6B204EBD47009EB6000401E82B20AEBEF
:100B80000400401E83B251464846019402F047F8E3
:100B9000129850BB002525E00C2C07D106EB46002F
:100BA0003D4901EB800010F8058004E03B4800EB74
:100BB000061010F8058000270DE008F0010018B1BC
:100BC000584601F0E2FF02E0069801F0DEFF4FEA2E
:100BD0006808781CC7B204EBD471B7EB610FECDB8B
:100BE000681CC5B2A542D7DB2DE0002529E00C2CFE
:100BF00007D106EB4600284901EB800010F805807C
:100C000004E0264800EB061010F80580002711E0EC
:100C10002048A0F800B008F0010038B10AEB050246
:100C200091B209EB070290B202F02DF84FEA680882
:100C3000781CC7B204EBD471B7EB610FE8DB681C1A
:100C4000C5B2A542D3DB13490298088014484088F6
:100C5000401E83B212480088401E82B2002108461E
:100C600001F0DDFF07B0BDE8F08F2DE9FE43064639
:100C70000F4615461C46DDF8288025E00848008808
:100C8000401EB04204DB06484088401EB84209DAE4
:100C9000BDE8FE832E000020B04C0008245100085F
:100CA0006000002020788DE82101FC480388FC4882
:100CB000028839463046FFF74EFF284605EBD071D3
:100CC00006EB61018EB2641C20787E2802DC20785D
:100CD0002028D3DA00BFDBE710B50246012000E090
:100CE00050430B1EA1F10104E1B2F9D110BD2DE971
:100CF000FF4F83B0074691461E46109C4FF0000AF6
:100D0000002543E0701B401EC1B20A20FFF7E4FF3C
:100D1000B9FBF0F00A21B0FBF1F201FB1208BAF1C5
:100D2000000F1BD1701EA84218DDB8F1000F13D1BF
:100D300000202021A346CDE90014029004EBDB71D2
:100D4000491001FB057188B2D4490B88D4490A883F
:100D50000499FFF700FF17E04FF0010A002108F1A6
:100D60003000C0B2A346CDE90141009004EBDB7135
:100D7000491001FB057188B2C8490B88C8490A8827
:100D80000499FFF7E8FE00BF681CC5B2B542B9DBA5
:100D900007B0BDE8F08F2DE9FC5F05468846914617
:100DA0009A46DDF830B000954B20019000245FE0BA
:100DB00004EB0410BB4911F810009BF800108842A6
:100DC00053D104EB0410B74901EB400040789BF885
:100DD0000110884249D108F10F0083B205F10F00DC
:100DE00082B24146284601F01AFF00263BE0002768
:100DF00034E00D9890B904EB0410AA4901EB4000CF
:100E0000801C805D80213941084018B1484601F0BE
:100E1000BCFE21E0504601F0B8FE1DE0A048A0F85D
:100E2000009004EB04109F4901EB4000801C805DA2
:100E300080213941084018B14146284601F023FF7E
:100E4000681C85B20098281A102805D1009D08F169
:100E500001001FFA80F803E0781CC7B2082FC8DB36
:100E600000BF701CC6B2202EC1DB00BF601C84B264
:100E7000019884429CDB8C484088401E83B28A489B
:100E80000088401E82B20021084601F0C8FEBDE87D
:100E9000FC9F2DE9FC5F0546884691469A46DDF8A1
:100EA00030B0009507200190002467E004EB840037
:100EB00000EB44107D4911F810009BF800108842A7
:100EC00059D104EB840000EB4410784901EB400059
:100ED00040789BF8011088424DD108F1170083B289
:100EE00005F1170082B24146284601F098FE00261F
:100EF0003FE0002738E00D98A0B904EB840000EB38
:100F000044106A4901EB4000801C805D802139411A
:100F1000084018B1484601F038FE23E0504601F081
:100F200034FE1FE05E48A0F8009004EB840000EB64
:100F300044105E4901EB4000801C805D80213941F6
:100F4000084018B14146284601F09DFE681C85B254
:100F50000098281A182805D1009D08F101001FFAF1
:100F600080F803E0781CC7B2082FC4DB00BF701CF8
:100F7000C6B2482EBDDB00BF601C84B2019884421B
:100F800094DB49484088401E83B247480088401E91
:100F900082B20021084601F042FEBDE8FC9F2DE927
:100FA000FC5F0546884691469A46DDF830B00095CC
:100FB0000420019000245FE004EB84103C4911F808
:100FC00010009BF80010884253D104EB841038497C
:100FD00001EB400040789BF80110884249D108F1AC
:100FE0001F0083B205F11F0082B24146284601F07E
:100FF00016FE00263BE0002734E00D9890B904EB84
:1010000084102B4901EB4000801C805D8021394118
:10101000084018B1484601F0B8FD21E0504601F003
:10102000B4FD1DE01E48A0F8009004EB8410204998
:1010300001EB4000801C805D80213941084018B1DF
:101040004146284601F01FFE681C85B20098281A08
:10105000202805D1009D08F101001FFA80F803E067
:10106000781CC7B2082FC8DB00BF701CC6B2802E28
:10107000C1DB00BF601C84B2019884429CDB0A483B
:101080004088401E83B208480088401E82B200217A
:10109000084601F0C4FDBDE8FC9F000030000020C0
:1010A0002E00002014570008600000200A6100088C
:1010B000106300082DE9FF4F83B00646884691462D
:1010C000DDE91147109DB2464FF0000B71E0BBF116
:1010D000000F40D104EBD4715E4A1288A2EB61018B
:1010E000B14204DB5B494988091B414502DA07B07C
:1010F000BDE8F08F2878802802DD4FF0010B58E022
:1011000028780D2806D108EB04001FFA80F856460F
:101110006D1C1EE0102C0DDD102128788DE8830059
:101120004A4641463046069BFFF715FD06F108008A
:1011300086B20EE028788DE891004A464146304656
:10114000069BFFF708FD204604EBD07106EB61011A
:101150008EB26D1C2DE03F480088001BB04204DBBE
:101160003C484088001B404500DAC0E74FF0000BC8
:10117000202C08D1CDE900574A4641463046069B0F
:10118000FFF70DFF12E0182C08D1CDE900574A46B1
:1011900041463046069BFFF77CFE07E0CDE900574D
:1011A0004A4641463046069BFFF7F5FDAD1C301917
:1011B00086B2287800288AD100BF98E72DE9FE4F33
:1011C0000E4617469846DDE90D9A0C9C204603F022
:1011D00053FC85B21F490988A1EBC50000EBD07113
:1011E000C1F34F0B43463A46314658468DE8100648
:1011F000FFF760FFBDE8FE8F2DE9F04706460F467A
:10120000154607F1270083B206F1270082B239465E
:10121000304601F004FD00240AE015F8149005EBB7
:10122000440090F8018049EA082001F0AEFC641CFB
:10123000B4F5C86FF1DB07484088401E83B205480B
:101240000088401E82B20021084601F0E8FCBDE89B
:10125000F087000060000020704700BFFEE700BF7D
:10126000FEE700BFFEE700BFFEE77047704770472C
:10127000704700000CB5002001900090764800688F
:1012800040F480307449086000BF7348006800F47F
:10129000003000900198401C0190009818B9019806
:1012A000B0F5A04FF1D16C48006800F4003010B1E7
:1012B0000120009001E0002000900098012846D114
:1012C00065484030006840F0805063494031086014
:1012D0006248006840F44040604908605E48083059
:1012E00000685D49083108600846006840F4004025
:1012F00008600846006840F4A05008605848091F7C
:101300000860081F006840F08070091F086000BF77
:101310005148006800F000700028F9D040F20570D4
:10132000504908604C480830006820F003004A49E2
:10133000083108600846006840F00200086000BFFD
:1013400045480830006800F00C000828F8D10CBDB2
:1013500010B54548006840F47000434908603E48B5
:10136000006840F001003C49086000203A4908311B
:101370000860394800683D490840374908603C48E2
:10138000091D0860081F006820F48020091F0860FC
:10139000002031490C310860FFF76CFF4FF000600E
:1013A00031498039086010BD70B500200022022349
:1013B00000240221284D08352D6805F00C0020B1CD
:1013C000042806D0082834D107E02A4D2A4E35607B
:1013D00033E02A4D284E35602FE01F4D2D1D2D681E
:1013E000C5F380541C4D2D1D2D6805F03F0154B1EF
:1013F000224DB5FBF1F5184E361D3668C6F388163A
:1014000005FB06F209E01B4DB5FBF1F5124E361D4A
:101410003668C6F3881605FB06F20F4D2D1D2D68A4
:10142000C5F301456D1C6B00B2FBF3F5124E356040
:1014300003E0104D104E356000BF00BF064D08356B
:101440002D68C5F303150E4E705D0B4D2D68C5401C
:10145000094E356070BD0000003802400070004049
:1014600008544007003C024088ED00E0FFFFF6FE14
:10147000103000240024F4000000002000127A0044
:10148000040000203EB504464FF6FF7001F013FC47
:101490001F200090FE480288142300210846FEF712
:1014A00013FF1F200090FA484388028840881438B0
:1014B00081B20020FEF708FF4FF6FF70F549088063
:1014C000012010211F234FF6FF72CDE90041029049
:1014D00002210020FFF772FE01201021EEA2CDE9CB
:1014E00000210290EA484088123881B21F234FF64B
:1014F000FF720020FFF762FE3EBD0EB5ECA0FFF7C5
:10150000C1FF01201021F0A21F23CDE9002102908C
:10151000DA021E210020FFF751FE01201021E6A271
:101520001F23CDE900210290DA023C210020FFF7C1
:1015300045FE01201021E7A21F23CDE900210290E2
:101540004FF61F025A210020FFF738FE012010211C
:10155000E6A21F23CDE9002102901A46782100203F
:10156000FFF72CFE40F2DC5002F0B0F940F2DC5004
:1015700002F0ACF90EBD0EB54FF6FF700090C448F6
:101580004388028800210846FEF79EFE01201021B4
:10159000DDA24FF6E073CDE90021029000221E216A
:1015A0001420FFF787FD4FF4487002F08FF90020F8
:1015B0000090B7484388028800210846FEF784FE61
:1015C00001201021D2A24FF6E073CDE90021029054
:1015D0004FF6FF721E211420FFF76CFD4FF4487088
:1015E00002F074F94FF478400090A94843880288CB
:1015F00000210846FEF768FE01201021C6A24FF622
:10160000E073CDE9002102901F221E211420FFF774
:1016100051FD4FF4487002F059F94FF4FC6000900E
:101620009B484388028800210846FEF74DFE0120B2
:101630001021BBA24FF6E073CDE9002102901F22DA
:101640001E211420FFF736FD4FF4487002F03EF9DA
:101650001F2000908E484388028800210846FEF72C
:1016600033FE01201021B0A24FF6E073CDE9002136
:1016700002904FF478421E211420FFF71BFD4FF417
:10168000487002F023F948F23040009080484388C7
:10169000028800210846FEF717FE01201021A4A2AF
:1016A0004FF6E073CDE9002102904FF61F021E2194
:1016B0001420FFF7FFFC4FF4487002F007F90EBD4D
:1016C0002DE9F84300249CA0FFF7DCFE4FF6FF70E5
:1016D00000906F484088143883B26D480288142106
:1016E0000020FEF7F1FD00BF48E0994830F81400F3
:1016F00068490880DFF898C1BCF8025005EBD57C3A
:101700004FEA6C0CACF1500CC4EB0419CC440CF156
:101710003C0C1FFA8CF3DFF878C1BCF8006006EBD4
:10172000D67C4FEA6C0CACF1500CC4EB0419CC44E1
:101730000CF13C0C1FFA8CF2DFF854C1BCF80270BB
:1017400007EBD77C4FEA6C0CACF1500CC4EB0419DE
:10175000CC441FFA8CF1DFF838C1BCF8008008EBEC
:10176000D87C4FEA6C0CACF1500CC4EB0419CC449F
:101770001FFA8CF0FEF71BFF601CC4B2052CB4DB13
:1017800040F2DC5002F0A2F84FF6FF7000904048A3
:101790004088143883B23E48028814210020FEF7A6
:1017A00093FD002448E06A4830F814003949088065
:1017B000DFF8DCC0BCF8026006EBD67C4FEA6C0CAC
:1017C000ACF1500CC4EB0419CC440CF13C0C1FFAE6
:1017D0008CF3DFF8BCC0BCF8007007EBD77C4FEA95
:1017E0006C0CACF1500CC4EB0419CC440CF13C0C67
:1017F0001FFA8CF2DFF898C0BCF8028008EBD87CA6
:101800004FEA6C0CACF1500CC4EB0419CC441FFA39
:101810008CF1DFF87CC0BCF8005005EBD57C4FEABA
:101820006C0CACF1500CC4EB0419CC441FFA8CF0D6
:10183000FEF7DDFE601CC4B2052CB4DB40F2DC50C8
:1018400002F044F8BDE8F883F8B5002441A0FFF7A2
:1018500019FE4FF6FF7000900D484088143883B28F
:101860000B48028814210020FEF72EFD00BF8EE0F9
:101870000020074B00905D8805EBD5735B10323B71
:1018800004EBC40707EB0417D919014B1E886DE060
:10189000600000202E000020687474703A2F2F77AB
:1018A00077772E6C636477696B692E636F6D0000C8
:1018B000C8ABB6AFB5E7D7D3D7DBBACFB2E2CAD49D
:1018C000B3CCD0F200000000C8ABB6AFB5E7D7D3B9
:1018D00000000000342E302220495053205354374A
:1018E0003739362033323058343830007869616FF8
:1018F00046656E6740514474656368203230323308
:101900002D31312D32300000574849544500000038
:10191000424C41434B00000052454420000000006F
:10192000475245454E200000424C554520000000DE
:101930004752415900000000B2E2CAD4333A475539
:1019400049BED8D0CECCEEB3E4B2E2CAD400000097
:1019500014000020B2E2CAD4343A475549BBADD492
:10196000B2CCEEB3E4B2E2CAD400000006EBD67308
:101970005B10503B04EBC40707EB0417D819FE4B70
:1019800033F814201E23FEF770FD601CC4B2052C32
:10199000FFF66EAF40F2DC5001F098FF4FF6FF709B
:1019A0000090F6484088143883B2F4480288142125
:1019B0000020FEF789FC00241FE00120EF4B00907F
:1019C0005D8805EBD5735B10323B04EBC40707EB76
:1019D0000417D919E94B1E8806EBD6735B10503BF0
:1019E00004EBC40707EB0417D819E34B33F81420B2
:1019F0001E23FEF73AFD601CC4B2052CDDDB40F26D
:101A0000DC5001F063FFF8BD0EB5DDA0FFF73AFD35
:101A100000200C21DFA24FF6E073CDE900210290F7
:101A20001F221E210A20FFF745FB01200C21E4A202
:101A30004FF6E073CDE9002102901F222D210A20EC
:101A4000FFF738FB00200C21E8A24FF6E073CDE948
:101A5000002102901F223C210A20FFF72BFB0020CF
:101A60001021EAA24FF6E073CDE9002102901F2277
:101A700050210A20FFF71EFB01201021EEA24FF695
:101A8000E073CDE9002102901F2264210A20FFF7B4
:101A900011FB00201021F3A24FF6E073CDE90021E5
:101AA00002901F2278210A20FFF704FB4FF4966072
:101AB00001F00CFF0EBD2DE9FC5F0024F1A0FFF743
:101AC000E1FC4FF6FF700090AC484088143883B2B8
:101AD000AA48028814210020FEF7F6FB00BF5DE053
:101AE000A54830F81400EE490880A448458805EB65
:101AF000D57040101438C4EB0411084481B29F48DB
:101B0000068806EBD6704010153804EB840200EB13
:101B1000820080B2DFF864C2CDE90001BCF8027037
:101B200007EBD77C4FEA6C0CACF1490CC4EB041BFF
:101B3000DC441FFA8CF3DFF844C2BCF8008008EBE9
:101B4000D87C4FEA6C0CACF1330C04EB840B0CEB3F
:101B50008B0C1FFA8CF2DFF824C2BCF8029009EB60
:101B6000D97C4FEA6C0CACF1140CC4EB041BDC44C4
:101B70001FFA8CF1DFF804C2BCF800A00AEBDA7C93
:101B80004FEA6C0CACF1500C04EB840B0CEB8B0C9F
:101B90001FFA8CF0FEF7B9FE601CC4B2052C9FDB67
:101BA00040F2DC5001F092FE4FF6FF700090734857
:101BB0004088143883B27148028814210020FEF74F
:101BC00083FB00245DE06C4830F81400B4490880C1
:101BD0006A48458805EBD57040101438C4EB0411F1
:101BE000084481B26548068806EBD6704010153867
:101BF00004EB840200EB820080B2DFF880C1CDE903
:101C00000001BCF8027007EBD77C4FEA6C0CACF11A
:101C1000490CC4EB041BDC441FFA8CF3DFF85CC1F5
:101C2000BCF8008008EBD87C4FEA6C0CACF1330CAC
:101C300004EB840B0CEB8B0C1FFA8CF2DFF83CC12D
:101C4000BCF8029009EBD97C4FEA6C0CACF1140C97
:101C5000C4EB041BDC441FFA8CF1DFF820C1BCF894
:101C600000A00AEBDA7C4FEA6C0CACF1500C04EBF0
:101C7000840B0CEB8B0C1FFA8CF0FEF767FE601CDC
:101C8000C4B2052C9FDB40F2DC5001F01FFEBDE822
:101C9000FC9F0EB583A0FFF7F5FB0020102186A264
:101CA0004FF6E073CDE9002102901F221E210A2089
:101CB000FFF700FA0020102188A24FF6E073CDE96B
:101CC000002102901F2232210A20FFF7F3F90120A0
:101CD000182188A24FF6E073CDE9002102901F225F
:101CE00046210A20FFF7E6F90120202187A24FF6BE
:101CF000E073CDE9002102901F2264210A20FFF742
:101D0000D9F94FF4966001F0E1FD0EBD0EB583A048
:101D1000FFF7B8FB864A1E210846FFF76DFA01203F
:101D2000102184A24FF6E073CDE9002102901F221A
:101D30004B212A20FFF7BEF97D4A1E215A20FFF7CA
:101D40005BFA012010217BA24FF6E073CDE9002160
:101D500002901F224B216620FFF7ACF9744A1E2126
:101D60009620FFF749FA0120102172A24FF6E07386
:101D7000CDE900210290DFE0140000206000002087
:101D8000B2E2CAD4363AD3A2CEC4CFD4CABEB2E2EB
:101D9000CAD40000365831323A61626364656667BE
:101DA00068696A6B6C6D6E6F70717273747576773B
:101DB00078797A30313233343536373839000000AB
:101DC000365831323A4142434445464748494A4BE6
:101DD0004C4D4E4F505152535455565758595A30F6
:101DE0003132333435363738390000003658313225
:101DF0003A7E21402324255E262A28295F2B7B7DDD
:101E00003A3C3E3F2F7C2D2B2E00000038583136B7
:101E10003A6162636465666768696A6B6C6D6E6F70
:101E2000707172737475767778797A3031323334B1
:101E30003536373839000000385831363A41424398
:101E40004445464748494A4B4C4D4E4F50515253DA
:101E50005455565758595A3031323334353637384D
:101E600039000000385831363A7E21402324255E5F
:101E7000262A28295F2B7B7D3A3C3E3F2F7C2D2B49
:101E80002E000000B2E2CAD4353A475549205472B8
:101E900069616E676C65CCEEB3E4B2E2CAD400004F
:101EA0002E000020B2E2CAD4373AD6D0CEC4CFD466
:101EB000CABEB2E2CAD4000031365831363AC8AB95
:101EC000B6AFB5E7D7D3BCBCCAF5D3D0CFDEB9AB7C
:101ED000CBBEBBB6D3ADC4FA0000000031365831DA
:101EE000363A57656C636F6D65C8ABB6AFB5E7D76B
:101EF000D300000032345832343AC9EEDBDACAD0AB
:101F0000D6D0CEC4B2E2CAD4000000003332583377
:101F1000323AD7D6CCE5B2E2CAD40000B2E2CAD493
:101F2000383ACDBCC6ACCFD4CABEB2E2CAD40000E7
:101F300018650008515100001F224B21A220FFF715
:101F4000B9F84FF4966001F0C1FC0EBD10B588B031
:101F50000024FA4B0FCBCDE90623CDE9040100BFE5
:101F600023E0204600F006FFF5A0FFF78BFA0121E1
:101F7000102204A850F824004FF6E073CDE90121A7
:101F800000901F221E211420FFF794F8F14A3221FD
:101F90001E20FFF731F94FF47A7001F097FC4FF4EF
:101FA0007A7001F093FC601CC4B2042CD9DB0020D1
:101FB00000F0E0FE08B010BD0EB5E7A0FFF762FA32
:101FC0000120EA4900900988203988B2E8A310224C
:101FD0000221FEF74AFE4FF47840E649088060E0AF
:101FE000E54948688047E448007C00F0010000288B
:101FF00053D0E1480089DD490988884251DADE483A
:102000008089DA49498888424BDABDF808004FF6E2
:10201000FF71884207D1D8480089ADF80800D6483A
:102020008089ADF80A00D4480189D048008820385A
:1020300081421BDDD0488089122817DA4FF6FF70E5
:10204000CD4908810881C4A0FFF71CFA0120C749C7
:1020500000900988203988B2C5A310220221FEF71A
:1020600004FE4FF47840C34908800DE04FF47840F7
:102070000221C14CCDE90010A3892289BDF80A10C4
:10208000BDF80800FEF73EFABB480089ADF808002D
:10209000B9488089ADF80A0003E04FF6FF70ADF84B
:1020A00008009DE700B587B0B4A0FFF7EBF900206A
:1020B000B0490880AD480088069000EBD070401011
:1020C000323080B20490A9480088059000EBD070AF
:1020D0004010323880B25A2303902821049AFEF728
:1020E00066FA4FF47840A3490880A048008806901B
:1020F00000EBD0704010401E80B204909B480088D6
:10210000059000EBD0704010313880B25923039015
:102110002921049AFEF76BFA1F20964908809348FC
:102120000088069000EBD0704010313080B20490EF
:102130008E480088059000EBD07040105923039022
:102140002921049AFEF753FA4FF6FF708949088057
:102150000120009085480088069000EBD070401068
:10216000203880B28AA3102239210590FEF77DFD28
:1021700048F230407F4908800A2000907B48008860
:10218000069000EBD07040106E3080B2049077481B
:102190000088059000EBD07040106E3880B2A92303
:1021A00003909621049AFEF779FB4FF61F007149C0
:1021B00008800A2000906D480088069000EBD070DF
:1021C00040100A3080B2049068480088059000EB07
:1021D000D07040106E3880B2A92303909621049AE3
:1021E000FEF75CFB6148008806900120009006988D
:1021F00000EBD07040100A2340F2CF12A0210590CE
:10220000FEF733F900205B49088001200090574811
:102210000088069000EBD07040107D3880B25DA33E
:10222000102298210590FEF720FD012000904F48D4
:102230000088069000EBD0704010733080B256A337
:10224000102298210590FEF710FD4FF4784049497F
:1022500008801020009045480088069000EBD07060
:1022600040100C3880B2032332227D210590FEF706
:102270003EFD00203F490880082000903B48008830
:10228000069000EBD07040101E3080B204903748AA
:102290000088059000EBD07040101E3880B2FA2301
:1022A0000390DC21049AFEF7ACFA4AF251603149FE
:1022B0000880072000902D480088069000EBD07021
:1022C00040101D3080B2049028480088059000EB33
:1022D000D07040101D3880B2F8230390DD21049A9D
:1022E000FEF7DCFA4FF61F0022490880012000901B
:1022F0001E480088069000EBD07040100F3880B266
:1023000026A31022E3210590FEF7AFFC0120102147
:1023100024A2CDE90021029014480088069000EB29
:10232000D07040102F3880B24FF6FF734FF47842D0
:10233000C3210590FEF7BEFEFDE100009C71000880
:10234000B2E2CAD431303AC6C1C4BBD0FDD7AAB2BA
:10235000E2CAD40018650008B2E2CAD431323AB4F5
:10236000A5C3FE50454EB2E2CAD400006000002072
:10237000525354002E00002034000020B2E2CAD490
:1023800031313AB4A5C3FEB0B4BCFCB2E2CAD40049
:102390004F4E0000300000003130300045584954A5
:1023A00000000000B0B445584954BCFCCDCBB3F696
:1023B00000000000F948406806908047F748007C1C
:1023C00000F001000028B7D0F448808928287DDD7E
:1023D000F24880895A2879DAF1480088059000EBA4
:1023E000D07040103238ED490989884252DAEC4801
:1023F0000088069000EBD0704010401EE749098924
:10240000884247DD4FF47840E6490880E448008878
:10241000069000EBD0704010401E80B20490E0485F
:102420000088059000EBD0704010313880B25923FD
:1024300003902921049AFEF7DAF81F20D949088071
:10244000D7480088069000EBD0704010313080B241
:102450000490D3480088059000EBD07040105923B9
:1024600003902921049AFEF7C2F84FF6FF70CD4978
:10247000088001200090CA480088069000EBD070C8
:102480004010203880B2AFF2F803102239210590B5
:10249000FEF7EBFBC2480088059000EBD0704010BF
:1024A000BE490989884253DABD480088069000EB8E
:1024B000D07040103230B9490989884248DD1F2068
:1024C000B8490880B6480088069000E040E000EB7C
:1024D000D0704010401E80B20490B1480088059032
:1024E00000EBD0704010313880B25923039029217D
:1024F000049AFEF77CF84FF47840AA490880A8486F
:102500000088069000EBD0704010313080B204900B
:10251000A3480088059000EBD07040105923039029
:102520002921049AFEF763F84FF6FF709D49088051
:10253000012000909A480088069000EBD07040106F
:102540000D3080B298A3102239210590FEF78DFB43
:1025500093480088059000EBD070401064388F4994
:102560000989884275DC8E480088069000EBD0709F
:10257000401064308949098988426ADB874880892C
:10258000962866DD85488089A92862DA48F23040BD
:10259000844908800A20009081480088069000EB5A
:1025A000D07040106E3080B205907C4800890A38A7
:1025B00080B2A92304909621059AFEF76FF94FF691
:1025C0001F00784908800A2000907548008806900E
:1025D00000EBD07040106E3880B204906F480089D4
:1025E0000A3080B2A9230246962105900498FEF78E
:1025F00055F901200090694800890A2340F2CF1262
:10260000A0210690FDF731FF4FF47840654908801E
:1026100063480088059000EBD070401064385F4933
:102620000989081A0690102000905D4800880490DF
:1026300000EBD07040100C3880B20290069800EB8E
:10264000D0704010032302467D2103900298FEF7CC
:102650004EFB53480088059000EBD07040101E38A8
:102660004E490989884266DC4D480088069000EB97
:10267000D07040101E304949098988425BDB4748C9
:102680008089DC2857DD45488089FA2853DA4FF6DF
:10269000FF70444908800820009041480088069057
:1026A00000EBD07040101E3080B204903C4800888F
:1026B000059000EBD07040101E3880B2FA230390D2
:1026C000DC21049AFEF79DF842F612303549088065
:1026D0000720009032480088069000EBD070401030
:1026E0001D3080B204902E480088059000EBD07019
:1026F00040101D3880B2F8230390DD21049AFEF7C4
:10270000CDF848F21F402749088001200090244856
:102710000088069000EBD07040100F3880B2AFF206
:1027200084331022E3210590FEF79FFA4FF6FF70E5
:102730001A49088100E03DE600BF07B000BD10B5B2
:1027400016490868804700B110BDFFF7ABFCFFF7E2
:1027500033FC70B590B000200D900E900F902421A6
:1027600004A802F0A8F911A0FEF78CFE00F054FCBA
:102770000646324613A10DA802F010F801201021E0
:102780000DAA4FF6E073CDE9002102901F22192116
:102790003220FEF78FFC00245FE0000034000020B0
:1027A000600000202E0000204F464600B2E2CAD44E
:1027B000323AB6C14944BACDD1D5C9ABD6B5B2E2E9
:1027C000CAD4000049443A3078257800864830F869
:1027D00014008649088004EBC40000EB041000F1EB
:1027E000410304EBC40000EB04102D3081B21E2223
:1027F0000A20FDF7FCFE04EBC40000EB041000F11E
:102800003701142000F04BFA054678480088A842AA
:1028100004D177A10DA802F00BF903E075A10DA872
:1028200002F006F90DAB2A4674A104A801F0B6FF28
:102830000120102104AACDE90021029004EBC4007C
:1028400000EB04102F3081B24FF6E0736748028826
:102850002820FEF72FFC601CC4B2072CB6DB40F228
:10286000DC5001F033F810B070BD38B569A0FEF748
:1028700009FE1F205D4908806B4802F0BBF801206B
:102880006AA31022322100900F20FEF7EEF90120FA
:102890006CA31022462100900F20FEF7E6F90120DC
:1028A0006EA310225A2100900F20FEF7DEF90120BE
:1028B00070A310226E2100900F20FEF7D6F90120A0
:1028C00072A31022822100900F20FEF7CEF9012082
:1028D00074A31022962100900F20FEF7C6F9012064
:1028E00075A31022AA2100900F20FEF7BEF94FF425
:1028F00078403E490880002473E0FDF79FFC42F2D7
:10290000107190FBF1F201FB1205102005232A46FD
:10291000322100906420FEF7EAF9FDF78FFC42F2C5
:10292000107190FBF1F201FB1205102005232A46DD
:10293000462100906420FEF7DAF9FDF77FFC42F2B1
:10294000107190FBF1F201FB1205102005232A46BD
:102950005A2100906420FEF7CAF9FDF76FFC42F29D
:10296000107190FBF1F201FB1205102005232A469D
:102970006E2100906420FEF7BAF9FDF75FFC42F289
:10298000107190FBF1F201FB1205102005232A467D
:10299000822100906420FEF7AAF9FDF74FFC322156
:1029A00090FBF1F201FB1205102005232A46962127
:1029B00000906420FEF79BF9FDF740FC642190FB3A
:1029C000F1F201FB1205102005232A46AA210090EE
:1029D0006420FEF78CF94FF4FA7000F077FF601C6A
:1029E000C4B20F2C89DB38BD1E0000202E00002051
:1029F0004F4B00004552524F520000007265616417
:102A000020636F6C6F723A3078253034582020255F
:102A100073000000B2E2CAD4393AB6AFCCACCAFDFA
:102A2000D7D6CFD4CABE000040E2010020484348B8
:102A30004F3A202020202020202020202075672FA2
:102A40006D3300002020434F323A202020202020E8
:102A5000202020202070706D000000002054564F70
:102A6000433A202020202020202020202075672F7E
:102A70006D330000504D322E353A2020202020208A
:102A8000202020202075672F6D33000020504D310D
:102A9000303A202020202020202020202075672F61
:102AA0006D33000020205445503A20202020202063
:102AB0002020202020430000202048554D3A20208F
:102AC00020202020202020202025000010B50446B2
:102AD0004FF40040FE490880401008802146FD4820
:102AE00000F020FB4FF40040F949891E088010BD1A
:102AF00010B504464FF40040F54908804010891E87
:102B000008802146F34800F00DFB4FF40040F049E7
:102B1000891E088010BD10B54FF40040EC490880B4
:102B20004010891E08800021EA4800F00CFBFF21BC
:102B3000E84800F0F7FA04460121E64800F003FBFC
:102B40004FF40040E249891E0880204610BD70B550
:102B500005460C462846FFF7B9FFE0B2FFF7C8FF6D
:102B600070BD10B504462046FFF7B0FFFFF7D3FF56
:102B700010BD10B5D849087AFFF7A8FF10BD10B5F1
:102B8000D549887AFFF7A2FF10BD10B504464FF46F
:102B90000040CF4908804010891E08802112CD488E
:102BA00000F0C0FAE1B2CB4800F0BCFA4FF40040AC
:102BB000C749891E088010BD70B54FF40040C44954
:102BC000088040100880C448817AC24800F0AAFA00
:102BD0000021C04800F0B7FA4FF48040BC49891E7C
:102BE0000880FF21BB4800F09DFAFF21B94800F0A2
:102BF00099FA0446FF21B74800F094FA05460121EE
:102C0000B44800F0A0FA4FF40040B149891E088092
:102C10004FF6FF7000EA04242C43204670BD2DE9D6
:102C2000F04104460D4616461F46AB49087BFFF7A8
:102C30004DFF2012FFF75CFFE0B2FFF759FF3012A3
:102C4000FFF756FFF0B2FFF753FFA349887BFFF76A
:102C50003DFF2812FFF74CFFE8B2FFF749FF38129B
:102C6000FFF746FFF8B2FFF743FFFFF782FFBDE82B
:102C7000F08170B504460D462B4622462946204673
:102C8000FFF7CDFF70BD70B504460D4629462046BE
:102C9000FFF7EFFF91480088FFF777FF70BD70B531
:102CA00004460D4629462046FFF7E3FFFFF784FF61
:102CB0000646304670BD70B5044687484088401EC1
:102CC00083B285480088401E82B200210846FFF783
:102CD000A6FF4FF400407E4908804010891E0880FE
:102CE00000250FE0002608E021127A4800F01AFAC9
:102CF000E1B2784800F016FA761C77480088B042B6
:102D0000F2D86D1C74484088A842EBD84FF40040BC
:102D10006F49891E088070BD1CB50121022001F099
:102D2000A9F94FF47040009001208DF804000320B1
:102D30008DF8050000208DF8060001208DF80700B1
:102D4000694663481A3800F0F7FE012064490860BC
:102D50001CBD10B54FF480505D490880642000F020
:102D6000B5FD4FF480505A49891E0880322000F08A
:102D7000ADFD10BD10B504462A20574988812B208F
:102D8000C8812C2008812E2048812046E11704EBC1
:102D900091718910A4EB81014F4A9171104680799D
:102DA00030B1012810D002281AD0032830D123E0F6
:102DB0004FF4A070484908804FF4F07048804821D3
:102DC0003620FFF7C4FE24E04FF4F070424908803B
:102DD0004FF4A070488028213620FFF7B8FE18E095
:102DE0004FF4A0703C4908804FF4F070488088216F
:102DF0003620FFF7ACFE0CE04FF4F0703649088047
:102E00004FF4A0704880E8213620FFF7A0FE00E0D4
:102E100000BF00BF10BD10B500F0A8F9FFF77CFFA0
:102E2000FFF797FFF020FFF751FEC320FFF760FE8A
:102E3000F020FFF74BFE9620FFF75AFE3620FFF7F3
:102E400045FE4820FFF754FE3A20FFF73FFE0520DD
:102E5000FFF74EFEB020FFF739FE8020FFF748FE57
:102E6000B620FFF733FE0020FFF742FE0220FFF7F7
:102E70003FFEB520FFF72AFE0220FFF739FE0320B0
:102E8000FFF736FE0020FFF733FE0420FFF730FE89
:102E9000B120FFF71BFE8020FFF72AFE1020FFF76E
:102EA00027FEB420FFF712FE0020FFF721FEB72017
:102EB000FFF70CFEC620FFF71BFEC520FFF706FE3E
:102EC0001C20FFF715FEE420FFF700FE312009E08B
:102ED0001A04024000300140600000202E00002053
:102EE000B4824042FFF704FEE820FFF7EFFD4020E8
:102EF000FFF7FEFD8A20FFF7FBFD0020FFF7F8FD3E
:102F00000020FFF7F5FD2920FFF7F2FD1920FFF75C
:102F1000EFFDA520FFF7ECFD3320FFF7E9FDC22010
:102F2000FFF7D4FDA720FFF7D1FDE020FFF7CEFD8E
:102F3000F020FFF7DDFD0920FFF7DAFD1320FFF792
:102F4000D7FD1220FFF7D4FD1220FFF7D1FD2B2073
:102F5000FFF7CEFD3C20FFF7CBFD4420FFF7C8FD77
:102F60004B20FFF7C5FD1B20FFF7C2FD1820FFF720
:102F7000BFFD1720FFF7BCFD1D20FFF7B9FD212085
:102F8000FFF7B6FDE120FFF7A1FDF020FFF7B0FD50
:102F90000920FFF7ADFD1320FFF7AAFD0C20FFF776
:102FA000A7FD0D20FFF7A4FD2720FFF7A1FD3B2083
:102FB000FFF79EFD4420FFF79BFD4D20FFF798FD96
:102FC0000B20FFF795FD1720FFF792FD1720FFF765
:102FD0008FFD1D20FFF78CFD2120FFF789FDF020DC
:102FE000FFF774FD3C20FFF783FDF020FFF76EFD37
:102FF0006920FFF77DFD1320FFF768FD1120FFF723
:1030000065FD2920FFF762FD0020FFF7B3FE4FF6B4
:10301000FF70FFF750FE10BD38B500200090F02083
:10302000FFF754FDC320FFF763FDF020FFF74EFDCF
:103030009620FFF75DFD4FF40040374908800124DA
:1030400041E04FF4804034490880FB21334800F0D0
:1030500069F84FF480403049891E088004F110005F
:10306000C1B22E4800F05EF84FF480402A49088033
:10307000D3212A4800F056F80021284800F063F8D0
:103080004FF480402449891E0880FF21234800F026
:1030900049F8611E0DF801000121204800F053F8A5
:1030A0004FF480401C490880FB211C4800F03AF88E
:1030B0004FF480401849891E08800021174800F00D
:1030C00031F8601CC4B2042CBBDB4FF40040124941
:1030D000891E0880F020FFF7F9FC3C20FFF708FD6F
:1030E000F020FFF7F3FC6920FFF702FD9DF80100D7
:1030F0000B498880084680884FF6FF7101EA00205E
:1031000007498880084680889DF8021008430449D2
:1031100088800846808838BD1A040240003001408B
:1031200060000020024600BF108900F00200002865
:10313000FAD0918100BF108900F001000028FAD078
:103140009089C0B2704702884FF6C7731A40028058
:10315000012902D10288028003E0028842F01802AD
:103160000280028842F040020280704700B587B0BA
:103170000121022000F07EFF0121080300F0D4FFAE
:103180003820059002208DF8180000208DF81A00D4
:1031900003208DF8190001208DF81B0005A9204897
:1031A00000F0CAFC052203211D4800F050FD052255
:1031B00004211B4800F04BFD05221146184800F081
:1031C00046FD0121080301F004F800214FF480506E
:1031D00000F0FFFF0020ADF800004FF48270ADF862
:1031E00002000020ADF804000220ADF80600012026
:1031F000ADF808004002ADF80A000020ADF80C0060
:10320000ADF80E000720ADF810006946054801F042
:10321000D1F80121034801F0C7F907B000BD000053
:10322000000402400030014010B500F08CF908B1F4
:10323000012010BD0248034948600020F9E7000062
:10324000053600083400002010B5012000F0F6FA21
:1032500010BD1CB50121222000F00CFF01200090C0
:103260008DF8040000208DF8060003208DF805007D
:1032700001208DF807006946824800F05DFC4FF49C
:10328000006000906946804800F056FC01207F49AC
:1032900008607F49C1F8AC021CBD10B57A480068CF
:1032A00020F44000784908600846006840F4800037
:1032B00008600120774908607749C1F88002FFF76C
:1032C000C3FF002073490860FFF7BEFF002072496A
:1032D000C1F8800210BD10B56B48006820F44000B2
:1032E000694908600846006840F4800008600020D2
:1032F000664908606649C1F8AC02FFF7A5FF0120E6
:1033000062490860FFF7A0FF01206149C1F8AC02E3
:1033100010BD10B500245C48006820F440005A49F4
:10332000086008460068086001205A49086000F0FB
:1033300085FA01205849C1F8800200F07FFA07E0C1
:10334000601CC4B2FA2C03DDFFF7C5FF012010BDDD
:103350005048803800680028F2D14C49086000BF0E
:10336000F5E710B50020494908604748006820F497
:103370004000454908600846006840F48000086045
:1033800000204349C1F8AC02FFF75EFF01203F492E
:103390000860FFF759FF00203F49C1F8800210BDC7
:1033A00010B50020394908603748006820F4400013
:1033B000354908600846006840F480000860012034
:1033C0003349C1F8AC02FFF73FFF01202F490860E5
:1033D000FFF73AFF00203049C1F8800210BD70B5F8
:1033E00004462948006820F4400027490860084640
:1033F000006840F48000086000202449086000252F
:1034000011E0E009234908606006040E012022490A
:10341000C1F88002FFF718FF00201C490860FFF781
:1034200013FF681CC5B2082DEBDB70BD70B50546F7
:1034300000241548006820F440001349086008463D
:1034400000680860002613E000201049086003208F
:1034500000F0F4F901201049C1F880026006040E62
:103460000C488038006808B1601CC4B2701CC6B239
:10347000082EE9DB15B9FFF793FF01E0FFF771FFB5
:10348000204670BD00040240001402408082404289
:1034900000804242AC824242008040422DE9F0412D
:1034A00005460E4617464FF00008FFF7F6FE70205F
:1034B000FFF795FFFFF72DFFE8B2FFF790FFFFF74B
:1034C00028FF00240BE0305DFFF789FFFFF721FFA5
:1034D0008046B8F1000F00D003E0601CC4B2BC42CB
:1034E000F1DB00BFFFF7F7FE4046BDE8F0812DE9B4
:1034F000F04106460F461546FFF7CFFE7020FFF756
:103500006EFFFFF706FFF0B2FFF769FFFFF701FF5D
:10351000FFF7C3FE7120FFF762FFFFF7FAFE0024FA
:103520000BE0691EA14201D0012100E00021084604
:10353000FFF77CFF3855601CC4B2AC42F1DBFFF7EB
:10354000CAFEBDE8F0810EB50121062000F092FD13
:103550000220009000208DF804008DF80600032062
:103560008DF8050001208DF8070069469E4800F09F
:10357000E3FA2020009001208DF8040069469B4862
:1035800000F0DAFAFFF765FE0020994908600A208A
:1035900000F09CF901209749C1F894024FF4FA70A9
:1035A00000F094F9012202A9A820FFF7A0FF9DF8DE
:1035B0000800112801D001200EBD022202A99F207F
:1035C000FFF795FF9DF80800262801D00120F3E7BA
:1035D0009DF8090048B19DF80900012805D09DF823
:1035E0000900022801D00120E6E7012202A9A32058
:1035F000FFF77DFF9DF80800642801D00120DBE77C
:103600000020D9E77CB5002400267B480078401CC8
:1036100079490870084600780A2190FBF1F201FB15
:10362000120018B1744800780A287CDA0122694631
:103630000220FFF75CFF9DF80000002873D09DF882
:1036400000000328F1DA9DF80010FF208840C5B281
:10365000E843C0B240F0C00068490874002492E01A
:10366000674931F81400042201A9FFF740FF6348BD
:10367000007C0121A140084000287DD0614880796C
:1036800030B101281DD0022838D0032878D158E065
:103690009DF805009DF8041001F00F0100EB0120DA
:1036A0005649083121F814009DF807009DF80610CE
:1036B00001F00F0100EB012150480C3020F81410EC
:1036C0005EE09DF805009DF8041001F00F0100EB8D
:1036D00001204C494988081A81B248480C3020F82A
:1036E00014109DF807009DF8061001F00F0100EB83
:1036F00001204249083121F8140041E09DF80500FD
:103700009DF8041001F00F0100EB01203D490988EC
:10371000081A81B23948083020F814109DF80700C3
:103720009DF8061000E03DE001F00F0100EB0120E4
:1037300034494988081A81B230480C3020F81410F6
:103740001EE09DF805009DF8041001F00F0100EB4C
:1037500001202A490C3121F814009DF807009DF83A
:10376000061001F00F0100EB012026490988081A14
:1037700081B22248083000E003E020F8141000BFB6
:1037800000BF601CC4B2022CFFF66AAF01261B48C2
:10379000008920B91948808908B9002000900020CC
:1037A000154908709DF80000A8B91448007C00F085
:1037B000800030B11148007C20F080000F4908746F
:1037C00009E04FF6FF700D49088188810846007CAA
:1037D00000F0E000087408480078F02802DD0A20B4
:1037E0000549087030467CBD0004024000080240D4
:1037F0009402414200004142480000203400002071
:10380000AC7100086000002010B504466FF00400A1
:1038100000F0EEF8E11704EB5171C1F3C701394A2A
:1038200011701046007800EB4001C1EBC0104FF65C
:10383000FF7101EAC0003449088010BD0146314AD9
:1038400012784A434FF0E0235A6100229A611A46E7
:10385000126942F001021A6100BF4FF0E0221069C4
:1038600000F001021AB100F48032002AF5D04FF0C6
:10387000E022126922F001024FF0E0231A610022D7
:103880009A6170470146204A12884A434FF0E0236C
:103890005A6100229A611A46126942F001021A61C5
:1038A00000BF4FF0E022106900F001021AB100F4ED
:1038B0008032002AF5D04FF0E022126922F0010296
:1038C0004FF0E0231A6100229A61704770B50446F8
:1038D0004FF4077094FBF0F0C6B24FF4077094FBFE
:1038E000F0F100FB114085B205E04FF40770FFF7DF
:1038F000C9FF701EC6B2002EF7D115B12846FFF7DA
:10390000C1FF70BD4A0000204C00002009488047DC
:1039100009480047FEE7FEE7FEE7FEE7FEE7FEE7B1
:10392000FEE7FEE7FEE7FEE704480549054A064BC9
:10393000704700005113000889010008B8010020F9
:10394000B8070020B8030020B80300203249014323
:10395000324A1160704770B5002100230F22C478ED
:103960001CB32E4C246804F4E064C4F5E064C4F392
:103970000721C1F10404E3B20A4144789C40E1B25A
:103980008478144021430C07210E254C057861559D
:10399000047804F01F050124AC4005786D11AD00DA
:1039A00005F1E025C5F8004109E0047804F01F05A1
:1039B0000124AC401B4D0678761145F8264070BDB9
:1039C000194A0A400243154B1B1F1A60704739B150
:1039D000124A121D12680243104B1B1D1A6006E0AA
:1039E0000E4A121D126882430C4B1B1D1A60704751
:1039F000042808D14FF0E021096941F004014FF09B
:103A0000E022116107E04FF0E021096921F0040193
:103A10004FF0E022116170470000FA050CED00E064
:103A200000E400E080E100E080FFFF1F10B50446E5
:103A30009848844208D10121084600F086FB002105
:103A4000012000F082FB76E09348844208D10121F6
:103A5000022000F07AFB0021022000F076FB6AE0F1
:103A60008E48844208D10121042000F06EFB002121
:103A7000042000F06AFB5EE08948844208D10121FD
:103A8000082000F062FB0021082000F05EFB52E0FD
:103A90008448844208D10121102000F056FB002107
:103AA000102000F052FB46E07F48844208D10121FB
:103AB000202000F04AFB0021202000F046FB3AE0E5
:103AC0007A48844208D10121402000F03EFB0021C9
:103AD000402000F03AFB2EE07548844208D10121D5
:103AE000802000F032FB0021802000F02EFB22E03D
:103AF0007048844208D10121801500F026FB002186
:103B0000A01500F022FB16E06B48844208D1012189
:103B1000401500F01AFB0021601500F016FB0AE0CA
:103B20006648844207D10121001500F00EFB0021F8
:103B3000201500F00AFB10BDF0B50A460021002355
:103B4000002400BF3DE0012505FA01F3156805EAF0
:103B500003049C4234D105684F000326BE40B543A0
:103B6000056015794E00B540066835430560157946
:103B7000012D02D01579022D16D185684F0003263C
:103B8000BE40B543856055794E00B54086683543E3
:103B90008560456801268E40B54345604568967945
:103BA0008E40B6B235434560C5684F000326BE401F
:103BB000B543C560D5794E00B540C6683543C5608C
:103BC000491C1029BFD3F0BD4FF6FF7101600021E1
:103BD000017141718171C171704708B54FF4803234
:103BE0000092009A0A430092009AC261C161009A51
:103BF000C261C2690092C269009208BD02460020FB
:103C000013690B400BB1012000E000207047014612
:103C1000086980B270470246002053690B400BB11F
:103C2000012000E0002070470146486980B27047DB
:103C300001837047418370470AB1018300E04183EB
:103C400070474161704742694A4042617047F0B530
:103C5000002300244D07ED0E02FA05F3CE1000F10B
:103C6000200555F826504E07F70E0F26BE40B543E7
:103C7000CF1000F1200646F82750CE1000F12005A5
:103C800055F8265045EA0304CE1000F1200545F80A
:103C90002640F0BD0000024000040240000802403F
:103CA000000C0240001002400014024000180240C4
:103CB000001C024000200240002402400028024074
:103CC000F948006840F00100F74908600020F64913
:103CD00008310860F4480068F4490840F249086077
:103CE000F348091D0860F348EF4984310860F04843
:103CF0001038091D0860EC48006820F48020EA496B
:103D000008600020E8490C310860E7498C31086000
:103D100070470021E44A921C1170114608707047E8
:103D200010B501460022002300204A11012A02D1C9
:103D3000DD4C236808E0022A03D1DB4C7034236891
:103D400002E0D94C7434236801F01F02012494402E
:103D50001C400CB1012000E0002010BD38B500204F
:103D600000900024002500BF3120FFF7D9FF054651
:103D70000098401C00900098B0F5A04F01D0002D95
:103D8000F2D03120FFF7CCFF08B1012400E000247D
:103D9000204638BD01460020C34A106820F0F800D4
:103DA00040EAC10010607047C349086070470021B5
:103DB000BD4A703211701170012802D004280AD156
:103DC00004E00121B84A7032117005E00521B64ABD
:103DD0007032117000E000BF00BF7047B749086043
:103DE000704770B5049C41EA82150126C6EB530664
:103DF00045EA0645054345EA0465AB4E361D356088
:103E000070BDAD4908667047820142EA0172A64B57
:103E100084331A607047A8498866704710B58301DB
:103E200043EA016343EA02739F4C8834236010BD68
:103E3000A14908677047A049C8647047024600203E
:103E4000994B0833186820F0EC6042EA01031843EC
:103E5000954B08331860704702460020924B083398
:103E6000186820F0784042EA010318438E4B08336B
:103E700018607047014600208B4A0832106820F015
:103E8000030008431060704787480830006800F05E
:103E90000C00704701460020834A0832106820F069
:103EA000F000084310607047014600207E4A083247
:103EB000106820F4E050084310607047014600206D
:103EC000794A0832106820F4604040EAC10010606E
:103ED0007047F0B5002100220024022500260223AD
:103EE000714F08373F6807F00C0121B1042905D054
:103EF000082937D105E0724F076036E0714F07603F
:103F000033E0694F3F1D3F68C7F38056664F3F1D42
:103F10003F6807F03F036EB16A4FB7FBF3F7DFF876
:103F200088C10CF1040CDCF800C0CCF3881C07FB42
:103F30000CF40CE0624FB7FBF3F7DFF86CC10CF147
:103F4000040CDCF800C0CCF3881C07FB0CF4564FC3
:103F50003F1D3F68C7F301477F1C7D00B4FBF5F7A9
:103F6000076002E0564F076000BF00BF4E4F0837A2
:103F70003F6807F0F0010909534F7A5C0768D740A2
:103F80004760494F08373F6807F4E051890A4E4FB0
:103F90007A5C4768D7408760434F08373F6807F42B
:103FA0006041490B484F7A5C4768D740C760F0BD15
:103FB000002100F44072B2F5407F0AD13A4A08323B
:103FC000116821F4F811414A02401143364A08327F
:103FD0001160354A70321268C0F30B031A43324B3A
:103FE00070331A6070473549443908607047334967
:103FF0004039086070473649086070470146002024
:10400000294A8C32106820F01F004A1E1043264AAD
:104010008C321060704701460020234A8C321068B1
:1040200020F4F8504A1E40EA02201F4A8C321060E9
:104030007047014600201C4A8C32106820F4401062
:1040400008431060704701460020174A8C32106800
:1040500020F4400008431060704701460020124AD7
:104060008C32106820F440300843106070471949C2
:104070000860704739B10C4A3032126802430A4B6B
:1040800030331A6006E0084A303212688243064B29
:1040900030331A607047F9B1034A34321268024370
:1040A000014B34331A601CE000380240FFFFF6EA8F
:1040B000103000240030002000004742800E4742AC
:1040C0000024F40000127A004E000020FFFCFF0FD5
:1040D0005C014742E01147428F4A126882438E4B8F
:1040E0001A60704739B18C4A121D126802438A4B1C
:1040F0001B1D1A6006E0884A121D12688243864B17
:104100001B1D1A60704739B1834A0C321268024392
:10411000814B0C331A6006E07F4A0C3212688243EE
:104120007D4B0C331A60704739B17B4A10321268EC
:104130000243794B10331A6006E0774A1032126856
:104140008243754B10331A60704739B1724A243A72
:1041500012680243704B243B1A6006E06E4A243A10
:10416000126882436C4B243B1A60704739B16A4A2B
:10417000203A12680243684B203B1A6006E0664A08
:10418000203A12688243644B203B1A60704739B171
:10419000614A1C3A126802435F4B1C3B1A6006E0FE
:1041A0005D4A1C3A126882435B4B1C3B1A607047A5
:1041B00039B1594A143A12680243574B143B1A60FA
:1041C00006E0554A143A12688243534B143B1A6076
:1041D000704739B1504A103A126802434E4B103BB7
:1041E0001A6006E04C4A103A126882434A4B103B70
:1041F0001A60704739B1484A1C3212680243464B74
:104200001C331A6006E0444A1C3212688243424B57
:104210001C331A60704739B13F4A2032126802439A
:104220003D4B20331A6006E03B4A2032126882433D
:10423000394B20331A60704739B1374A243212683B
:104240000243354B24331A6006E0334A24321268A5
:104250008243314B24331A60704739B12E4A2C32D5
:10426000126802432C4B2C331A6006E02A4A2C3287
:1042700012688243284B2C331A60704739B1264AA2
:10428000303212680243244B30331A6006E0224A6F
:10429000303212688243204B30331A607047012855
:1042A00008D11D493C31096841F008011A4A3C32E5
:1042B000116007E018493C31096821F00801164AED
:1042C0003C321160704739B1134A273A12780243E1
:1042D000114B273B1A7006E00F4A273A12788243A7
:1042E0000D4B273B1A7070470B484030006840F078
:1042F0008070094940310860704701460020064A35
:10430000283A12680A400AB1012000E000207047F4
:1043100001492639087070473438024010B5044608
:10432000FB48844208D101218014FFF752FF00218D
:10433000A014FFF74EFF3CE0F648844208D101216B
:104340000014FFF735FF00212014FFF731FF30E0A4
:10435000F148844208D10121C013FFF729FF002151
:10436000E013FFF725FF24E0EC48844208D1012147
:104370004014FFF72EFF00216014FFF72AFF18E01A
:10438000E748844209D101210805FFF722FF0021F7
:104390004FF48010FFF71DFF0BE0E248844208D184
:1043A00001214805FFF715FF00214FF40010FFF72A
:1043B00010FF10BD10B50022028802F441520B8894
:1043C0004C8823438C882343CC8823430C89234384
:1043D0004C8923438C892343CC8923431A4302808D
:1043E000838B4FF2FF74234083830B8A038210BDBB
:1043F0002DE9F04F0025022300244FF0010900228F
:104400000026002794469046B0F81CA04FF2400BBF
:104410000AEA0B0AA0F81CA04FF0020AA0F820A09C
:10442000858BD1F808A0BAF1020F01D100BF82E05C
:10443000B1F804A0BAF1000F02D14FF0010901E078
:104440004FF00209DFF8E0A2DAF800A00AF4000A4F
:10445000BAF1000F09D0DFF8D0A2DAF800A02AF4F0
:10446000000ADFF8C4B2CBF800A0DFF8BCA20AF162
:104470007C0ADAF800A0CAF3881CDFF8ACA20AF1C3
:104480007C0ADAF800A0CAF30278DFF89CA2AAF14D
:10449000040ADAF800A00AF03F07DFF88CA2AAF1BC
:1044A000040ADAF800A00AF4800ABAF5800F08D1ED
:1044B000DFF878A2BAFBF7FA0AFB0CFABAFBF8F6B7
:1044C00007E0DFF86CA2BAFBF7FA0AFB0CFABAFBBA
:1044D000F8F6B1F806A0BAF5007F0ED14FEA162A19
:1044E0000AEB8A0A4FEA4A0AD1F808B0BAFBFBFA8B
:1044F0000AF1050A1FFA8AF20FE04FEA491AB6FBE1
:10450000FAFA0AEB8A0A4FEA4A0AD1F808B0BAFB6B
:10451000FBFA0AF1050A1FFA8AF24FF00A0AB2FB07
:10452000FAF202F00104A2EB040ACAF34F034FF6B9
:10453000FF7A0AEA0424022B01DBFF2B01DD0223B0
:104540000024B1F806A04AEA040A4AEA030AA0F8DD
:1045500020A0B1F804A0B1F80CB04AEA0B0AB1F8F7
:1045600002B04AEA0B0AB1F800B04AEA0B0A4AF470
:10457000006A4AEA05058583BDE8F08F00210180C5
:1045800041808180C180018141818181C181072178
:10459000018270470021018041808180C180022119
:1045A000816000218181704721B1028842F0400280
:1045B000028004E002884FF6BF731A400280704701
:1045C00021B1828B42F48062828304E0828B4FF6B9
:1045D000FF331A408283704702884FF2FF731A40FC
:1045E000028002880A4302807047B1F5804F04D1EF
:1045F000028842F48042028004E002884BF6FF7396
:104600001A40028070474FF6FF62914204D0028840
:1046100042F48072028004E002884FF6FF631A4081
:104620000280704721B1828842F00402828004E057
:1046300082884FF6FB731A408280704721B18288CE
:1046400042F01002828004E082884FF6EF731A4035
:104650008280704730B500220023848B4FF24005E2
:104660002C40848302240484828B0C88B4F5007F60
:1046700001D00C8814B94FF4807308E00C88B4F5AD
:10468000407F03D00C88B4F5807F00D100238C8854
:104690008D892C434D882C431C4344F400642243F1
:1046A000828330BD0146888970478181704721B17E
:1046B000028842F40052028004E002884DF6FF7343
:1046C0001A4002807047018841F480510180704790
:1046D00002460020012901D0108B00E0908A70472B
:1046E0000146088A70471AB183880B43838002E031
:1046F00083888B438380704730B5002400230C11DE
:104700000125A540ABB2AAB185881D43858014E080
:104710000030014000380040003C004000340140BF
:1047200000500140005401400838024000127A0055
:104730000024F40085889D43858030BD024600201A
:1047400013890B400BB1012000E000207047CA43E1
:1047500002817047F0B502460020002400230025A6
:1047600001F00F070126BE40B4B20B1101269E4096
:10477000B3B2968806EA03051689264016B10DB134
:10478000012000E00020F0BD10B5002201F00F0470
:104790000123A3409AB2D343038110BD0FB41CB5CB
:1047A000074B06AA7B4469460090059800F00BFA77
:1047B0000020694600F01AFA1CBC5DF814FB0000EA
:1047C0004504000070B5044685690068C10601D53E
:1047D000302600E02026C00707D070BDD4E90121B3
:1047E00030469047206A401C20626D1EF6D570BD91
:1047F00070B5044685690078C00707D170BDD4E95B
:10480000012120209047206A401C20626D1EF6D5B1
:1048100070BD70B50C460546012A05D02878800683
:1048200000D5EA69002302E0012305E05B1C934206
:1048300002D2E05C0028F9D1A869E618C01AA86184
:10484000286A184428622846FFF7BCFF04E0D5E92F
:10485000012114F8010B9047B442F8D32846FFF722
:10486000C7FF70BD70B504460D4621461068AFF312
:1048700000802188090502D50F4A7A4402E00E4AD9
:104880007A440E32002104F1240305E000F00F0603
:104890000009965D5E54491C0028F7D1207800235A
:1048A000000704D5702D02D009B102231132204631
:1048B000BDE8704000F029B9322900002DE9F05F11
:1048C000894604464FF0000ADFF824B1FB44C0F8E3
:1048D00020A02046E168884700287DD0252806D002
:1048E000D4E901219047206A401C2062F1E70025AD
:1048F0005F462046E16888472028064607DB312EC0
:1049000005D2B81910F8200C08B10543F1E7A80743
:1049100001D525F00405C4F81CA00027C4F818A090
:104920002A2E09D0304600F0B7F938B304EB8708D7
:10493000303EC8F8186019E059F8041B204604EB13
:1049400087029161E1688847012F064618D1E06926
:10495000002820DA25F020051DE0D8F8180000EB2B
:10496000800006EB40003038C8F818002046E168A7
:104970008847064600F090F90028EED1012F0AD0B2
:104980002E2E08D12046E16888477F1C0646022F5C
:1049900045F02005C4DBA069002803DA404245F059
:1049A0000105A061E80701D025F01005A6B1A6F128
:1049B0004100192802D8203645F400654A463146A0
:1049C000204625604D46FBF719FC60B1012807D051
:1049D000ED1D25F0070000E007E000F1080978E789
:1049E00005F1040975E730467AE7206ABDE8F09FD3
:1049F000082900000B4910B5A1F17C020A4CC2E95C
:104A00003712372106E000EB104342F82130074B04
:104A100000FB03400B1EA1F10101F4DC10BD0120DD
:104A2000E8E70000EC000020E119D666CD0D01009A
:104A300040EA0103024630B59B0710D14FF0013424
:104A400000E008C208C91D1B9D4315EAC41FF8D029
:104A500013F0FF0102F8011B0DD01B0AF8E711F853
:104A6000013B002B02F8013B05D011F8013B002B64
:104A700002F8013BF3D130BD10B5431C02E010F841
:104A8000011B71B18107FAD14FF0013202C88C1AB3
:104A90008C4314EAC211F9D0C01A0A0603D0C01E12
:104AA00010BDC01A10BD0A0401D0801E10BD09023D
:104AB000FCD0401E10BD4FF0000200B513469446D6
:104AC0009646203922BFA0E80C50A0E80C50B1F166
:104AD0002001BFF4F7AF090728BFA0E80C5048BF7A
:104AE0000CC05DF804EB890028BF40F8042B08BF18
:104AF000704748BF20F8022B11F0804F18BF00F814
:104B0000012B70477047704770472DE9F0470D46FD
:104B100099469246044600F124080168880604D5A7
:104B2000E06921F01001216000E00120A84201DDD0
:104B3000471B00E00027A1697A1902EB0900081A57
:104B4000A0612078C00602D42046FFF73BFE002675
:104B500008E0D4E901211AF806009047206A401CB9
:104B6000761C20624E45F4DB2078C0060AD520462C
:104B7000FFF728FE06E0D4E9012130209047206AA3
:104B8000401C2062381EA7F10107F4DC07E0D4E9DD
:104B9000012118F805009047206A401C2062281E59
:104BA000A5F10105F3DC2046FFF722FE2078000680
:104BB00002D50220BDE8F0870120FBE701694A1C0D
:104BC00002610878704700B58FB0CDE9013100214E
:104BD000059105497944CDE9031011466846FFF770
:104BE0006DFE0FB000BD0000E5FFFFFF0A6802F890
:104BF000010B0A60704710B5436913B1AFF3008031
:104C000001E0FFF706FE012010BD127800F124013B
:104C10000A7000224A700122EDE711684FF0FF325E
:104C2000E9E7754600F02CF8AE46050069465346A4
:104C300020F00700854618B020B5FEF775FEBDE8E8
:104C400020404FF000064FF000074FF000084FF0F3
:104C5000000B21F00701AC46ACE8C009ACE8C00984
:104C6000ACE8C009ACE8C0098D46704710B50446F1
:104C7000AFF300802046BDE81040FBF7D8BA000033
:104C80000048704754010020704700000149182077
:104C9000ABBEFEE72600020030380A2801D2012010
:104CA0007047002070474FF04070E1EE100A7047E7
:104CB00000000000000000000000000000000404EC
:104CC000040404040004000000140A0A00000000A8
:104CD00000000000000014143F140A3F0A0A0000FC
:104CE00000041E1505060C14150F04000000121513
:104CF0000D0A142C2A1200000000040A0A1E1515C1
:104D0000093600000002020100000000000000005F
:104D100000201008080808080810200000020408F5
:104D2000080808080804020000000004150E0E150B
:104D30000400000000000404041F04040400000038
:104D4000000000000000000000020201000000005E
:104D5000001F000000000000000000000000000034
:104D6000000200000010080808040402020201000A
:104D700000000E1111111111110E000000000406A7
:104D800004040404040E000000000E1111080402C3
:104D9000011F000000000E11100C1010110E000079
:104DA0000000080C0A0A091E0818000000001F0174
:104DB000010F1010110E000000000E09010F11115B
:104DC000110E000000001F09080404040404000080
:104DD00000000E11110E1111110E000000000E1135
:104DE00011111E10120E000000000000040000004F
:104DF00000040000000000000004000000040400A3
:104E00000020100804020408102000000000000028
:104E10001F00001F000000000002040810201008FE
:104E20000402000000000E11110804040004000038
:104E300000000E111915151D011E000000000404CC
:104E40000C0A0A1E1233000000000F12120E12127A
:104E5000120F000000001E1101010101110E0000DF
:104E600000000F1212121212120F000000001F1287
:104E70000A0E0A02121F000000001F120A0E0A0288
:104E80000207000000001C1201013911120C000081
:104E900000003312121E12121233000000001F0411
:104EA00004040404041F000000003E080808080869
:104EB00008090700000037120A060A0A1237000024
:104EC0000000070202020202223F000000001B1B3A
:104ED0001B1B15151515000000003B1216161A1A9B
:104EE0001217000000000E1111111111110E000017
:104EF00000000F12120E02020207000000000E1145
:104F000011111117190E180000000F12120E0A12BB
:104F10001237000000001E1101060810110F0000DA
:104F200000001F1504040404040E000000003312E6
:104F300012121212120C000000003312120A0A0C94
:104F40000404000000001515150E0A0A0A0A0000E4
:104F500000001B0A0A04040A0A1B000000001B0AC6
:104F60000A040404040E000000001F0908040402DF
:104F7000121F0000001C04040404040404041C00A8
:104F8000000202020404080808100000000E0808CD
:104F90000808080808080E0000040A0000000000C5
:104FA0000000000000000000000000000000003FC2
:104FB00000040000000000000000000000000000ED
:104FC000000C121C123C000000000302020E121220
:104FD000120E000000000000001C1202021C000063
:104FE00000001810101C1212123C000000000000FB
:104FF000000C121E021C000000003804041E0404F1
:10500000041E000000000000003C120C021E221CC6
:1050100000000302020E121212370000000004000A
:1050200000060404040E000000000800000C08083C
:105030000808080700000302023A0A0E12370000AF
:105040000000070404040404041F00000000000022
:10505000000F15151515000000000000000F1212BA
:105060001237000000000000000C1212120C0000A9
:1050700000000000000F1212120E020700000000D4
:10508000001C1212121C103800000000001B060247
:105090000207000000000000001E020C101E0000AD
:1050A00000000004040E04040418000000000000C6
:1050B000001B1212123C0000000000000037120A10
:1050C0000C040000000000000015150E0A0A000084
:1050D00000000000001B0A040A1B00000000000082
:1050E0000037120A0C04040300000000001E08042C
:1050F000041E000000180808080408080808180022
:105100000808080808080808080808080006040431
:10511000040804040404060002251800000000002E
:10512000000000000000000000000000000000007F
:105130000000000000000008080808080808000037
:105140001818000000486C24120000000000000045
:10515000000000000000002424247F1212127F129D
:10516000121200000000081C2A2A0A0C1828282AFB
:105170002A1C080800000022251515152A58545429
:10518000542200000000000C1212120A7625291188
:10519000916E0000000606040300000000000000FD
:1051A000000000000040201010080808080808103F
:1051B0001020400000020408081010101010100801
:1051C000080402000000000008086B1C1C6B0808A3
:1051D0000000000000000000080808087F08080818
:1051E00008000000000000000000000000000000B7
:1051F000060604030000000000000000FE0000009E
:10520000000000000000000000000000000000009E
:10521000060600000000804040202010100808040E
:10522000040202000000001824424242424242426C
:1052300024180000000000080E08080808080808E4
:10524000083E00000000003C4242422020100804BA
:10525000427E00000000003C4242201820404042B4
:10526000221C0000000000203028242422227E205E
:10527000207800000000007E0202021A2640404210
:10528000221C0000000000382402021A264242427A
:10529000241800000000007E2222101008080808D0
:1052A000080800000000003C424242241824424208
:1052B000423C000000000018244242426458404032
:1052C000241C00000000000000001818000000006E
:1052D0001818000000000000000000080000000096
:1052E0000008080400000040201008040204081010
:1052F000204000000000000000007F0000007F0050
:1053000000000000000000020408102040201008E7
:10531000040200000000003C424246402010100001
:10532000181800000000001C225A555555552D42F2
:10533000221C00000000000808181414243C22421B
:1053400042E700000000001F2222221E22424242A9
:10535000221F00000000007C4242010101010142C5
:10536000221C00000000001F2242424242424242F0
:10537000221F00000000003F4212121E12120242C1
:10538000423F00000000003F4212121E12120202B1
:10539000020700000000003C2222010101712122CD
:1053A000221C0000000000E7424242427E4242428C
:1053B00042E700000000003E080808080808080846
:1053C000083E00000000007C10101010101010109B
:1053D0001010110F0000007722120A0E0A1212227A
:1053E000227700000000000702020202020202020D
:1053F000427F000000000077363636362A2A2A2AF5
:105400002A6B0000000000E346464A4A52525262AC
:10541000624700000000001C2241414141414141DE
:10542000221C00000000003F424242423E020202B3
:10543000020700000000001C2241414141414D5340
:10544000321C60000000003F4242423E1212222203
:1054500042C700000000007C424202041820404283
:10546000423E00000000007F4908080808080808BC
:10547000081C0000000000E7424242424242424211
:10548000423C0000000000E7424222242414141889
:10549000080800000000006B49494949555536226B
:1054A00022220000000000E74224241818182424B7
:1054B00042E70000000000772222141408080808C0
:1054C000081C00000000007E212010100804044287
:1054D000423F000000780808080808080808080883
:1054E00008087800000002020404080808101020D0
:1054F00020204040001E101010101010101010102E
:1055000010101E00003844000000000000000000E1
:10551000000000000000000000000000000000008B
:10552000000000FF0006080000000000000000006E
:1055300000000000000000000000003C42784442EF
:1055400042FC0000000000030202021A264242420E
:10555000261A000000000000000000384402020289
:10556000443800000000006040404078444242421D
:1055700064D80000000000000000003C427E0202EF
:10558000423C0000000000F08808087E0808080877
:10559000083E0000000000000000007C22221C02E7
:1055A0003C42423C000000030202023A46424242B0
:1055B00042E700000000000C0C00000E080808087C
:1055C000083E00000000003030000038202020207D
:1055D0002020221E0000000302020272120A16128C
:1055E000227700000000000E0808080808080808D4
:1055F000083E0000000000000000007F929292929E
:1056000092B70000000000000000003B464242420A
:1056100042E70000000000000000003C424242421D
:10562000423C0000000000000000001B26424242F5
:10563000221E02070000000000000078444242429F
:10564000447840E000000000000000774C040404AF
:10565000041F0000000000000000007C42023C40EB
:10566000423E0000000000000008083E080808084C
:105670000830000000000000000000634242424287
:1056800062DC000000000000000000E74224241457
:105690000808000000000000000000EB49495555D3
:1056A00022220000000000000000007624181818D4
:1056B000246E000000000000000000E742242414D3
:1056C00018080807000000000000007E22100808EB
:1056D000447E000000C02020202020102020202018
:1056E0002020C000101010101010101010101010FA
:1056F000101010100006080808080810080808080C
:10570000080806000C32C200000000000000000083
:1057100000000000C9EE000027FC140414A481104E
:1057200042084040104017FC2040E0E02150224851
:105730002C4620400040DBDA1104112411241124EE
:105740001124FD24112411241124112411241D24B9
:10575000E124422402040404CAD002000100000033
:105760007FFC0100010001003FF821082108210809
:1057700021082128211001000100C8AB0000000011
:10578000018002400430180860061FF90100010082
:1057900001003FF80100010001007FFEB6AF0000EC
:1057A000000000203E20007C002200227F221022E8
:1057B000102212221222224223423D82009CB5E78F
:1057C0000000010001001FF0610C410441047FFC56
:1057D0004104410441047FFC01000102010201FC7B
:1057E000D7D3000000003FF80010006000800100E7
:1057F00000807FFE00400040002000200020184074
:105800000780BCBC10201020102013FEFC201020AC
:10581000102015FC18843088D048105010201050EB
:1058200051882606CAF501000120011001107FFCF5
:105830000380054005400920111021084104810220
:10584000010001000100D3D002000200FFFE0400AD
:1058500004000FF0081018102FF0481088100FF0F7
:105860000810081008500820CFDE00007BF84A0816
:10587000520853F8620852084BF84A444A486A30C2
:1058800052204210428843064200B9AB0080048097
:1058900004800840084010202010420882060400BE
:1058A0000440082010203FF010100000CBBE000084
:1058B0003FF8000800087FE8000800081F881088EB
:1058C0001088108810881F88108800280010BBB628
:1058D00000800080FC8004FC050449082A40144034
:1058E000104028A024A045108110020804040802DA
:1058F000D3AD00002080133C122402240224F224A1
:105900001224122412B4132812201020282047FE3B
:105910000000C4FA0900090011FC320454489950EF
:1059200011481244144411401080020051045112D5
:1059300090120FF0B4BF00000020102013FE2020B2
:1059400026244A247A241224222423FC7C200022A8
:1059500004227822003CC9AB0000000004000FF0D4
:10596000102020207FFC20842084208420843FF885
:105970002000200220021FFECCEE0000000020408C
:1059800023FE204079FC220423FC220423FC220471
:1059900023FC3A0465FA01980204B3E40000010014
:1059A00001007FFE02200410040808043FFC0442AA
:1059B00004400440044208421042607EBED8000009
:1059C0000000207E3E804880488048FE48827F82DA
:1059D00008820C8214FA12842280218040FED0CEEC
:1059E000000000007F842208223022C0220222040C
:1059F0007FC8223022C222022204220822304040E4
:105A0000BBAD000000007FFE00000FF01110111070
:105A1000111051125FF25112511251124FF2400205
:105A20007FFCD4B2000000007FFE47E2481248121B
:105A300047E24FF2501250125112511242924472E8
:105A4000580A3FFCCDBC000000003FFE440247F274
:105A50004C225362408243625E1A4182406243029A
:105A600040C240223FFCC6AC000000402040204025
:105A700020403FFE2000200020003FE020102010AA
:105A80002010201040104010CFD4000000003FFC38
:105A9000200420043FFC200420041FF82444144860
:105AA000144814480C5004407FFECABE0000000099
:105AB0003FFC0000000000007FFE00800890088886
:105AC000108810842084208240820780B2CB00009E
:105AD000002008207FFE002000783F8811080890F1
